{
	"contracts/crowdFunding.sol": {
		"crowdFunding": {
			"abi": [
				{
					"inputs": [
						{
							"internalType": "string",
							"name": "name",
							"type": "string"
						},
						{
							"internalType": "string",
							"name": "description",
							"type": "string"
						},
						{
							"internalType": "uint256",
							"name": "goal",
							"type": "uint256"
						},
						{
							"internalType": "uint256",
							"name": "durationInDays",
							"type": "uint256"
						}
					],
					"stateMutability": "nonpayable",
					"type": "constructor"
				},
				{
					"inputs": [
						{
							"internalType": "string",
							"name": "name",
							"type": "string"
						},
						{
							"internalType": "uint256",
							"name": "amount",
							"type": "uint256"
						}
					],
					"name": "addTier",
					"outputs": [],
					"stateMutability": "nonpayable",
					"type": "function"
				},
				{
					"inputs": [],
					"name": "campaign_deadline",
					"outputs": [
						{
							"internalType": "uint256",
							"name": "",
							"type": "uint256"
						}
					],
					"stateMutability": "view",
					"type": "function"
				},
				{
					"inputs": [],
					"name": "campaign_description",
					"outputs": [
						{
							"internalType": "string",
							"name": "",
							"type": "string"
						}
					],
					"stateMutability": "view",
					"type": "function"
				},
				{
					"inputs": [],
					"name": "campaign_name",
					"outputs": [
						{
							"internalType": "string",
							"name": "",
							"type": "string"
						}
					],
					"stateMutability": "view",
					"type": "function"
				},
				{
					"inputs": [],
					"name": "campaign_owner",
					"outputs": [
						{
							"internalType": "address",
							"name": "",
							"type": "address"
						}
					],
					"stateMutability": "view",
					"type": "function"
				},
				{
					"inputs": [
						{
							"internalType": "uint256",
							"name": "tierIndex",
							"type": "uint256"
						}
					],
					"name": "fund",
					"outputs": [],
					"stateMutability": "payable",
					"type": "function"
				},
				{
					"inputs": [],
					"name": "getContractBalance",
					"outputs": [
						{
							"internalType": "uint256",
							"name": "",
							"type": "uint256"
						}
					],
					"stateMutability": "view",
					"type": "function"
				},
				{
					"inputs": [],
					"name": "goal_amount",
					"outputs": [
						{
							"internalType": "uint256",
							"name": "",
							"type": "uint256"
						}
					],
					"stateMutability": "view",
					"type": "function"
				},
				{
					"inputs": [
						{
							"internalType": "uint256",
							"name": "index",
							"type": "uint256"
						}
					],
					"name": "removeTier",
					"outputs": [],
					"stateMutability": "nonpayable",
					"type": "function"
				},
				{
					"inputs": [
						{
							"internalType": "uint256",
							"name": "",
							"type": "uint256"
						}
					],
					"name": "tiers",
					"outputs": [
						{
							"internalType": "string",
							"name": "tier_name",
							"type": "string"
						},
						{
							"internalType": "uint256",
							"name": "amount",
							"type": "uint256"
						},
						{
							"internalType": "uint256",
							"name": "backers",
							"type": "uint256"
						}
					],
					"stateMutability": "view",
					"type": "function"
				},
				{
					"inputs": [],
					"name": "withdraw",
					"outputs": [],
					"stateMutability": "nonpayable",
					"type": "function"
				}
			],
			"devdoc": {
				"kind": "dev",
				"methods": {},
				"version": 1
			},
			"evm": {
				"assembly": "    /* \"contracts/crowdFunding.sol\":61:1946  contract crowdFunding{... */\n  mstore(0x40, 0x80)\n    /* \"contracts/crowdFunding.sol\":524:831  constructor(string memory name, string memory description, uint256 goal, uint256 durationInDays){... */\n  callvalue\n  dup1\n  iszero\n  tag_1\n  jumpi\n  0x00\n  dup1\n  revert\ntag_1:\n  pop\n  mload(0x40)\n  sub(codesize, bytecodeSize)\n  dup1\n  bytecodeSize\n  dup4\n  codecopy\n  dup2\n  dup2\n  add\n  0x40\n  mstore\n  dup2\n  add\n  swap1\n  tag_2\n  swap2\n  swap1\n  tag_3\n  jump\t// in\ntag_2:\n    /* \"contracts/crowdFunding.sol\":645:649  name */\n  dup4\n    /* \"contracts/crowdFunding.sol\":631:644  campaign_name */\n  0x00\n    /* \"contracts/crowdFunding.sol\":631:649  campaign_name=name */\n  swap1\n  dup2\n  tag_6\n  swap2\n  swap1\n  tag_7\n  jump\t// in\ntag_6:\n  pop\n    /* \"contracts/crowdFunding.sol\":681:692  description */\n  dup3\n    /* \"contracts/crowdFunding.sol\":660:680  campaign_description */\n  0x01\n    /* \"contracts/crowdFunding.sol\":660:692  campaign_description=description */\n  swap1\n  dup2\n  tag_8\n  swap2\n  swap1\n  tag_7\n  jump\t// in\ntag_8:\n  pop\n    /* \"contracts/crowdFunding.sol\":715:719  goal */\n  dup2\n    /* \"contracts/crowdFunding.sol\":703:714  goal_amount */\n  0x02\n    /* \"contracts/crowdFunding.sol\":703:719  goal_amount=goal */\n  dup2\n  swap1\n  sstore\n  pop\n    /* \"contracts/crowdFunding.sol\":780:786  1 days */\n  0x015180\n    /* \"contracts/crowdFunding.sol\":765:779  durationInDays */\n  dup2\n    /* \"contracts/crowdFunding.sol\":765:786  durationInDays*1 days */\n  tag_9\n  swap2\n  swap1\n  tag_10\n  jump\t// in\ntag_9:\n    /* \"contracts/crowdFunding.sol\":748:763  block.timestamp */\n  timestamp\n    /* \"contracts/crowdFunding.sol\":748:787  block.timestamp+(durationInDays*1 days) */\n  tag_11\n  swap2\n  swap1\n  tag_12\n  jump\t// in\ntag_11:\n    /* \"contracts/crowdFunding.sol\":730:747  campaign_deadline */\n  0x03\n    /* \"contracts/crowdFunding.sol\":730:787  campaign_deadline=block.timestamp+(durationInDays*1 days) */\n  dup2\n  swap1\n  sstore\n  pop\n    /* \"contracts/crowdFunding.sol\":813:823  msg.sender */\n  caller\n    /* \"contracts/crowdFunding.sol\":798:812  campaign_owner */\n  0x04\n  0x00\n    /* \"contracts/crowdFunding.sol\":798:823  campaign_owner=msg.sender */\n  0x0100\n  exp\n  dup2\n  sload\n  dup2\n  0xffffffffffffffffffffffffffffffffffffffff\n  mul\n  not\n  and\n  swap1\n  dup4\n  0xffffffffffffffffffffffffffffffffffffffff\n  and\n  mul\n  or\n  swap1\n  sstore\n  pop\n    /* \"contracts/crowdFunding.sol\":524:831  constructor(string memory name, string memory description, uint256 goal, uint256 durationInDays){... */\n  pop\n  pop\n  pop\n  pop\n    /* \"contracts/crowdFunding.sol\":61:1946  contract crowdFunding{... */\n  jump(tag_13)\n    /* \"#utility.yul\":7:82   */\ntag_14:\n    /* \"#utility.yul\":40:46   */\n  0x00\n    /* \"#utility.yul\":73:75   */\n  0x40\n    /* \"#utility.yul\":67:76   */\n  mload\n    /* \"#utility.yul\":57:76   */\n  swap1\n  pop\n    /* \"#utility.yul\":7:82   */\n  swap1\n  jump\t// out\n    /* \"#utility.yul\":88:205   */\ntag_15:\n    /* \"#utility.yul\":197:198   */\n  0x00\n    /* \"#utility.yul\":194:195   */\n  dup1\n    /* \"#utility.yul\":187:199   */\n  revert\n    /* \"#utility.yul\":211:328   */\ntag_16:\n    /* \"#utility.yul\":320:321   */\n  0x00\n    /* \"#utility.yul\":317:318   */\n  dup1\n    /* \"#utility.yul\":310:322   */\n  revert\n    /* \"#utility.yul\":334:451   */\ntag_17:\n    /* \"#utility.yul\":443:444   */\n  0x00\n    /* \"#utility.yul\":440:441   */\n  dup1\n    /* \"#utility.yul\":433:445   */\n  revert\n    /* \"#utility.yul\":457:574   */\ntag_18:\n    /* \"#utility.yul\":566:567   */\n  0x00\n    /* \"#utility.yul\":563:564   */\n  dup1\n    /* \"#utility.yul\":556:568   */\n  revert\n    /* \"#utility.yul\":580:682   */\ntag_19:\n    /* \"#utility.yul\":621:627   */\n  0x00\n    /* \"#utility.yul\":672:674   */\n  0x1f\n    /* \"#utility.yul\":668:675   */\n  not\n    /* \"#utility.yul\":663:665   */\n  0x1f\n    /* \"#utility.yul\":656:661   */\n  dup4\n    /* \"#utility.yul\":652:666   */\n  add\n    /* \"#utility.yul\":648:676   */\n  and\n    /* \"#utility.yul\":638:676   */\n  swap1\n  pop\n    /* \"#utility.yul\":580:682   */\n  swap2\n  swap1\n  pop\n  jump\t// out\n    /* \"#utility.yul\":688:868   */\ntag_20:\n    /* \"#utility.yul\":736:813   */\n  0x4e487b7100000000000000000000000000000000000000000000000000000000\n    /* \"#utility.yul\":733:734   */\n  0x00\n    /* \"#utility.yul\":726:814   */\n  mstore\n    /* \"#utility.yul\":833:837   */\n  0x41\n    /* \"#utility.yul\":830:831   */\n  0x04\n    /* \"#utility.yul\":823:838   */\n  mstore\n    /* \"#utility.yul\":857:861   */\n  0x24\n    /* \"#utility.yul\":854:855   */\n  0x00\n    /* \"#utility.yul\":847:862   */\n  revert\n    /* \"#utility.yul\":874:1155   */\ntag_21:\n    /* \"#utility.yul\":957:984   */\n  tag_58\n    /* \"#utility.yul\":979:983   */\n  dup3\n    /* \"#utility.yul\":957:984   */\n  tag_19\n  jump\t// in\ntag_58:\n    /* \"#utility.yul\":949:955   */\n  dup2\n    /* \"#utility.yul\":945:985   */\n  add\n    /* \"#utility.yul\":1087:1093   */\n  dup2\n    /* \"#utility.yul\":1075:1085   */\n  dup2\n    /* \"#utility.yul\":1072:1094   */\n  lt\n    /* \"#utility.yul\":1051:1069   */\n  0xffffffffffffffff\n    /* \"#utility.yul\":1039:1049   */\n  dup3\n    /* \"#utility.yul\":1036:1070   */\n  gt\n    /* \"#utility.yul\":1033:1095   */\n  or\n    /* \"#utility.yul\":1030:1118   */\n  iszero\n  tag_59\n  jumpi\n    /* \"#utility.yul\":1098:1116   */\n  tag_60\n  tag_20\n  jump\t// in\ntag_60:\n    /* \"#utility.yul\":1030:1118   */\ntag_59:\n    /* \"#utility.yul\":1138:1148   */\n  dup1\n    /* \"#utility.yul\":1134:1136   */\n  0x40\n    /* \"#utility.yul\":1127:1149   */\n  mstore\n    /* \"#utility.yul\":917:1155   */\n  pop\n    /* \"#utility.yul\":874:1155   */\n  pop\n  pop\n  jump\t// out\n    /* \"#utility.yul\":1161:1290   */\ntag_22:\n    /* \"#utility.yul\":1195:1201   */\n  0x00\n    /* \"#utility.yul\":1222:1242   */\n  tag_62\n  tag_14\n  jump\t// in\ntag_62:\n    /* \"#utility.yul\":1212:1242   */\n  swap1\n  pop\n    /* \"#utility.yul\":1251:1284   */\n  tag_63\n    /* \"#utility.yul\":1279:1283   */\n  dup3\n    /* \"#utility.yul\":1271:1277   */\n  dup3\n    /* \"#utility.yul\":1251:1284   */\n  tag_21\n  jump\t// in\ntag_63:\n    /* \"#utility.yul\":1161:1290   */\n  swap2\n  swap1\n  pop\n  jump\t// out\n    /* \"#utility.yul\":1296:1604   */\ntag_23:\n    /* \"#utility.yul\":1358:1362   */\n  0x00\n    /* \"#utility.yul\":1448:1466   */\n  0xffffffffffffffff\n    /* \"#utility.yul\":1440:1446   */\n  dup3\n    /* \"#utility.yul\":1437:1467   */\n  gt\n    /* \"#utility.yul\":1434:1490   */\n  iszero\n  tag_65\n  jumpi\n    /* \"#utility.yul\":1470:1488   */\n  tag_66\n  tag_20\n  jump\t// in\ntag_66:\n    /* \"#utility.yul\":1434:1490   */\ntag_65:\n    /* \"#utility.yul\":1508:1537   */\n  tag_67\n    /* \"#utility.yul\":1530:1536   */\n  dup3\n    /* \"#utility.yul\":1508:1537   */\n  tag_19\n  jump\t// in\ntag_67:\n    /* \"#utility.yul\":1500:1537   */\n  swap1\n  pop\n    /* \"#utility.yul\":1592:1596   */\n  0x20\n    /* \"#utility.yul\":1586:1590   */\n  dup2\n    /* \"#utility.yul\":1582:1597   */\n  add\n    /* \"#utility.yul\":1574:1597   */\n  swap1\n  pop\n    /* \"#utility.yul\":1296:1604   */\n  swap2\n  swap1\n  pop\n  jump\t// out\n    /* \"#utility.yul\":1610:1749   */\ntag_24:\n    /* \"#utility.yul\":1699:1705   */\n  dup3\n    /* \"#utility.yul\":1694:1697   */\n  dup2\n    /* \"#utility.yul\":1689:1692   */\n  dup4\n    /* \"#utility.yul\":1683:1706   */\n  mcopy\n    /* \"#utility.yul\":1740:1741   */\n  0x00\n    /* \"#utility.yul\":1731:1737   */\n  dup4\n    /* \"#utility.yul\":1726:1729   */\n  dup4\n    /* \"#utility.yul\":1722:1738   */\n  add\n    /* \"#utility.yul\":1715:1742   */\n  mstore\n    /* \"#utility.yul\":1610:1749   */\n  pop\n  pop\n  pop\n  jump\t// out\n    /* \"#utility.yul\":1755:2189   */\ntag_25:\n    /* \"#utility.yul\":1844:1849   */\n  0x00\n    /* \"#utility.yul\":1869:1935   */\n  tag_70\n    /* \"#utility.yul\":1885:1934   */\n  tag_71\n    /* \"#utility.yul\":1927:1933   */\n  dup5\n    /* \"#utility.yul\":1885:1934   */\n  tag_23\n  jump\t// in\ntag_71:\n    /* \"#utility.yul\":1869:1935   */\n  tag_22\n  jump\t// in\ntag_70:\n    /* \"#utility.yul\":1860:1935   */\n  swap1\n  pop\n    /* \"#utility.yul\":1958:1964   */\n  dup3\n    /* \"#utility.yul\":1951:1956   */\n  dup2\n    /* \"#utility.yul\":1944:1965   */\n  mstore\n    /* \"#utility.yul\":1996:2000   */\n  0x20\n    /* \"#utility.yul\":1989:1994   */\n  dup2\n    /* \"#utility.yul\":1985:2001   */\n  add\n    /* \"#utility.yul\":2034:2037   */\n  dup5\n    /* \"#utility.yul\":2025:2031   */\n  dup5\n    /* \"#utility.yul\":2020:2023   */\n  dup5\n    /* \"#utility.yul\":2016:2032   */\n  add\n    /* \"#utility.yul\":2013:2038   */\n  gt\n    /* \"#utility.yul\":2010:2122   */\n  iszero\n  tag_72\n  jumpi\n    /* \"#utility.yul\":2041:2120   */\n  tag_73\n  tag_18\n  jump\t// in\ntag_73:\n    /* \"#utility.yul\":2010:2122   */\ntag_72:\n    /* \"#utility.yul\":2131:2183   */\n  tag_74\n    /* \"#utility.yul\":2176:2182   */\n  dup5\n    /* \"#utility.yul\":2171:2174   */\n  dup3\n    /* \"#utility.yul\":2166:2169   */\n  dup6\n    /* \"#utility.yul\":2131:2183   */\n  tag_24\n  jump\t// in\ntag_74:\n    /* \"#utility.yul\":1850:2189   */\n  pop\n    /* \"#utility.yul\":1755:2189   */\n  swap4\n  swap3\n  pop\n  pop\n  pop\n  jump\t// out\n    /* \"#utility.yul\":2209:2564   */\ntag_26:\n    /* \"#utility.yul\":2276:2281   */\n  0x00\n    /* \"#utility.yul\":2325:2328   */\n  dup3\n    /* \"#utility.yul\":2318:2322   */\n  0x1f\n    /* \"#utility.yul\":2310:2316   */\n  dup4\n    /* \"#utility.yul\":2306:2323   */\n  add\n    /* \"#utility.yul\":2302:2329   */\n  slt\n    /* \"#utility.yul\":2292:2414   */\n  tag_76\n  jumpi\n    /* \"#utility.yul\":2333:2412   */\n  tag_77\n  tag_17\n  jump\t// in\ntag_77:\n    /* \"#utility.yul\":2292:2414   */\ntag_76:\n    /* \"#utility.yul\":2443:2449   */\n  dup2\n    /* \"#utility.yul\":2437:2450   */\n  mload\n    /* \"#utility.yul\":2468:2558   */\n  tag_78\n    /* \"#utility.yul\":2554:2557   */\n  dup5\n    /* \"#utility.yul\":2546:2552   */\n  dup3\n    /* \"#utility.yul\":2539:2543   */\n  0x20\n    /* \"#utility.yul\":2531:2537   */\n  dup7\n    /* \"#utility.yul\":2527:2544   */\n  add\n    /* \"#utility.yul\":2468:2558   */\n  tag_25\n  jump\t// in\ntag_78:\n    /* \"#utility.yul\":2459:2558   */\n  swap2\n  pop\n    /* \"#utility.yul\":2282:2564   */\n  pop\n    /* \"#utility.yul\":2209:2564   */\n  swap3\n  swap2\n  pop\n  pop\n  jump\t// out\n    /* \"#utility.yul\":2570:2647   */\ntag_27:\n    /* \"#utility.yul\":2607:2614   */\n  0x00\n    /* \"#utility.yul\":2636:2641   */\n  dup2\n    /* \"#utility.yul\":2625:2641   */\n  swap1\n  pop\n    /* \"#utility.yul\":2570:2647   */\n  swap2\n  swap1\n  pop\n  jump\t// out\n    /* \"#utility.yul\":2653:2775   */\ntag_28:\n    /* \"#utility.yul\":2726:2750   */\n  tag_81\n    /* \"#utility.yul\":2744:2749   */\n  dup2\n    /* \"#utility.yul\":2726:2750   */\n  tag_27\n  jump\t// in\ntag_81:\n    /* \"#utility.yul\":2719:2724   */\n  dup2\n    /* \"#utility.yul\":2716:2751   */\n  eq\n    /* \"#utility.yul\":2706:2769   */\n  tag_82\n  jumpi\n    /* \"#utility.yul\":2765:2766   */\n  0x00\n    /* \"#utility.yul\":2762:2763   */\n  dup1\n    /* \"#utility.yul\":2755:2767   */\n  revert\n    /* \"#utility.yul\":2706:2769   */\ntag_82:\n    /* \"#utility.yul\":2653:2775   */\n  pop\n  jump\t// out\n    /* \"#utility.yul\":2781:2924   */\ntag_29:\n    /* \"#utility.yul\":2838:2843   */\n  0x00\n    /* \"#utility.yul\":2869:2875   */\n  dup2\n    /* \"#utility.yul\":2863:2876   */\n  mload\n    /* \"#utility.yul\":2854:2876   */\n  swap1\n  pop\n    /* \"#utility.yul\":2885:2918   */\n  tag_84\n    /* \"#utility.yul\":2912:2917   */\n  dup2\n    /* \"#utility.yul\":2885:2918   */\n  tag_28\n  jump\t// in\ntag_84:\n    /* \"#utility.yul\":2781:2924   */\n  swap3\n  swap2\n  pop\n  pop\n  jump\t// out\n    /* \"#utility.yul\":2930:4096   */\ntag_3:\n    /* \"#utility.yul\":3047:3053   */\n  0x00\n    /* \"#utility.yul\":3055:3061   */\n  dup1\n    /* \"#utility.yul\":3063:3069   */\n  0x00\n    /* \"#utility.yul\":3071:3077   */\n  dup1\n    /* \"#utility.yul\":3120:3123   */\n  0x80\n    /* \"#utility.yul\":3108:3117   */\n  dup6\n    /* \"#utility.yul\":3099:3106   */\n  dup8\n    /* \"#utility.yul\":3095:3118   */\n  sub\n    /* \"#utility.yul\":3091:3124   */\n  slt\n    /* \"#utility.yul\":3088:3208   */\n  iszero\n  tag_86\n  jumpi\n    /* \"#utility.yul\":3127:3206   */\n  tag_87\n  tag_15\n  jump\t// in\ntag_87:\n    /* \"#utility.yul\":3088:3208   */\ntag_86:\n    /* \"#utility.yul\":3268:3269   */\n  0x00\n    /* \"#utility.yul\":3257:3266   */\n  dup6\n    /* \"#utility.yul\":3253:3270   */\n  add\n    /* \"#utility.yul\":3247:3271   */\n  mload\n    /* \"#utility.yul\":3298:3316   */\n  0xffffffffffffffff\n    /* \"#utility.yul\":3290:3296   */\n  dup2\n    /* \"#utility.yul\":3287:3317   */\n  gt\n    /* \"#utility.yul\":3284:3401   */\n  iszero\n  tag_88\n  jumpi\n    /* \"#utility.yul\":3320:3399   */\n  tag_89\n  tag_16\n  jump\t// in\ntag_89:\n    /* \"#utility.yul\":3284:3401   */\ntag_88:\n    /* \"#utility.yul\":3425:3499   */\n  tag_90\n    /* \"#utility.yul\":3491:3498   */\n  dup8\n    /* \"#utility.yul\":3482:3488   */\n  dup3\n    /* \"#utility.yul\":3471:3480   */\n  dup9\n    /* \"#utility.yul\":3467:3489   */\n  add\n    /* \"#utility.yul\":3425:3499   */\n  tag_26\n  jump\t// in\ntag_90:\n    /* \"#utility.yul\":3415:3499   */\n  swap5\n  pop\n    /* \"#utility.yul\":3218:3509   */\n  pop\n    /* \"#utility.yul\":3569:3571   */\n  0x20\n    /* \"#utility.yul\":3558:3567   */\n  dup6\n    /* \"#utility.yul\":3554:3572   */\n  add\n    /* \"#utility.yul\":3548:3573   */\n  mload\n    /* \"#utility.yul\":3600:3618   */\n  0xffffffffffffffff\n    /* \"#utility.yul\":3592:3598   */\n  dup2\n    /* \"#utility.yul\":3589:3619   */\n  gt\n    /* \"#utility.yul\":3586:3703   */\n  iszero\n  tag_91\n  jumpi\n    /* \"#utility.yul\":3622:3701   */\n  tag_92\n  tag_16\n  jump\t// in\ntag_92:\n    /* \"#utility.yul\":3586:3703   */\ntag_91:\n    /* \"#utility.yul\":3727:3801   */\n  tag_93\n    /* \"#utility.yul\":3793:3800   */\n  dup8\n    /* \"#utility.yul\":3784:3790   */\n  dup3\n    /* \"#utility.yul\":3773:3782   */\n  dup9\n    /* \"#utility.yul\":3769:3791   */\n  add\n    /* \"#utility.yul\":3727:3801   */\n  tag_26\n  jump\t// in\ntag_93:\n    /* \"#utility.yul\":3717:3801   */\n  swap4\n  pop\n    /* \"#utility.yul\":3519:3811   */\n  pop\n    /* \"#utility.yul\":3850:3852   */\n  0x40\n    /* \"#utility.yul\":3876:3940   */\n  tag_94\n    /* \"#utility.yul\":3932:3939   */\n  dup8\n    /* \"#utility.yul\":3923:3929   */\n  dup3\n    /* \"#utility.yul\":3912:3921   */\n  dup9\n    /* \"#utility.yul\":3908:3930   */\n  add\n    /* \"#utility.yul\":3876:3940   */\n  tag_29\n  jump\t// in\ntag_94:\n    /* \"#utility.yul\":3866:3940   */\n  swap3\n  pop\n    /* \"#utility.yul\":3821:3950   */\n  pop\n    /* \"#utility.yul\":3989:3991   */\n  0x60\n    /* \"#utility.yul\":4015:4079   */\n  tag_95\n    /* \"#utility.yul\":4071:4078   */\n  dup8\n    /* \"#utility.yul\":4062:4068   */\n  dup3\n    /* \"#utility.yul\":4051:4060   */\n  dup9\n    /* \"#utility.yul\":4047:4069   */\n  add\n    /* \"#utility.yul\":4015:4079   */\n  tag_29\n  jump\t// in\ntag_95:\n    /* \"#utility.yul\":4005:4079   */\n  swap2\n  pop\n    /* \"#utility.yul\":3960:4089   */\n  pop\n    /* \"#utility.yul\":2930:4096   */\n  swap3\n  swap6\n  swap2\n  swap5\n  pop\n  swap3\n  pop\n  jump\t// out\n    /* \"#utility.yul\":4102:4201   */\ntag_30:\n    /* \"#utility.yul\":4154:4160   */\n  0x00\n    /* \"#utility.yul\":4188:4193   */\n  dup2\n    /* \"#utility.yul\":4182:4194   */\n  mload\n    /* \"#utility.yul\":4172:4194   */\n  swap1\n  pop\n    /* \"#utility.yul\":4102:4201   */\n  swap2\n  swap1\n  pop\n  jump\t// out\n    /* \"#utility.yul\":4207:4387   */\ntag_31:\n    /* \"#utility.yul\":4255:4332   */\n  0x4e487b7100000000000000000000000000000000000000000000000000000000\n    /* \"#utility.yul\":4252:4253   */\n  0x00\n    /* \"#utility.yul\":4245:4333   */\n  mstore\n    /* \"#utility.yul\":4352:4356   */\n  0x22\n    /* \"#utility.yul\":4349:4350   */\n  0x04\n    /* \"#utility.yul\":4342:4357   */\n  mstore\n    /* \"#utility.yul\":4376:4380   */\n  0x24\n    /* \"#utility.yul\":4373:4374   */\n  0x00\n    /* \"#utility.yul\":4366:4381   */\n  revert\n    /* \"#utility.yul\":4393:4713   */\ntag_32:\n    /* \"#utility.yul\":4437:4443   */\n  0x00\n    /* \"#utility.yul\":4474:4475   */\n  0x02\n    /* \"#utility.yul\":4468:4472   */\n  dup3\n    /* \"#utility.yul\":4464:4476   */\n  div\n    /* \"#utility.yul\":4454:4476   */\n  swap1\n  pop\n    /* \"#utility.yul\":4521:4522   */\n  0x01\n    /* \"#utility.yul\":4515:4519   */\n  dup3\n    /* \"#utility.yul\":4511:4523   */\n  and\n    /* \"#utility.yul\":4542:4560   */\n  dup1\n    /* \"#utility.yul\":4532:4613   */\n  tag_99\n  jumpi\n    /* \"#utility.yul\":4598:4602   */\n  0x7f\n    /* \"#utility.yul\":4590:4596   */\n  dup3\n    /* \"#utility.yul\":4586:4603   */\n  and\n    /* \"#utility.yul\":4576:4603   */\n  swap2\n  pop\n    /* \"#utility.yul\":4532:4613   */\ntag_99:\n    /* \"#utility.yul\":4660:4662   */\n  0x20\n    /* \"#utility.yul\":4652:4658   */\n  dup3\n    /* \"#utility.yul\":4649:4663   */\n  lt\n    /* \"#utility.yul\":4629:4647   */\n  dup2\n    /* \"#utility.yul\":4626:4664   */\n  sub\n    /* \"#utility.yul\":4623:4707   */\n  tag_100\n  jumpi\n    /* \"#utility.yul\":4679:4697   */\n  tag_101\n  tag_31\n  jump\t// in\ntag_101:\n    /* \"#utility.yul\":4623:4707   */\ntag_100:\n    /* \"#utility.yul\":4444:4713   */\n  pop\n    /* \"#utility.yul\":4393:4713   */\n  swap2\n  swap1\n  pop\n  jump\t// out\n    /* \"#utility.yul\":4719:4860   */\ntag_33:\n    /* \"#utility.yul\":4768:4772   */\n  0x00\n    /* \"#utility.yul\":4791:4794   */\n  dup2\n    /* \"#utility.yul\":4783:4794   */\n  swap1\n  pop\n    /* \"#utility.yul\":4814:4817   */\n  dup2\n    /* \"#utility.yul\":4811:4812   */\n  0x00\n    /* \"#utility.yul\":4804:4818   */\n  mstore\n    /* \"#utility.yul\":4848:4852   */\n  0x20\n    /* \"#utility.yul\":4845:4846   */\n  0x00\n    /* \"#utility.yul\":4835:4853   */\n  keccak256\n    /* \"#utility.yul\":4827:4853   */\n  swap1\n  pop\n    /* \"#utility.yul\":4719:4860   */\n  swap2\n  swap1\n  pop\n  jump\t// out\n    /* \"#utility.yul\":4866:4959   */\ntag_34:\n    /* \"#utility.yul\":4903:4909   */\n  0x00\n    /* \"#utility.yul\":4950:4952   */\n  0x20\n    /* \"#utility.yul\":4945:4947   */\n  0x1f\n    /* \"#utility.yul\":4938:4943   */\n  dup4\n    /* \"#utility.yul\":4934:4948   */\n  add\n    /* \"#utility.yul\":4930:4953   */\n  div\n    /* \"#utility.yul\":4920:4953   */\n  swap1\n  pop\n    /* \"#utility.yul\":4866:4959   */\n  swap2\n  swap1\n  pop\n  jump\t// out\n    /* \"#utility.yul\":4965:5072   */\ntag_35:\n    /* \"#utility.yul\":5009:5017   */\n  0x00\n    /* \"#utility.yul\":5059:5064   */\n  dup3\n    /* \"#utility.yul\":5053:5057   */\n  dup3\n    /* \"#utility.yul\":5049:5065   */\n  shl\n    /* \"#utility.yul\":5028:5065   */\n  swap1\n  pop\n    /* \"#utility.yul\":4965:5072   */\n  swap3\n  swap2\n  pop\n  pop\n  jump\t// out\n    /* \"#utility.yul\":5078:5471   */\ntag_36:\n    /* \"#utility.yul\":5147:5153   */\n  0x00\n    /* \"#utility.yul\":5197:5198   */\n  0x08\n    /* \"#utility.yul\":5185:5195   */\n  dup4\n    /* \"#utility.yul\":5181:5199   */\n  mul\n    /* \"#utility.yul\":5220:5317   */\n  tag_106\n    /* \"#utility.yul\":5250:5316   */\n  0xffffffffffffffffffffffffffffffffffffffffffffffffffffffffffffffff\n    /* \"#utility.yul\":5239:5248   */\n  dup3\n    /* \"#utility.yul\":5220:5317   */\n  tag_35\n  jump\t// in\ntag_106:\n    /* \"#utility.yul\":5338:5377   */\n  tag_107\n    /* \"#utility.yul\":5368:5376   */\n  dup7\n    /* \"#utility.yul\":5357:5366   */\n  dup4\n    /* \"#utility.yul\":5338:5377   */\n  tag_35\n  jump\t// in\ntag_107:\n    /* \"#utility.yul\":5326:5377   */\n  swap6\n  pop\n    /* \"#utility.yul\":5410:5414   */\n  dup1\n    /* \"#utility.yul\":5406:5415   */\n  not\n    /* \"#utility.yul\":5399:5404   */\n  dup5\n    /* \"#utility.yul\":5395:5416   */\n  and\n    /* \"#utility.yul\":5386:5416   */\n  swap4\n  pop\n    /* \"#utility.yul\":5459:5463   */\n  dup1\n    /* \"#utility.yul\":5449:5457   */\n  dup7\n    /* \"#utility.yul\":5445:5464   */\n  and\n    /* \"#utility.yul\":5438:5443   */\n  dup5\n    /* \"#utility.yul\":5435:5465   */\n  or\n    /* \"#utility.yul\":5425:5465   */\n  swap3\n  pop\n    /* \"#utility.yul\":5154:5471   */\n  pop\n  pop\n    /* \"#utility.yul\":5078:5471   */\n  swap4\n  swap3\n  pop\n  pop\n  pop\n  jump\t// out\n    /* \"#utility.yul\":5477:5537   */\ntag_37:\n    /* \"#utility.yul\":5505:5508   */\n  0x00\n    /* \"#utility.yul\":5526:5531   */\n  dup2\n    /* \"#utility.yul\":5519:5531   */\n  swap1\n  pop\n    /* \"#utility.yul\":5477:5537   */\n  swap2\n  swap1\n  pop\n  jump\t// out\n    /* \"#utility.yul\":5543:5685   */\ntag_38:\n    /* \"#utility.yul\":5593:5602   */\n  0x00\n    /* \"#utility.yul\":5626:5679   */\n  tag_110\n    /* \"#utility.yul\":5644:5678   */\n  tag_111\n    /* \"#utility.yul\":5653:5677   */\n  tag_112\n    /* \"#utility.yul\":5671:5676   */\n  dup5\n    /* \"#utility.yul\":5653:5677   */\n  tag_27\n  jump\t// in\ntag_112:\n    /* \"#utility.yul\":5644:5678   */\n  tag_37\n  jump\t// in\ntag_111:\n    /* \"#utility.yul\":5626:5679   */\n  tag_27\n  jump\t// in\ntag_110:\n    /* \"#utility.yul\":5613:5679   */\n  swap1\n  pop\n    /* \"#utility.yul\":5543:5685   */\n  swap2\n  swap1\n  pop\n  jump\t// out\n    /* \"#utility.yul\":5691:5766   */\ntag_39:\n    /* \"#utility.yul\":5734:5737   */\n  0x00\n    /* \"#utility.yul\":5755:5760   */\n  dup2\n    /* \"#utility.yul\":5748:5760   */\n  swap1\n  pop\n    /* \"#utility.yul\":5691:5766   */\n  swap2\n  swap1\n  pop\n  jump\t// out\n    /* \"#utility.yul\":5772:6041   */\ntag_40:\n    /* \"#utility.yul\":5882:5921   */\n  tag_115\n    /* \"#utility.yul\":5913:5920   */\n  dup4\n    /* \"#utility.yul\":5882:5921   */\n  tag_38\n  jump\t// in\ntag_115:\n    /* \"#utility.yul\":5943:6034   */\n  tag_116\n    /* \"#utility.yul\":5992:6033   */\n  tag_117\n    /* \"#utility.yul\":6016:6032   */\n  dup3\n    /* \"#utility.yul\":5992:6033   */\n  tag_39\n  jump\t// in\ntag_117:\n    /* \"#utility.yul\":5984:5990   */\n  dup5\n    /* \"#utility.yul\":5977:5981   */\n  dup5\n    /* \"#utility.yul\":5971:5982   */\n  sload\n    /* \"#utility.yul\":5943:6034   */\n  tag_36\n  jump\t// in\ntag_116:\n    /* \"#utility.yul\":5937:5941   */\n  dup3\n    /* \"#utility.yul\":5930:6035   */\n  sstore\n    /* \"#utility.yul\":5848:6041   */\n  pop\n    /* \"#utility.yul\":5772:6041   */\n  pop\n  pop\n  pop\n  jump\t// out\n    /* \"#utility.yul\":6047:6120   */\ntag_41:\n    /* \"#utility.yul\":6092:6095   */\n  0x00\n    /* \"#utility.yul\":6047:6120   */\n  swap1\n  jump\t// out\n    /* \"#utility.yul\":6126:6315   */\ntag_42:\n    /* \"#utility.yul\":6203:6235   */\n  tag_120\n  tag_41\n  jump\t// in\ntag_120:\n    /* \"#utility.yul\":6244:6309   */\n  tag_121\n    /* \"#utility.yul\":6302:6308   */\n  dup2\n    /* \"#utility.yul\":6294:6300   */\n  dup5\n    /* \"#utility.yul\":6288:6292   */\n  dup5\n    /* \"#utility.yul\":6244:6309   */\n  tag_40\n  jump\t// in\ntag_121:\n    /* \"#utility.yul\":6179:6315   */\n  pop\n    /* \"#utility.yul\":6126:6315   */\n  pop\n  pop\n  jump\t// out\n    /* \"#utility.yul\":6321:6507   */\ntag_43:\n    /* \"#utility.yul\":6381:6501   */\ntag_123:\n    /* \"#utility.yul\":6398:6401   */\n  dup2\n    /* \"#utility.yul\":6391:6396   */\n  dup2\n    /* \"#utility.yul\":6388:6402   */\n  lt\n    /* \"#utility.yul\":6381:6501   */\n  iszero\n  tag_125\n  jumpi\n    /* \"#utility.yul\":6452:6491   */\n  tag_126\n    /* \"#utility.yul\":6489:6490   */\n  0x00\n    /* \"#utility.yul\":6482:6487   */\n  dup3\n    /* \"#utility.yul\":6452:6491   */\n  tag_42\n  jump\t// in\ntag_126:\n    /* \"#utility.yul\":6425:6426   */\n  0x01\n    /* \"#utility.yul\":6418:6423   */\n  dup2\n    /* \"#utility.yul\":6414:6427   */\n  add\n    /* \"#utility.yul\":6405:6427   */\n  swap1\n  pop\n    /* \"#utility.yul\":6381:6501   */\n  jump(tag_123)\ntag_125:\n    /* \"#utility.yul\":6321:6507   */\n  pop\n  pop\n  jump\t// out\n    /* \"#utility.yul\":6513:7056   */\ntag_44:\n    /* \"#utility.yul\":6614:6616   */\n  0x1f\n    /* \"#utility.yul\":6609:6612   */\n  dup3\n    /* \"#utility.yul\":6606:6617   */\n  gt\n    /* \"#utility.yul\":6603:7049   */\n  iszero\n  tag_128\n  jumpi\n    /* \"#utility.yul\":6648:6686   */\n  tag_129\n    /* \"#utility.yul\":6680:6685   */\n  dup2\n    /* \"#utility.yul\":6648:6686   */\n  tag_33\n  jump\t// in\ntag_129:\n    /* \"#utility.yul\":6732:6761   */\n  tag_130\n    /* \"#utility.yul\":6750:6760   */\n  dup5\n    /* \"#utility.yul\":6732:6761   */\n  tag_34\n  jump\t// in\ntag_130:\n    /* \"#utility.yul\":6722:6730   */\n  dup2\n    /* \"#utility.yul\":6718:6762   */\n  add\n    /* \"#utility.yul\":6915:6917   */\n  0x20\n    /* \"#utility.yul\":6903:6913   */\n  dup6\n    /* \"#utility.yul\":6900:6918   */\n  lt\n    /* \"#utility.yul\":6897:6946   */\n  iszero\n  tag_131\n  jumpi\n    /* \"#utility.yul\":6936:6944   */\n  dup2\n    /* \"#utility.yul\":6921:6944   */\n  swap1\n  pop\n    /* \"#utility.yul\":6897:6946   */\ntag_131:\n    /* \"#utility.yul\":6959:7039   */\n  tag_132\n    /* \"#utility.yul\":7015:7037   */\n  tag_133\n    /* \"#utility.yul\":7033:7036   */\n  dup6\n    /* \"#utility.yul\":7015:7037   */\n  tag_34\n  jump\t// in\ntag_133:\n    /* \"#utility.yul\":7005:7013   */\n  dup4\n    /* \"#utility.yul\":7001:7038   */\n  add\n    /* \"#utility.yul\":6988:6999   */\n  dup3\n    /* \"#utility.yul\":6959:7039   */\n  tag_43\n  jump\t// in\ntag_132:\n    /* \"#utility.yul\":6618:7049   */\n  pop\n  pop\n    /* \"#utility.yul\":6603:7049   */\ntag_128:\n    /* \"#utility.yul\":6513:7056   */\n  pop\n  pop\n  pop\n  jump\t// out\n    /* \"#utility.yul\":7062:7179   */\ntag_45:\n    /* \"#utility.yul\":7116:7124   */\n  0x00\n    /* \"#utility.yul\":7166:7171   */\n  dup3\n    /* \"#utility.yul\":7160:7164   */\n  dup3\n    /* \"#utility.yul\":7156:7172   */\n  shr\n    /* \"#utility.yul\":7135:7172   */\n  swap1\n  pop\n    /* \"#utility.yul\":7062:7179   */\n  swap3\n  swap2\n  pop\n  pop\n  jump\t// out\n    /* \"#utility.yul\":7185:7354   */\ntag_46:\n    /* \"#utility.yul\":7229:7235   */\n  0x00\n    /* \"#utility.yul\":7262:7313   */\n  tag_136\n    /* \"#utility.yul\":7310:7311   */\n  0x00\n    /* \"#utility.yul\":7306:7312   */\n  not\n    /* \"#utility.yul\":7298:7303   */\n  dup5\n    /* \"#utility.yul\":7295:7296   */\n  0x08\n    /* \"#utility.yul\":7291:7304   */\n  mul\n    /* \"#utility.yul\":7262:7313   */\n  tag_45\n  jump\t// in\ntag_136:\n    /* \"#utility.yul\":7258:7314   */\n  not\n    /* \"#utility.yul\":7343:7347   */\n  dup1\n    /* \"#utility.yul\":7337:7341   */\n  dup4\n    /* \"#utility.yul\":7333:7348   */\n  and\n    /* \"#utility.yul\":7323:7348   */\n  swap2\n  pop\n    /* \"#utility.yul\":7236:7354   */\n  pop\n    /* \"#utility.yul\":7185:7354   */\n  swap3\n  swap2\n  pop\n  pop\n  jump\t// out\n    /* \"#utility.yul\":7359:7654   */\ntag_47:\n    /* \"#utility.yul\":7435:7439   */\n  0x00\n    /* \"#utility.yul\":7581:7610   */\n  tag_138\n    /* \"#utility.yul\":7606:7609   */\n  dup4\n    /* \"#utility.yul\":7600:7604   */\n  dup4\n    /* \"#utility.yul\":7581:7610   */\n  tag_46\n  jump\t// in\ntag_138:\n    /* \"#utility.yul\":7573:7610   */\n  swap2\n  pop\n    /* \"#utility.yul\":7643:7646   */\n  dup3\n    /* \"#utility.yul\":7640:7641   */\n  0x02\n    /* \"#utility.yul\":7636:7647   */\n  mul\n    /* \"#utility.yul\":7630:7634   */\n  dup3\n    /* \"#utility.yul\":7627:7648   */\n  or\n    /* \"#utility.yul\":7619:7648   */\n  swap1\n  pop\n    /* \"#utility.yul\":7359:7654   */\n  swap3\n  swap2\n  pop\n  pop\n  jump\t// out\n    /* \"#utility.yul\":7659:9054   */\ntag_7:\n    /* \"#utility.yul\":7776:7813   */\n  tag_140\n    /* \"#utility.yul\":7809:7812   */\n  dup3\n    /* \"#utility.yul\":7776:7813   */\n  tag_30\n  jump\t// in\ntag_140:\n    /* \"#utility.yul\":7878:7896   */\n  0xffffffffffffffff\n    /* \"#utility.yul\":7870:7876   */\n  dup2\n    /* \"#utility.yul\":7867:7897   */\n  gt\n    /* \"#utility.yul\":7864:7920   */\n  iszero\n  tag_141\n  jumpi\n    /* \"#utility.yul\":7900:7918   */\n  tag_142\n  tag_20\n  jump\t// in\ntag_142:\n    /* \"#utility.yul\":7864:7920   */\ntag_141:\n    /* \"#utility.yul\":7944:7982   */\n  tag_143\n    /* \"#utility.yul\":7976:7980   */\n  dup3\n    /* \"#utility.yul\":7970:7981   */\n  sload\n    /* \"#utility.yul\":7944:7982   */\n  tag_32\n  jump\t// in\ntag_143:\n    /* \"#utility.yul\":8029:8096   */\n  tag_144\n    /* \"#utility.yul\":8089:8095   */\n  dup3\n    /* \"#utility.yul\":8081:8087   */\n  dup3\n    /* \"#utility.yul\":8075:8079   */\n  dup6\n    /* \"#utility.yul\":8029:8096   */\n  tag_44\n  jump\t// in\ntag_144:\n    /* \"#utility.yul\":8123:8124   */\n  0x00\n    /* \"#utility.yul\":8147:8151   */\n  0x20\n    /* \"#utility.yul\":8134:8151   */\n  swap1\n  pop\n    /* \"#utility.yul\":8179:8181   */\n  0x1f\n    /* \"#utility.yul\":8171:8177   */\n  dup4\n    /* \"#utility.yul\":8168:8182   */\n  gt\n    /* \"#utility.yul\":8196:8197   */\n  0x01\n    /* \"#utility.yul\":8191:8809   */\n  dup2\n  eq\n  tag_146\n  jumpi\n    /* \"#utility.yul\":8853:8854   */\n  0x00\n    /* \"#utility.yul\":8870:8876   */\n  dup5\n    /* \"#utility.yul\":8867:8944   */\n  iszero\n  tag_147\n  jumpi\n    /* \"#utility.yul\":8919:8928   */\n  dup3\n    /* \"#utility.yul\":8914:8917   */\n  dup8\n    /* \"#utility.yul\":8910:8929   */\n  add\n    /* \"#utility.yul\":8904:8930   */\n  mload\n    /* \"#utility.yul\":8895:8930   */\n  swap1\n  pop\n    /* \"#utility.yul\":8867:8944   */\ntag_147:\n    /* \"#utility.yul\":8970:9037   */\n  tag_148\n    /* \"#utility.yul\":9030:9036   */\n  dup6\n    /* \"#utility.yul\":9023:9028   */\n  dup3\n    /* \"#utility.yul\":8970:9037   */\n  tag_47\n  jump\t// in\ntag_148:\n    /* \"#utility.yul\":8964:8968   */\n  dup7\n    /* \"#utility.yul\":8957:9038   */\n  sstore\n    /* \"#utility.yul\":8826:9048   */\n  pop\n    /* \"#utility.yul\":8161:9048   */\n  jump(tag_145)\n    /* \"#utility.yul\":8191:8809   */\ntag_146:\n    /* \"#utility.yul\":8243:8247   */\n  0x1f\n    /* \"#utility.yul\":8239:8248   */\n  not\n    /* \"#utility.yul\":8231:8237   */\n  dup5\n    /* \"#utility.yul\":8227:8249   */\n  and\n    /* \"#utility.yul\":8277:8314   */\n  tag_149\n    /* \"#utility.yul\":8309:8313   */\n  dup7\n    /* \"#utility.yul\":8277:8314   */\n  tag_33\n  jump\t// in\ntag_149:\n    /* \"#utility.yul\":8336:8337   */\n  0x00\n    /* \"#utility.yul\":8350:8558   */\ntag_150:\n    /* \"#utility.yul\":8364:8371   */\n  dup3\n    /* \"#utility.yul\":8361:8362   */\n  dup2\n    /* \"#utility.yul\":8358:8372   */\n  lt\n    /* \"#utility.yul\":8350:8558   */\n  iszero\n  tag_152\n  jumpi\n    /* \"#utility.yul\":8443:8452   */\n  dup5\n    /* \"#utility.yul\":8438:8441   */\n  dup10\n    /* \"#utility.yul\":8434:8453   */\n  add\n    /* \"#utility.yul\":8428:8454   */\n  mload\n    /* \"#utility.yul\":8420:8426   */\n  dup3\n    /* \"#utility.yul\":8413:8455   */\n  sstore\n    /* \"#utility.yul\":8494:8495   */\n  0x01\n    /* \"#utility.yul\":8486:8492   */\n  dup3\n    /* \"#utility.yul\":8482:8496   */\n  add\n    /* \"#utility.yul\":8472:8496   */\n  swap2\n  pop\n    /* \"#utility.yul\":8541:8543   */\n  0x20\n    /* \"#utility.yul\":8530:8539   */\n  dup6\n    /* \"#utility.yul\":8526:8544   */\n  add\n    /* \"#utility.yul\":8513:8544   */\n  swap5\n  pop\n    /* \"#utility.yul\":8387:8391   */\n  0x20\n    /* \"#utility.yul\":8384:8385   */\n  dup2\n    /* \"#utility.yul\":8380:8392   */\n  add\n    /* \"#utility.yul\":8375:8392   */\n  swap1\n  pop\n    /* \"#utility.yul\":8350:8558   */\n  jump(tag_150)\ntag_152:\n    /* \"#utility.yul\":8586:8592   */\n  dup7\n    /* \"#utility.yul\":8577:8584   */\n  dup4\n    /* \"#utility.yul\":8574:8593   */\n  lt\n    /* \"#utility.yul\":8571:8750   */\n  iszero\n  tag_153\n  jumpi\n    /* \"#utility.yul\":8644:8653   */\n  dup5\n    /* \"#utility.yul\":8639:8642   */\n  dup10\n    /* \"#utility.yul\":8635:8654   */\n  add\n    /* \"#utility.yul\":8629:8655   */\n  mload\n    /* \"#utility.yul\":8687:8735   */\n  tag_154\n    /* \"#utility.yul\":8729:8733   */\n  0x1f\n    /* \"#utility.yul\":8721:8727   */\n  dup10\n    /* \"#utility.yul\":8717:8734   */\n  and\n    /* \"#utility.yul\":8706:8715   */\n  dup3\n    /* \"#utility.yul\":8687:8735   */\n  tag_46\n  jump\t// in\ntag_154:\n    /* \"#utility.yul\":8679:8685   */\n  dup4\n    /* \"#utility.yul\":8672:8736   */\n  sstore\n    /* \"#utility.yul\":8594:8750   */\n  pop\n    /* \"#utility.yul\":8571:8750   */\ntag_153:\n    /* \"#utility.yul\":8796:8797   */\n  0x01\n    /* \"#utility.yul\":8792:8793   */\n  0x02\n    /* \"#utility.yul\":8784:8790   */\n  dup9\n    /* \"#utility.yul\":8780:8794   */\n  mul\n    /* \"#utility.yul\":8776:8798   */\n  add\n    /* \"#utility.yul\":8770:8774   */\n  dup9\n    /* \"#utility.yul\":8763:8799   */\n  sstore\n    /* \"#utility.yul\":8198:8809   */\n  pop\n  pop\n  pop\n    /* \"#utility.yul\":8161:9048   */\ntag_145:\n  pop\n    /* \"#utility.yul\":7751:9054   */\n  pop\n  pop\n  pop\n    /* \"#utility.yul\":7659:9054   */\n  pop\n  pop\n  jump\t// out\n    /* \"#utility.yul\":9060:9240   */\ntag_48:\n    /* \"#utility.yul\":9108:9185   */\n  0x4e487b7100000000000000000000000000000000000000000000000000000000\n    /* \"#utility.yul\":9105:9106   */\n  0x00\n    /* \"#utility.yul\":9098:9186   */\n  mstore\n    /* \"#utility.yul\":9205:9209   */\n  0x11\n    /* \"#utility.yul\":9202:9203   */\n  0x04\n    /* \"#utility.yul\":9195:9210   */\n  mstore\n    /* \"#utility.yul\":9229:9233   */\n  0x24\n    /* \"#utility.yul\":9226:9227   */\n  0x00\n    /* \"#utility.yul\":9219:9234   */\n  revert\n    /* \"#utility.yul\":9246:9656   */\ntag_10:\n    /* \"#utility.yul\":9286:9293   */\n  0x00\n    /* \"#utility.yul\":9309:9329   */\n  tag_157\n    /* \"#utility.yul\":9327:9328   */\n  dup3\n    /* \"#utility.yul\":9309:9329   */\n  tag_27\n  jump\t// in\ntag_157:\n    /* \"#utility.yul\":9304:9329   */\n  swap2\n  pop\n    /* \"#utility.yul\":9343:9363   */\n  tag_158\n    /* \"#utility.yul\":9361:9362   */\n  dup4\n    /* \"#utility.yul\":9343:9363   */\n  tag_27\n  jump\t// in\ntag_158:\n    /* \"#utility.yul\":9338:9363   */\n  swap3\n  pop\n    /* \"#utility.yul\":9398:9399   */\n  dup3\n    /* \"#utility.yul\":9395:9396   */\n  dup3\n    /* \"#utility.yul\":9391:9400   */\n  mul\n    /* \"#utility.yul\":9420:9450   */\n  tag_159\n    /* \"#utility.yul\":9438:9449   */\n  dup2\n    /* \"#utility.yul\":9420:9450   */\n  tag_27\n  jump\t// in\ntag_159:\n    /* \"#utility.yul\":9409:9450   */\n  swap2\n  pop\n    /* \"#utility.yul\":9599:9600   */\n  dup3\n    /* \"#utility.yul\":9590:9597   */\n  dup3\n    /* \"#utility.yul\":9586:9601   */\n  div\n    /* \"#utility.yul\":9583:9584   */\n  dup5\n    /* \"#utility.yul\":9580:9602   */\n  eq\n    /* \"#utility.yul\":9560:9561   */\n  dup4\n    /* \"#utility.yul\":9553:9562   */\n  iszero\n    /* \"#utility.yul\":9533:9616   */\n  or\n    /* \"#utility.yul\":9510:9649   */\n  tag_160\n  jumpi\n    /* \"#utility.yul\":9629:9647   */\n  tag_161\n  tag_48\n  jump\t// in\ntag_161:\n    /* \"#utility.yul\":9510:9649   */\ntag_160:\n    /* \"#utility.yul\":9294:9656   */\n  pop\n    /* \"#utility.yul\":9246:9656   */\n  swap3\n  swap2\n  pop\n  pop\n  jump\t// out\n    /* \"#utility.yul\":9662:9853   */\ntag_12:\n    /* \"#utility.yul\":9702:9705   */\n  0x00\n    /* \"#utility.yul\":9721:9741   */\n  tag_163\n    /* \"#utility.yul\":9739:9740   */\n  dup3\n    /* \"#utility.yul\":9721:9741   */\n  tag_27\n  jump\t// in\ntag_163:\n    /* \"#utility.yul\":9716:9741   */\n  swap2\n  pop\n    /* \"#utility.yul\":9755:9775   */\n  tag_164\n    /* \"#utility.yul\":9773:9774   */\n  dup4\n    /* \"#utility.yul\":9755:9775   */\n  tag_27\n  jump\t// in\ntag_164:\n    /* \"#utility.yul\":9750:9775   */\n  swap3\n  pop\n    /* \"#utility.yul\":9798:9799   */\n  dup3\n    /* \"#utility.yul\":9795:9796   */\n  dup3\n    /* \"#utility.yul\":9791:9800   */\n  add\n    /* \"#utility.yul\":9784:9800   */\n  swap1\n  pop\n    /* \"#utility.yul\":9819:9822   */\n  dup1\n    /* \"#utility.yul\":9816:9817   */\n  dup3\n    /* \"#utility.yul\":9813:9823   */\n  gt\n    /* \"#utility.yul\":9810:9846   */\n  iszero\n  tag_165\n  jumpi\n    /* \"#utility.yul\":9826:9844   */\n  tag_166\n  tag_48\n  jump\t// in\ntag_166:\n    /* \"#utility.yul\":9810:9846   */\ntag_165:\n    /* \"#utility.yul\":9662:9853   */\n  swap3\n  swap2\n  pop\n  pop\n  jump\t// out\n    /* \"contracts/crowdFunding.sol\":61:1946  contract crowdFunding{... */\ntag_13:\n  dataSize(sub_0)\n  dup1\n  dataOffset(sub_0)\n  0x00\n  codecopy\n  0x00\n  return\nstop\n\nsub_0: assembly {\n        /* \"contracts/crowdFunding.sol\":61:1946  contract crowdFunding{... */\n      mstore(0x40, 0x80)\n      jumpi(tag_1, lt(calldatasize, 0x04))\n      shr(0xe0, calldataload(0x00))\n      dup1\n      0x7497211b\n      gt\n      tag_13\n      jumpi\n      dup1\n      0x7497211b\n      eq\n      tag_7\n      jumpi\n      dup1\n      0x8ece7b91\n      eq\n      tag_8\n      jumpi\n      dup1\n      0xca1d209d\n      eq\n      tag_9\n      jumpi\n      dup1\n      0xe036a772\n      eq\n      tag_10\n      jumpi\n      dup1\n      0xe4efd1dc\n      eq\n      tag_11\n      jumpi\n      dup1\n      0xfdf04ed4\n      eq\n      tag_12\n      jumpi\n      jump(tag_1)\n    tag_13:\n      dup1\n      0x039af9eb\n      eq\n      tag_2\n      jumpi\n      dup1\n      0x0574f590\n      eq\n      tag_3\n      jumpi\n      dup1\n      0x3ccfd60b\n      eq\n      tag_4\n      jumpi\n      dup1\n      0x4137e733\n      eq\n      tag_5\n      jumpi\n      dup1\n      0x6f9fb98a\n      eq\n      tag_6\n      jumpi\n    tag_1:\n      0x00\n      dup1\n      revert\n        /* \"contracts/crowdFunding.sol\":379:398  tier[] public tiers */\n    tag_2:\n      callvalue\n      dup1\n      iszero\n      tag_14\n      jumpi\n      0x00\n      dup1\n      revert\n    tag_14:\n      pop\n      tag_15\n      0x04\n      dup1\n      calldatasize\n      sub\n      dup2\n      add\n      swap1\n      tag_16\n      swap2\n      swap1\n      tag_17\n      jump\t// in\n    tag_16:\n      tag_18\n      jump\t// in\n    tag_15:\n      mload(0x40)\n      tag_19\n      swap4\n      swap3\n      swap2\n      swap1\n      tag_20\n      jump\t// in\n    tag_19:\n      mload(0x40)\n      dup1\n      swap2\n      sub\n      swap1\n      return\n        /* \"contracts/crowdFunding.sol\":123:157  string public campaign_description */\n    tag_3:\n      callvalue\n      dup1\n      iszero\n      tag_21\n      jumpi\n      0x00\n      dup1\n      revert\n    tag_21:\n      pop\n      tag_22\n      tag_23\n      jump\t// in\n    tag_22:\n      mload(0x40)\n      tag_24\n      swap2\n      swap1\n      tag_25\n      jump\t// in\n    tag_24:\n      mload(0x40)\n      dup1\n      swap2\n      sub\n      swap1\n      return\n        /* \"contracts/crowdFunding.sol\":1160:1441  function withdraw() public onlyOwner {... */\n    tag_4:\n      callvalue\n      dup1\n      iszero\n      tag_26\n      jumpi\n      0x00\n      dup1\n      revert\n    tag_26:\n      pop\n      tag_27\n      tag_28\n      jump\t// in\n    tag_27:\n      stop\n        /* \"contracts/crowdFunding.sol\":89:116  string public campaign_name */\n    tag_5:\n      callvalue\n      dup1\n      iszero\n      tag_29\n      jumpi\n      0x00\n      dup1\n      revert\n    tag_29:\n      pop\n      tag_30\n      tag_31\n      jump\t// in\n    tag_30:\n      mload(0x40)\n      tag_32\n      swap2\n      swap1\n      tag_25\n      jump\t// in\n    tag_32:\n      mload(0x40)\n      dup1\n      swap2\n      sub\n      swap1\n      return\n        /* \"contracts/crowdFunding.sol\":1449:1556  function getContractBalance() public view returns (uint256) {... */\n    tag_6:\n      callvalue\n      dup1\n      iszero\n      tag_33\n      jumpi\n      0x00\n      dup1\n      revert\n    tag_33:\n      pop\n      tag_34\n      tag_35\n      jump\t// in\n    tag_34:\n      mload(0x40)\n      tag_36\n      swap2\n      swap1\n      tag_37\n      jump\t// in\n    tag_36:\n      mload(0x40)\n      dup1\n      swap2\n      sub\n      swap1\n      return\n        /* \"contracts/crowdFunding.sol\":1755:1943  function removeTier(uint256 index) public onlyOwner {... */\n    tag_7:\n      callvalue\n      dup1\n      iszero\n      tag_38\n      jumpi\n      0x00\n      dup1\n      revert\n    tag_38:\n      pop\n      tag_39\n      0x04\n      dup1\n      calldatasize\n      sub\n      dup2\n      add\n      swap1\n      tag_40\n      swap2\n      swap1\n      tag_17\n      jump\t// in\n    tag_40:\n      tag_41\n      jump\t// in\n    tag_39:\n      stop\n        /* \"contracts/crowdFunding.sol\":1564:1747  function addTier(string memory name, uint256 amount) public onlyOwner {... */\n    tag_8:\n      callvalue\n      dup1\n      iszero\n      tag_42\n      jumpi\n      0x00\n      dup1\n      revert\n    tag_42:\n      pop\n      tag_43\n      0x04\n      dup1\n      calldatasize\n      sub\n      dup2\n      add\n      swap1\n      tag_44\n      swap2\n      swap1\n      tag_45\n      jump\t// in\n    tag_44:\n      tag_46\n      jump\t// in\n    tag_43:\n      stop\n        /* \"contracts/crowdFunding.sol\":839:1152  function fund(uint256 tierIndex) public payable {... */\n    tag_9:\n      tag_47\n      0x04\n      dup1\n      calldatasize\n      sub\n      dup2\n      add\n      swap1\n      tag_48\n      swap2\n      swap1\n      tag_17\n      jump\t// in\n    tag_48:\n      tag_49\n      jump\t// in\n    tag_47:\n      stop\n        /* \"contracts/crowdFunding.sol\":164:190  uint256 public goal_amount */\n    tag_10:\n      callvalue\n      dup1\n      iszero\n      tag_50\n      jumpi\n      0x00\n      dup1\n      revert\n    tag_50:\n      pop\n      tag_51\n      tag_52\n      jump\t// in\n    tag_51:\n      mload(0x40)\n      tag_53\n      swap2\n      swap1\n      tag_37\n      jump\t// in\n    tag_53:\n      mload(0x40)\n      dup1\n      swap2\n      sub\n      swap1\n      return\n        /* \"contracts/crowdFunding.sol\":197:229  uint256 public campaign_deadline */\n    tag_11:\n      callvalue\n      dup1\n      iszero\n      tag_54\n      jumpi\n      0x00\n      dup1\n      revert\n    tag_54:\n      pop\n      tag_55\n      tag_56\n      jump\t// in\n    tag_55:\n      mload(0x40)\n      tag_57\n      swap2\n      swap1\n      tag_37\n      jump\t// in\n    tag_57:\n      mload(0x40)\n      dup1\n      swap2\n      sub\n      swap1\n      return\n        /* \"contracts/crowdFunding.sol\":236:265  address public campaign_owner */\n    tag_12:\n      callvalue\n      dup1\n      iszero\n      tag_58\n      jumpi\n      0x00\n      dup1\n      revert\n    tag_58:\n      pop\n      tag_59\n      tag_60\n      jump\t// in\n    tag_59:\n      mload(0x40)\n      tag_61\n      swap2\n      swap1\n      tag_62\n      jump\t// in\n    tag_61:\n      mload(0x40)\n      dup1\n      swap2\n      sub\n      swap1\n      return\n        /* \"contracts/crowdFunding.sol\":379:398  tier[] public tiers */\n    tag_18:\n      0x05\n      dup2\n      dup2\n      sload\n      dup2\n      lt\n      tag_63\n      jumpi\n      0x00\n      dup1\n      revert\n    tag_63:\n      swap1\n      0x00\n      mstore\n      keccak256(0x00, 0x20)\n      swap1\n      0x03\n      mul\n      add\n      0x00\n      swap2\n      pop\n      swap1\n      pop\n      dup1\n      0x00\n      add\n      dup1\n      sload\n      tag_65\n      swap1\n      tag_66\n      jump\t// in\n    tag_65:\n      dup1\n      0x1f\n      add\n      0x20\n      dup1\n      swap2\n      div\n      mul\n      0x20\n      add\n      mload(0x40)\n      swap1\n      dup2\n      add\n      0x40\n      mstore\n      dup1\n      swap3\n      swap2\n      swap1\n      dup2\n      dup2\n      mstore\n      0x20\n      add\n      dup3\n      dup1\n      sload\n      tag_67\n      swap1\n      tag_66\n      jump\t// in\n    tag_67:\n      dup1\n      iszero\n      tag_68\n      jumpi\n      dup1\n      0x1f\n      lt\n      tag_69\n      jumpi\n      0x0100\n      dup1\n      dup4\n      sload\n      div\n      mul\n      dup4\n      mstore\n      swap2\n      0x20\n      add\n      swap2\n      jump(tag_68)\n    tag_69:\n      dup3\n      add\n      swap2\n      swap1\n      0x00\n      mstore\n      keccak256(0x00, 0x20)\n      swap1\n    tag_70:\n      dup2\n      sload\n      dup2\n      mstore\n      swap1\n      0x01\n      add\n      swap1\n      0x20\n      add\n      dup1\n      dup4\n      gt\n      tag_70\n      jumpi\n      dup3\n      swap1\n      sub\n      0x1f\n      and\n      dup3\n      add\n      swap2\n    tag_68:\n      pop\n      pop\n      pop\n      pop\n      pop\n      swap1\n      dup1\n      0x01\n      add\n      sload\n      swap1\n      dup1\n      0x02\n      add\n      sload\n      swap1\n      pop\n      dup4\n      jump\t// out\n        /* \"contracts/crowdFunding.sol\":123:157  string public campaign_description */\n    tag_23:\n      0x01\n      dup1\n      sload\n      tag_71\n      swap1\n      tag_66\n      jump\t// in\n    tag_71:\n      dup1\n      0x1f\n      add\n      0x20\n      dup1\n      swap2\n      div\n      mul\n      0x20\n      add\n      mload(0x40)\n      swap1\n      dup2\n      add\n      0x40\n      mstore\n      dup1\n      swap3\n      swap2\n      swap1\n      dup2\n      dup2\n      mstore\n      0x20\n      add\n      dup3\n      dup1\n      sload\n      tag_72\n      swap1\n      tag_66\n      jump\t// in\n    tag_72:\n      dup1\n      iszero\n      tag_73\n      jumpi\n      dup1\n      0x1f\n      lt\n      tag_74\n      jumpi\n      0x0100\n      dup1\n      dup4\n      sload\n      div\n      mul\n      dup4\n      mstore\n      swap2\n      0x20\n      add\n      swap2\n      jump(tag_73)\n    tag_74:\n      dup3\n      add\n      swap2\n      swap1\n      0x00\n      mstore\n      keccak256(0x00, 0x20)\n      swap1\n    tag_75:\n      dup2\n      sload\n      dup2\n      mstore\n      swap1\n      0x01\n      add\n      swap1\n      0x20\n      add\n      dup1\n      dup4\n      gt\n      tag_75\n      jumpi\n      dup3\n      swap1\n      sub\n      0x1f\n      and\n      dup3\n      add\n      swap2\n    tag_73:\n      pop\n      pop\n      pop\n      pop\n      pop\n      dup2\n      jump\t// out\n        /* \"contracts/crowdFunding.sol\":1160:1441  function withdraw() public onlyOwner {... */\n    tag_28:\n        /* \"contracts/crowdFunding.sol\":458:472  campaign_owner */\n      0x04\n      0x00\n      swap1\n      sload\n      swap1\n      0x0100\n      exp\n      swap1\n      div\n      0xffffffffffffffffffffffffffffffffffffffff\n      and\n        /* \"contracts/crowdFunding.sol\":446:472  msg.sender==campaign_owner */\n      0xffffffffffffffffffffffffffffffffffffffff\n      and\n        /* \"contracts/crowdFunding.sol\":446:456  msg.sender */\n      caller\n        /* \"contracts/crowdFunding.sol\":446:472  msg.sender==campaign_owner */\n      0xffffffffffffffffffffffffffffffffffffffff\n      and\n      eq\n        /* \"contracts/crowdFunding.sol\":438:495  require(msg.sender==campaign_owner, \"Not campaign owner\") */\n      tag_77\n      jumpi\n      mload(0x40)\n      0x08c379a000000000000000000000000000000000000000000000000000000000\n      dup2\n      mstore\n      0x04\n      add\n      tag_78\n      swap1\n      tag_79\n      jump\t// in\n    tag_78:\n      mload(0x40)\n      dup1\n      swap2\n      sub\n      swap1\n      revert\n    tag_77:\n        /* \"contracts/crowdFunding.sol\":1239:1250  goal_amount */\n      sload(0x02)\n        /* \"contracts/crowdFunding.sol\":1216:1237  address(this).balance */\n      selfbalance\n        /* \"contracts/crowdFunding.sol\":1216:1250  address(this).balance>=goal_amount */\n      lt\n      iszero\n        /* \"contracts/crowdFunding.sol\":1208:1277  require(address(this).balance>=goal_amount, \"Goal not completed yet\") */\n      tag_81\n      jumpi\n      mload(0x40)\n      0x08c379a000000000000000000000000000000000000000000000000000000000\n      dup2\n      mstore\n      0x04\n      add\n      tag_82\n      swap1\n      tag_83\n      jump\t// in\n    tag_82:\n      mload(0x40)\n      dup1\n      swap2\n      sub\n      swap1\n      revert\n    tag_81:\n        /* \"contracts/crowdFunding.sol\":1290:1305  uint256 balance */\n      0x00\n        /* \"contracts/crowdFunding.sol\":1306:1327  address(this).balance */\n      selfbalance\n        /* \"contracts/crowdFunding.sol\":1290:1327  uint256 balance=address(this).balance */\n      swap1\n      pop\n        /* \"contracts/crowdFunding.sol\":1354:1355  0 */\n      0x00\n        /* \"contracts/crowdFunding.sol\":1346:1353  balance */\n      dup2\n        /* \"contracts/crowdFunding.sol\":1346:1355  balance>0 */\n      gt\n        /* \"contracts/crowdFunding.sol\":1338:1379  require(balance>0, \"Nothing to withdraw\") */\n      tag_84\n      jumpi\n      mload(0x40)\n      0x08c379a000000000000000000000000000000000000000000000000000000000\n      dup2\n      mstore\n      0x04\n      add\n      tag_85\n      swap1\n      tag_86\n      jump\t// in\n    tag_85:\n      mload(0x40)\n      dup1\n      swap2\n      sub\n      swap1\n      revert\n    tag_84:\n        /* \"contracts/crowdFunding.sol\":1400:1414  campaign_owner */\n      0x04\n      0x00\n      swap1\n      sload\n      swap1\n      0x0100\n      exp\n      swap1\n      div\n      0xffffffffffffffffffffffffffffffffffffffff\n      and\n        /* \"contracts/crowdFunding.sol\":1392:1424  payable(campaign_owner).transfer */\n      0xffffffffffffffffffffffffffffffffffffffff\n      and\n        /* \"contracts/crowdFunding.sol\":1392:1433  payable(campaign_owner).transfer(balance) */\n      0x08fc\n        /* \"contracts/crowdFunding.sol\":1425:1432  balance */\n      dup3\n        /* \"contracts/crowdFunding.sol\":1392:1433  payable(campaign_owner).transfer(balance) */\n      swap1\n      dup2\n      iszero\n      mul\n      swap1\n      mload(0x40)\n      0x00\n      mload(0x40)\n      dup1\n      dup4\n      sub\n      dup2\n      dup6\n      dup9\n      dup9\n      call\n      swap4\n      pop\n      pop\n      pop\n      pop\n      iszero\n      dup1\n      iszero\n      tag_88\n      jumpi\n      returndatasize\n      0x00\n      dup1\n      returndatacopy\n      revert(0x00, returndatasize)\n    tag_88:\n      pop\n        /* \"contracts/crowdFunding.sol\":1197:1441  {... */\n      pop\n        /* \"contracts/crowdFunding.sol\":1160:1441  function withdraw() public onlyOwner {... */\n      jump\t// out\n        /* \"contracts/crowdFunding.sol\":89:116  string public campaign_name */\n    tag_31:\n      0x00\n      dup1\n      sload\n      tag_89\n      swap1\n      tag_66\n      jump\t// in\n    tag_89:\n      dup1\n      0x1f\n      add\n      0x20\n      dup1\n      swap2\n      div\n      mul\n      0x20\n      add\n      mload(0x40)\n      swap1\n      dup2\n      add\n      0x40\n      mstore\n      dup1\n      swap3\n      swap2\n      swap1\n      dup2\n      dup2\n      mstore\n      0x20\n      add\n      dup3\n      dup1\n      sload\n      tag_90\n      swap1\n      tag_66\n      jump\t// in\n    tag_90:\n      dup1\n      iszero\n      tag_91\n      jumpi\n      dup1\n      0x1f\n      lt\n      tag_92\n      jumpi\n      0x0100\n      dup1\n      dup4\n      sload\n      div\n      mul\n      dup4\n      mstore\n      swap2\n      0x20\n      add\n      swap2\n      jump(tag_91)\n    tag_92:\n      dup3\n      add\n      swap2\n      swap1\n      0x00\n      mstore\n      keccak256(0x00, 0x20)\n      swap1\n    tag_93:\n      dup2\n      sload\n      dup2\n      mstore\n      swap1\n      0x01\n      add\n      swap1\n      0x20\n      add\n      dup1\n      dup4\n      gt\n      tag_93\n      jumpi\n      dup3\n      swap1\n      sub\n      0x1f\n      and\n      dup3\n      add\n      swap2\n    tag_91:\n      pop\n      pop\n      pop\n      pop\n      pop\n      dup2\n      jump\t// out\n        /* \"contracts/crowdFunding.sol\":1449:1556  function getContractBalance() public view returns (uint256) {... */\n    tag_35:\n        /* \"contracts/crowdFunding.sol\":1500:1507  uint256 */\n      0x00\n        /* \"contracts/crowdFunding.sol\":1527:1548  address(this).balance */\n      selfbalance\n        /* \"contracts/crowdFunding.sol\":1520:1548  return address(this).balance */\n      swap1\n      pop\n        /* \"contracts/crowdFunding.sol\":1449:1556  function getContractBalance() public view returns (uint256) {... */\n      swap1\n      jump\t// out\n        /* \"contracts/crowdFunding.sol\":1755:1943  function removeTier(uint256 index) public onlyOwner {... */\n    tag_41:\n        /* \"contracts/crowdFunding.sol\":458:472  campaign_owner */\n      0x04\n      0x00\n      swap1\n      sload\n      swap1\n      0x0100\n      exp\n      swap1\n      div\n      0xffffffffffffffffffffffffffffffffffffffff\n      and\n        /* \"contracts/crowdFunding.sol\":446:472  msg.sender==campaign_owner */\n      0xffffffffffffffffffffffffffffffffffffffff\n      and\n        /* \"contracts/crowdFunding.sol\":446:456  msg.sender */\n      caller\n        /* \"contracts/crowdFunding.sol\":446:472  msg.sender==campaign_owner */\n      0xffffffffffffffffffffffffffffffffffffffff\n      and\n      eq\n        /* \"contracts/crowdFunding.sol\":438:495  require(msg.sender==campaign_owner, \"Not campaign owner\") */\n      tag_96\n      jumpi\n      mload(0x40)\n      0x08c379a000000000000000000000000000000000000000000000000000000000\n      dup2\n      mstore\n      0x04\n      add\n      tag_97\n      swap1\n      tag_79\n      jump\t// in\n    tag_97:\n      mload(0x40)\n      dup1\n      swap2\n      sub\n      swap1\n      revert\n    tag_96:\n        /* \"contracts/crowdFunding.sol\":1832:1837  tiers */\n      0x05\n        /* \"contracts/crowdFunding.sol\":1832:1844  tiers.length */\n      dup1\n      sload\n      swap1\n      pop\n        /* \"contracts/crowdFunding.sol\":1826:1831  index */\n      dup2\n        /* \"contracts/crowdFunding.sol\":1826:1844  index<tiers.length */\n      lt\n        /* \"contracts/crowdFunding.sol\":1818:1868  require(index<tiers.length, \"Tier does not exist\") */\n      tag_99\n      jumpi\n      mload(0x40)\n      0x08c379a000000000000000000000000000000000000000000000000000000000\n      dup2\n      mstore\n      0x04\n      add\n      tag_100\n      swap1\n      tag_101\n      jump\t// in\n    tag_100:\n      mload(0x40)\n      dup1\n      swap2\n      sub\n      swap1\n      revert\n    tag_99:\n        /* \"contracts/crowdFunding.sol\":1892:1897  tiers */\n      0x05\n        /* \"contracts/crowdFunding.sol\":1911:1912  1 */\n      0x01\n        /* \"contracts/crowdFunding.sol\":1898:1903  tiers */\n      0x05\n        /* \"contracts/crowdFunding.sol\":1898:1910  tiers.length */\n      dup1\n      sload\n      swap1\n      pop\n        /* \"contracts/crowdFunding.sol\":1898:1912  tiers.length-1 */\n      tag_102\n      swap2\n      swap1\n      tag_103\n      jump\t// in\n    tag_102:\n        /* \"contracts/crowdFunding.sol\":1892:1913  tiers[tiers.length-1] */\n      dup2\n      sload\n      dup2\n      lt\n      tag_104\n      jumpi\n      tag_105\n      tag_106\n      jump\t// in\n    tag_105:\n    tag_104:\n      swap1\n      0x00\n      mstore\n      keccak256(0x00, 0x20)\n      swap1\n      0x03\n      mul\n      add\n        /* \"contracts/crowdFunding.sol\":1879:1884  tiers */\n      0x05\n        /* \"contracts/crowdFunding.sol\":1885:1890  index */\n      dup3\n        /* \"contracts/crowdFunding.sol\":1879:1891  tiers[index] */\n      dup2\n      sload\n      dup2\n      lt\n      tag_108\n      jumpi\n      tag_109\n      tag_106\n      jump\t// in\n    tag_109:\n    tag_108:\n      swap1\n      0x00\n      mstore\n      keccak256(0x00, 0x20)\n      swap1\n      0x03\n      mul\n      add\n        /* \"contracts/crowdFunding.sol\":1879:1913  tiers[index]=tiers[tiers.length-1] */\n      0x00\n      dup3\n      add\n      dup2\n      0x00\n      add\n      swap1\n      dup2\n      tag_111\n      swap2\n      swap1\n      tag_112\n      jump\t// in\n    tag_111:\n      pop\n      0x01\n      dup3\n      add\n      sload\n      dup2\n      0x01\n      add\n      sstore\n      0x02\n      dup3\n      add\n      sload\n      dup2\n      0x02\n      add\n      sstore\n      swap1\n      pop\n      pop\n        /* \"contracts/crowdFunding.sol\":1924:1929  tiers */\n      0x05\n        /* \"contracts/crowdFunding.sol\":1924:1935  tiers.pop() */\n      dup1\n      sload\n      dup1\n      tag_113\n      jumpi\n      tag_114\n      tag_115\n      jump\t// in\n    tag_114:\n    tag_113:\n      0x01\n      swap1\n      sub\n      dup2\n      dup2\n      swap1\n      0x00\n      mstore\n      keccak256(0x00, 0x20)\n      swap1\n      0x03\n      mul\n      add\n      0x00\n      dup1\n      dup3\n      add\n      0x00\n      tag_117\n      swap2\n      swap1\n      tag_118\n      jump\t// in\n    tag_117:\n      0x01\n      dup3\n      add\n      0x00\n      swap1\n      sstore\n      0x02\n      dup3\n      add\n      0x00\n      swap1\n      sstore\n      pop\n      pop\n      swap1\n      sstore\n        /* \"contracts/crowdFunding.sol\":1755:1943  function removeTier(uint256 index) public onlyOwner {... */\n      pop\n      jump\t// out\n        /* \"contracts/crowdFunding.sol\":1564:1747  function addTier(string memory name, uint256 amount) public onlyOwner {... */\n    tag_46:\n        /* \"contracts/crowdFunding.sol\":458:472  campaign_owner */\n      0x04\n      0x00\n      swap1\n      sload\n      swap1\n      0x0100\n      exp\n      swap1\n      div\n      0xffffffffffffffffffffffffffffffffffffffff\n      and\n        /* \"contracts/crowdFunding.sol\":446:472  msg.sender==campaign_owner */\n      0xffffffffffffffffffffffffffffffffffffffff\n      and\n        /* \"contracts/crowdFunding.sol\":446:456  msg.sender */\n      caller\n        /* \"contracts/crowdFunding.sol\":446:472  msg.sender==campaign_owner */\n      0xffffffffffffffffffffffffffffffffffffffff\n      and\n      eq\n        /* \"contracts/crowdFunding.sol\":438:495  require(msg.sender==campaign_owner, \"Not campaign owner\") */\n      tag_120\n      jumpi\n      mload(0x40)\n      0x08c379a000000000000000000000000000000000000000000000000000000000\n      dup2\n      mstore\n      0x04\n      add\n      tag_121\n      swap1\n      tag_79\n      jump\t// in\n    tag_121:\n      mload(0x40)\n      dup1\n      swap2\n      sub\n      swap1\n      revert\n    tag_120:\n        /* \"contracts/crowdFunding.sol\":1660:1661  0 */\n      0x00\n        /* \"contracts/crowdFunding.sol\":1653:1659  amount */\n      dup2\n        /* \"contracts/crowdFunding.sol\":1653:1661  amount>0 */\n      gt\n        /* \"contracts/crowdFunding.sol\":1645:1695  require(amount>0, \"Amount must be greater than 0\") */\n      tag_123\n      jumpi\n      mload(0x40)\n      0x08c379a000000000000000000000000000000000000000000000000000000000\n      dup2\n      mstore\n      0x04\n      add\n      tag_124\n      swap1\n      tag_125\n      jump\t// in\n    tag_124:\n      mload(0x40)\n      dup1\n      swap2\n      sub\n      swap1\n      revert\n    tag_123:\n        /* \"contracts/crowdFunding.sol\":1706:1711  tiers */\n      0x05\n        /* \"contracts/crowdFunding.sol\":1717:1738  tier(name, amount, 0) */\n      mload(0x40)\n      dup1\n      0x60\n      add\n      0x40\n      mstore\n      dup1\n        /* \"contracts/crowdFunding.sol\":1722:1726  name */\n      dup5\n        /* \"contracts/crowdFunding.sol\":1717:1738  tier(name, amount, 0) */\n      dup2\n      mstore\n      0x20\n      add\n        /* \"contracts/crowdFunding.sol\":1728:1734  amount */\n      dup4\n        /* \"contracts/crowdFunding.sol\":1717:1738  tier(name, amount, 0) */\n      dup2\n      mstore\n      0x20\n      add\n        /* \"contracts/crowdFunding.sol\":1736:1737  0 */\n      0x00\n        /* \"contracts/crowdFunding.sol\":1717:1738  tier(name, amount, 0) */\n      dup2\n      mstore\n      pop\n        /* \"contracts/crowdFunding.sol\":1706:1739  tiers.push(tier(name, amount, 0)) */\n      swap1\n      dup1\n      0x01\n      dup2\n      sload\n      add\n      dup1\n      dup3\n      sstore\n      dup1\n      swap2\n      pop\n      pop\n      0x01\n      swap1\n      sub\n      swap1\n      0x00\n      mstore\n      keccak256(0x00, 0x20)\n      swap1\n      0x03\n      mul\n      add\n      0x00\n      swap1\n      swap2\n      swap1\n      swap2\n      swap1\n      swap2\n      pop\n      0x00\n      dup3\n      add\n      mload\n      dup2\n      0x00\n      add\n      swap1\n      dup2\n      tag_127\n      swap2\n      swap1\n      tag_128\n      jump\t// in\n    tag_127:\n      pop\n      0x20\n      dup3\n      add\n      mload\n      dup2\n      0x01\n      add\n      sstore\n      0x40\n      dup3\n      add\n      mload\n      dup2\n      0x02\n      add\n      sstore\n      pop\n      pop\n        /* \"contracts/crowdFunding.sol\":1564:1747  function addTier(string memory name, uint256 amount) public onlyOwner {... */\n      pop\n      pop\n      jump\t// out\n        /* \"contracts/crowdFunding.sol\":839:1152  function fund(uint256 tierIndex) public payable {... */\n    tag_49:\n        /* \"contracts/crowdFunding.sol\":922:939  campaign_deadline */\n      sload(0x03)\n        /* \"contracts/crowdFunding.sol\":906:921  block.timestamp */\n      timestamp\n        /* \"contracts/crowdFunding.sol\":906:939  block.timestamp<campaign_deadline */\n      lt\n        /* \"contracts/crowdFunding.sol\":898:968  require(block.timestamp<campaign_deadline, \"Sorry campagin has ended\") */\n      tag_130\n      jumpi\n      mload(0x40)\n      0x08c379a000000000000000000000000000000000000000000000000000000000\n      dup2\n      mstore\n      0x04\n      add\n      tag_131\n      swap1\n      tag_132\n      jump\t// in\n    tag_131:\n      mload(0x40)\n      dup1\n      swap2\n      sub\n      swap1\n      revert\n    tag_130:\n        /* \"contracts/crowdFunding.sol\":997:1002  tiers */\n      0x05\n        /* \"contracts/crowdFunding.sol\":997:1009  tiers.length */\n      dup1\n      sload\n      swap1\n      pop\n        /* \"contracts/crowdFunding.sol\":987:996  tierIndex */\n      dup2\n        /* \"contracts/crowdFunding.sol\":987:1009  tierIndex<tiers.length */\n      lt\n        /* \"contracts/crowdFunding.sol\":979:1026  require(tierIndex<tiers.length, \"Invalid Tier\") */\n      tag_133\n      jumpi\n      mload(0x40)\n      0x08c379a000000000000000000000000000000000000000000000000000000000\n      dup2\n      mstore\n      0x04\n      add\n      tag_134\n      swap1\n      tag_135\n      jump\t// in\n    tag_134:\n      mload(0x40)\n      dup1\n      swap2\n      sub\n      swap1\n      revert\n    tag_133:\n        /* \"contracts/crowdFunding.sol\":1056:1061  tiers */\n      0x05\n        /* \"contracts/crowdFunding.sol\":1062:1071  tierIndex */\n      dup2\n        /* \"contracts/crowdFunding.sol\":1056:1072  tiers[tierIndex] */\n      dup2\n      sload\n      dup2\n      lt\n      tag_136\n      jumpi\n      tag_137\n      tag_106\n      jump\t// in\n    tag_137:\n    tag_136:\n      swap1\n      0x00\n      mstore\n      keccak256(0x00, 0x20)\n      swap1\n      0x03\n      mul\n      add\n        /* \"contracts/crowdFunding.sol\":1056:1079  tiers[tierIndex].amount */\n      0x01\n      add\n      sload\n        /* \"contracts/crowdFunding.sol\":1045:1054  msg.value */\n      callvalue\n        /* \"contracts/crowdFunding.sol\":1045:1079  msg.value==tiers[tierIndex].amount */\n      eq\n        /* \"contracts/crowdFunding.sol\":1037:1105  require(msg.value==tiers[tierIndex].amount, \"Invalid amount backed\") */\n      tag_139\n      jumpi\n      mload(0x40)\n      0x08c379a000000000000000000000000000000000000000000000000000000000\n      dup2\n      mstore\n      0x04\n      add\n      tag_140\n      swap1\n      tag_141\n      jump\t// in\n    tag_140:\n      mload(0x40)\n      dup1\n      swap2\n      sub\n      swap1\n      revert\n    tag_139:\n        /* \"contracts/crowdFunding.sol\":1118:1123  tiers */\n      0x05\n        /* \"contracts/crowdFunding.sol\":1124:1133  tierIndex */\n      dup2\n        /* \"contracts/crowdFunding.sol\":1118:1134  tiers[tierIndex] */\n      dup2\n      sload\n      dup2\n      lt\n      tag_142\n      jumpi\n      tag_143\n      tag_106\n      jump\t// in\n    tag_143:\n    tag_142:\n      swap1\n      0x00\n      mstore\n      keccak256(0x00, 0x20)\n      swap1\n      0x03\n      mul\n      add\n        /* \"contracts/crowdFunding.sol\":1118:1142  tiers[tierIndex].backers */\n      0x02\n      add\n      0x00\n        /* \"contracts/crowdFunding.sol\":1118:1144  tiers[tierIndex].backers++ */\n      dup2\n      sload\n      dup1\n      swap3\n      swap2\n      swap1\n      tag_145\n      swap1\n      tag_146\n      jump\t// in\n    tag_145:\n      swap2\n      swap1\n      pop\n      sstore\n      pop\n        /* \"contracts/crowdFunding.sol\":839:1152  function fund(uint256 tierIndex) public payable {... */\n      pop\n      jump\t// out\n        /* \"contracts/crowdFunding.sol\":164:190  uint256 public goal_amount */\n    tag_52:\n      sload(0x02)\n      dup2\n      jump\t// out\n        /* \"contracts/crowdFunding.sol\":197:229  uint256 public campaign_deadline */\n    tag_56:\n      sload(0x03)\n      dup2\n      jump\t// out\n        /* \"contracts/crowdFunding.sol\":236:265  address public campaign_owner */\n    tag_60:\n      0x04\n      0x00\n      swap1\n      sload\n      swap1\n      0x0100\n      exp\n      swap1\n      div\n      0xffffffffffffffffffffffffffffffffffffffff\n      and\n      dup2\n      jump\t// out\n    tag_118:\n      pop\n      dup1\n      sload\n      tag_147\n      swap1\n      tag_66\n      jump\t// in\n    tag_147:\n      0x00\n      dup3\n      sstore\n      dup1\n      0x1f\n      lt\n      tag_149\n      jumpi\n      pop\n      jump(tag_148)\n    tag_149:\n      0x1f\n      add\n      0x20\n      swap1\n      div\n      swap1\n      0x00\n      mstore\n      keccak256(0x00, 0x20)\n      swap1\n      dup2\n      add\n      swap1\n      tag_150\n      swap2\n      swap1\n      tag_151\n      jump\t// in\n    tag_150:\n    tag_148:\n      pop\n      jump\t// out\n    tag_151:\n    tag_152:\n      dup1\n      dup3\n      gt\n      iszero\n      tag_153\n      jumpi\n      0x00\n      dup2\n      0x00\n      swap1\n      sstore\n      pop\n      0x01\n      add\n      jump(tag_152)\n    tag_153:\n      pop\n      swap1\n      jump\t// out\n        /* \"#utility.yul\":7:82   */\n    tag_154:\n        /* \"#utility.yul\":40:46   */\n      0x00\n        /* \"#utility.yul\":73:75   */\n      0x40\n        /* \"#utility.yul\":67:76   */\n      mload\n        /* \"#utility.yul\":57:76   */\n      swap1\n      pop\n        /* \"#utility.yul\":7:82   */\n      swap1\n      jump\t// out\n        /* \"#utility.yul\":88:205   */\n    tag_155:\n        /* \"#utility.yul\":197:198   */\n      0x00\n        /* \"#utility.yul\":194:195   */\n      dup1\n        /* \"#utility.yul\":187:199   */\n      revert\n        /* \"#utility.yul\":211:328   */\n    tag_156:\n        /* \"#utility.yul\":320:321   */\n      0x00\n        /* \"#utility.yul\":317:318   */\n      dup1\n        /* \"#utility.yul\":310:322   */\n      revert\n        /* \"#utility.yul\":334:411   */\n    tag_157:\n        /* \"#utility.yul\":371:378   */\n      0x00\n        /* \"#utility.yul\":400:405   */\n      dup2\n        /* \"#utility.yul\":389:405   */\n      swap1\n      pop\n        /* \"#utility.yul\":334:411   */\n      swap2\n      swap1\n      pop\n      jump\t// out\n        /* \"#utility.yul\":417:539   */\n    tag_158:\n        /* \"#utility.yul\":490:514   */\n      tag_218\n        /* \"#utility.yul\":508:513   */\n      dup2\n        /* \"#utility.yul\":490:514   */\n      tag_157\n      jump\t// in\n    tag_218:\n        /* \"#utility.yul\":483:488   */\n      dup2\n        /* \"#utility.yul\":480:515   */\n      eq\n        /* \"#utility.yul\":470:533   */\n      tag_219\n      jumpi\n        /* \"#utility.yul\":529:530   */\n      0x00\n        /* \"#utility.yul\":526:527   */\n      dup1\n        /* \"#utility.yul\":519:531   */\n      revert\n        /* \"#utility.yul\":470:533   */\n    tag_219:\n        /* \"#utility.yul\":417:539   */\n      pop\n      jump\t// out\n        /* \"#utility.yul\":545:684   */\n    tag_159:\n        /* \"#utility.yul\":591:596   */\n      0x00\n        /* \"#utility.yul\":629:635   */\n      dup2\n        /* \"#utility.yul\":616:636   */\n      calldataload\n        /* \"#utility.yul\":607:636   */\n      swap1\n      pop\n        /* \"#utility.yul\":645:678   */\n      tag_221\n        /* \"#utility.yul\":672:677   */\n      dup2\n        /* \"#utility.yul\":645:678   */\n      tag_158\n      jump\t// in\n    tag_221:\n        /* \"#utility.yul\":545:684   */\n      swap3\n      swap2\n      pop\n      pop\n      jump\t// out\n        /* \"#utility.yul\":690:1019   */\n    tag_17:\n        /* \"#utility.yul\":749:755   */\n      0x00\n        /* \"#utility.yul\":798:800   */\n      0x20\n        /* \"#utility.yul\":786:795   */\n      dup3\n        /* \"#utility.yul\":777:784   */\n      dup5\n        /* \"#utility.yul\":773:796   */\n      sub\n        /* \"#utility.yul\":769:801   */\n      slt\n        /* \"#utility.yul\":766:885   */\n      iszero\n      tag_223\n      jumpi\n        /* \"#utility.yul\":804:883   */\n      tag_224\n      tag_155\n      jump\t// in\n    tag_224:\n        /* \"#utility.yul\":766:885   */\n    tag_223:\n        /* \"#utility.yul\":924:925   */\n      0x00\n        /* \"#utility.yul\":949:1002   */\n      tag_225\n        /* \"#utility.yul\":994:1001   */\n      dup5\n        /* \"#utility.yul\":985:991   */\n      dup3\n        /* \"#utility.yul\":974:983   */\n      dup6\n        /* \"#utility.yul\":970:992   */\n      add\n        /* \"#utility.yul\":949:1002   */\n      tag_159\n      jump\t// in\n    tag_225:\n        /* \"#utility.yul\":939:1002   */\n      swap2\n      pop\n        /* \"#utility.yul\":895:1012   */\n      pop\n        /* \"#utility.yul\":690:1019   */\n      swap3\n      swap2\n      pop\n      pop\n      jump\t// out\n        /* \"#utility.yul\":1025:1124   */\n    tag_160:\n        /* \"#utility.yul\":1077:1083   */\n      0x00\n        /* \"#utility.yul\":1111:1116   */\n      dup2\n        /* \"#utility.yul\":1105:1117   */\n      mload\n        /* \"#utility.yul\":1095:1117   */\n      swap1\n      pop\n        /* \"#utility.yul\":1025:1124   */\n      swap2\n      swap1\n      pop\n      jump\t// out\n        /* \"#utility.yul\":1130:1299   */\n    tag_161:\n        /* \"#utility.yul\":1214:1225   */\n      0x00\n        /* \"#utility.yul\":1248:1254   */\n      dup3\n        /* \"#utility.yul\":1243:1246   */\n      dup3\n        /* \"#utility.yul\":1236:1255   */\n      mstore\n        /* \"#utility.yul\":1288:1292   */\n      0x20\n        /* \"#utility.yul\":1283:1286   */\n      dup3\n        /* \"#utility.yul\":1279:1293   */\n      add\n        /* \"#utility.yul\":1264:1293   */\n      swap1\n      pop\n        /* \"#utility.yul\":1130:1299   */\n      swap3\n      swap2\n      pop\n      pop\n      jump\t// out\n        /* \"#utility.yul\":1305:1444   */\n    tag_162:\n        /* \"#utility.yul\":1394:1400   */\n      dup3\n        /* \"#utility.yul\":1389:1392   */\n      dup2\n        /* \"#utility.yul\":1384:1387   */\n      dup4\n        /* \"#utility.yul\":1378:1401   */\n      mcopy\n        /* \"#utility.yul\":1435:1436   */\n      0x00\n        /* \"#utility.yul\":1426:1432   */\n      dup4\n        /* \"#utility.yul\":1421:1424   */\n      dup4\n        /* \"#utility.yul\":1417:1433   */\n      add\n        /* \"#utility.yul\":1410:1437   */\n      mstore\n        /* \"#utility.yul\":1305:1444   */\n      pop\n      pop\n      pop\n      jump\t// out\n        /* \"#utility.yul\":1450:1552   */\n    tag_163:\n        /* \"#utility.yul\":1491:1497   */\n      0x00\n        /* \"#utility.yul\":1542:1544   */\n      0x1f\n        /* \"#utility.yul\":1538:1545   */\n      not\n        /* \"#utility.yul\":1533:1535   */\n      0x1f\n        /* \"#utility.yul\":1526:1531   */\n      dup4\n        /* \"#utility.yul\":1522:1536   */\n      add\n        /* \"#utility.yul\":1518:1546   */\n      and\n        /* \"#utility.yul\":1508:1546   */\n      swap1\n      pop\n        /* \"#utility.yul\":1450:1552   */\n      swap2\n      swap1\n      pop\n      jump\t// out\n        /* \"#utility.yul\":1558:1935   */\n    tag_164:\n        /* \"#utility.yul\":1646:1649   */\n      0x00\n        /* \"#utility.yul\":1674:1713   */\n      tag_231\n        /* \"#utility.yul\":1707:1712   */\n      dup3\n        /* \"#utility.yul\":1674:1713   */\n      tag_160\n      jump\t// in\n    tag_231:\n        /* \"#utility.yul\":1729:1800   */\n      tag_232\n        /* \"#utility.yul\":1793:1799   */\n      dup2\n        /* \"#utility.yul\":1788:1791   */\n      dup6\n        /* \"#utility.yul\":1729:1800   */\n      tag_161\n      jump\t// in\n    tag_232:\n        /* \"#utility.yul\":1722:1800   */\n      swap4\n      pop\n        /* \"#utility.yul\":1809:1874   */\n      tag_233\n        /* \"#utility.yul\":1867:1873   */\n      dup2\n        /* \"#utility.yul\":1862:1865   */\n      dup6\n        /* \"#utility.yul\":1855:1859   */\n      0x20\n        /* \"#utility.yul\":1848:1853   */\n      dup7\n        /* \"#utility.yul\":1844:1860   */\n      add\n        /* \"#utility.yul\":1809:1874   */\n      tag_162\n      jump\t// in\n    tag_233:\n        /* \"#utility.yul\":1899:1928   */\n      tag_234\n        /* \"#utility.yul\":1921:1927   */\n      dup2\n        /* \"#utility.yul\":1899:1928   */\n      tag_163\n      jump\t// in\n    tag_234:\n        /* \"#utility.yul\":1894:1897   */\n      dup5\n        /* \"#utility.yul\":1890:1929   */\n      add\n        /* \"#utility.yul\":1883:1929   */\n      swap2\n      pop\n        /* \"#utility.yul\":1650:1935   */\n      pop\n        /* \"#utility.yul\":1558:1935   */\n      swap3\n      swap2\n      pop\n      pop\n      jump\t// out\n        /* \"#utility.yul\":1941:2059   */\n    tag_165:\n        /* \"#utility.yul\":2028:2052   */\n      tag_236\n        /* \"#utility.yul\":2046:2051   */\n      dup2\n        /* \"#utility.yul\":2028:2052   */\n      tag_157\n      jump\t// in\n    tag_236:\n        /* \"#utility.yul\":2023:2026   */\n      dup3\n        /* \"#utility.yul\":2016:2053   */\n      mstore\n        /* \"#utility.yul\":1941:2059   */\n      pop\n      pop\n      jump\t// out\n        /* \"#utility.yul\":2065:2598   */\n    tag_20:\n        /* \"#utility.yul\":2234:2238   */\n      0x00\n        /* \"#utility.yul\":2272:2274   */\n      0x60\n        /* \"#utility.yul\":2261:2270   */\n      dup3\n        /* \"#utility.yul\":2257:2275   */\n      add\n        /* \"#utility.yul\":2249:2275   */\n      swap1\n      pop\n        /* \"#utility.yul\":2321:2330   */\n      dup2\n        /* \"#utility.yul\":2315:2319   */\n      dup2\n        /* \"#utility.yul\":2311:2331   */\n      sub\n        /* \"#utility.yul\":2307:2308   */\n      0x00\n        /* \"#utility.yul\":2296:2305   */\n      dup4\n        /* \"#utility.yul\":2292:2309   */\n      add\n        /* \"#utility.yul\":2285:2332   */\n      mstore\n        /* \"#utility.yul\":2349:2427   */\n      tag_238\n        /* \"#utility.yul\":2422:2426   */\n      dup2\n        /* \"#utility.yul\":2413:2419   */\n      dup7\n        /* \"#utility.yul\":2349:2427   */\n      tag_164\n      jump\t// in\n    tag_238:\n        /* \"#utility.yul\":2341:2427   */\n      swap1\n      pop\n        /* \"#utility.yul\":2437:2509   */\n      tag_239\n        /* \"#utility.yul\":2505:2507   */\n      0x20\n        /* \"#utility.yul\":2494:2503   */\n      dup4\n        /* \"#utility.yul\":2490:2508   */\n      add\n        /* \"#utility.yul\":2481:2487   */\n      dup6\n        /* \"#utility.yul\":2437:2509   */\n      tag_165\n      jump\t// in\n    tag_239:\n        /* \"#utility.yul\":2519:2591   */\n      tag_240\n        /* \"#utility.yul\":2587:2589   */\n      0x40\n        /* \"#utility.yul\":2576:2585   */\n      dup4\n        /* \"#utility.yul\":2572:2590   */\n      add\n        /* \"#utility.yul\":2563:2569   */\n      dup5\n        /* \"#utility.yul\":2519:2591   */\n      tag_165\n      jump\t// in\n    tag_240:\n        /* \"#utility.yul\":2065:2598   */\n      swap5\n      swap4\n      pop\n      pop\n      pop\n      pop\n      jump\t// out\n        /* \"#utility.yul\":2604:2917   */\n    tag_25:\n        /* \"#utility.yul\":2717:2721   */\n      0x00\n        /* \"#utility.yul\":2755:2757   */\n      0x20\n        /* \"#utility.yul\":2744:2753   */\n      dup3\n        /* \"#utility.yul\":2740:2758   */\n      add\n        /* \"#utility.yul\":2732:2758   */\n      swap1\n      pop\n        /* \"#utility.yul\":2804:2813   */\n      dup2\n        /* \"#utility.yul\":2798:2802   */\n      dup2\n        /* \"#utility.yul\":2794:2814   */\n      sub\n        /* \"#utility.yul\":2790:2791   */\n      0x00\n        /* \"#utility.yul\":2779:2788   */\n      dup4\n        /* \"#utility.yul\":2775:2792   */\n      add\n        /* \"#utility.yul\":2768:2815   */\n      mstore\n        /* \"#utility.yul\":2832:2910   */\n      tag_242\n        /* \"#utility.yul\":2905:2909   */\n      dup2\n        /* \"#utility.yul\":2896:2902   */\n      dup5\n        /* \"#utility.yul\":2832:2910   */\n      tag_164\n      jump\t// in\n    tag_242:\n        /* \"#utility.yul\":2824:2910   */\n      swap1\n      pop\n        /* \"#utility.yul\":2604:2917   */\n      swap3\n      swap2\n      pop\n      pop\n      jump\t// out\n        /* \"#utility.yul\":2923:3145   */\n    tag_37:\n        /* \"#utility.yul\":3016:3020   */\n      0x00\n        /* \"#utility.yul\":3054:3056   */\n      0x20\n        /* \"#utility.yul\":3043:3052   */\n      dup3\n        /* \"#utility.yul\":3039:3057   */\n      add\n        /* \"#utility.yul\":3031:3057   */\n      swap1\n      pop\n        /* \"#utility.yul\":3067:3138   */\n      tag_244\n        /* \"#utility.yul\":3135:3136   */\n      0x00\n        /* \"#utility.yul\":3124:3133   */\n      dup4\n        /* \"#utility.yul\":3120:3137   */\n      add\n        /* \"#utility.yul\":3111:3117   */\n      dup5\n        /* \"#utility.yul\":3067:3138   */\n      tag_165\n      jump\t// in\n    tag_244:\n        /* \"#utility.yul\":2923:3145   */\n      swap3\n      swap2\n      pop\n      pop\n      jump\t// out\n        /* \"#utility.yul\":3151:3268   */\n    tag_166:\n        /* \"#utility.yul\":3260:3261   */\n      0x00\n        /* \"#utility.yul\":3257:3258   */\n      dup1\n        /* \"#utility.yul\":3250:3262   */\n      revert\n        /* \"#utility.yul\":3274:3391   */\n    tag_167:\n        /* \"#utility.yul\":3383:3384   */\n      0x00\n        /* \"#utility.yul\":3380:3381   */\n      dup1\n        /* \"#utility.yul\":3373:3385   */\n      revert\n        /* \"#utility.yul\":3397:3577   */\n    tag_168:\n        /* \"#utility.yul\":3445:3522   */\n      0x4e487b7100000000000000000000000000000000000000000000000000000000\n        /* \"#utility.yul\":3442:3443   */\n      0x00\n        /* \"#utility.yul\":3435:3523   */\n      mstore\n        /* \"#utility.yul\":3542:3546   */\n      0x41\n        /* \"#utility.yul\":3539:3540   */\n      0x04\n        /* \"#utility.yul\":3532:3547   */\n      mstore\n        /* \"#utility.yul\":3566:3570   */\n      0x24\n        /* \"#utility.yul\":3563:3564   */\n      0x00\n        /* \"#utility.yul\":3556:3571   */\n      revert\n        /* \"#utility.yul\":3583:3864   */\n    tag_169:\n        /* \"#utility.yul\":3666:3693   */\n      tag_249\n        /* \"#utility.yul\":3688:3692   */\n      dup3\n        /* \"#utility.yul\":3666:3693   */\n      tag_163\n      jump\t// in\n    tag_249:\n        /* \"#utility.yul\":3658:3664   */\n      dup2\n        /* \"#utility.yul\":3654:3694   */\n      add\n        /* \"#utility.yul\":3796:3802   */\n      dup2\n        /* \"#utility.yul\":3784:3794   */\n      dup2\n        /* \"#utility.yul\":3781:3803   */\n      lt\n        /* \"#utility.yul\":3760:3778   */\n      0xffffffffffffffff\n        /* \"#utility.yul\":3748:3758   */\n      dup3\n        /* \"#utility.yul\":3745:3779   */\n      gt\n        /* \"#utility.yul\":3742:3804   */\n      or\n        /* \"#utility.yul\":3739:3827   */\n      iszero\n      tag_250\n      jumpi\n        /* \"#utility.yul\":3807:3825   */\n      tag_251\n      tag_168\n      jump\t// in\n    tag_251:\n        /* \"#utility.yul\":3739:3827   */\n    tag_250:\n        /* \"#utility.yul\":3847:3857   */\n      dup1\n        /* \"#utility.yul\":3843:3845   */\n      0x40\n        /* \"#utility.yul\":3836:3858   */\n      mstore\n        /* \"#utility.yul\":3626:3864   */\n      pop\n        /* \"#utility.yul\":3583:3864   */\n      pop\n      pop\n      jump\t// out\n        /* \"#utility.yul\":3870:3999   */\n    tag_170:\n        /* \"#utility.yul\":3904:3910   */\n      0x00\n        /* \"#utility.yul\":3931:3951   */\n      tag_253\n      tag_154\n      jump\t// in\n    tag_253:\n        /* \"#utility.yul\":3921:3951   */\n      swap1\n      pop\n        /* \"#utility.yul\":3960:3993   */\n      tag_254\n        /* \"#utility.yul\":3988:3992   */\n      dup3\n        /* \"#utility.yul\":3980:3986   */\n      dup3\n        /* \"#utility.yul\":3960:3993   */\n      tag_169\n      jump\t// in\n    tag_254:\n        /* \"#utility.yul\":3870:3999   */\n      swap2\n      swap1\n      pop\n      jump\t// out\n        /* \"#utility.yul\":4005:4313   */\n    tag_171:\n        /* \"#utility.yul\":4067:4071   */\n      0x00\n        /* \"#utility.yul\":4157:4175   */\n      0xffffffffffffffff\n        /* \"#utility.yul\":4149:4155   */\n      dup3\n        /* \"#utility.yul\":4146:4176   */\n      gt\n        /* \"#utility.yul\":4143:4199   */\n      iszero\n      tag_256\n      jumpi\n        /* \"#utility.yul\":4179:4197   */\n      tag_257\n      tag_168\n      jump\t// in\n    tag_257:\n        /* \"#utility.yul\":4143:4199   */\n    tag_256:\n        /* \"#utility.yul\":4217:4246   */\n      tag_258\n        /* \"#utility.yul\":4239:4245   */\n      dup3\n        /* \"#utility.yul\":4217:4246   */\n      tag_163\n      jump\t// in\n    tag_258:\n        /* \"#utility.yul\":4209:4246   */\n      swap1\n      pop\n        /* \"#utility.yul\":4301:4305   */\n      0x20\n        /* \"#utility.yul\":4295:4299   */\n      dup2\n        /* \"#utility.yul\":4291:4306   */\n      add\n        /* \"#utility.yul\":4283:4306   */\n      swap1\n      pop\n        /* \"#utility.yul\":4005:4313   */\n      swap2\n      swap1\n      pop\n      jump\t// out\n        /* \"#utility.yul\":4319:4467   */\n    tag_172:\n        /* \"#utility.yul\":4417:4423   */\n      dup3\n        /* \"#utility.yul\":4412:4415   */\n      dup2\n        /* \"#utility.yul\":4407:4410   */\n      dup4\n        /* \"#utility.yul\":4394:4424   */\n      calldatacopy\n        /* \"#utility.yul\":4458:4459   */\n      0x00\n        /* \"#utility.yul\":4449:4455   */\n      dup4\n        /* \"#utility.yul\":4444:4447   */\n      dup4\n        /* \"#utility.yul\":4440:4456   */\n      add\n        /* \"#utility.yul\":4433:4460   */\n      mstore\n        /* \"#utility.yul\":4319:4467   */\n      pop\n      pop\n      pop\n      jump\t// out\n        /* \"#utility.yul\":4473:4898   */\n    tag_173:\n        /* \"#utility.yul\":4551:4556   */\n      0x00\n        /* \"#utility.yul\":4576:4642   */\n      tag_261\n        /* \"#utility.yul\":4592:4641   */\n      tag_262\n        /* \"#utility.yul\":4634:4640   */\n      dup5\n        /* \"#utility.yul\":4592:4641   */\n      tag_171\n      jump\t// in\n    tag_262:\n        /* \"#utility.yul\":4576:4642   */\n      tag_170\n      jump\t// in\n    tag_261:\n        /* \"#utility.yul\":4567:4642   */\n      swap1\n      pop\n        /* \"#utility.yul\":4665:4671   */\n      dup3\n        /* \"#utility.yul\":4658:4663   */\n      dup2\n        /* \"#utility.yul\":4651:4672   */\n      mstore\n        /* \"#utility.yul\":4703:4707   */\n      0x20\n        /* \"#utility.yul\":4696:4701   */\n      dup2\n        /* \"#utility.yul\":4692:4708   */\n      add\n        /* \"#utility.yul\":4741:4744   */\n      dup5\n        /* \"#utility.yul\":4732:4738   */\n      dup5\n        /* \"#utility.yul\":4727:4730   */\n      dup5\n        /* \"#utility.yul\":4723:4739   */\n      add\n        /* \"#utility.yul\":4720:4745   */\n      gt\n        /* \"#utility.yul\":4717:4829   */\n      iszero\n      tag_263\n      jumpi\n        /* \"#utility.yul\":4748:4827   */\n      tag_264\n      tag_167\n      jump\t// in\n    tag_264:\n        /* \"#utility.yul\":4717:4829   */\n    tag_263:\n        /* \"#utility.yul\":4838:4892   */\n      tag_265\n        /* \"#utility.yul\":4885:4891   */\n      dup5\n        /* \"#utility.yul\":4880:4883   */\n      dup3\n        /* \"#utility.yul\":4875:4878   */\n      dup6\n        /* \"#utility.yul\":4838:4892   */\n      tag_172\n      jump\t// in\n    tag_265:\n        /* \"#utility.yul\":4557:4898   */\n      pop\n        /* \"#utility.yul\":4473:4898   */\n      swap4\n      swap3\n      pop\n      pop\n      pop\n      jump\t// out\n        /* \"#utility.yul\":4918:5258   */\n    tag_174:\n        /* \"#utility.yul\":4974:4979   */\n      0x00\n        /* \"#utility.yul\":5023:5026   */\n      dup3\n        /* \"#utility.yul\":5016:5020   */\n      0x1f\n        /* \"#utility.yul\":5008:5014   */\n      dup4\n        /* \"#utility.yul\":5004:5021   */\n      add\n        /* \"#utility.yul\":5000:5027   */\n      slt\n        /* \"#utility.yul\":4990:5112   */\n      tag_267\n      jumpi\n        /* \"#utility.yul\":5031:5110   */\n      tag_268\n      tag_166\n      jump\t// in\n    tag_268:\n        /* \"#utility.yul\":4990:5112   */\n    tag_267:\n        /* \"#utility.yul\":5148:5154   */\n      dup2\n        /* \"#utility.yul\":5135:5155   */\n      calldataload\n        /* \"#utility.yul\":5173:5252   */\n      tag_269\n        /* \"#utility.yul\":5248:5251   */\n      dup5\n        /* \"#utility.yul\":5240:5246   */\n      dup3\n        /* \"#utility.yul\":5233:5237   */\n      0x20\n        /* \"#utility.yul\":5225:5231   */\n      dup7\n        /* \"#utility.yul\":5221:5238   */\n      add\n        /* \"#utility.yul\":5173:5252   */\n      tag_173\n      jump\t// in\n    tag_269:\n        /* \"#utility.yul\":5164:5252   */\n      swap2\n      pop\n        /* \"#utility.yul\":4980:5258   */\n      pop\n        /* \"#utility.yul\":4918:5258   */\n      swap3\n      swap2\n      pop\n      pop\n      jump\t// out\n        /* \"#utility.yul\":5264:5918   */\n    tag_45:\n        /* \"#utility.yul\":5342:5348   */\n      0x00\n        /* \"#utility.yul\":5350:5356   */\n      dup1\n        /* \"#utility.yul\":5399:5401   */\n      0x40\n        /* \"#utility.yul\":5387:5396   */\n      dup4\n        /* \"#utility.yul\":5378:5385   */\n      dup6\n        /* \"#utility.yul\":5374:5397   */\n      sub\n        /* \"#utility.yul\":5370:5402   */\n      slt\n        /* \"#utility.yul\":5367:5486   */\n      iszero\n      tag_271\n      jumpi\n        /* \"#utility.yul\":5405:5484   */\n      tag_272\n      tag_155\n      jump\t// in\n    tag_272:\n        /* \"#utility.yul\":5367:5486   */\n    tag_271:\n        /* \"#utility.yul\":5553:5554   */\n      0x00\n        /* \"#utility.yul\":5542:5551   */\n      dup4\n        /* \"#utility.yul\":5538:5555   */\n      add\n        /* \"#utility.yul\":5525:5556   */\n      calldataload\n        /* \"#utility.yul\":5583:5601   */\n      0xffffffffffffffff\n        /* \"#utility.yul\":5575:5581   */\n      dup2\n        /* \"#utility.yul\":5572:5602   */\n      gt\n        /* \"#utility.yul\":5569:5686   */\n      iszero\n      tag_273\n      jumpi\n        /* \"#utility.yul\":5605:5684   */\n      tag_274\n      tag_156\n      jump\t// in\n    tag_274:\n        /* \"#utility.yul\":5569:5686   */\n    tag_273:\n        /* \"#utility.yul\":5710:5773   */\n      tag_275\n        /* \"#utility.yul\":5765:5772   */\n      dup6\n        /* \"#utility.yul\":5756:5762   */\n      dup3\n        /* \"#utility.yul\":5745:5754   */\n      dup7\n        /* \"#utility.yul\":5741:5763   */\n      add\n        /* \"#utility.yul\":5710:5773   */\n      tag_174\n      jump\t// in\n    tag_275:\n        /* \"#utility.yul\":5700:5773   */\n      swap3\n      pop\n        /* \"#utility.yul\":5496:5783   */\n      pop\n        /* \"#utility.yul\":5822:5824   */\n      0x20\n        /* \"#utility.yul\":5848:5901   */\n      tag_276\n        /* \"#utility.yul\":5893:5900   */\n      dup6\n        /* \"#utility.yul\":5884:5890   */\n      dup3\n        /* \"#utility.yul\":5873:5882   */\n      dup7\n        /* \"#utility.yul\":5869:5891   */\n      add\n        /* \"#utility.yul\":5848:5901   */\n      tag_159\n      jump\t// in\n    tag_276:\n        /* \"#utility.yul\":5838:5901   */\n      swap2\n      pop\n        /* \"#utility.yul\":5793:5911   */\n      pop\n        /* \"#utility.yul\":5264:5918   */\n      swap3\n      pop\n      swap3\n      swap1\n      pop\n      jump\t// out\n        /* \"#utility.yul\":5924:6050   */\n    tag_175:\n        /* \"#utility.yul\":5961:5968   */\n      0x00\n        /* \"#utility.yul\":6001:6043   */\n      0xffffffffffffffffffffffffffffffffffffffff\n        /* \"#utility.yul\":5994:5999   */\n      dup3\n        /* \"#utility.yul\":5990:6044   */\n      and\n        /* \"#utility.yul\":5979:6044   */\n      swap1\n      pop\n        /* \"#utility.yul\":5924:6050   */\n      swap2\n      swap1\n      pop\n      jump\t// out\n        /* \"#utility.yul\":6056:6152   */\n    tag_176:\n        /* \"#utility.yul\":6093:6100   */\n      0x00\n        /* \"#utility.yul\":6122:6146   */\n      tag_279\n        /* \"#utility.yul\":6140:6145   */\n      dup3\n        /* \"#utility.yul\":6122:6146   */\n      tag_175\n      jump\t// in\n    tag_279:\n        /* \"#utility.yul\":6111:6146   */\n      swap1\n      pop\n        /* \"#utility.yul\":6056:6152   */\n      swap2\n      swap1\n      pop\n      jump\t// out\n        /* \"#utility.yul\":6158:6276   */\n    tag_177:\n        /* \"#utility.yul\":6245:6269   */\n      tag_281\n        /* \"#utility.yul\":6263:6268   */\n      dup2\n        /* \"#utility.yul\":6245:6269   */\n      tag_176\n      jump\t// in\n    tag_281:\n        /* \"#utility.yul\":6240:6243   */\n      dup3\n        /* \"#utility.yul\":6233:6270   */\n      mstore\n        /* \"#utility.yul\":6158:6276   */\n      pop\n      pop\n      jump\t// out\n        /* \"#utility.yul\":6282:6504   */\n    tag_62:\n        /* \"#utility.yul\":6375:6379   */\n      0x00\n        /* \"#utility.yul\":6413:6415   */\n      0x20\n        /* \"#utility.yul\":6402:6411   */\n      dup3\n        /* \"#utility.yul\":6398:6416   */\n      add\n        /* \"#utility.yul\":6390:6416   */\n      swap1\n      pop\n        /* \"#utility.yul\":6426:6497   */\n      tag_283\n        /* \"#utility.yul\":6494:6495   */\n      0x00\n        /* \"#utility.yul\":6483:6492   */\n      dup4\n        /* \"#utility.yul\":6479:6496   */\n      add\n        /* \"#utility.yul\":6470:6476   */\n      dup5\n        /* \"#utility.yul\":6426:6497   */\n      tag_177\n      jump\t// in\n    tag_283:\n        /* \"#utility.yul\":6282:6504   */\n      swap3\n      swap2\n      pop\n      pop\n      jump\t// out\n        /* \"#utility.yul\":6510:6690   */\n    tag_178:\n        /* \"#utility.yul\":6558:6635   */\n      0x4e487b7100000000000000000000000000000000000000000000000000000000\n        /* \"#utility.yul\":6555:6556   */\n      0x00\n        /* \"#utility.yul\":6548:6636   */\n      mstore\n        /* \"#utility.yul\":6655:6659   */\n      0x22\n        /* \"#utility.yul\":6652:6653   */\n      0x04\n        /* \"#utility.yul\":6645:6660   */\n      mstore\n        /* \"#utility.yul\":6679:6683   */\n      0x24\n        /* \"#utility.yul\":6676:6677   */\n      0x00\n        /* \"#utility.yul\":6669:6684   */\n      revert\n        /* \"#utility.yul\":6696:7016   */\n    tag_66:\n        /* \"#utility.yul\":6740:6746   */\n      0x00\n        /* \"#utility.yul\":6777:6778   */\n      0x02\n        /* \"#utility.yul\":6771:6775   */\n      dup3\n        /* \"#utility.yul\":6767:6779   */\n      div\n        /* \"#utility.yul\":6757:6779   */\n      swap1\n      pop\n        /* \"#utility.yul\":6824:6825   */\n      0x01\n        /* \"#utility.yul\":6818:6822   */\n      dup3\n        /* \"#utility.yul\":6814:6826   */\n      and\n        /* \"#utility.yul\":6845:6863   */\n      dup1\n        /* \"#utility.yul\":6835:6916   */\n      tag_286\n      jumpi\n        /* \"#utility.yul\":6901:6905   */\n      0x7f\n        /* \"#utility.yul\":6893:6899   */\n      dup3\n        /* \"#utility.yul\":6889:6906   */\n      and\n        /* \"#utility.yul\":6879:6906   */\n      swap2\n      pop\n        /* \"#utility.yul\":6835:6916   */\n    tag_286:\n        /* \"#utility.yul\":6963:6965   */\n      0x20\n        /* \"#utility.yul\":6955:6961   */\n      dup3\n        /* \"#utility.yul\":6952:6966   */\n      lt\n        /* \"#utility.yul\":6932:6950   */\n      dup2\n        /* \"#utility.yul\":6929:6967   */\n      sub\n        /* \"#utility.yul\":6926:7010   */\n      tag_287\n      jumpi\n        /* \"#utility.yul\":6982:7000   */\n      tag_288\n      tag_178\n      jump\t// in\n    tag_288:\n        /* \"#utility.yul\":6926:7010   */\n    tag_287:\n        /* \"#utility.yul\":6747:7016   */\n      pop\n        /* \"#utility.yul\":6696:7016   */\n      swap2\n      swap1\n      pop\n      jump\t// out\n        /* \"#utility.yul\":7022:7190   */\n    tag_179:\n        /* \"#utility.yul\":7162:7182   */\n      0x4e6f742063616d706169676e206f776e65720000000000000000000000000000\n        /* \"#utility.yul\":7158:7159   */\n      0x00\n        /* \"#utility.yul\":7150:7156   */\n      dup3\n        /* \"#utility.yul\":7146:7160   */\n      add\n        /* \"#utility.yul\":7139:7183   */\n      mstore\n        /* \"#utility.yul\":7022:7190   */\n      pop\n      jump\t// out\n        /* \"#utility.yul\":7196:7562   */\n    tag_180:\n        /* \"#utility.yul\":7338:7341   */\n      0x00\n        /* \"#utility.yul\":7359:7426   */\n      tag_291\n        /* \"#utility.yul\":7423:7425   */\n      0x12\n        /* \"#utility.yul\":7418:7421   */\n      dup4\n        /* \"#utility.yul\":7359:7426   */\n      tag_161\n      jump\t// in\n    tag_291:\n        /* \"#utility.yul\":7352:7426   */\n      swap2\n      pop\n        /* \"#utility.yul\":7435:7528   */\n      tag_292\n        /* \"#utility.yul\":7524:7527   */\n      dup3\n        /* \"#utility.yul\":7435:7528   */\n      tag_179\n      jump\t// in\n    tag_292:\n        /* \"#utility.yul\":7553:7555   */\n      0x20\n        /* \"#utility.yul\":7548:7551   */\n      dup3\n        /* \"#utility.yul\":7544:7556   */\n      add\n        /* \"#utility.yul\":7537:7556   */\n      swap1\n      pop\n        /* \"#utility.yul\":7196:7562   */\n      swap2\n      swap1\n      pop\n      jump\t// out\n        /* \"#utility.yul\":7568:7987   */\n    tag_79:\n        /* \"#utility.yul\":7734:7738   */\n      0x00\n        /* \"#utility.yul\":7772:7774   */\n      0x20\n        /* \"#utility.yul\":7761:7770   */\n      dup3\n        /* \"#utility.yul\":7757:7775   */\n      add\n        /* \"#utility.yul\":7749:7775   */\n      swap1\n      pop\n        /* \"#utility.yul\":7821:7830   */\n      dup2\n        /* \"#utility.yul\":7815:7819   */\n      dup2\n        /* \"#utility.yul\":7811:7831   */\n      sub\n        /* \"#utility.yul\":7807:7808   */\n      0x00\n        /* \"#utility.yul\":7796:7805   */\n      dup4\n        /* \"#utility.yul\":7792:7809   */\n      add\n        /* \"#utility.yul\":7785:7832   */\n      mstore\n        /* \"#utility.yul\":7849:7980   */\n      tag_294\n        /* \"#utility.yul\":7975:7979   */\n      dup2\n        /* \"#utility.yul\":7849:7980   */\n      tag_180\n      jump\t// in\n    tag_294:\n        /* \"#utility.yul\":7841:7980   */\n      swap1\n      pop\n        /* \"#utility.yul\":7568:7987   */\n      swap2\n      swap1\n      pop\n      jump\t// out\n        /* \"#utility.yul\":7993:8165   */\n    tag_181:\n        /* \"#utility.yul\":8133:8157   */\n      0x476f616c206e6f7420636f6d706c657465642079657400000000000000000000\n        /* \"#utility.yul\":8129:8130   */\n      0x00\n        /* \"#utility.yul\":8121:8127   */\n      dup3\n        /* \"#utility.yul\":8117:8131   */\n      add\n        /* \"#utility.yul\":8110:8158   */\n      mstore\n        /* \"#utility.yul\":7993:8165   */\n      pop\n      jump\t// out\n        /* \"#utility.yul\":8171:8537   */\n    tag_182:\n        /* \"#utility.yul\":8313:8316   */\n      0x00\n        /* \"#utility.yul\":8334:8401   */\n      tag_297\n        /* \"#utility.yul\":8398:8400   */\n      0x16\n        /* \"#utility.yul\":8393:8396   */\n      dup4\n        /* \"#utility.yul\":8334:8401   */\n      tag_161\n      jump\t// in\n    tag_297:\n        /* \"#utility.yul\":8327:8401   */\n      swap2\n      pop\n        /* \"#utility.yul\":8410:8503   */\n      tag_298\n        /* \"#utility.yul\":8499:8502   */\n      dup3\n        /* \"#utility.yul\":8410:8503   */\n      tag_181\n      jump\t// in\n    tag_298:\n        /* \"#utility.yul\":8528:8530   */\n      0x20\n        /* \"#utility.yul\":8523:8526   */\n      dup3\n        /* \"#utility.yul\":8519:8531   */\n      add\n        /* \"#utility.yul\":8512:8531   */\n      swap1\n      pop\n        /* \"#utility.yul\":8171:8537   */\n      swap2\n      swap1\n      pop\n      jump\t// out\n        /* \"#utility.yul\":8543:8962   */\n    tag_83:\n        /* \"#utility.yul\":8709:8713   */\n      0x00\n        /* \"#utility.yul\":8747:8749   */\n      0x20\n        /* \"#utility.yul\":8736:8745   */\n      dup3\n        /* \"#utility.yul\":8732:8750   */\n      add\n        /* \"#utility.yul\":8724:8750   */\n      swap1\n      pop\n        /* \"#utility.yul\":8796:8805   */\n      dup2\n        /* \"#utility.yul\":8790:8794   */\n      dup2\n        /* \"#utility.yul\":8786:8806   */\n      sub\n        /* \"#utility.yul\":8782:8783   */\n      0x00\n        /* \"#utility.yul\":8771:8780   */\n      dup4\n        /* \"#utility.yul\":8767:8784   */\n      add\n        /* \"#utility.yul\":8760:8807   */\n      mstore\n        /* \"#utility.yul\":8824:8955   */\n      tag_300\n        /* \"#utility.yul\":8950:8954   */\n      dup2\n        /* \"#utility.yul\":8824:8955   */\n      tag_182\n      jump\t// in\n    tag_300:\n        /* \"#utility.yul\":8816:8955   */\n      swap1\n      pop\n        /* \"#utility.yul\":8543:8962   */\n      swap2\n      swap1\n      pop\n      jump\t// out\n        /* \"#utility.yul\":8968:9137   */\n    tag_183:\n        /* \"#utility.yul\":9108:9129   */\n      0x4e6f7468696e6720746f20776974686472617700000000000000000000000000\n        /* \"#utility.yul\":9104:9105   */\n      0x00\n        /* \"#utility.yul\":9096:9102   */\n      dup3\n        /* \"#utility.yul\":9092:9106   */\n      add\n        /* \"#utility.yul\":9085:9130   */\n      mstore\n        /* \"#utility.yul\":8968:9137   */\n      pop\n      jump\t// out\n        /* \"#utility.yul\":9143:9509   */\n    tag_184:\n        /* \"#utility.yul\":9285:9288   */\n      0x00\n        /* \"#utility.yul\":9306:9373   */\n      tag_303\n        /* \"#utility.yul\":9370:9372   */\n      0x13\n        /* \"#utility.yul\":9365:9368   */\n      dup4\n        /* \"#utility.yul\":9306:9373   */\n      tag_161\n      jump\t// in\n    tag_303:\n        /* \"#utility.yul\":9299:9373   */\n      swap2\n      pop\n        /* \"#utility.yul\":9382:9475   */\n      tag_304\n        /* \"#utility.yul\":9471:9474   */\n      dup3\n        /* \"#utility.yul\":9382:9475   */\n      tag_183\n      jump\t// in\n    tag_304:\n        /* \"#utility.yul\":9500:9502   */\n      0x20\n        /* \"#utility.yul\":9495:9498   */\n      dup3\n        /* \"#utility.yul\":9491:9503   */\n      add\n        /* \"#utility.yul\":9484:9503   */\n      swap1\n      pop\n        /* \"#utility.yul\":9143:9509   */\n      swap2\n      swap1\n      pop\n      jump\t// out\n        /* \"#utility.yul\":9515:9934   */\n    tag_86:\n        /* \"#utility.yul\":9681:9685   */\n      0x00\n        /* \"#utility.yul\":9719:9721   */\n      0x20\n        /* \"#utility.yul\":9708:9717   */\n      dup3\n        /* \"#utility.yul\":9704:9722   */\n      add\n        /* \"#utility.yul\":9696:9722   */\n      swap1\n      pop\n        /* \"#utility.yul\":9768:9777   */\n      dup2\n        /* \"#utility.yul\":9762:9766   */\n      dup2\n        /* \"#utility.yul\":9758:9778   */\n      sub\n        /* \"#utility.yul\":9754:9755   */\n      0x00\n        /* \"#utility.yul\":9743:9752   */\n      dup4\n        /* \"#utility.yul\":9739:9756   */\n      add\n        /* \"#utility.yul\":9732:9779   */\n      mstore\n        /* \"#utility.yul\":9796:9927   */\n      tag_306\n        /* \"#utility.yul\":9922:9926   */\n      dup2\n        /* \"#utility.yul\":9796:9927   */\n      tag_184\n      jump\t// in\n    tag_306:\n        /* \"#utility.yul\":9788:9927   */\n      swap1\n      pop\n        /* \"#utility.yul\":9515:9934   */\n      swap2\n      swap1\n      pop\n      jump\t// out\n        /* \"#utility.yul\":9940:10109   */\n    tag_185:\n        /* \"#utility.yul\":10080:10101   */\n      0x5469657220646f6573206e6f7420657869737400000000000000000000000000\n        /* \"#utility.yul\":10076:10077   */\n      0x00\n        /* \"#utility.yul\":10068:10074   */\n      dup3\n        /* \"#utility.yul\":10064:10078   */\n      add\n        /* \"#utility.yul\":10057:10102   */\n      mstore\n        /* \"#utility.yul\":9940:10109   */\n      pop\n      jump\t// out\n        /* \"#utility.yul\":10115:10481   */\n    tag_186:\n        /* \"#utility.yul\":10257:10260   */\n      0x00\n        /* \"#utility.yul\":10278:10345   */\n      tag_309\n        /* \"#utility.yul\":10342:10344   */\n      0x13\n        /* \"#utility.yul\":10337:10340   */\n      dup4\n        /* \"#utility.yul\":10278:10345   */\n      tag_161\n      jump\t// in\n    tag_309:\n        /* \"#utility.yul\":10271:10345   */\n      swap2\n      pop\n        /* \"#utility.yul\":10354:10447   */\n      tag_310\n        /* \"#utility.yul\":10443:10446   */\n      dup3\n        /* \"#utility.yul\":10354:10447   */\n      tag_185\n      jump\t// in\n    tag_310:\n        /* \"#utility.yul\":10472:10474   */\n      0x20\n        /* \"#utility.yul\":10467:10470   */\n      dup3\n        /* \"#utility.yul\":10463:10475   */\n      add\n        /* \"#utility.yul\":10456:10475   */\n      swap1\n      pop\n        /* \"#utility.yul\":10115:10481   */\n      swap2\n      swap1\n      pop\n      jump\t// out\n        /* \"#utility.yul\":10487:10906   */\n    tag_101:\n        /* \"#utility.yul\":10653:10657   */\n      0x00\n        /* \"#utility.yul\":10691:10693   */\n      0x20\n        /* \"#utility.yul\":10680:10689   */\n      dup3\n        /* \"#utility.yul\":10676:10694   */\n      add\n        /* \"#utility.yul\":10668:10694   */\n      swap1\n      pop\n        /* \"#utility.yul\":10740:10749   */\n      dup2\n        /* \"#utility.yul\":10734:10738   */\n      dup2\n        /* \"#utility.yul\":10730:10750   */\n      sub\n        /* \"#utility.yul\":10726:10727   */\n      0x00\n        /* \"#utility.yul\":10715:10724   */\n      dup4\n        /* \"#utility.yul\":10711:10728   */\n      add\n        /* \"#utility.yul\":10704:10751   */\n      mstore\n        /* \"#utility.yul\":10768:10899   */\n      tag_312\n        /* \"#utility.yul\":10894:10898   */\n      dup2\n        /* \"#utility.yul\":10768:10899   */\n      tag_186\n      jump\t// in\n    tag_312:\n        /* \"#utility.yul\":10760:10899   */\n      swap1\n      pop\n        /* \"#utility.yul\":10487:10906   */\n      swap2\n      swap1\n      pop\n      jump\t// out\n        /* \"#utility.yul\":10912:11092   */\n    tag_187:\n        /* \"#utility.yul\":10960:11037   */\n      0x4e487b7100000000000000000000000000000000000000000000000000000000\n        /* \"#utility.yul\":10957:10958   */\n      0x00\n        /* \"#utility.yul\":10950:11038   */\n      mstore\n        /* \"#utility.yul\":11057:11061   */\n      0x11\n        /* \"#utility.yul\":11054:11055   */\n      0x04\n        /* \"#utility.yul\":11047:11062   */\n      mstore\n        /* \"#utility.yul\":11081:11085   */\n      0x24\n        /* \"#utility.yul\":11078:11079   */\n      0x00\n        /* \"#utility.yul\":11071:11086   */\n      revert\n        /* \"#utility.yul\":11098:11292   */\n    tag_103:\n        /* \"#utility.yul\":11138:11142   */\n      0x00\n        /* \"#utility.yul\":11158:11178   */\n      tag_315\n        /* \"#utility.yul\":11176:11177   */\n      dup3\n        /* \"#utility.yul\":11158:11178   */\n      tag_157\n      jump\t// in\n    tag_315:\n        /* \"#utility.yul\":11153:11178   */\n      swap2\n      pop\n        /* \"#utility.yul\":11192:11212   */\n      tag_316\n        /* \"#utility.yul\":11210:11211   */\n      dup4\n        /* \"#utility.yul\":11192:11212   */\n      tag_157\n      jump\t// in\n    tag_316:\n        /* \"#utility.yul\":11187:11212   */\n      swap3\n      pop\n        /* \"#utility.yul\":11236:11237   */\n      dup3\n        /* \"#utility.yul\":11233:11234   */\n      dup3\n        /* \"#utility.yul\":11229:11238   */\n      sub\n        /* \"#utility.yul\":11221:11238   */\n      swap1\n      pop\n        /* \"#utility.yul\":11260:11261   */\n      dup2\n        /* \"#utility.yul\":11254:11258   */\n      dup2\n        /* \"#utility.yul\":11251:11262   */\n      gt\n        /* \"#utility.yul\":11248:11285   */\n      iszero\n      tag_317\n      jumpi\n        /* \"#utility.yul\":11265:11283   */\n      tag_318\n      tag_187\n      jump\t// in\n    tag_318:\n        /* \"#utility.yul\":11248:11285   */\n    tag_317:\n        /* \"#utility.yul\":11098:11292   */\n      swap3\n      swap2\n      pop\n      pop\n      jump\t// out\n        /* \"#utility.yul\":11298:11478   */\n    tag_106:\n        /* \"#utility.yul\":11346:11423   */\n      0x4e487b7100000000000000000000000000000000000000000000000000000000\n        /* \"#utility.yul\":11343:11344   */\n      0x00\n        /* \"#utility.yul\":11336:11424   */\n      mstore\n        /* \"#utility.yul\":11443:11447   */\n      0x32\n        /* \"#utility.yul\":11440:11441   */\n      0x04\n        /* \"#utility.yul\":11433:11448   */\n      mstore\n        /* \"#utility.yul\":11467:11471   */\n      0x24\n        /* \"#utility.yul\":11464:11465   */\n      0x00\n        /* \"#utility.yul\":11457:11472   */\n      revert\n        /* \"#utility.yul\":11484:11633   */\n    tag_188:\n        /* \"#utility.yul\":11533:11539   */\n      0x00\n        /* \"#utility.yul\":11567:11572   */\n      dup2\n        /* \"#utility.yul\":11561:11573   */\n      sload\n        /* \"#utility.yul\":11551:11573   */\n      swap1\n      pop\n        /* \"#utility.yul\":11593:11626   */\n      tag_321\n        /* \"#utility.yul\":11619:11625   */\n      dup2\n        /* \"#utility.yul\":11593:11626   */\n      tag_66\n      jump\t// in\n    tag_321:\n        /* \"#utility.yul\":11583:11626   */\n      swap1\n      pop\n        /* \"#utility.yul\":11484:11633   */\n      swap2\n      swap1\n      pop\n      jump\t// out\n        /* \"#utility.yul\":11639:11780   */\n    tag_189:\n        /* \"#utility.yul\":11688:11692   */\n      0x00\n        /* \"#utility.yul\":11711:11714   */\n      dup2\n        /* \"#utility.yul\":11703:11714   */\n      swap1\n      pop\n        /* \"#utility.yul\":11734:11737   */\n      dup2\n        /* \"#utility.yul\":11731:11732   */\n      0x00\n        /* \"#utility.yul\":11724:11738   */\n      mstore\n        /* \"#utility.yul\":11768:11772   */\n      0x20\n        /* \"#utility.yul\":11765:11766   */\n      0x00\n        /* \"#utility.yul\":11755:11773   */\n      keccak256\n        /* \"#utility.yul\":11747:11773   */\n      swap1\n      pop\n        /* \"#utility.yul\":11639:11780   */\n      swap2\n      swap1\n      pop\n      jump\t// out\n        /* \"#utility.yul\":11786:11879   */\n    tag_190:\n        /* \"#utility.yul\":11823:11829   */\n      0x00\n        /* \"#utility.yul\":11870:11872   */\n      0x20\n        /* \"#utility.yul\":11865:11867   */\n      0x1f\n        /* \"#utility.yul\":11858:11863   */\n      dup4\n        /* \"#utility.yul\":11854:11868   */\n      add\n        /* \"#utility.yul\":11850:11873   */\n      div\n        /* \"#utility.yul\":11840:11873   */\n      swap1\n      pop\n        /* \"#utility.yul\":11786:11879   */\n      swap2\n      swap1\n      pop\n      jump\t// out\n        /* \"#utility.yul\":11885:11992   */\n    tag_191:\n        /* \"#utility.yul\":11929:11937   */\n      0x00\n        /* \"#utility.yul\":11979:11984   */\n      dup3\n        /* \"#utility.yul\":11973:11977   */\n      dup3\n        /* \"#utility.yul\":11969:11985   */\n      shl\n        /* \"#utility.yul\":11948:11985   */\n      swap1\n      pop\n        /* \"#utility.yul\":11885:11992   */\n      swap3\n      swap2\n      pop\n      pop\n      jump\t// out\n        /* \"#utility.yul\":11998:12391   */\n    tag_192:\n        /* \"#utility.yul\":12067:12073   */\n      0x00\n        /* \"#utility.yul\":12117:12118   */\n      0x08\n        /* \"#utility.yul\":12105:12115   */\n      dup4\n        /* \"#utility.yul\":12101:12119   */\n      mul\n        /* \"#utility.yul\":12140:12237   */\n      tag_326\n        /* \"#utility.yul\":12170:12236   */\n      0xffffffffffffffffffffffffffffffffffffffffffffffffffffffffffffffff\n        /* \"#utility.yul\":12159:12168   */\n      dup3\n        /* \"#utility.yul\":12140:12237   */\n      tag_191\n      jump\t// in\n    tag_326:\n        /* \"#utility.yul\":12258:12297   */\n      tag_327\n        /* \"#utility.yul\":12288:12296   */\n      dup7\n        /* \"#utility.yul\":12277:12286   */\n      dup4\n        /* \"#utility.yul\":12258:12297   */\n      tag_191\n      jump\t// in\n    tag_327:\n        /* \"#utility.yul\":12246:12297   */\n      swap6\n      pop\n        /* \"#utility.yul\":12330:12334   */\n      dup1\n        /* \"#utility.yul\":12326:12335   */\n      not\n        /* \"#utility.yul\":12319:12324   */\n      dup5\n        /* \"#utility.yul\":12315:12336   */\n      and\n        /* \"#utility.yul\":12306:12336   */\n      swap4\n      pop\n        /* \"#utility.yul\":12379:12383   */\n      dup1\n        /* \"#utility.yul\":12369:12377   */\n      dup7\n        /* \"#utility.yul\":12365:12384   */\n      and\n        /* \"#utility.yul\":12358:12363   */\n      dup5\n        /* \"#utility.yul\":12355:12385   */\n      or\n        /* \"#utility.yul\":12345:12385   */\n      swap3\n      pop\n        /* \"#utility.yul\":12074:12391   */\n      pop\n      pop\n        /* \"#utility.yul\":11998:12391   */\n      swap4\n      swap3\n      pop\n      pop\n      pop\n      jump\t// out\n        /* \"#utility.yul\":12397:12457   */\n    tag_193:\n        /* \"#utility.yul\":12425:12428   */\n      0x00\n        /* \"#utility.yul\":12446:12451   */\n      dup2\n        /* \"#utility.yul\":12439:12451   */\n      swap1\n      pop\n        /* \"#utility.yul\":12397:12457   */\n      swap2\n      swap1\n      pop\n      jump\t// out\n        /* \"#utility.yul\":12463:12605   */\n    tag_194:\n        /* \"#utility.yul\":12513:12522   */\n      0x00\n        /* \"#utility.yul\":12546:12599   */\n      tag_330\n        /* \"#utility.yul\":12564:12598   */\n      tag_331\n        /* \"#utility.yul\":12573:12597   */\n      tag_332\n        /* \"#utility.yul\":12591:12596   */\n      dup5\n        /* \"#utility.yul\":12573:12597   */\n      tag_157\n      jump\t// in\n    tag_332:\n        /* \"#utility.yul\":12564:12598   */\n      tag_193\n      jump\t// in\n    tag_331:\n        /* \"#utility.yul\":12546:12599   */\n      tag_157\n      jump\t// in\n    tag_330:\n        /* \"#utility.yul\":12533:12599   */\n      swap1\n      pop\n        /* \"#utility.yul\":12463:12605   */\n      swap2\n      swap1\n      pop\n      jump\t// out\n        /* \"#utility.yul\":12611:12686   */\n    tag_195:\n        /* \"#utility.yul\":12654:12657   */\n      0x00\n        /* \"#utility.yul\":12675:12680   */\n      dup2\n        /* \"#utility.yul\":12668:12680   */\n      swap1\n      pop\n        /* \"#utility.yul\":12611:12686   */\n      swap2\n      swap1\n      pop\n      jump\t// out\n        /* \"#utility.yul\":12692:12961   */\n    tag_196:\n        /* \"#utility.yul\":12802:12841   */\n      tag_335\n        /* \"#utility.yul\":12833:12840   */\n      dup4\n        /* \"#utility.yul\":12802:12841   */\n      tag_194\n      jump\t// in\n    tag_335:\n        /* \"#utility.yul\":12863:12954   */\n      tag_336\n        /* \"#utility.yul\":12912:12953   */\n      tag_337\n        /* \"#utility.yul\":12936:12952   */\n      dup3\n        /* \"#utility.yul\":12912:12953   */\n      tag_195\n      jump\t// in\n    tag_337:\n        /* \"#utility.yul\":12904:12910   */\n      dup5\n        /* \"#utility.yul\":12897:12901   */\n      dup5\n        /* \"#utility.yul\":12891:12902   */\n      sload\n        /* \"#utility.yul\":12863:12954   */\n      tag_192\n      jump\t// in\n    tag_336:\n        /* \"#utility.yul\":12857:12861   */\n      dup3\n        /* \"#utility.yul\":12850:12955   */\n      sstore\n        /* \"#utility.yul\":12768:12961   */\n      pop\n        /* \"#utility.yul\":12692:12961   */\n      pop\n      pop\n      pop\n      jump\t// out\n        /* \"#utility.yul\":12967:13040   */\n    tag_197:\n        /* \"#utility.yul\":13012:13015   */\n      0x00\n        /* \"#utility.yul\":12967:13040   */\n      swap1\n      jump\t// out\n        /* \"#utility.yul\":13046:13235   */\n    tag_198:\n        /* \"#utility.yul\":13123:13155   */\n      tag_340\n      tag_197\n      jump\t// in\n    tag_340:\n        /* \"#utility.yul\":13164:13229   */\n      tag_341\n        /* \"#utility.yul\":13222:13228   */\n      dup2\n        /* \"#utility.yul\":13214:13220   */\n      dup5\n        /* \"#utility.yul\":13208:13212   */\n      dup5\n        /* \"#utility.yul\":13164:13229   */\n      tag_196\n      jump\t// in\n    tag_341:\n        /* \"#utility.yul\":13099:13235   */\n      pop\n        /* \"#utility.yul\":13046:13235   */\n      pop\n      pop\n      jump\t// out\n        /* \"#utility.yul\":13241:13427   */\n    tag_199:\n        /* \"#utility.yul\":13301:13421   */\n    tag_343:\n        /* \"#utility.yul\":13318:13321   */\n      dup2\n        /* \"#utility.yul\":13311:13316   */\n      dup2\n        /* \"#utility.yul\":13308:13322   */\n      lt\n        /* \"#utility.yul\":13301:13421   */\n      iszero\n      tag_345\n      jumpi\n        /* \"#utility.yul\":13372:13411   */\n      tag_346\n        /* \"#utility.yul\":13409:13410   */\n      0x00\n        /* \"#utility.yul\":13402:13407   */\n      dup3\n        /* \"#utility.yul\":13372:13411   */\n      tag_198\n      jump\t// in\n    tag_346:\n        /* \"#utility.yul\":13345:13346   */\n      0x01\n        /* \"#utility.yul\":13338:13343   */\n      dup2\n        /* \"#utility.yul\":13334:13347   */\n      add\n        /* \"#utility.yul\":13325:13347   */\n      swap1\n      pop\n        /* \"#utility.yul\":13301:13421   */\n      jump(tag_343)\n    tag_345:\n        /* \"#utility.yul\":13241:13427   */\n      pop\n      pop\n      jump\t// out\n        /* \"#utility.yul\":13433:13976   */\n    tag_200:\n        /* \"#utility.yul\":13534:13536   */\n      0x1f\n        /* \"#utility.yul\":13529:13532   */\n      dup3\n        /* \"#utility.yul\":13526:13537   */\n      gt\n        /* \"#utility.yul\":13523:13969   */\n      iszero\n      tag_348\n      jumpi\n        /* \"#utility.yul\":13568:13606   */\n      tag_349\n        /* \"#utility.yul\":13600:13605   */\n      dup2\n        /* \"#utility.yul\":13568:13606   */\n      tag_189\n      jump\t// in\n    tag_349:\n        /* \"#utility.yul\":13652:13681   */\n      tag_350\n        /* \"#utility.yul\":13670:13680   */\n      dup5\n        /* \"#utility.yul\":13652:13681   */\n      tag_190\n      jump\t// in\n    tag_350:\n        /* \"#utility.yul\":13642:13650   */\n      dup2\n        /* \"#utility.yul\":13638:13682   */\n      add\n        /* \"#utility.yul\":13835:13837   */\n      0x20\n        /* \"#utility.yul\":13823:13833   */\n      dup6\n        /* \"#utility.yul\":13820:13838   */\n      lt\n        /* \"#utility.yul\":13817:13866   */\n      iszero\n      tag_351\n      jumpi\n        /* \"#utility.yul\":13856:13864   */\n      dup2\n        /* \"#utility.yul\":13841:13864   */\n      swap1\n      pop\n        /* \"#utility.yul\":13817:13866   */\n    tag_351:\n        /* \"#utility.yul\":13879:13959   */\n      tag_352\n        /* \"#utility.yul\":13935:13957   */\n      tag_353\n        /* \"#utility.yul\":13953:13956   */\n      dup6\n        /* \"#utility.yul\":13935:13957   */\n      tag_190\n      jump\t// in\n    tag_353:\n        /* \"#utility.yul\":13925:13933   */\n      dup4\n        /* \"#utility.yul\":13921:13958   */\n      add\n        /* \"#utility.yul\":13908:13919   */\n      dup3\n        /* \"#utility.yul\":13879:13959   */\n      tag_199\n      jump\t// in\n    tag_352:\n        /* \"#utility.yul\":13538:13969   */\n      pop\n      pop\n        /* \"#utility.yul\":13523:13969   */\n    tag_348:\n        /* \"#utility.yul\":13433:13976   */\n      pop\n      pop\n      pop\n      jump\t// out\n        /* \"#utility.yul\":13982:14099   */\n    tag_201:\n        /* \"#utility.yul\":14036:14044   */\n      0x00\n        /* \"#utility.yul\":14086:14091   */\n      dup3\n        /* \"#utility.yul\":14080:14084   */\n      dup3\n        /* \"#utility.yul\":14076:14092   */\n      shr\n        /* \"#utility.yul\":14055:14092   */\n      swap1\n      pop\n        /* \"#utility.yul\":13982:14099   */\n      swap3\n      swap2\n      pop\n      pop\n      jump\t// out\n        /* \"#utility.yul\":14105:14274   */\n    tag_202:\n        /* \"#utility.yul\":14149:14155   */\n      0x00\n        /* \"#utility.yul\":14182:14233   */\n      tag_356\n        /* \"#utility.yul\":14230:14231   */\n      0x00\n        /* \"#utility.yul\":14226:14232   */\n      not\n        /* \"#utility.yul\":14218:14223   */\n      dup5\n        /* \"#utility.yul\":14215:14216   */\n      0x08\n        /* \"#utility.yul\":14211:14224   */\n      mul\n        /* \"#utility.yul\":14182:14233   */\n      tag_201\n      jump\t// in\n    tag_356:\n        /* \"#utility.yul\":14178:14234   */\n      not\n        /* \"#utility.yul\":14263:14267   */\n      dup1\n        /* \"#utility.yul\":14257:14261   */\n      dup4\n        /* \"#utility.yul\":14253:14268   */\n      and\n        /* \"#utility.yul\":14243:14268   */\n      swap2\n      pop\n        /* \"#utility.yul\":14156:14274   */\n      pop\n        /* \"#utility.yul\":14105:14274   */\n      swap3\n      swap2\n      pop\n      pop\n      jump\t// out\n        /* \"#utility.yul\":14279:14574   */\n    tag_203:\n        /* \"#utility.yul\":14355:14359   */\n      0x00\n        /* \"#utility.yul\":14501:14530   */\n      tag_358\n        /* \"#utility.yul\":14526:14529   */\n      dup4\n        /* \"#utility.yul\":14520:14524   */\n      dup4\n        /* \"#utility.yul\":14501:14530   */\n      tag_202\n      jump\t// in\n    tag_358:\n        /* \"#utility.yul\":14493:14530   */\n      swap2\n      pop\n        /* \"#utility.yul\":14563:14566   */\n      dup3\n        /* \"#utility.yul\":14560:14561   */\n      0x02\n        /* \"#utility.yul\":14556:14567   */\n      mul\n        /* \"#utility.yul\":14550:14554   */\n      dup3\n        /* \"#utility.yul\":14547:14568   */\n      or\n        /* \"#utility.yul\":14539:14568   */\n      swap1\n      pop\n        /* \"#utility.yul\":14279:14574   */\n      swap3\n      swap2\n      pop\n      pop\n      jump\t// out\n        /* \"#utility.yul\":14579:16030   */\n    tag_112:\n        /* \"#utility.yul\":14690:14693   */\n      dup2\n        /* \"#utility.yul\":14684:14688   */\n      dup2\n        /* \"#utility.yul\":14681:14694   */\n      sub\n        /* \"#utility.yul\":14678:14704   */\n      tag_360\n      jumpi\n        /* \"#utility.yul\":14697:14702   */\n      pop\n      pop\n      jump(tag_359)\n        /* \"#utility.yul\":14678:14704   */\n    tag_360:\n        /* \"#utility.yul\":14728:14762   */\n      tag_361\n        /* \"#utility.yul\":14758:14761   */\n      dup3\n        /* \"#utility.yul\":14728:14762   */\n      tag_188\n      jump\t// in\n    tag_361:\n        /* \"#utility.yul\":14827:14845   */\n      0xffffffffffffffff\n        /* \"#utility.yul\":14819:14825   */\n      dup2\n        /* \"#utility.yul\":14816:14846   */\n      gt\n        /* \"#utility.yul\":14813:14869   */\n      iszero\n      tag_362\n      jumpi\n        /* \"#utility.yul\":14849:14867   */\n      tag_363\n      tag_168\n      jump\t// in\n    tag_363:\n        /* \"#utility.yul\":14813:14869   */\n    tag_362:\n        /* \"#utility.yul\":14893:14931   */\n      tag_364\n        /* \"#utility.yul\":14925:14929   */\n      dup3\n        /* \"#utility.yul\":14919:14930   */\n      sload\n        /* \"#utility.yul\":14893:14931   */\n      tag_66\n      jump\t// in\n    tag_364:\n        /* \"#utility.yul\":14978:15045   */\n      tag_365\n        /* \"#utility.yul\":15038:15044   */\n      dup3\n        /* \"#utility.yul\":15030:15036   */\n      dup3\n        /* \"#utility.yul\":15024:15028   */\n      dup6\n        /* \"#utility.yul\":14978:15045   */\n      tag_200\n      jump\t// in\n    tag_365:\n        /* \"#utility.yul\":15072:15073   */\n      0x00\n        /* \"#utility.yul\":15101:15103   */\n      0x1f\n        /* \"#utility.yul\":15093:15099   */\n      dup4\n        /* \"#utility.yul\":15090:15104   */\n      gt\n        /* \"#utility.yul\":15118:15119   */\n      0x01\n        /* \"#utility.yul\":15113:15785   */\n      dup2\n      eq\n      tag_367\n      jumpi\n        /* \"#utility.yul\":15829:15830   */\n      0x00\n        /* \"#utility.yul\":15846:15852   */\n      dup5\n        /* \"#utility.yul\":15843:15920   */\n      iszero\n      tag_368\n      jumpi\n        /* \"#utility.yul\":15895:15904   */\n      dup3\n        /* \"#utility.yul\":15890:15893   */\n      dup8\n        /* \"#utility.yul\":15886:15905   */\n      add\n        /* \"#utility.yul\":15880:15906   */\n      sload\n        /* \"#utility.yul\":15871:15906   */\n      swap1\n      pop\n        /* \"#utility.yul\":15843:15920   */\n    tag_368:\n        /* \"#utility.yul\":15946:16013   */\n      tag_369\n        /* \"#utility.yul\":16006:16012   */\n      dup6\n        /* \"#utility.yul\":15999:16004   */\n      dup3\n        /* \"#utility.yul\":15946:16013   */\n      tag_203\n      jump\t// in\n    tag_369:\n        /* \"#utility.yul\":15940:15944   */\n      dup7\n        /* \"#utility.yul\":15933:16014   */\n      sstore\n        /* \"#utility.yul\":15802:16024   */\n      pop\n        /* \"#utility.yul\":15083:16024   */\n      jump(tag_366)\n        /* \"#utility.yul\":15113:15785   */\n    tag_367:\n        /* \"#utility.yul\":15165:15169   */\n      0x1f\n        /* \"#utility.yul\":15161:15170   */\n      not\n        /* \"#utility.yul\":15153:15159   */\n      dup5\n        /* \"#utility.yul\":15149:15171   */\n      and\n        /* \"#utility.yul\":15191:15227   */\n      tag_370\n        /* \"#utility.yul\":15223:15226   */\n      dup8\n        /* \"#utility.yul\":15191:15227   */\n      tag_189\n      jump\t// in\n    tag_370:\n        /* \"#utility.yul\":15184:15227   */\n      swap7\n      pop\n        /* \"#utility.yul\":15254:15291   */\n      tag_371\n        /* \"#utility.yul\":15286:15290   */\n      dup7\n        /* \"#utility.yul\":15254:15291   */\n      tag_189\n      jump\t// in\n    tag_371:\n        /* \"#utility.yul\":15313:15314   */\n      0x00\n        /* \"#utility.yul\":15327:15534   */\n    tag_372:\n        /* \"#utility.yul\":15341:15348   */\n      dup3\n        /* \"#utility.yul\":15338:15339   */\n      dup2\n        /* \"#utility.yul\":15335:15349   */\n      lt\n        /* \"#utility.yul\":15327:15534   */\n      iszero\n      tag_374\n      jumpi\n        /* \"#utility.yul\":15420:15429   */\n      dup5\n        /* \"#utility.yul\":15415:15418   */\n      dup10\n        /* \"#utility.yul\":15411:15430   */\n      add\n        /* \"#utility.yul\":15405:15431   */\n      sload\n        /* \"#utility.yul\":15397:15403   */\n      dup3\n        /* \"#utility.yul\":15390:15432   */\n      sstore\n        /* \"#utility.yul\":15471:15472   */\n      0x01\n        /* \"#utility.yul\":15463:15469   */\n      dup3\n        /* \"#utility.yul\":15459:15473   */\n      add\n        /* \"#utility.yul\":15449:15473   */\n      swap2\n      pop\n        /* \"#utility.yul\":15518:15519   */\n      0x01\n        /* \"#utility.yul\":15507:15516   */\n      dup6\n        /* \"#utility.yul\":15503:15520   */\n      add\n        /* \"#utility.yul\":15490:15520   */\n      swap5\n      pop\n        /* \"#utility.yul\":15364:15368   */\n      0x20\n        /* \"#utility.yul\":15361:15362   */\n      dup2\n        /* \"#utility.yul\":15357:15369   */\n      add\n        /* \"#utility.yul\":15352:15369   */\n      swap1\n      pop\n        /* \"#utility.yul\":15327:15534   */\n      jump(tag_372)\n    tag_374:\n        /* \"#utility.yul\":15562:15568   */\n      dup7\n        /* \"#utility.yul\":15553:15560   */\n      dup4\n        /* \"#utility.yul\":15550:15569   */\n      lt\n        /* \"#utility.yul\":15547:15726   */\n      iszero\n      tag_375\n      jumpi\n        /* \"#utility.yul\":15620:15629   */\n      dup5\n        /* \"#utility.yul\":15615:15618   */\n      dup10\n        /* \"#utility.yul\":15611:15630   */\n      add\n        /* \"#utility.yul\":15605:15631   */\n      sload\n        /* \"#utility.yul\":15663:15711   */\n      tag_376\n        /* \"#utility.yul\":15705:15709   */\n      0x1f\n        /* \"#utility.yul\":15697:15703   */\n      dup10\n        /* \"#utility.yul\":15693:15710   */\n      and\n        /* \"#utility.yul\":15682:15691   */\n      dup3\n        /* \"#utility.yul\":15663:15711   */\n      tag_202\n      jump\t// in\n    tag_376:\n        /* \"#utility.yul\":15655:15661   */\n      dup4\n        /* \"#utility.yul\":15648:15712   */\n      sstore\n        /* \"#utility.yul\":15570:15726   */\n      pop\n        /* \"#utility.yul\":15547:15726   */\n    tag_375:\n        /* \"#utility.yul\":15772:15773   */\n      0x01\n        /* \"#utility.yul\":15768:15769   */\n      0x02\n        /* \"#utility.yul\":15760:15766   */\n      dup9\n        /* \"#utility.yul\":15756:15770   */\n      mul\n        /* \"#utility.yul\":15752:15774   */\n      add\n        /* \"#utility.yul\":15746:15750   */\n      dup9\n        /* \"#utility.yul\":15739:15775   */\n      sstore\n        /* \"#utility.yul\":15120:15785   */\n      pop\n      pop\n      pop\n        /* \"#utility.yul\":15083:16024   */\n    tag_366:\n      pop\n        /* \"#utility.yul\":14668:16030   */\n      pop\n      pop\n      pop\n        /* \"#utility.yul\":14579:16030   */\n      pop\n      pop\n    tag_359:\n      jump\t// out\n        /* \"#utility.yul\":16036:16216   */\n    tag_115:\n        /* \"#utility.yul\":16084:16161   */\n      0x4e487b7100000000000000000000000000000000000000000000000000000000\n        /* \"#utility.yul\":16081:16082   */\n      0x00\n        /* \"#utility.yul\":16074:16162   */\n      mstore\n        /* \"#utility.yul\":16181:16185   */\n      0x31\n        /* \"#utility.yul\":16178:16179   */\n      0x04\n        /* \"#utility.yul\":16171:16186   */\n      mstore\n        /* \"#utility.yul\":16205:16209   */\n      0x24\n        /* \"#utility.yul\":16202:16203   */\n      0x00\n        /* \"#utility.yul\":16195:16210   */\n      revert\n        /* \"#utility.yul\":16222:16401   */\n    tag_204:\n        /* \"#utility.yul\":16362:16393   */\n      0x416d6f756e74206d7573742062652067726561746572207468616e2030000000\n        /* \"#utility.yul\":16358:16359   */\n      0x00\n        /* \"#utility.yul\":16350:16356   */\n      dup3\n        /* \"#utility.yul\":16346:16360   */\n      add\n        /* \"#utility.yul\":16339:16394   */\n      mstore\n        /* \"#utility.yul\":16222:16401   */\n      pop\n      jump\t// out\n        /* \"#utility.yul\":16407:16773   */\n    tag_205:\n        /* \"#utility.yul\":16549:16552   */\n      0x00\n        /* \"#utility.yul\":16570:16637   */\n      tag_380\n        /* \"#utility.yul\":16634:16636   */\n      0x1d\n        /* \"#utility.yul\":16629:16632   */\n      dup4\n        /* \"#utility.yul\":16570:16637   */\n      tag_161\n      jump\t// in\n    tag_380:\n        /* \"#utility.yul\":16563:16637   */\n      swap2\n      pop\n        /* \"#utility.yul\":16646:16739   */\n      tag_381\n        /* \"#utility.yul\":16735:16738   */\n      dup3\n        /* \"#utility.yul\":16646:16739   */\n      tag_204\n      jump\t// in\n    tag_381:\n        /* \"#utility.yul\":16764:16766   */\n      0x20\n        /* \"#utility.yul\":16759:16762   */\n      dup3\n        /* \"#utility.yul\":16755:16767   */\n      add\n        /* \"#utility.yul\":16748:16767   */\n      swap1\n      pop\n        /* \"#utility.yul\":16407:16773   */\n      swap2\n      swap1\n      pop\n      jump\t// out\n        /* \"#utility.yul\":16779:17198   */\n    tag_125:\n        /* \"#utility.yul\":16945:16949   */\n      0x00\n        /* \"#utility.yul\":16983:16985   */\n      0x20\n        /* \"#utility.yul\":16972:16981   */\n      dup3\n        /* \"#utility.yul\":16968:16986   */\n      add\n        /* \"#utility.yul\":16960:16986   */\n      swap1\n      pop\n        /* \"#utility.yul\":17032:17041   */\n      dup2\n        /* \"#utility.yul\":17026:17030   */\n      dup2\n        /* \"#utility.yul\":17022:17042   */\n      sub\n        /* \"#utility.yul\":17018:17019   */\n      0x00\n        /* \"#utility.yul\":17007:17016   */\n      dup4\n        /* \"#utility.yul\":17003:17020   */\n      add\n        /* \"#utility.yul\":16996:17043   */\n      mstore\n        /* \"#utility.yul\":17060:17191   */\n      tag_383\n        /* \"#utility.yul\":17186:17190   */\n      dup2\n        /* \"#utility.yul\":17060:17191   */\n      tag_205\n      jump\t// in\n    tag_383:\n        /* \"#utility.yul\":17052:17191   */\n      swap1\n      pop\n        /* \"#utility.yul\":16779:17198   */\n      swap2\n      swap1\n      pop\n      jump\t// out\n        /* \"#utility.yul\":17204:18599   */\n    tag_128:\n        /* \"#utility.yul\":17321:17358   */\n      tag_385\n        /* \"#utility.yul\":17354:17357   */\n      dup3\n        /* \"#utility.yul\":17321:17358   */\n      tag_160\n      jump\t// in\n    tag_385:\n        /* \"#utility.yul\":17423:17441   */\n      0xffffffffffffffff\n        /* \"#utility.yul\":17415:17421   */\n      dup2\n        /* \"#utility.yul\":17412:17442   */\n      gt\n        /* \"#utility.yul\":17409:17465   */\n      iszero\n      tag_386\n      jumpi\n        /* \"#utility.yul\":17445:17463   */\n      tag_387\n      tag_168\n      jump\t// in\n    tag_387:\n        /* \"#utility.yul\":17409:17465   */\n    tag_386:\n        /* \"#utility.yul\":17489:17527   */\n      tag_388\n        /* \"#utility.yul\":17521:17525   */\n      dup3\n        /* \"#utility.yul\":17515:17526   */\n      sload\n        /* \"#utility.yul\":17489:17527   */\n      tag_66\n      jump\t// in\n    tag_388:\n        /* \"#utility.yul\":17574:17641   */\n      tag_389\n        /* \"#utility.yul\":17634:17640   */\n      dup3\n        /* \"#utility.yul\":17626:17632   */\n      dup3\n        /* \"#utility.yul\":17620:17624   */\n      dup6\n        /* \"#utility.yul\":17574:17641   */\n      tag_200\n      jump\t// in\n    tag_389:\n        /* \"#utility.yul\":17668:17669   */\n      0x00\n        /* \"#utility.yul\":17692:17696   */\n      0x20\n        /* \"#utility.yul\":17679:17696   */\n      swap1\n      pop\n        /* \"#utility.yul\":17724:17726   */\n      0x1f\n        /* \"#utility.yul\":17716:17722   */\n      dup4\n        /* \"#utility.yul\":17713:17727   */\n      gt\n        /* \"#utility.yul\":17741:17742   */\n      0x01\n        /* \"#utility.yul\":17736:18354   */\n      dup2\n      eq\n      tag_391\n      jumpi\n        /* \"#utility.yul\":18398:18399   */\n      0x00\n        /* \"#utility.yul\":18415:18421   */\n      dup5\n        /* \"#utility.yul\":18412:18489   */\n      iszero\n      tag_392\n      jumpi\n        /* \"#utility.yul\":18464:18473   */\n      dup3\n        /* \"#utility.yul\":18459:18462   */\n      dup8\n        /* \"#utility.yul\":18455:18474   */\n      add\n        /* \"#utility.yul\":18449:18475   */\n      mload\n        /* \"#utility.yul\":18440:18475   */\n      swap1\n      pop\n        /* \"#utility.yul\":18412:18489   */\n    tag_392:\n        /* \"#utility.yul\":18515:18582   */\n      tag_393\n        /* \"#utility.yul\":18575:18581   */\n      dup6\n        /* \"#utility.yul\":18568:18573   */\n      dup3\n        /* \"#utility.yul\":18515:18582   */\n      tag_203\n      jump\t// in\n    tag_393:\n        /* \"#utility.yul\":18509:18513   */\n      dup7\n        /* \"#utility.yul\":18502:18583   */\n      sstore\n        /* \"#utility.yul\":18371:18593   */\n      pop\n        /* \"#utility.yul\":17706:18593   */\n      jump(tag_390)\n        /* \"#utility.yul\":17736:18354   */\n    tag_391:\n        /* \"#utility.yul\":17788:17792   */\n      0x1f\n        /* \"#utility.yul\":17784:17793   */\n      not\n        /* \"#utility.yul\":17776:17782   */\n      dup5\n        /* \"#utility.yul\":17772:17794   */\n      and\n        /* \"#utility.yul\":17822:17859   */\n      tag_394\n        /* \"#utility.yul\":17854:17858   */\n      dup7\n        /* \"#utility.yul\":17822:17859   */\n      tag_189\n      jump\t// in\n    tag_394:\n        /* \"#utility.yul\":17881:17882   */\n      0x00\n        /* \"#utility.yul\":17895:18103   */\n    tag_395:\n        /* \"#utility.yul\":17909:17916   */\n      dup3\n        /* \"#utility.yul\":17906:17907   */\n      dup2\n        /* \"#utility.yul\":17903:17917   */\n      lt\n        /* \"#utility.yul\":17895:18103   */\n      iszero\n      tag_397\n      jumpi\n        /* \"#utility.yul\":17988:17997   */\n      dup5\n        /* \"#utility.yul\":17983:17986   */\n      dup10\n        /* \"#utility.yul\":17979:17998   */\n      add\n        /* \"#utility.yul\":17973:17999   */\n      mload\n        /* \"#utility.yul\":17965:17971   */\n      dup3\n        /* \"#utility.yul\":17958:18000   */\n      sstore\n        /* \"#utility.yul\":18039:18040   */\n      0x01\n        /* \"#utility.yul\":18031:18037   */\n      dup3\n        /* \"#utility.yul\":18027:18041   */\n      add\n        /* \"#utility.yul\":18017:18041   */\n      swap2\n      pop\n        /* \"#utility.yul\":18086:18088   */\n      0x20\n        /* \"#utility.yul\":18075:18084   */\n      dup6\n        /* \"#utility.yul\":18071:18089   */\n      add\n        /* \"#utility.yul\":18058:18089   */\n      swap5\n      pop\n        /* \"#utility.yul\":17932:17936   */\n      0x20\n        /* \"#utility.yul\":17929:17930   */\n      dup2\n        /* \"#utility.yul\":17925:17937   */\n      add\n        /* \"#utility.yul\":17920:17937   */\n      swap1\n      pop\n        /* \"#utility.yul\":17895:18103   */\n      jump(tag_395)\n    tag_397:\n        /* \"#utility.yul\":18131:18137   */\n      dup7\n        /* \"#utility.yul\":18122:18129   */\n      dup4\n        /* \"#utility.yul\":18119:18138   */\n      lt\n        /* \"#utility.yul\":18116:18295   */\n      iszero\n      tag_398\n      jumpi\n        /* \"#utility.yul\":18189:18198   */\n      dup5\n        /* \"#utility.yul\":18184:18187   */\n      dup10\n        /* \"#utility.yul\":18180:18199   */\n      add\n        /* \"#utility.yul\":18174:18200   */\n      mload\n        /* \"#utility.yul\":18232:18280   */\n      tag_399\n        /* \"#utility.yul\":18274:18278   */\n      0x1f\n        /* \"#utility.yul\":18266:18272   */\n      dup10\n        /* \"#utility.yul\":18262:18279   */\n      and\n        /* \"#utility.yul\":18251:18260   */\n      dup3\n        /* \"#utility.yul\":18232:18280   */\n      tag_202\n      jump\t// in\n    tag_399:\n        /* \"#utility.yul\":18224:18230   */\n      dup4\n        /* \"#utility.yul\":18217:18281   */\n      sstore\n        /* \"#utility.yul\":18139:18295   */\n      pop\n        /* \"#utility.yul\":18116:18295   */\n    tag_398:\n        /* \"#utility.yul\":18341:18342   */\n      0x01\n        /* \"#utility.yul\":18337:18338   */\n      0x02\n        /* \"#utility.yul\":18329:18335   */\n      dup9\n        /* \"#utility.yul\":18325:18339   */\n      mul\n        /* \"#utility.yul\":18321:18343   */\n      add\n        /* \"#utility.yul\":18315:18319   */\n      dup9\n        /* \"#utility.yul\":18308:18344   */\n      sstore\n        /* \"#utility.yul\":17743:18354   */\n      pop\n      pop\n      pop\n        /* \"#utility.yul\":17706:18593   */\n    tag_390:\n      pop\n        /* \"#utility.yul\":17296:18599   */\n      pop\n      pop\n      pop\n        /* \"#utility.yul\":17204:18599   */\n      pop\n      pop\n      jump\t// out\n        /* \"#utility.yul\":18605:18779   */\n    tag_206:\n        /* \"#utility.yul\":18745:18771   */\n      0x536f7272792063616d706167696e2068617320656e6465640000000000000000\n        /* \"#utility.yul\":18741:18742   */\n      0x00\n        /* \"#utility.yul\":18733:18739   */\n      dup3\n        /* \"#utility.yul\":18729:18743   */\n      add\n        /* \"#utility.yul\":18722:18772   */\n      mstore\n        /* \"#utility.yul\":18605:18779   */\n      pop\n      jump\t// out\n        /* \"#utility.yul\":18785:19151   */\n    tag_207:\n        /* \"#utility.yul\":18927:18930   */\n      0x00\n        /* \"#utility.yul\":18948:19015   */\n      tag_402\n        /* \"#utility.yul\":19012:19014   */\n      0x18\n        /* \"#utility.yul\":19007:19010   */\n      dup4\n        /* \"#utility.yul\":18948:19015   */\n      tag_161\n      jump\t// in\n    tag_402:\n        /* \"#utility.yul\":18941:19015   */\n      swap2\n      pop\n        /* \"#utility.yul\":19024:19117   */\n      tag_403\n        /* \"#utility.yul\":19113:19116   */\n      dup3\n        /* \"#utility.yul\":19024:19117   */\n      tag_206\n      jump\t// in\n    tag_403:\n        /* \"#utility.yul\":19142:19144   */\n      0x20\n        /* \"#utility.yul\":19137:19140   */\n      dup3\n        /* \"#utility.yul\":19133:19145   */\n      add\n        /* \"#utility.yul\":19126:19145   */\n      swap1\n      pop\n        /* \"#utility.yul\":18785:19151   */\n      swap2\n      swap1\n      pop\n      jump\t// out\n        /* \"#utility.yul\":19157:19576   */\n    tag_132:\n        /* \"#utility.yul\":19323:19327   */\n      0x00\n        /* \"#utility.yul\":19361:19363   */\n      0x20\n        /* \"#utility.yul\":19350:19359   */\n      dup3\n        /* \"#utility.yul\":19346:19364   */\n      add\n        /* \"#utility.yul\":19338:19364   */\n      swap1\n      pop\n        /* \"#utility.yul\":19410:19419   */\n      dup2\n        /* \"#utility.yul\":19404:19408   */\n      dup2\n        /* \"#utility.yul\":19400:19420   */\n      sub\n        /* \"#utility.yul\":19396:19397   */\n      0x00\n        /* \"#utility.yul\":19385:19394   */\n      dup4\n        /* \"#utility.yul\":19381:19398   */\n      add\n        /* \"#utility.yul\":19374:19421   */\n      mstore\n        /* \"#utility.yul\":19438:19569   */\n      tag_405\n        /* \"#utility.yul\":19564:19568   */\n      dup2\n        /* \"#utility.yul\":19438:19569   */\n      tag_207\n      jump\t// in\n    tag_405:\n        /* \"#utility.yul\":19430:19569   */\n      swap1\n      pop\n        /* \"#utility.yul\":19157:19576   */\n      swap2\n      swap1\n      pop\n      jump\t// out\n        /* \"#utility.yul\":19582:19744   */\n    tag_208:\n        /* \"#utility.yul\":19722:19736   */\n      0x496e76616c696420546965720000000000000000000000000000000000000000\n        /* \"#utility.yul\":19718:19719   */\n      0x00\n        /* \"#utility.yul\":19710:19716   */\n      dup3\n        /* \"#utility.yul\":19706:19720   */\n      add\n        /* \"#utility.yul\":19699:19737   */\n      mstore\n        /* \"#utility.yul\":19582:19744   */\n      pop\n      jump\t// out\n        /* \"#utility.yul\":19750:20116   */\n    tag_209:\n        /* \"#utility.yul\":19892:19895   */\n      0x00\n        /* \"#utility.yul\":19913:19980   */\n      tag_408\n        /* \"#utility.yul\":19977:19979   */\n      0x0c\n        /* \"#utility.yul\":19972:19975   */\n      dup4\n        /* \"#utility.yul\":19913:19980   */\n      tag_161\n      jump\t// in\n    tag_408:\n        /* \"#utility.yul\":19906:19980   */\n      swap2\n      pop\n        /* \"#utility.yul\":19989:20082   */\n      tag_409\n        /* \"#utility.yul\":20078:20081   */\n      dup3\n        /* \"#utility.yul\":19989:20082   */\n      tag_208\n      jump\t// in\n    tag_409:\n        /* \"#utility.yul\":20107:20109   */\n      0x20\n        /* \"#utility.yul\":20102:20105   */\n      dup3\n        /* \"#utility.yul\":20098:20110   */\n      add\n        /* \"#utility.yul\":20091:20110   */\n      swap1\n      pop\n        /* \"#utility.yul\":19750:20116   */\n      swap2\n      swap1\n      pop\n      jump\t// out\n        /* \"#utility.yul\":20122:20541   */\n    tag_135:\n        /* \"#utility.yul\":20288:20292   */\n      0x00\n        /* \"#utility.yul\":20326:20328   */\n      0x20\n        /* \"#utility.yul\":20315:20324   */\n      dup3\n        /* \"#utility.yul\":20311:20329   */\n      add\n        /* \"#utility.yul\":20303:20329   */\n      swap1\n      pop\n        /* \"#utility.yul\":20375:20384   */\n      dup2\n        /* \"#utility.yul\":20369:20373   */\n      dup2\n        /* \"#utility.yul\":20365:20385   */\n      sub\n        /* \"#utility.yul\":20361:20362   */\n      0x00\n        /* \"#utility.yul\":20350:20359   */\n      dup4\n        /* \"#utility.yul\":20346:20363   */\n      add\n        /* \"#utility.yul\":20339:20386   */\n      mstore\n        /* \"#utility.yul\":20403:20534   */\n      tag_411\n        /* \"#utility.yul\":20529:20533   */\n      dup2\n        /* \"#utility.yul\":20403:20534   */\n      tag_209\n      jump\t// in\n    tag_411:\n        /* \"#utility.yul\":20395:20534   */\n      swap1\n      pop\n        /* \"#utility.yul\":20122:20541   */\n      swap2\n      swap1\n      pop\n      jump\t// out\n        /* \"#utility.yul\":20547:20718   */\n    tag_210:\n        /* \"#utility.yul\":20687:20710   */\n      0x496e76616c696420616d6f756e74206261636b65640000000000000000000000\n        /* \"#utility.yul\":20683:20684   */\n      0x00\n        /* \"#utility.yul\":20675:20681   */\n      dup3\n        /* \"#utility.yul\":20671:20685   */\n      add\n        /* \"#utility.yul\":20664:20711   */\n      mstore\n        /* \"#utility.yul\":20547:20718   */\n      pop\n      jump\t// out\n        /* \"#utility.yul\":20724:21090   */\n    tag_211:\n        /* \"#utility.yul\":20866:20869   */\n      0x00\n        /* \"#utility.yul\":20887:20954   */\n      tag_414\n        /* \"#utility.yul\":20951:20953   */\n      0x15\n        /* \"#utility.yul\":20946:20949   */\n      dup4\n        /* \"#utility.yul\":20887:20954   */\n      tag_161\n      jump\t// in\n    tag_414:\n        /* \"#utility.yul\":20880:20954   */\n      swap2\n      pop\n        /* \"#utility.yul\":20963:21056   */\n      tag_415\n        /* \"#utility.yul\":21052:21055   */\n      dup3\n        /* \"#utility.yul\":20963:21056   */\n      tag_210\n      jump\t// in\n    tag_415:\n        /* \"#utility.yul\":21081:21083   */\n      0x20\n        /* \"#utility.yul\":21076:21079   */\n      dup3\n        /* \"#utility.yul\":21072:21084   */\n      add\n        /* \"#utility.yul\":21065:21084   */\n      swap1\n      pop\n        /* \"#utility.yul\":20724:21090   */\n      swap2\n      swap1\n      pop\n      jump\t// out\n        /* \"#utility.yul\":21096:21515   */\n    tag_141:\n        /* \"#utility.yul\":21262:21266   */\n      0x00\n        /* \"#utility.yul\":21300:21302   */\n      0x20\n        /* \"#utility.yul\":21289:21298   */\n      dup3\n        /* \"#utility.yul\":21285:21303   */\n      add\n        /* \"#utility.yul\":21277:21303   */\n      swap1\n      pop\n        /* \"#utility.yul\":21349:21358   */\n      dup2\n        /* \"#utility.yul\":21343:21347   */\n      dup2\n        /* \"#utility.yul\":21339:21359   */\n      sub\n        /* \"#utility.yul\":21335:21336   */\n      0x00\n        /* \"#utility.yul\":21324:21333   */\n      dup4\n        /* \"#utility.yul\":21320:21337   */\n      add\n        /* \"#utility.yul\":21313:21360   */\n      mstore\n        /* \"#utility.yul\":21377:21508   */\n      tag_417\n        /* \"#utility.yul\":21503:21507   */\n      dup2\n        /* \"#utility.yul\":21377:21508   */\n      tag_211\n      jump\t// in\n    tag_417:\n        /* \"#utility.yul\":21369:21508   */\n      swap1\n      pop\n        /* \"#utility.yul\":21096:21515   */\n      swap2\n      swap1\n      pop\n      jump\t// out\n        /* \"#utility.yul\":21521:21754   */\n    tag_146:\n        /* \"#utility.yul\":21560:21563   */\n      0x00\n        /* \"#utility.yul\":21583:21607   */\n      tag_419\n        /* \"#utility.yul\":21601:21606   */\n      dup3\n        /* \"#utility.yul\":21583:21607   */\n      tag_157\n      jump\t// in\n    tag_419:\n        /* \"#utility.yul\":21574:21607   */\n      swap2\n      pop\n        /* \"#utility.yul\":21629:21695   */\n      0xffffffffffffffffffffffffffffffffffffffffffffffffffffffffffffffff\n        /* \"#utility.yul\":21622:21627   */\n      dup3\n        /* \"#utility.yul\":21619:21696   */\n      sub\n        /* \"#utility.yul\":21616:21719   */\n      tag_420\n      jumpi\n        /* \"#utility.yul\":21699:21717   */\n      tag_421\n      tag_187\n      jump\t// in\n    tag_421:\n        /* \"#utility.yul\":21616:21719   */\n    tag_420:\n        /* \"#utility.yul\":21746:21747   */\n      0x01\n        /* \"#utility.yul\":21739:21744   */\n      dup3\n        /* \"#utility.yul\":21735:21748   */\n      add\n        /* \"#utility.yul\":21728:21748   */\n      swap1\n      pop\n        /* \"#utility.yul\":21521:21754   */\n      swap2\n      swap1\n      pop\n      jump\t// out\n\n    auxdata: 0xa2646970667358221220a9d55c7d7fa4ff0f033e90af00fe4962355c99de67e820d742d8c048829e3c0f64736f6c634300081a0033\n}\n",
				"bytecode": {
					"linkReferences": {},
					"object": "608060405234801561000f575f80fd5b50604051611c1d380380611c1d83398181016040528101906100319190610240565b835f908161003f91906104e0565b50826001908161004f91906104e0565b5081600281905550620151808161006691906105dc565b42610071919061061d565b6003819055503360045f6101000a81548173ffffffffffffffffffffffffffffffffffffffff021916908373ffffffffffffffffffffffffffffffffffffffff16021790555050505050610650565b5f604051905090565b5f80fd5b5f80fd5b5f80fd5b5f80fd5b5f601f19601f8301169050919050565b7f4e487b71000000000000000000000000000000000000000000000000000000005f52604160045260245ffd5b61011f826100d9565b810181811067ffffffffffffffff8211171561013e5761013d6100e9565b5b80604052505050565b5f6101506100c0565b905061015c8282610116565b919050565b5f67ffffffffffffffff82111561017b5761017a6100e9565b5b610184826100d9565b9050602081019050919050565b8281835e5f83830152505050565b5f6101b16101ac84610161565b610147565b9050828152602081018484840111156101cd576101cc6100d5565b5b6101d8848285610191565b509392505050565b5f82601f8301126101f4576101f36100d1565b5b815161020484826020860161019f565b91505092915050565b5f819050919050565b61021f8161020d565b8114610229575f80fd5b50565b5f8151905061023a81610216565b92915050565b5f805f8060808587031215610258576102576100c9565b5b5f85015167ffffffffffffffff811115610275576102746100cd565b5b610281878288016101e0565b945050602085015167ffffffffffffffff8111156102a2576102a16100cd565b5b6102ae878288016101e0565b93505060406102bf8782880161022c565b92505060606102d08782880161022c565b91505092959194509250565b5f81519050919050565b7f4e487b71000000000000000000000000000000000000000000000000000000005f52602260045260245ffd5b5f600282049050600182168061032a57607f821691505b60208210810361033d5761033c6102e6565b5b50919050565b5f819050815f5260205f209050919050565b5f6020601f8301049050919050565b5f82821b905092915050565b5f6008830261039f7fffffffffffffffffffffffffffffffffffffffffffffffffffffffffffffffff82610364565b6103a98683610364565b95508019841693508086168417925050509392505050565b5f819050919050565b5f6103e46103df6103da8461020d565b6103c1565b61020d565b9050919050565b5f819050919050565b6103fd836103ca565b610411610409826103eb565b848454610370565b825550505050565b5f90565b610425610419565b6104308184846103f4565b505050565b5b81811015610453576104485f8261041d565b600181019050610436565b5050565b601f8211156104985761046981610343565b61047284610355565b81016020851015610481578190505b61049561048d85610355565b830182610435565b50505b505050565b5f82821c905092915050565b5f6104b85f198460080261049d565b1980831691505092915050565b5f6104d083836104a9565b9150826002028217905092915050565b6104e9826102dc565b67ffffffffffffffff811115610502576105016100e9565b5b61050c8254610313565b610517828285610457565b5f60209050601f831160018114610548575f8415610536578287015190505b61054085826104c5565b8655506105a7565b601f19841661055686610343565b5f5b8281101561057d57848901518255600182019150602085019450602081019050610558565b8683101561059a5784890151610596601f8916826104a9565b8355505b6001600288020188555050505b505050505050565b7f4e487b71000000000000000000000000000000000000000000000000000000005f52601160045260245ffd5b5f6105e68261020d565b91506105f18361020d565b92508282026105ff8161020d565b91508282048414831517610616576106156105af565b5b5092915050565b5f6106278261020d565b91506106328361020d565b925082820190508082111561064a576106496105af565b5b92915050565b6115c08061065d5f395ff3fe60806040526004361061009b575f3560e01c80637497211b116100635780637497211b146101715780638ece7b9114610199578063ca1d209d146101c1578063e036a772146101dd578063e4efd1dc14610207578063fdf04ed4146102315761009b565b8063039af9eb1461009f5780630574f590146100dd5780633ccfd60b146101075780634137e7331461011d5780636f9fb98a14610147575b5f80fd5b3480156100aa575f80fd5b506100c560048036038101906100c09190610a89565b61025b565b6040516100d493929190610b33565b60405180910390f35b3480156100e8575f80fd5b506100f1610316565b6040516100fe9190610b6f565b60405180910390f35b348015610112575f80fd5b5061011b6103a2565b005b348015610128575f80fd5b50610131610524565b60405161013e9190610b6f565b60405180910390f35b348015610152575f80fd5b5061015b6105af565b6040516101689190610b8f565b60405180910390f35b34801561017c575f80fd5b5061019760048036038101906101929190610a89565b6105b6565b005b3480156101a4575f80fd5b506101bf60048036038101906101ba9190610cd4565b61074f565b005b6101db60048036038101906101d69190610a89565b610891565b005b3480156101e8575f80fd5b506101f16109bc565b6040516101fe9190610b8f565b60405180910390f35b348015610212575f80fd5b5061021b6109c2565b6040516102289190610b8f565b60405180910390f35b34801561023c575f80fd5b506102456109c8565b6040516102529190610d6d565b60405180910390f35b6005818154811061026a575f80fd5b905f5260205f2090600302015f91509050805f01805461028990610db3565b80601f01602080910402602001604051908101604052809291908181526020018280546102b590610db3565b80156103005780601f106102d757610100808354040283529160200191610300565b820191905f5260205f20905b8154815290600101906020018083116102e357829003601f168201915b5050505050908060010154908060020154905083565b6001805461032390610db3565b80601f016020809104026020016040519081016040528092919081815260200182805461034f90610db3565b801561039a5780601f106103715761010080835404028352916020019161039a565b820191905f5260205f20905b81548152906001019060200180831161037d57829003601f168201915b505050505081565b60045f9054906101000a900473ffffffffffffffffffffffffffffffffffffffff1673ffffffffffffffffffffffffffffffffffffffff163373ffffffffffffffffffffffffffffffffffffffff1614610431576040517f08c379a000000000000000000000000000000000000000000000000000000000815260040161042890610e2d565b60405180910390fd5b600254471015610476576040517f08c379a000000000000000000000000000000000000000000000000000000000815260040161046d90610e95565b60405180910390fd5b5f4790505f81116104bc576040517f08c379a00000000000000000000000000000000000000000000000000000000081526004016104b390610efd565b60405180910390fd5b60045f9054906101000a900473ffffffffffffffffffffffffffffffffffffffff1673ffffffffffffffffffffffffffffffffffffffff166108fc8290811502906040515f60405180830381858888f19350505050158015610520573d5f803e3d5ffd5b5050565b5f805461053090610db3565b80601f016020809104026020016040519081016040528092919081815260200182805461055c90610db3565b80156105a75780601f1061057e576101008083540402835291602001916105a7565b820191905f5260205f20905b81548152906001019060200180831161058a57829003601f168201915b505050505081565b5f47905090565b60045f9054906101000a900473ffffffffffffffffffffffffffffffffffffffff1673ffffffffffffffffffffffffffffffffffffffff163373ffffffffffffffffffffffffffffffffffffffff1614610645576040517f08c379a000000000000000000000000000000000000000000000000000000000815260040161063c90610e2d565b60405180910390fd5b600580549050811061068c576040517f08c379a000000000000000000000000000000000000000000000000000000000815260040161068390610f65565b60405180910390fd5b600560016005805490506106a09190610fb0565b815481106106b1576106b0610fe3565b5b905f5260205f209060030201600582815481106106d1576106d0610fe3565b5b905f5260205f2090600302015f8201815f0190816106ef91906111c2565b5060018201548160010155600282015481600201559050506005805480610719576107186112a7565b5b600190038181905f5260205f2090600302015f8082015f61073a91906109ed565b600182015f9055600282015f90555050905550565b60045f9054906101000a900473ffffffffffffffffffffffffffffffffffffffff1673ffffffffffffffffffffffffffffffffffffffff163373ffffffffffffffffffffffffffffffffffffffff16146107de576040517f08c379a00000000000000000000000000000000000000000000000000000000081526004016107d590610e2d565b60405180910390fd5b5f8111610820576040517f08c379a00000000000000000000000000000000000000000000000000000000081526004016108179061131e565b60405180910390fd5b600560405180606001604052808481526020018381526020015f815250908060018154018082558091505060019003905f5260205f2090600302015f909190919091505f820151815f019081610876919061133c565b50602082015181600101556040820151816002015550505050565b60035442106108d5576040517f08c379a00000000000000000000000000000000000000000000000000000000081526004016108cc90611455565b60405180910390fd5b600580549050811061091c576040517f08c379a0000000000000000000000000000000000000000000000000000000008152600401610913906114bd565b60405180910390fd5b600581815481106109305761092f610fe3565b5b905f5260205f209060030201600101543414610981576040517f08c379a000000000000000000000000000000000000000000000000000000000815260040161097890611525565b60405180910390fd5b6005818154811061099557610994610fe3565b5b905f5260205f2090600302016002015f8154809291906109b490611543565b919050555050565b60025481565b60035481565b60045f9054906101000a900473ffffffffffffffffffffffffffffffffffffffff1681565b5080546109f990610db3565b5f825580601f10610a0a5750610a27565b601f0160209004905f5260205f2090810190610a269190610a2a565b5b50565b5b80821115610a41575f815f905550600101610a2b565b5090565b5f604051905090565b5f80fd5b5f80fd5b5f819050919050565b610a6881610a56565b8114610a72575f80fd5b50565b5f81359050610a8381610a5f565b92915050565b5f60208284031215610a9e57610a9d610a4e565b5b5f610aab84828501610a75565b91505092915050565b5f81519050919050565b5f82825260208201905092915050565b8281835e5f83830152505050565b5f601f19601f8301169050919050565b5f610af682610ab4565b610b008185610abe565b9350610b10818560208601610ace565b610b1981610adc565b840191505092915050565b610b2d81610a56565b82525050565b5f6060820190508181035f830152610b4b8186610aec565b9050610b5a6020830185610b24565b610b676040830184610b24565b949350505050565b5f6020820190508181035f830152610b878184610aec565b905092915050565b5f602082019050610ba25f830184610b24565b92915050565b5f80fd5b5f80fd5b7f4e487b71000000000000000000000000000000000000000000000000000000005f52604160045260245ffd5b610be682610adc565b810181811067ffffffffffffffff82111715610c0557610c04610bb0565b5b80604052505050565b5f610c17610a45565b9050610c238282610bdd565b919050565b5f67ffffffffffffffff821115610c4257610c41610bb0565b5b610c4b82610adc565b9050602081019050919050565b828183375f83830152505050565b5f610c78610c7384610c28565b610c0e565b905082815260208101848484011115610c9457610c93610bac565b5b610c9f848285610c58565b509392505050565b5f82601f830112610cbb57610cba610ba8565b5b8135610ccb848260208601610c66565b91505092915050565b5f8060408385031215610cea57610ce9610a4e565b5b5f83013567ffffffffffffffff811115610d0757610d06610a52565b5b610d1385828601610ca7565b9250506020610d2485828601610a75565b9150509250929050565b5f73ffffffffffffffffffffffffffffffffffffffff82169050919050565b5f610d5782610d2e565b9050919050565b610d6781610d4d565b82525050565b5f602082019050610d805f830184610d5e565b92915050565b7f4e487b71000000000000000000000000000000000000000000000000000000005f52602260045260245ffd5b5f6002820490506001821680610dca57607f821691505b602082108103610ddd57610ddc610d86565b5b50919050565b7f4e6f742063616d706169676e206f776e657200000000000000000000000000005f82015250565b5f610e17601283610abe565b9150610e2282610de3565b602082019050919050565b5f6020820190508181035f830152610e4481610e0b565b9050919050565b7f476f616c206e6f7420636f6d706c6574656420796574000000000000000000005f82015250565b5f610e7f601683610abe565b9150610e8a82610e4b565b602082019050919050565b5f6020820190508181035f830152610eac81610e73565b9050919050565b7f4e6f7468696e6720746f207769746864726177000000000000000000000000005f82015250565b5f610ee7601383610abe565b9150610ef282610eb3565b602082019050919050565b5f6020820190508181035f830152610f1481610edb565b9050919050565b7f5469657220646f6573206e6f74206578697374000000000000000000000000005f82015250565b5f610f4f601383610abe565b9150610f5a82610f1b565b602082019050919050565b5f6020820190508181035f830152610f7c81610f43565b9050919050565b7f4e487b71000000000000000000000000000000000000000000000000000000005f52601160045260245ffd5b5f610fba82610a56565b9150610fc583610a56565b9250828203905081811115610fdd57610fdc610f83565b5b92915050565b7f4e487b71000000000000000000000000000000000000000000000000000000005f52603260045260245ffd5b5f8154905061101e81610db3565b9050919050565b5f819050815f5260205f209050919050565b5f6020601f8301049050919050565b5f82821b905092915050565b5f600883026110817fffffffffffffffffffffffffffffffffffffffffffffffffffffffffffffffff82611046565b61108b8683611046565b95508019841693508086168417925050509392505050565b5f819050919050565b5f6110c66110c16110bc84610a56565b6110a3565b610a56565b9050919050565b5f819050919050565b6110df836110ac565b6110f36110eb826110cd565b848454611052565b825550505050565b5f90565b6111076110fb565b6111128184846110d6565b505050565b5b818110156111355761112a5f826110ff565b600181019050611118565b5050565b601f82111561117a5761114b81611025565b61115484611037565b81016020851015611163578190505b61117761116f85611037565b830182611117565b50505b505050565b5f82821c905092915050565b5f61119a5f198460080261117f565b1980831691505092915050565b5f6111b2838361118b565b9150826002028217905092915050565b8181036111d05750506112a5565b6111d982611010565b67ffffffffffffffff8111156111f2576111f1610bb0565b5b6111fc8254610db3565b611207828285611139565b5f601f831160018114611234575f8415611222578287015490505b61122c85826111a7565b86555061129e565b601f19841661124287611025565b965061124d86611025565b5f5b828110156112745784890154825560018201915060018501945060208101905061124f565b86831015611291578489015461128d601f89168261118b565b8355505b6001600288020188555050505b5050505050505b565b7f4e487b71000000000000000000000000000000000000000000000000000000005f52603160045260245ffd5b7f416d6f756e74206d7573742062652067726561746572207468616e20300000005f82015250565b5f611308601d83610abe565b9150611313826112d4565b602082019050919050565b5f6020820190508181035f830152611335816112fc565b9050919050565b61134582610ab4565b67ffffffffffffffff81111561135e5761135d610bb0565b5b6113688254610db3565b611373828285611139565b5f60209050601f8311600181146113a4575f8415611392578287015190505b61139c85826111a7565b865550611403565b601f1984166113b286611025565b5f5b828110156113d9578489015182556001820191506020850194506020810190506113b4565b868310156113f657848901516113f2601f89168261118b565b8355505b6001600288020188555050505b505050505050565b7f536f7272792063616d706167696e2068617320656e64656400000000000000005f82015250565b5f61143f601883610abe565b915061144a8261140b565b602082019050919050565b5f6020820190508181035f83015261146c81611433565b9050919050565b7f496e76616c6964205469657200000000000000000000000000000000000000005f82015250565b5f6114a7600c83610abe565b91506114b282611473565b602082019050919050565b5f6020820190508181035f8301526114d48161149b565b9050919050565b7f496e76616c696420616d6f756e74206261636b656400000000000000000000005f82015250565b5f61150f601583610abe565b915061151a826114db565b602082019050919050565b5f6020820190508181035f83015261153c81611503565b9050919050565b5f61154d82610a56565b91507fffffffffffffffffffffffffffffffffffffffffffffffffffffffffffffffff820361157f5761157e610f83565b5b60018201905091905056fea2646970667358221220a9d55c7d7fa4ff0f033e90af00fe4962355c99de67e820d742d8c048829e3c0f64736f6c634300081a0033",
					"opcodes": "PUSH1 0x80 PUSH1 0x40 MSTORE CALLVALUE DUP1 ISZERO PUSH2 0xF JUMPI PUSH0 DUP1 REVERT JUMPDEST POP PUSH1 0x40 MLOAD PUSH2 0x1C1D CODESIZE SUB DUP1 PUSH2 0x1C1D DUP4 CODECOPY DUP2 DUP2 ADD PUSH1 0x40 MSTORE DUP2 ADD SWAP1 PUSH2 0x31 SWAP2 SWAP1 PUSH2 0x240 JUMP JUMPDEST DUP4 PUSH0 SWAP1 DUP2 PUSH2 0x3F SWAP2 SWAP1 PUSH2 0x4E0 JUMP JUMPDEST POP DUP3 PUSH1 0x1 SWAP1 DUP2 PUSH2 0x4F SWAP2 SWAP1 PUSH2 0x4E0 JUMP JUMPDEST POP DUP2 PUSH1 0x2 DUP2 SWAP1 SSTORE POP PUSH3 0x15180 DUP2 PUSH2 0x66 SWAP2 SWAP1 PUSH2 0x5DC JUMP JUMPDEST TIMESTAMP PUSH2 0x71 SWAP2 SWAP1 PUSH2 0x61D JUMP JUMPDEST PUSH1 0x3 DUP2 SWAP1 SSTORE POP CALLER PUSH1 0x4 PUSH0 PUSH2 0x100 EXP DUP2 SLOAD DUP2 PUSH20 0xFFFFFFFFFFFFFFFFFFFFFFFFFFFFFFFFFFFFFFFF MUL NOT AND SWAP1 DUP4 PUSH20 0xFFFFFFFFFFFFFFFFFFFFFFFFFFFFFFFFFFFFFFFF AND MUL OR SWAP1 SSTORE POP POP POP POP POP PUSH2 0x650 JUMP JUMPDEST PUSH0 PUSH1 0x40 MLOAD SWAP1 POP SWAP1 JUMP JUMPDEST PUSH0 DUP1 REVERT JUMPDEST PUSH0 DUP1 REVERT JUMPDEST PUSH0 DUP1 REVERT JUMPDEST PUSH0 DUP1 REVERT JUMPDEST PUSH0 PUSH1 0x1F NOT PUSH1 0x1F DUP4 ADD AND SWAP1 POP SWAP2 SWAP1 POP JUMP JUMPDEST PUSH32 0x4E487B7100000000000000000000000000000000000000000000000000000000 PUSH0 MSTORE PUSH1 0x41 PUSH1 0x4 MSTORE PUSH1 0x24 PUSH0 REVERT JUMPDEST PUSH2 0x11F DUP3 PUSH2 0xD9 JUMP JUMPDEST DUP2 ADD DUP2 DUP2 LT PUSH8 0xFFFFFFFFFFFFFFFF DUP3 GT OR ISZERO PUSH2 0x13E JUMPI PUSH2 0x13D PUSH2 0xE9 JUMP JUMPDEST JUMPDEST DUP1 PUSH1 0x40 MSTORE POP POP POP JUMP JUMPDEST PUSH0 PUSH2 0x150 PUSH2 0xC0 JUMP JUMPDEST SWAP1 POP PUSH2 0x15C DUP3 DUP3 PUSH2 0x116 JUMP JUMPDEST SWAP2 SWAP1 POP JUMP JUMPDEST PUSH0 PUSH8 0xFFFFFFFFFFFFFFFF DUP3 GT ISZERO PUSH2 0x17B JUMPI PUSH2 0x17A PUSH2 0xE9 JUMP JUMPDEST JUMPDEST PUSH2 0x184 DUP3 PUSH2 0xD9 JUMP JUMPDEST SWAP1 POP PUSH1 0x20 DUP2 ADD SWAP1 POP SWAP2 SWAP1 POP JUMP JUMPDEST DUP3 DUP2 DUP4 MCOPY PUSH0 DUP4 DUP4 ADD MSTORE POP POP POP JUMP JUMPDEST PUSH0 PUSH2 0x1B1 PUSH2 0x1AC DUP5 PUSH2 0x161 JUMP JUMPDEST PUSH2 0x147 JUMP JUMPDEST SWAP1 POP DUP3 DUP2 MSTORE PUSH1 0x20 DUP2 ADD DUP5 DUP5 DUP5 ADD GT ISZERO PUSH2 0x1CD JUMPI PUSH2 0x1CC PUSH2 0xD5 JUMP JUMPDEST JUMPDEST PUSH2 0x1D8 DUP5 DUP3 DUP6 PUSH2 0x191 JUMP JUMPDEST POP SWAP4 SWAP3 POP POP POP JUMP JUMPDEST PUSH0 DUP3 PUSH1 0x1F DUP4 ADD SLT PUSH2 0x1F4 JUMPI PUSH2 0x1F3 PUSH2 0xD1 JUMP JUMPDEST JUMPDEST DUP2 MLOAD PUSH2 0x204 DUP5 DUP3 PUSH1 0x20 DUP7 ADD PUSH2 0x19F JUMP JUMPDEST SWAP2 POP POP SWAP3 SWAP2 POP POP JUMP JUMPDEST PUSH0 DUP2 SWAP1 POP SWAP2 SWAP1 POP JUMP JUMPDEST PUSH2 0x21F DUP2 PUSH2 0x20D JUMP JUMPDEST DUP2 EQ PUSH2 0x229 JUMPI PUSH0 DUP1 REVERT JUMPDEST POP JUMP JUMPDEST PUSH0 DUP2 MLOAD SWAP1 POP PUSH2 0x23A DUP2 PUSH2 0x216 JUMP JUMPDEST SWAP3 SWAP2 POP POP JUMP JUMPDEST PUSH0 DUP1 PUSH0 DUP1 PUSH1 0x80 DUP6 DUP8 SUB SLT ISZERO PUSH2 0x258 JUMPI PUSH2 0x257 PUSH2 0xC9 JUMP JUMPDEST JUMPDEST PUSH0 DUP6 ADD MLOAD PUSH8 0xFFFFFFFFFFFFFFFF DUP2 GT ISZERO PUSH2 0x275 JUMPI PUSH2 0x274 PUSH2 0xCD JUMP JUMPDEST JUMPDEST PUSH2 0x281 DUP8 DUP3 DUP9 ADD PUSH2 0x1E0 JUMP JUMPDEST SWAP5 POP POP PUSH1 0x20 DUP6 ADD MLOAD PUSH8 0xFFFFFFFFFFFFFFFF DUP2 GT ISZERO PUSH2 0x2A2 JUMPI PUSH2 0x2A1 PUSH2 0xCD JUMP JUMPDEST JUMPDEST PUSH2 0x2AE DUP8 DUP3 DUP9 ADD PUSH2 0x1E0 JUMP JUMPDEST SWAP4 POP POP PUSH1 0x40 PUSH2 0x2BF DUP8 DUP3 DUP9 ADD PUSH2 0x22C JUMP JUMPDEST SWAP3 POP POP PUSH1 0x60 PUSH2 0x2D0 DUP8 DUP3 DUP9 ADD PUSH2 0x22C JUMP JUMPDEST SWAP2 POP POP SWAP3 SWAP6 SWAP2 SWAP5 POP SWAP3 POP JUMP JUMPDEST PUSH0 DUP2 MLOAD SWAP1 POP SWAP2 SWAP1 POP JUMP JUMPDEST PUSH32 0x4E487B7100000000000000000000000000000000000000000000000000000000 PUSH0 MSTORE PUSH1 0x22 PUSH1 0x4 MSTORE PUSH1 0x24 PUSH0 REVERT JUMPDEST PUSH0 PUSH1 0x2 DUP3 DIV SWAP1 POP PUSH1 0x1 DUP3 AND DUP1 PUSH2 0x32A JUMPI PUSH1 0x7F DUP3 AND SWAP2 POP JUMPDEST PUSH1 0x20 DUP3 LT DUP2 SUB PUSH2 0x33D JUMPI PUSH2 0x33C PUSH2 0x2E6 JUMP JUMPDEST JUMPDEST POP SWAP2 SWAP1 POP JUMP JUMPDEST PUSH0 DUP2 SWAP1 POP DUP2 PUSH0 MSTORE PUSH1 0x20 PUSH0 KECCAK256 SWAP1 POP SWAP2 SWAP1 POP JUMP JUMPDEST PUSH0 PUSH1 0x20 PUSH1 0x1F DUP4 ADD DIV SWAP1 POP SWAP2 SWAP1 POP JUMP JUMPDEST PUSH0 DUP3 DUP3 SHL SWAP1 POP SWAP3 SWAP2 POP POP JUMP JUMPDEST PUSH0 PUSH1 0x8 DUP4 MUL PUSH2 0x39F PUSH32 0xFFFFFFFFFFFFFFFFFFFFFFFFFFFFFFFFFFFFFFFFFFFFFFFFFFFFFFFFFFFFFFFF DUP3 PUSH2 0x364 JUMP JUMPDEST PUSH2 0x3A9 DUP7 DUP4 PUSH2 0x364 JUMP JUMPDEST SWAP6 POP DUP1 NOT DUP5 AND SWAP4 POP DUP1 DUP7 AND DUP5 OR SWAP3 POP POP POP SWAP4 SWAP3 POP POP POP JUMP JUMPDEST PUSH0 DUP2 SWAP1 POP SWAP2 SWAP1 POP JUMP JUMPDEST PUSH0 PUSH2 0x3E4 PUSH2 0x3DF PUSH2 0x3DA DUP5 PUSH2 0x20D JUMP JUMPDEST PUSH2 0x3C1 JUMP JUMPDEST PUSH2 0x20D JUMP JUMPDEST SWAP1 POP SWAP2 SWAP1 POP JUMP JUMPDEST PUSH0 DUP2 SWAP1 POP SWAP2 SWAP1 POP JUMP JUMPDEST PUSH2 0x3FD DUP4 PUSH2 0x3CA JUMP JUMPDEST PUSH2 0x411 PUSH2 0x409 DUP3 PUSH2 0x3EB JUMP JUMPDEST DUP5 DUP5 SLOAD PUSH2 0x370 JUMP JUMPDEST DUP3 SSTORE POP POP POP POP JUMP JUMPDEST PUSH0 SWAP1 JUMP JUMPDEST PUSH2 0x425 PUSH2 0x419 JUMP JUMPDEST PUSH2 0x430 DUP2 DUP5 DUP5 PUSH2 0x3F4 JUMP JUMPDEST POP POP POP JUMP JUMPDEST JUMPDEST DUP2 DUP2 LT ISZERO PUSH2 0x453 JUMPI PUSH2 0x448 PUSH0 DUP3 PUSH2 0x41D JUMP JUMPDEST PUSH1 0x1 DUP2 ADD SWAP1 POP PUSH2 0x436 JUMP JUMPDEST POP POP JUMP JUMPDEST PUSH1 0x1F DUP3 GT ISZERO PUSH2 0x498 JUMPI PUSH2 0x469 DUP2 PUSH2 0x343 JUMP JUMPDEST PUSH2 0x472 DUP5 PUSH2 0x355 JUMP JUMPDEST DUP2 ADD PUSH1 0x20 DUP6 LT ISZERO PUSH2 0x481 JUMPI DUP2 SWAP1 POP JUMPDEST PUSH2 0x495 PUSH2 0x48D DUP6 PUSH2 0x355 JUMP JUMPDEST DUP4 ADD DUP3 PUSH2 0x435 JUMP JUMPDEST POP POP JUMPDEST POP POP POP JUMP JUMPDEST PUSH0 DUP3 DUP3 SHR SWAP1 POP SWAP3 SWAP2 POP POP JUMP JUMPDEST PUSH0 PUSH2 0x4B8 PUSH0 NOT DUP5 PUSH1 0x8 MUL PUSH2 0x49D JUMP JUMPDEST NOT DUP1 DUP4 AND SWAP2 POP POP SWAP3 SWAP2 POP POP JUMP JUMPDEST PUSH0 PUSH2 0x4D0 DUP4 DUP4 PUSH2 0x4A9 JUMP JUMPDEST SWAP2 POP DUP3 PUSH1 0x2 MUL DUP3 OR SWAP1 POP SWAP3 SWAP2 POP POP JUMP JUMPDEST PUSH2 0x4E9 DUP3 PUSH2 0x2DC JUMP JUMPDEST PUSH8 0xFFFFFFFFFFFFFFFF DUP2 GT ISZERO PUSH2 0x502 JUMPI PUSH2 0x501 PUSH2 0xE9 JUMP JUMPDEST JUMPDEST PUSH2 0x50C DUP3 SLOAD PUSH2 0x313 JUMP JUMPDEST PUSH2 0x517 DUP3 DUP3 DUP6 PUSH2 0x457 JUMP JUMPDEST PUSH0 PUSH1 0x20 SWAP1 POP PUSH1 0x1F DUP4 GT PUSH1 0x1 DUP2 EQ PUSH2 0x548 JUMPI PUSH0 DUP5 ISZERO PUSH2 0x536 JUMPI DUP3 DUP8 ADD MLOAD SWAP1 POP JUMPDEST PUSH2 0x540 DUP6 DUP3 PUSH2 0x4C5 JUMP JUMPDEST DUP7 SSTORE POP PUSH2 0x5A7 JUMP JUMPDEST PUSH1 0x1F NOT DUP5 AND PUSH2 0x556 DUP7 PUSH2 0x343 JUMP JUMPDEST PUSH0 JUMPDEST DUP3 DUP2 LT ISZERO PUSH2 0x57D JUMPI DUP5 DUP10 ADD MLOAD DUP3 SSTORE PUSH1 0x1 DUP3 ADD SWAP2 POP PUSH1 0x20 DUP6 ADD SWAP5 POP PUSH1 0x20 DUP2 ADD SWAP1 POP PUSH2 0x558 JUMP JUMPDEST DUP7 DUP4 LT ISZERO PUSH2 0x59A JUMPI DUP5 DUP10 ADD MLOAD PUSH2 0x596 PUSH1 0x1F DUP10 AND DUP3 PUSH2 0x4A9 JUMP JUMPDEST DUP4 SSTORE POP JUMPDEST PUSH1 0x1 PUSH1 0x2 DUP9 MUL ADD DUP9 SSTORE POP POP POP JUMPDEST POP POP POP POP POP POP JUMP JUMPDEST PUSH32 0x4E487B7100000000000000000000000000000000000000000000000000000000 PUSH0 MSTORE PUSH1 0x11 PUSH1 0x4 MSTORE PUSH1 0x24 PUSH0 REVERT JUMPDEST PUSH0 PUSH2 0x5E6 DUP3 PUSH2 0x20D JUMP JUMPDEST SWAP2 POP PUSH2 0x5F1 DUP4 PUSH2 0x20D JUMP JUMPDEST SWAP3 POP DUP3 DUP3 MUL PUSH2 0x5FF DUP2 PUSH2 0x20D JUMP JUMPDEST SWAP2 POP DUP3 DUP3 DIV DUP5 EQ DUP4 ISZERO OR PUSH2 0x616 JUMPI PUSH2 0x615 PUSH2 0x5AF JUMP JUMPDEST JUMPDEST POP SWAP3 SWAP2 POP POP JUMP JUMPDEST PUSH0 PUSH2 0x627 DUP3 PUSH2 0x20D JUMP JUMPDEST SWAP2 POP PUSH2 0x632 DUP4 PUSH2 0x20D JUMP JUMPDEST SWAP3 POP DUP3 DUP3 ADD SWAP1 POP DUP1 DUP3 GT ISZERO PUSH2 0x64A JUMPI PUSH2 0x649 PUSH2 0x5AF JUMP JUMPDEST JUMPDEST SWAP3 SWAP2 POP POP JUMP JUMPDEST PUSH2 0x15C0 DUP1 PUSH2 0x65D PUSH0 CODECOPY PUSH0 RETURN INVALID PUSH1 0x80 PUSH1 0x40 MSTORE PUSH1 0x4 CALLDATASIZE LT PUSH2 0x9B JUMPI PUSH0 CALLDATALOAD PUSH1 0xE0 SHR DUP1 PUSH4 0x7497211B GT PUSH2 0x63 JUMPI DUP1 PUSH4 0x7497211B EQ PUSH2 0x171 JUMPI DUP1 PUSH4 0x8ECE7B91 EQ PUSH2 0x199 JUMPI DUP1 PUSH4 0xCA1D209D EQ PUSH2 0x1C1 JUMPI DUP1 PUSH4 0xE036A772 EQ PUSH2 0x1DD JUMPI DUP1 PUSH4 0xE4EFD1DC EQ PUSH2 0x207 JUMPI DUP1 PUSH4 0xFDF04ED4 EQ PUSH2 0x231 JUMPI PUSH2 0x9B JUMP JUMPDEST DUP1 PUSH4 0x39AF9EB EQ PUSH2 0x9F JUMPI DUP1 PUSH4 0x574F590 EQ PUSH2 0xDD JUMPI DUP1 PUSH4 0x3CCFD60B EQ PUSH2 0x107 JUMPI DUP1 PUSH4 0x4137E733 EQ PUSH2 0x11D JUMPI DUP1 PUSH4 0x6F9FB98A EQ PUSH2 0x147 JUMPI JUMPDEST PUSH0 DUP1 REVERT JUMPDEST CALLVALUE DUP1 ISZERO PUSH2 0xAA JUMPI PUSH0 DUP1 REVERT JUMPDEST POP PUSH2 0xC5 PUSH1 0x4 DUP1 CALLDATASIZE SUB DUP2 ADD SWAP1 PUSH2 0xC0 SWAP2 SWAP1 PUSH2 0xA89 JUMP JUMPDEST PUSH2 0x25B JUMP JUMPDEST PUSH1 0x40 MLOAD PUSH2 0xD4 SWAP4 SWAP3 SWAP2 SWAP1 PUSH2 0xB33 JUMP JUMPDEST PUSH1 0x40 MLOAD DUP1 SWAP2 SUB SWAP1 RETURN JUMPDEST CALLVALUE DUP1 ISZERO PUSH2 0xE8 JUMPI PUSH0 DUP1 REVERT JUMPDEST POP PUSH2 0xF1 PUSH2 0x316 JUMP JUMPDEST PUSH1 0x40 MLOAD PUSH2 0xFE SWAP2 SWAP1 PUSH2 0xB6F JUMP JUMPDEST PUSH1 0x40 MLOAD DUP1 SWAP2 SUB SWAP1 RETURN JUMPDEST CALLVALUE DUP1 ISZERO PUSH2 0x112 JUMPI PUSH0 DUP1 REVERT JUMPDEST POP PUSH2 0x11B PUSH2 0x3A2 JUMP JUMPDEST STOP JUMPDEST CALLVALUE DUP1 ISZERO PUSH2 0x128 JUMPI PUSH0 DUP1 REVERT JUMPDEST POP PUSH2 0x131 PUSH2 0x524 JUMP JUMPDEST PUSH1 0x40 MLOAD PUSH2 0x13E SWAP2 SWAP1 PUSH2 0xB6F JUMP JUMPDEST PUSH1 0x40 MLOAD DUP1 SWAP2 SUB SWAP1 RETURN JUMPDEST CALLVALUE DUP1 ISZERO PUSH2 0x152 JUMPI PUSH0 DUP1 REVERT JUMPDEST POP PUSH2 0x15B PUSH2 0x5AF JUMP JUMPDEST PUSH1 0x40 MLOAD PUSH2 0x168 SWAP2 SWAP1 PUSH2 0xB8F JUMP JUMPDEST PUSH1 0x40 MLOAD DUP1 SWAP2 SUB SWAP1 RETURN JUMPDEST CALLVALUE DUP1 ISZERO PUSH2 0x17C JUMPI PUSH0 DUP1 REVERT JUMPDEST POP PUSH2 0x197 PUSH1 0x4 DUP1 CALLDATASIZE SUB DUP2 ADD SWAP1 PUSH2 0x192 SWAP2 SWAP1 PUSH2 0xA89 JUMP JUMPDEST PUSH2 0x5B6 JUMP JUMPDEST STOP JUMPDEST CALLVALUE DUP1 ISZERO PUSH2 0x1A4 JUMPI PUSH0 DUP1 REVERT JUMPDEST POP PUSH2 0x1BF PUSH1 0x4 DUP1 CALLDATASIZE SUB DUP2 ADD SWAP1 PUSH2 0x1BA SWAP2 SWAP1 PUSH2 0xCD4 JUMP JUMPDEST PUSH2 0x74F JUMP JUMPDEST STOP JUMPDEST PUSH2 0x1DB PUSH1 0x4 DUP1 CALLDATASIZE SUB DUP2 ADD SWAP1 PUSH2 0x1D6 SWAP2 SWAP1 PUSH2 0xA89 JUMP JUMPDEST PUSH2 0x891 JUMP JUMPDEST STOP JUMPDEST CALLVALUE DUP1 ISZERO PUSH2 0x1E8 JUMPI PUSH0 DUP1 REVERT JUMPDEST POP PUSH2 0x1F1 PUSH2 0x9BC JUMP JUMPDEST PUSH1 0x40 MLOAD PUSH2 0x1FE SWAP2 SWAP1 PUSH2 0xB8F JUMP JUMPDEST PUSH1 0x40 MLOAD DUP1 SWAP2 SUB SWAP1 RETURN JUMPDEST CALLVALUE DUP1 ISZERO PUSH2 0x212 JUMPI PUSH0 DUP1 REVERT JUMPDEST POP PUSH2 0x21B PUSH2 0x9C2 JUMP JUMPDEST PUSH1 0x40 MLOAD PUSH2 0x228 SWAP2 SWAP1 PUSH2 0xB8F JUMP JUMPDEST PUSH1 0x40 MLOAD DUP1 SWAP2 SUB SWAP1 RETURN JUMPDEST CALLVALUE DUP1 ISZERO PUSH2 0x23C JUMPI PUSH0 DUP1 REVERT JUMPDEST POP PUSH2 0x245 PUSH2 0x9C8 JUMP JUMPDEST PUSH1 0x40 MLOAD PUSH2 0x252 SWAP2 SWAP1 PUSH2 0xD6D JUMP JUMPDEST PUSH1 0x40 MLOAD DUP1 SWAP2 SUB SWAP1 RETURN JUMPDEST PUSH1 0x5 DUP2 DUP2 SLOAD DUP2 LT PUSH2 0x26A JUMPI PUSH0 DUP1 REVERT JUMPDEST SWAP1 PUSH0 MSTORE PUSH1 0x20 PUSH0 KECCAK256 SWAP1 PUSH1 0x3 MUL ADD PUSH0 SWAP2 POP SWAP1 POP DUP1 PUSH0 ADD DUP1 SLOAD PUSH2 0x289 SWAP1 PUSH2 0xDB3 JUMP JUMPDEST DUP1 PUSH1 0x1F ADD PUSH1 0x20 DUP1 SWAP2 DIV MUL PUSH1 0x20 ADD PUSH1 0x40 MLOAD SWAP1 DUP2 ADD PUSH1 0x40 MSTORE DUP1 SWAP3 SWAP2 SWAP1 DUP2 DUP2 MSTORE PUSH1 0x20 ADD DUP3 DUP1 SLOAD PUSH2 0x2B5 SWAP1 PUSH2 0xDB3 JUMP JUMPDEST DUP1 ISZERO PUSH2 0x300 JUMPI DUP1 PUSH1 0x1F LT PUSH2 0x2D7 JUMPI PUSH2 0x100 DUP1 DUP4 SLOAD DIV MUL DUP4 MSTORE SWAP2 PUSH1 0x20 ADD SWAP2 PUSH2 0x300 JUMP JUMPDEST DUP3 ADD SWAP2 SWAP1 PUSH0 MSTORE PUSH1 0x20 PUSH0 KECCAK256 SWAP1 JUMPDEST DUP2 SLOAD DUP2 MSTORE SWAP1 PUSH1 0x1 ADD SWAP1 PUSH1 0x20 ADD DUP1 DUP4 GT PUSH2 0x2E3 JUMPI DUP3 SWAP1 SUB PUSH1 0x1F AND DUP3 ADD SWAP2 JUMPDEST POP POP POP POP POP SWAP1 DUP1 PUSH1 0x1 ADD SLOAD SWAP1 DUP1 PUSH1 0x2 ADD SLOAD SWAP1 POP DUP4 JUMP JUMPDEST PUSH1 0x1 DUP1 SLOAD PUSH2 0x323 SWAP1 PUSH2 0xDB3 JUMP JUMPDEST DUP1 PUSH1 0x1F ADD PUSH1 0x20 DUP1 SWAP2 DIV MUL PUSH1 0x20 ADD PUSH1 0x40 MLOAD SWAP1 DUP2 ADD PUSH1 0x40 MSTORE DUP1 SWAP3 SWAP2 SWAP1 DUP2 DUP2 MSTORE PUSH1 0x20 ADD DUP3 DUP1 SLOAD PUSH2 0x34F SWAP1 PUSH2 0xDB3 JUMP JUMPDEST DUP1 ISZERO PUSH2 0x39A JUMPI DUP1 PUSH1 0x1F LT PUSH2 0x371 JUMPI PUSH2 0x100 DUP1 DUP4 SLOAD DIV MUL DUP4 MSTORE SWAP2 PUSH1 0x20 ADD SWAP2 PUSH2 0x39A JUMP JUMPDEST DUP3 ADD SWAP2 SWAP1 PUSH0 MSTORE PUSH1 0x20 PUSH0 KECCAK256 SWAP1 JUMPDEST DUP2 SLOAD DUP2 MSTORE SWAP1 PUSH1 0x1 ADD SWAP1 PUSH1 0x20 ADD DUP1 DUP4 GT PUSH2 0x37D JUMPI DUP3 SWAP1 SUB PUSH1 0x1F AND DUP3 ADD SWAP2 JUMPDEST POP POP POP POP POP DUP2 JUMP JUMPDEST PUSH1 0x4 PUSH0 SWAP1 SLOAD SWAP1 PUSH2 0x100 EXP SWAP1 DIV PUSH20 0xFFFFFFFFFFFFFFFFFFFFFFFFFFFFFFFFFFFFFFFF AND PUSH20 0xFFFFFFFFFFFFFFFFFFFFFFFFFFFFFFFFFFFFFFFF AND CALLER PUSH20 0xFFFFFFFFFFFFFFFFFFFFFFFFFFFFFFFFFFFFFFFF AND EQ PUSH2 0x431 JUMPI PUSH1 0x40 MLOAD PUSH32 0x8C379A000000000000000000000000000000000000000000000000000000000 DUP2 MSTORE PUSH1 0x4 ADD PUSH2 0x428 SWAP1 PUSH2 0xE2D JUMP JUMPDEST PUSH1 0x40 MLOAD DUP1 SWAP2 SUB SWAP1 REVERT JUMPDEST PUSH1 0x2 SLOAD SELFBALANCE LT ISZERO PUSH2 0x476 JUMPI PUSH1 0x40 MLOAD PUSH32 0x8C379A000000000000000000000000000000000000000000000000000000000 DUP2 MSTORE PUSH1 0x4 ADD PUSH2 0x46D SWAP1 PUSH2 0xE95 JUMP JUMPDEST PUSH1 0x40 MLOAD DUP1 SWAP2 SUB SWAP1 REVERT JUMPDEST PUSH0 SELFBALANCE SWAP1 POP PUSH0 DUP2 GT PUSH2 0x4BC JUMPI PUSH1 0x40 MLOAD PUSH32 0x8C379A000000000000000000000000000000000000000000000000000000000 DUP2 MSTORE PUSH1 0x4 ADD PUSH2 0x4B3 SWAP1 PUSH2 0xEFD JUMP JUMPDEST PUSH1 0x40 MLOAD DUP1 SWAP2 SUB SWAP1 REVERT JUMPDEST PUSH1 0x4 PUSH0 SWAP1 SLOAD SWAP1 PUSH2 0x100 EXP SWAP1 DIV PUSH20 0xFFFFFFFFFFFFFFFFFFFFFFFFFFFFFFFFFFFFFFFF AND PUSH20 0xFFFFFFFFFFFFFFFFFFFFFFFFFFFFFFFFFFFFFFFF AND PUSH2 0x8FC DUP3 SWAP1 DUP2 ISZERO MUL SWAP1 PUSH1 0x40 MLOAD PUSH0 PUSH1 0x40 MLOAD DUP1 DUP4 SUB DUP2 DUP6 DUP9 DUP9 CALL SWAP4 POP POP POP POP ISZERO DUP1 ISZERO PUSH2 0x520 JUMPI RETURNDATASIZE PUSH0 DUP1 RETURNDATACOPY RETURNDATASIZE PUSH0 REVERT JUMPDEST POP POP JUMP JUMPDEST PUSH0 DUP1 SLOAD PUSH2 0x530 SWAP1 PUSH2 0xDB3 JUMP JUMPDEST DUP1 PUSH1 0x1F ADD PUSH1 0x20 DUP1 SWAP2 DIV MUL PUSH1 0x20 ADD PUSH1 0x40 MLOAD SWAP1 DUP2 ADD PUSH1 0x40 MSTORE DUP1 SWAP3 SWAP2 SWAP1 DUP2 DUP2 MSTORE PUSH1 0x20 ADD DUP3 DUP1 SLOAD PUSH2 0x55C SWAP1 PUSH2 0xDB3 JUMP JUMPDEST DUP1 ISZERO PUSH2 0x5A7 JUMPI DUP1 PUSH1 0x1F LT PUSH2 0x57E JUMPI PUSH2 0x100 DUP1 DUP4 SLOAD DIV MUL DUP4 MSTORE SWAP2 PUSH1 0x20 ADD SWAP2 PUSH2 0x5A7 JUMP JUMPDEST DUP3 ADD SWAP2 SWAP1 PUSH0 MSTORE PUSH1 0x20 PUSH0 KECCAK256 SWAP1 JUMPDEST DUP2 SLOAD DUP2 MSTORE SWAP1 PUSH1 0x1 ADD SWAP1 PUSH1 0x20 ADD DUP1 DUP4 GT PUSH2 0x58A JUMPI DUP3 SWAP1 SUB PUSH1 0x1F AND DUP3 ADD SWAP2 JUMPDEST POP POP POP POP POP DUP2 JUMP JUMPDEST PUSH0 SELFBALANCE SWAP1 POP SWAP1 JUMP JUMPDEST PUSH1 0x4 PUSH0 SWAP1 SLOAD SWAP1 PUSH2 0x100 EXP SWAP1 DIV PUSH20 0xFFFFFFFFFFFFFFFFFFFFFFFFFFFFFFFFFFFFFFFF AND PUSH20 0xFFFFFFFFFFFFFFFFFFFFFFFFFFFFFFFFFFFFFFFF AND CALLER PUSH20 0xFFFFFFFFFFFFFFFFFFFFFFFFFFFFFFFFFFFFFFFF AND EQ PUSH2 0x645 JUMPI PUSH1 0x40 MLOAD PUSH32 0x8C379A000000000000000000000000000000000000000000000000000000000 DUP2 MSTORE PUSH1 0x4 ADD PUSH2 0x63C SWAP1 PUSH2 0xE2D JUMP JUMPDEST PUSH1 0x40 MLOAD DUP1 SWAP2 SUB SWAP1 REVERT JUMPDEST PUSH1 0x5 DUP1 SLOAD SWAP1 POP DUP2 LT PUSH2 0x68C JUMPI PUSH1 0x40 MLOAD PUSH32 0x8C379A000000000000000000000000000000000000000000000000000000000 DUP2 MSTORE PUSH1 0x4 ADD PUSH2 0x683 SWAP1 PUSH2 0xF65 JUMP JUMPDEST PUSH1 0x40 MLOAD DUP1 SWAP2 SUB SWAP1 REVERT JUMPDEST PUSH1 0x5 PUSH1 0x1 PUSH1 0x5 DUP1 SLOAD SWAP1 POP PUSH2 0x6A0 SWAP2 SWAP1 PUSH2 0xFB0 JUMP JUMPDEST DUP2 SLOAD DUP2 LT PUSH2 0x6B1 JUMPI PUSH2 0x6B0 PUSH2 0xFE3 JUMP JUMPDEST JUMPDEST SWAP1 PUSH0 MSTORE PUSH1 0x20 PUSH0 KECCAK256 SWAP1 PUSH1 0x3 MUL ADD PUSH1 0x5 DUP3 DUP2 SLOAD DUP2 LT PUSH2 0x6D1 JUMPI PUSH2 0x6D0 PUSH2 0xFE3 JUMP JUMPDEST JUMPDEST SWAP1 PUSH0 MSTORE PUSH1 0x20 PUSH0 KECCAK256 SWAP1 PUSH1 0x3 MUL ADD PUSH0 DUP3 ADD DUP2 PUSH0 ADD SWAP1 DUP2 PUSH2 0x6EF SWAP2 SWAP1 PUSH2 0x11C2 JUMP JUMPDEST POP PUSH1 0x1 DUP3 ADD SLOAD DUP2 PUSH1 0x1 ADD SSTORE PUSH1 0x2 DUP3 ADD SLOAD DUP2 PUSH1 0x2 ADD SSTORE SWAP1 POP POP PUSH1 0x5 DUP1 SLOAD DUP1 PUSH2 0x719 JUMPI PUSH2 0x718 PUSH2 0x12A7 JUMP JUMPDEST JUMPDEST PUSH1 0x1 SWAP1 SUB DUP2 DUP2 SWAP1 PUSH0 MSTORE PUSH1 0x20 PUSH0 KECCAK256 SWAP1 PUSH1 0x3 MUL ADD PUSH0 DUP1 DUP3 ADD PUSH0 PUSH2 0x73A SWAP2 SWAP1 PUSH2 0x9ED JUMP JUMPDEST PUSH1 0x1 DUP3 ADD PUSH0 SWAP1 SSTORE PUSH1 0x2 DUP3 ADD PUSH0 SWAP1 SSTORE POP POP SWAP1 SSTORE POP JUMP JUMPDEST PUSH1 0x4 PUSH0 SWAP1 SLOAD SWAP1 PUSH2 0x100 EXP SWAP1 DIV PUSH20 0xFFFFFFFFFFFFFFFFFFFFFFFFFFFFFFFFFFFFFFFF AND PUSH20 0xFFFFFFFFFFFFFFFFFFFFFFFFFFFFFFFFFFFFFFFF AND CALLER PUSH20 0xFFFFFFFFFFFFFFFFFFFFFFFFFFFFFFFFFFFFFFFF AND EQ PUSH2 0x7DE JUMPI PUSH1 0x40 MLOAD PUSH32 0x8C379A000000000000000000000000000000000000000000000000000000000 DUP2 MSTORE PUSH1 0x4 ADD PUSH2 0x7D5 SWAP1 PUSH2 0xE2D JUMP JUMPDEST PUSH1 0x40 MLOAD DUP1 SWAP2 SUB SWAP1 REVERT JUMPDEST PUSH0 DUP2 GT PUSH2 0x820 JUMPI PUSH1 0x40 MLOAD PUSH32 0x8C379A000000000000000000000000000000000000000000000000000000000 DUP2 MSTORE PUSH1 0x4 ADD PUSH2 0x817 SWAP1 PUSH2 0x131E JUMP JUMPDEST PUSH1 0x40 MLOAD DUP1 SWAP2 SUB SWAP1 REVERT JUMPDEST PUSH1 0x5 PUSH1 0x40 MLOAD DUP1 PUSH1 0x60 ADD PUSH1 0x40 MSTORE DUP1 DUP5 DUP2 MSTORE PUSH1 0x20 ADD DUP4 DUP2 MSTORE PUSH1 0x20 ADD PUSH0 DUP2 MSTORE POP SWAP1 DUP1 PUSH1 0x1 DUP2 SLOAD ADD DUP1 DUP3 SSTORE DUP1 SWAP2 POP POP PUSH1 0x1 SWAP1 SUB SWAP1 PUSH0 MSTORE PUSH1 0x20 PUSH0 KECCAK256 SWAP1 PUSH1 0x3 MUL ADD PUSH0 SWAP1 SWAP2 SWAP1 SWAP2 SWAP1 SWAP2 POP PUSH0 DUP3 ADD MLOAD DUP2 PUSH0 ADD SWAP1 DUP2 PUSH2 0x876 SWAP2 SWAP1 PUSH2 0x133C JUMP JUMPDEST POP PUSH1 0x20 DUP3 ADD MLOAD DUP2 PUSH1 0x1 ADD SSTORE PUSH1 0x40 DUP3 ADD MLOAD DUP2 PUSH1 0x2 ADD SSTORE POP POP POP POP JUMP JUMPDEST PUSH1 0x3 SLOAD TIMESTAMP LT PUSH2 0x8D5 JUMPI PUSH1 0x40 MLOAD PUSH32 0x8C379A000000000000000000000000000000000000000000000000000000000 DUP2 MSTORE PUSH1 0x4 ADD PUSH2 0x8CC SWAP1 PUSH2 0x1455 JUMP JUMPDEST PUSH1 0x40 MLOAD DUP1 SWAP2 SUB SWAP1 REVERT JUMPDEST PUSH1 0x5 DUP1 SLOAD SWAP1 POP DUP2 LT PUSH2 0x91C JUMPI PUSH1 0x40 MLOAD PUSH32 0x8C379A000000000000000000000000000000000000000000000000000000000 DUP2 MSTORE PUSH1 0x4 ADD PUSH2 0x913 SWAP1 PUSH2 0x14BD JUMP JUMPDEST PUSH1 0x40 MLOAD DUP1 SWAP2 SUB SWAP1 REVERT JUMPDEST PUSH1 0x5 DUP2 DUP2 SLOAD DUP2 LT PUSH2 0x930 JUMPI PUSH2 0x92F PUSH2 0xFE3 JUMP JUMPDEST JUMPDEST SWAP1 PUSH0 MSTORE PUSH1 0x20 PUSH0 KECCAK256 SWAP1 PUSH1 0x3 MUL ADD PUSH1 0x1 ADD SLOAD CALLVALUE EQ PUSH2 0x981 JUMPI PUSH1 0x40 MLOAD PUSH32 0x8C379A000000000000000000000000000000000000000000000000000000000 DUP2 MSTORE PUSH1 0x4 ADD PUSH2 0x978 SWAP1 PUSH2 0x1525 JUMP JUMPDEST PUSH1 0x40 MLOAD DUP1 SWAP2 SUB SWAP1 REVERT JUMPDEST PUSH1 0x5 DUP2 DUP2 SLOAD DUP2 LT PUSH2 0x995 JUMPI PUSH2 0x994 PUSH2 0xFE3 JUMP JUMPDEST JUMPDEST SWAP1 PUSH0 MSTORE PUSH1 0x20 PUSH0 KECCAK256 SWAP1 PUSH1 0x3 MUL ADD PUSH1 0x2 ADD PUSH0 DUP2 SLOAD DUP1 SWAP3 SWAP2 SWAP1 PUSH2 0x9B4 SWAP1 PUSH2 0x1543 JUMP JUMPDEST SWAP2 SWAP1 POP SSTORE POP POP JUMP JUMPDEST PUSH1 0x2 SLOAD DUP2 JUMP JUMPDEST PUSH1 0x3 SLOAD DUP2 JUMP JUMPDEST PUSH1 0x4 PUSH0 SWAP1 SLOAD SWAP1 PUSH2 0x100 EXP SWAP1 DIV PUSH20 0xFFFFFFFFFFFFFFFFFFFFFFFFFFFFFFFFFFFFFFFF AND DUP2 JUMP JUMPDEST POP DUP1 SLOAD PUSH2 0x9F9 SWAP1 PUSH2 0xDB3 JUMP JUMPDEST PUSH0 DUP3 SSTORE DUP1 PUSH1 0x1F LT PUSH2 0xA0A JUMPI POP PUSH2 0xA27 JUMP JUMPDEST PUSH1 0x1F ADD PUSH1 0x20 SWAP1 DIV SWAP1 PUSH0 MSTORE PUSH1 0x20 PUSH0 KECCAK256 SWAP1 DUP2 ADD SWAP1 PUSH2 0xA26 SWAP2 SWAP1 PUSH2 0xA2A JUMP JUMPDEST JUMPDEST POP JUMP JUMPDEST JUMPDEST DUP1 DUP3 GT ISZERO PUSH2 0xA41 JUMPI PUSH0 DUP2 PUSH0 SWAP1 SSTORE POP PUSH1 0x1 ADD PUSH2 0xA2B JUMP JUMPDEST POP SWAP1 JUMP JUMPDEST PUSH0 PUSH1 0x40 MLOAD SWAP1 POP SWAP1 JUMP JUMPDEST PUSH0 DUP1 REVERT JUMPDEST PUSH0 DUP1 REVERT JUMPDEST PUSH0 DUP2 SWAP1 POP SWAP2 SWAP1 POP JUMP JUMPDEST PUSH2 0xA68 DUP2 PUSH2 0xA56 JUMP JUMPDEST DUP2 EQ PUSH2 0xA72 JUMPI PUSH0 DUP1 REVERT JUMPDEST POP JUMP JUMPDEST PUSH0 DUP2 CALLDATALOAD SWAP1 POP PUSH2 0xA83 DUP2 PUSH2 0xA5F JUMP JUMPDEST SWAP3 SWAP2 POP POP JUMP JUMPDEST PUSH0 PUSH1 0x20 DUP3 DUP5 SUB SLT ISZERO PUSH2 0xA9E JUMPI PUSH2 0xA9D PUSH2 0xA4E JUMP JUMPDEST JUMPDEST PUSH0 PUSH2 0xAAB DUP5 DUP3 DUP6 ADD PUSH2 0xA75 JUMP JUMPDEST SWAP2 POP POP SWAP3 SWAP2 POP POP JUMP JUMPDEST PUSH0 DUP2 MLOAD SWAP1 POP SWAP2 SWAP1 POP JUMP JUMPDEST PUSH0 DUP3 DUP3 MSTORE PUSH1 0x20 DUP3 ADD SWAP1 POP SWAP3 SWAP2 POP POP JUMP JUMPDEST DUP3 DUP2 DUP4 MCOPY PUSH0 DUP4 DUP4 ADD MSTORE POP POP POP JUMP JUMPDEST PUSH0 PUSH1 0x1F NOT PUSH1 0x1F DUP4 ADD AND SWAP1 POP SWAP2 SWAP1 POP JUMP JUMPDEST PUSH0 PUSH2 0xAF6 DUP3 PUSH2 0xAB4 JUMP JUMPDEST PUSH2 0xB00 DUP2 DUP6 PUSH2 0xABE JUMP JUMPDEST SWAP4 POP PUSH2 0xB10 DUP2 DUP6 PUSH1 0x20 DUP7 ADD PUSH2 0xACE JUMP JUMPDEST PUSH2 0xB19 DUP2 PUSH2 0xADC JUMP JUMPDEST DUP5 ADD SWAP2 POP POP SWAP3 SWAP2 POP POP JUMP JUMPDEST PUSH2 0xB2D DUP2 PUSH2 0xA56 JUMP JUMPDEST DUP3 MSTORE POP POP JUMP JUMPDEST PUSH0 PUSH1 0x60 DUP3 ADD SWAP1 POP DUP2 DUP2 SUB PUSH0 DUP4 ADD MSTORE PUSH2 0xB4B DUP2 DUP7 PUSH2 0xAEC JUMP JUMPDEST SWAP1 POP PUSH2 0xB5A PUSH1 0x20 DUP4 ADD DUP6 PUSH2 0xB24 JUMP JUMPDEST PUSH2 0xB67 PUSH1 0x40 DUP4 ADD DUP5 PUSH2 0xB24 JUMP JUMPDEST SWAP5 SWAP4 POP POP POP POP JUMP JUMPDEST PUSH0 PUSH1 0x20 DUP3 ADD SWAP1 POP DUP2 DUP2 SUB PUSH0 DUP4 ADD MSTORE PUSH2 0xB87 DUP2 DUP5 PUSH2 0xAEC JUMP JUMPDEST SWAP1 POP SWAP3 SWAP2 POP POP JUMP JUMPDEST PUSH0 PUSH1 0x20 DUP3 ADD SWAP1 POP PUSH2 0xBA2 PUSH0 DUP4 ADD DUP5 PUSH2 0xB24 JUMP JUMPDEST SWAP3 SWAP2 POP POP JUMP JUMPDEST PUSH0 DUP1 REVERT JUMPDEST PUSH0 DUP1 REVERT JUMPDEST PUSH32 0x4E487B7100000000000000000000000000000000000000000000000000000000 PUSH0 MSTORE PUSH1 0x41 PUSH1 0x4 MSTORE PUSH1 0x24 PUSH0 REVERT JUMPDEST PUSH2 0xBE6 DUP3 PUSH2 0xADC JUMP JUMPDEST DUP2 ADD DUP2 DUP2 LT PUSH8 0xFFFFFFFFFFFFFFFF DUP3 GT OR ISZERO PUSH2 0xC05 JUMPI PUSH2 0xC04 PUSH2 0xBB0 JUMP JUMPDEST JUMPDEST DUP1 PUSH1 0x40 MSTORE POP POP POP JUMP JUMPDEST PUSH0 PUSH2 0xC17 PUSH2 0xA45 JUMP JUMPDEST SWAP1 POP PUSH2 0xC23 DUP3 DUP3 PUSH2 0xBDD JUMP JUMPDEST SWAP2 SWAP1 POP JUMP JUMPDEST PUSH0 PUSH8 0xFFFFFFFFFFFFFFFF DUP3 GT ISZERO PUSH2 0xC42 JUMPI PUSH2 0xC41 PUSH2 0xBB0 JUMP JUMPDEST JUMPDEST PUSH2 0xC4B DUP3 PUSH2 0xADC JUMP JUMPDEST SWAP1 POP PUSH1 0x20 DUP2 ADD SWAP1 POP SWAP2 SWAP1 POP JUMP JUMPDEST DUP3 DUP2 DUP4 CALLDATACOPY PUSH0 DUP4 DUP4 ADD MSTORE POP POP POP JUMP JUMPDEST PUSH0 PUSH2 0xC78 PUSH2 0xC73 DUP5 PUSH2 0xC28 JUMP JUMPDEST PUSH2 0xC0E JUMP JUMPDEST SWAP1 POP DUP3 DUP2 MSTORE PUSH1 0x20 DUP2 ADD DUP5 DUP5 DUP5 ADD GT ISZERO PUSH2 0xC94 JUMPI PUSH2 0xC93 PUSH2 0xBAC JUMP JUMPDEST JUMPDEST PUSH2 0xC9F DUP5 DUP3 DUP6 PUSH2 0xC58 JUMP JUMPDEST POP SWAP4 SWAP3 POP POP POP JUMP JUMPDEST PUSH0 DUP3 PUSH1 0x1F DUP4 ADD SLT PUSH2 0xCBB JUMPI PUSH2 0xCBA PUSH2 0xBA8 JUMP JUMPDEST JUMPDEST DUP2 CALLDATALOAD PUSH2 0xCCB DUP5 DUP3 PUSH1 0x20 DUP7 ADD PUSH2 0xC66 JUMP JUMPDEST SWAP2 POP POP SWAP3 SWAP2 POP POP JUMP JUMPDEST PUSH0 DUP1 PUSH1 0x40 DUP4 DUP6 SUB SLT ISZERO PUSH2 0xCEA JUMPI PUSH2 0xCE9 PUSH2 0xA4E JUMP JUMPDEST JUMPDEST PUSH0 DUP4 ADD CALLDATALOAD PUSH8 0xFFFFFFFFFFFFFFFF DUP2 GT ISZERO PUSH2 0xD07 JUMPI PUSH2 0xD06 PUSH2 0xA52 JUMP JUMPDEST JUMPDEST PUSH2 0xD13 DUP6 DUP3 DUP7 ADD PUSH2 0xCA7 JUMP JUMPDEST SWAP3 POP POP PUSH1 0x20 PUSH2 0xD24 DUP6 DUP3 DUP7 ADD PUSH2 0xA75 JUMP JUMPDEST SWAP2 POP POP SWAP3 POP SWAP3 SWAP1 POP JUMP JUMPDEST PUSH0 PUSH20 0xFFFFFFFFFFFFFFFFFFFFFFFFFFFFFFFFFFFFFFFF DUP3 AND SWAP1 POP SWAP2 SWAP1 POP JUMP JUMPDEST PUSH0 PUSH2 0xD57 DUP3 PUSH2 0xD2E JUMP JUMPDEST SWAP1 POP SWAP2 SWAP1 POP JUMP JUMPDEST PUSH2 0xD67 DUP2 PUSH2 0xD4D JUMP JUMPDEST DUP3 MSTORE POP POP JUMP JUMPDEST PUSH0 PUSH1 0x20 DUP3 ADD SWAP1 POP PUSH2 0xD80 PUSH0 DUP4 ADD DUP5 PUSH2 0xD5E JUMP JUMPDEST SWAP3 SWAP2 POP POP JUMP JUMPDEST PUSH32 0x4E487B7100000000000000000000000000000000000000000000000000000000 PUSH0 MSTORE PUSH1 0x22 PUSH1 0x4 MSTORE PUSH1 0x24 PUSH0 REVERT JUMPDEST PUSH0 PUSH1 0x2 DUP3 DIV SWAP1 POP PUSH1 0x1 DUP3 AND DUP1 PUSH2 0xDCA JUMPI PUSH1 0x7F DUP3 AND SWAP2 POP JUMPDEST PUSH1 0x20 DUP3 LT DUP2 SUB PUSH2 0xDDD JUMPI PUSH2 0xDDC PUSH2 0xD86 JUMP JUMPDEST JUMPDEST POP SWAP2 SWAP1 POP JUMP JUMPDEST PUSH32 0x4E6F742063616D706169676E206F776E65720000000000000000000000000000 PUSH0 DUP3 ADD MSTORE POP JUMP JUMPDEST PUSH0 PUSH2 0xE17 PUSH1 0x12 DUP4 PUSH2 0xABE JUMP JUMPDEST SWAP2 POP PUSH2 0xE22 DUP3 PUSH2 0xDE3 JUMP JUMPDEST PUSH1 0x20 DUP3 ADD SWAP1 POP SWAP2 SWAP1 POP JUMP JUMPDEST PUSH0 PUSH1 0x20 DUP3 ADD SWAP1 POP DUP2 DUP2 SUB PUSH0 DUP4 ADD MSTORE PUSH2 0xE44 DUP2 PUSH2 0xE0B JUMP JUMPDEST SWAP1 POP SWAP2 SWAP1 POP JUMP JUMPDEST PUSH32 0x476F616C206E6F7420636F6D706C657465642079657400000000000000000000 PUSH0 DUP3 ADD MSTORE POP JUMP JUMPDEST PUSH0 PUSH2 0xE7F PUSH1 0x16 DUP4 PUSH2 0xABE JUMP JUMPDEST SWAP2 POP PUSH2 0xE8A DUP3 PUSH2 0xE4B JUMP JUMPDEST PUSH1 0x20 DUP3 ADD SWAP1 POP SWAP2 SWAP1 POP JUMP JUMPDEST PUSH0 PUSH1 0x20 DUP3 ADD SWAP1 POP DUP2 DUP2 SUB PUSH0 DUP4 ADD MSTORE PUSH2 0xEAC DUP2 PUSH2 0xE73 JUMP JUMPDEST SWAP1 POP SWAP2 SWAP1 POP JUMP JUMPDEST PUSH32 0x4E6F7468696E6720746F20776974686472617700000000000000000000000000 PUSH0 DUP3 ADD MSTORE POP JUMP JUMPDEST PUSH0 PUSH2 0xEE7 PUSH1 0x13 DUP4 PUSH2 0xABE JUMP JUMPDEST SWAP2 POP PUSH2 0xEF2 DUP3 PUSH2 0xEB3 JUMP JUMPDEST PUSH1 0x20 DUP3 ADD SWAP1 POP SWAP2 SWAP1 POP JUMP JUMPDEST PUSH0 PUSH1 0x20 DUP3 ADD SWAP1 POP DUP2 DUP2 SUB PUSH0 DUP4 ADD MSTORE PUSH2 0xF14 DUP2 PUSH2 0xEDB JUMP JUMPDEST SWAP1 POP SWAP2 SWAP1 POP JUMP JUMPDEST PUSH32 0x5469657220646F6573206E6F7420657869737400000000000000000000000000 PUSH0 DUP3 ADD MSTORE POP JUMP JUMPDEST PUSH0 PUSH2 0xF4F PUSH1 0x13 DUP4 PUSH2 0xABE JUMP JUMPDEST SWAP2 POP PUSH2 0xF5A DUP3 PUSH2 0xF1B JUMP JUMPDEST PUSH1 0x20 DUP3 ADD SWAP1 POP SWAP2 SWAP1 POP JUMP JUMPDEST PUSH0 PUSH1 0x20 DUP3 ADD SWAP1 POP DUP2 DUP2 SUB PUSH0 DUP4 ADD MSTORE PUSH2 0xF7C DUP2 PUSH2 0xF43 JUMP JUMPDEST SWAP1 POP SWAP2 SWAP1 POP JUMP JUMPDEST PUSH32 0x4E487B7100000000000000000000000000000000000000000000000000000000 PUSH0 MSTORE PUSH1 0x11 PUSH1 0x4 MSTORE PUSH1 0x24 PUSH0 REVERT JUMPDEST PUSH0 PUSH2 0xFBA DUP3 PUSH2 0xA56 JUMP JUMPDEST SWAP2 POP PUSH2 0xFC5 DUP4 PUSH2 0xA56 JUMP JUMPDEST SWAP3 POP DUP3 DUP3 SUB SWAP1 POP DUP2 DUP2 GT ISZERO PUSH2 0xFDD JUMPI PUSH2 0xFDC PUSH2 0xF83 JUMP JUMPDEST JUMPDEST SWAP3 SWAP2 POP POP JUMP JUMPDEST PUSH32 0x4E487B7100000000000000000000000000000000000000000000000000000000 PUSH0 MSTORE PUSH1 0x32 PUSH1 0x4 MSTORE PUSH1 0x24 PUSH0 REVERT JUMPDEST PUSH0 DUP2 SLOAD SWAP1 POP PUSH2 0x101E DUP2 PUSH2 0xDB3 JUMP JUMPDEST SWAP1 POP SWAP2 SWAP1 POP JUMP JUMPDEST PUSH0 DUP2 SWAP1 POP DUP2 PUSH0 MSTORE PUSH1 0x20 PUSH0 KECCAK256 SWAP1 POP SWAP2 SWAP1 POP JUMP JUMPDEST PUSH0 PUSH1 0x20 PUSH1 0x1F DUP4 ADD DIV SWAP1 POP SWAP2 SWAP1 POP JUMP JUMPDEST PUSH0 DUP3 DUP3 SHL SWAP1 POP SWAP3 SWAP2 POP POP JUMP JUMPDEST PUSH0 PUSH1 0x8 DUP4 MUL PUSH2 0x1081 PUSH32 0xFFFFFFFFFFFFFFFFFFFFFFFFFFFFFFFFFFFFFFFFFFFFFFFFFFFFFFFFFFFFFFFF DUP3 PUSH2 0x1046 JUMP JUMPDEST PUSH2 0x108B DUP7 DUP4 PUSH2 0x1046 JUMP JUMPDEST SWAP6 POP DUP1 NOT DUP5 AND SWAP4 POP DUP1 DUP7 AND DUP5 OR SWAP3 POP POP POP SWAP4 SWAP3 POP POP POP JUMP JUMPDEST PUSH0 DUP2 SWAP1 POP SWAP2 SWAP1 POP JUMP JUMPDEST PUSH0 PUSH2 0x10C6 PUSH2 0x10C1 PUSH2 0x10BC DUP5 PUSH2 0xA56 JUMP JUMPDEST PUSH2 0x10A3 JUMP JUMPDEST PUSH2 0xA56 JUMP JUMPDEST SWAP1 POP SWAP2 SWAP1 POP JUMP JUMPDEST PUSH0 DUP2 SWAP1 POP SWAP2 SWAP1 POP JUMP JUMPDEST PUSH2 0x10DF DUP4 PUSH2 0x10AC JUMP JUMPDEST PUSH2 0x10F3 PUSH2 0x10EB DUP3 PUSH2 0x10CD JUMP JUMPDEST DUP5 DUP5 SLOAD PUSH2 0x1052 JUMP JUMPDEST DUP3 SSTORE POP POP POP POP JUMP JUMPDEST PUSH0 SWAP1 JUMP JUMPDEST PUSH2 0x1107 PUSH2 0x10FB JUMP JUMPDEST PUSH2 0x1112 DUP2 DUP5 DUP5 PUSH2 0x10D6 JUMP JUMPDEST POP POP POP JUMP JUMPDEST JUMPDEST DUP2 DUP2 LT ISZERO PUSH2 0x1135 JUMPI PUSH2 0x112A PUSH0 DUP3 PUSH2 0x10FF JUMP JUMPDEST PUSH1 0x1 DUP2 ADD SWAP1 POP PUSH2 0x1118 JUMP JUMPDEST POP POP JUMP JUMPDEST PUSH1 0x1F DUP3 GT ISZERO PUSH2 0x117A JUMPI PUSH2 0x114B DUP2 PUSH2 0x1025 JUMP JUMPDEST PUSH2 0x1154 DUP5 PUSH2 0x1037 JUMP JUMPDEST DUP2 ADD PUSH1 0x20 DUP6 LT ISZERO PUSH2 0x1163 JUMPI DUP2 SWAP1 POP JUMPDEST PUSH2 0x1177 PUSH2 0x116F DUP6 PUSH2 0x1037 JUMP JUMPDEST DUP4 ADD DUP3 PUSH2 0x1117 JUMP JUMPDEST POP POP JUMPDEST POP POP POP JUMP JUMPDEST PUSH0 DUP3 DUP3 SHR SWAP1 POP SWAP3 SWAP2 POP POP JUMP JUMPDEST PUSH0 PUSH2 0x119A PUSH0 NOT DUP5 PUSH1 0x8 MUL PUSH2 0x117F JUMP JUMPDEST NOT DUP1 DUP4 AND SWAP2 POP POP SWAP3 SWAP2 POP POP JUMP JUMPDEST PUSH0 PUSH2 0x11B2 DUP4 DUP4 PUSH2 0x118B JUMP JUMPDEST SWAP2 POP DUP3 PUSH1 0x2 MUL DUP3 OR SWAP1 POP SWAP3 SWAP2 POP POP JUMP JUMPDEST DUP2 DUP2 SUB PUSH2 0x11D0 JUMPI POP POP PUSH2 0x12A5 JUMP JUMPDEST PUSH2 0x11D9 DUP3 PUSH2 0x1010 JUMP JUMPDEST PUSH8 0xFFFFFFFFFFFFFFFF DUP2 GT ISZERO PUSH2 0x11F2 JUMPI PUSH2 0x11F1 PUSH2 0xBB0 JUMP JUMPDEST JUMPDEST PUSH2 0x11FC DUP3 SLOAD PUSH2 0xDB3 JUMP JUMPDEST PUSH2 0x1207 DUP3 DUP3 DUP6 PUSH2 0x1139 JUMP JUMPDEST PUSH0 PUSH1 0x1F DUP4 GT PUSH1 0x1 DUP2 EQ PUSH2 0x1234 JUMPI PUSH0 DUP5 ISZERO PUSH2 0x1222 JUMPI DUP3 DUP8 ADD SLOAD SWAP1 POP JUMPDEST PUSH2 0x122C DUP6 DUP3 PUSH2 0x11A7 JUMP JUMPDEST DUP7 SSTORE POP PUSH2 0x129E JUMP JUMPDEST PUSH1 0x1F NOT DUP5 AND PUSH2 0x1242 DUP8 PUSH2 0x1025 JUMP JUMPDEST SWAP7 POP PUSH2 0x124D DUP7 PUSH2 0x1025 JUMP JUMPDEST PUSH0 JUMPDEST DUP3 DUP2 LT ISZERO PUSH2 0x1274 JUMPI DUP5 DUP10 ADD SLOAD DUP3 SSTORE PUSH1 0x1 DUP3 ADD SWAP2 POP PUSH1 0x1 DUP6 ADD SWAP5 POP PUSH1 0x20 DUP2 ADD SWAP1 POP PUSH2 0x124F JUMP JUMPDEST DUP7 DUP4 LT ISZERO PUSH2 0x1291 JUMPI DUP5 DUP10 ADD SLOAD PUSH2 0x128D PUSH1 0x1F DUP10 AND DUP3 PUSH2 0x118B JUMP JUMPDEST DUP4 SSTORE POP JUMPDEST PUSH1 0x1 PUSH1 0x2 DUP9 MUL ADD DUP9 SSTORE POP POP POP JUMPDEST POP POP POP POP POP POP JUMPDEST JUMP JUMPDEST PUSH32 0x4E487B7100000000000000000000000000000000000000000000000000000000 PUSH0 MSTORE PUSH1 0x31 PUSH1 0x4 MSTORE PUSH1 0x24 PUSH0 REVERT JUMPDEST PUSH32 0x416D6F756E74206D7573742062652067726561746572207468616E2030000000 PUSH0 DUP3 ADD MSTORE POP JUMP JUMPDEST PUSH0 PUSH2 0x1308 PUSH1 0x1D DUP4 PUSH2 0xABE JUMP JUMPDEST SWAP2 POP PUSH2 0x1313 DUP3 PUSH2 0x12D4 JUMP JUMPDEST PUSH1 0x20 DUP3 ADD SWAP1 POP SWAP2 SWAP1 POP JUMP JUMPDEST PUSH0 PUSH1 0x20 DUP3 ADD SWAP1 POP DUP2 DUP2 SUB PUSH0 DUP4 ADD MSTORE PUSH2 0x1335 DUP2 PUSH2 0x12FC JUMP JUMPDEST SWAP1 POP SWAP2 SWAP1 POP JUMP JUMPDEST PUSH2 0x1345 DUP3 PUSH2 0xAB4 JUMP JUMPDEST PUSH8 0xFFFFFFFFFFFFFFFF DUP2 GT ISZERO PUSH2 0x135E JUMPI PUSH2 0x135D PUSH2 0xBB0 JUMP JUMPDEST JUMPDEST PUSH2 0x1368 DUP3 SLOAD PUSH2 0xDB3 JUMP JUMPDEST PUSH2 0x1373 DUP3 DUP3 DUP6 PUSH2 0x1139 JUMP JUMPDEST PUSH0 PUSH1 0x20 SWAP1 POP PUSH1 0x1F DUP4 GT PUSH1 0x1 DUP2 EQ PUSH2 0x13A4 JUMPI PUSH0 DUP5 ISZERO PUSH2 0x1392 JUMPI DUP3 DUP8 ADD MLOAD SWAP1 POP JUMPDEST PUSH2 0x139C DUP6 DUP3 PUSH2 0x11A7 JUMP JUMPDEST DUP7 SSTORE POP PUSH2 0x1403 JUMP JUMPDEST PUSH1 0x1F NOT DUP5 AND PUSH2 0x13B2 DUP7 PUSH2 0x1025 JUMP JUMPDEST PUSH0 JUMPDEST DUP3 DUP2 LT ISZERO PUSH2 0x13D9 JUMPI DUP5 DUP10 ADD MLOAD DUP3 SSTORE PUSH1 0x1 DUP3 ADD SWAP2 POP PUSH1 0x20 DUP6 ADD SWAP5 POP PUSH1 0x20 DUP2 ADD SWAP1 POP PUSH2 0x13B4 JUMP JUMPDEST DUP7 DUP4 LT ISZERO PUSH2 0x13F6 JUMPI DUP5 DUP10 ADD MLOAD PUSH2 0x13F2 PUSH1 0x1F DUP10 AND DUP3 PUSH2 0x118B JUMP JUMPDEST DUP4 SSTORE POP JUMPDEST PUSH1 0x1 PUSH1 0x2 DUP9 MUL ADD DUP9 SSTORE POP POP POP JUMPDEST POP POP POP POP POP POP JUMP JUMPDEST PUSH32 0x536F7272792063616D706167696E2068617320656E6465640000000000000000 PUSH0 DUP3 ADD MSTORE POP JUMP JUMPDEST PUSH0 PUSH2 0x143F PUSH1 0x18 DUP4 PUSH2 0xABE JUMP JUMPDEST SWAP2 POP PUSH2 0x144A DUP3 PUSH2 0x140B JUMP JUMPDEST PUSH1 0x20 DUP3 ADD SWAP1 POP SWAP2 SWAP1 POP JUMP JUMPDEST PUSH0 PUSH1 0x20 DUP3 ADD SWAP1 POP DUP2 DUP2 SUB PUSH0 DUP4 ADD MSTORE PUSH2 0x146C DUP2 PUSH2 0x1433 JUMP JUMPDEST SWAP1 POP SWAP2 SWAP1 POP JUMP JUMPDEST PUSH32 0x496E76616C696420546965720000000000000000000000000000000000000000 PUSH0 DUP3 ADD MSTORE POP JUMP JUMPDEST PUSH0 PUSH2 0x14A7 PUSH1 0xC DUP4 PUSH2 0xABE JUMP JUMPDEST SWAP2 POP PUSH2 0x14B2 DUP3 PUSH2 0x1473 JUMP JUMPDEST PUSH1 0x20 DUP3 ADD SWAP1 POP SWAP2 SWAP1 POP JUMP JUMPDEST PUSH0 PUSH1 0x20 DUP3 ADD SWAP1 POP DUP2 DUP2 SUB PUSH0 DUP4 ADD MSTORE PUSH2 0x14D4 DUP2 PUSH2 0x149B JUMP JUMPDEST SWAP1 POP SWAP2 SWAP1 POP JUMP JUMPDEST PUSH32 0x496E76616C696420616D6F756E74206261636B65640000000000000000000000 PUSH0 DUP3 ADD MSTORE POP JUMP JUMPDEST PUSH0 PUSH2 0x150F PUSH1 0x15 DUP4 PUSH2 0xABE JUMP JUMPDEST SWAP2 POP PUSH2 0x151A DUP3 PUSH2 0x14DB JUMP JUMPDEST PUSH1 0x20 DUP3 ADD SWAP1 POP SWAP2 SWAP1 POP JUMP JUMPDEST PUSH0 PUSH1 0x20 DUP3 ADD SWAP1 POP DUP2 DUP2 SUB PUSH0 DUP4 ADD MSTORE PUSH2 0x153C DUP2 PUSH2 0x1503 JUMP JUMPDEST SWAP1 POP SWAP2 SWAP1 POP JUMP JUMPDEST PUSH0 PUSH2 0x154D DUP3 PUSH2 0xA56 JUMP JUMPDEST SWAP2 POP PUSH32 0xFFFFFFFFFFFFFFFFFFFFFFFFFFFFFFFFFFFFFFFFFFFFFFFFFFFFFFFFFFFFFFFF DUP3 SUB PUSH2 0x157F JUMPI PUSH2 0x157E PUSH2 0xF83 JUMP JUMPDEST JUMPDEST PUSH1 0x1 DUP3 ADD SWAP1 POP SWAP2 SWAP1 POP JUMP INVALID LOG2 PUSH5 0x6970667358 0x22 SLT KECCAK256 0xA9 0xD5 TLOAD PUSH30 0x7FA4FF0F033E90AF00FE4962355C99DE67E820D742D8C048829E3C0F6473 PUSH16 0x6C634300081A00330000000000000000 "
				},
				"gasEstimates": {
					"creation": {
						"codeDepositCost": "1113600",
						"executionCost": "infinite",
						"totalCost": "infinite"
					},
					"external": {
						"addTier(string,uint256)": "infinite",
						"campaign_deadline()": "2513",
						"campaign_description()": "infinite",
						"campaign_name()": "infinite",
						"campaign_owner()": "2618",
						"fund(uint256)": "infinite",
						"getContractBalance()": "423",
						"goal_amount()": "2491",
						"removeTier(uint256)": "infinite",
						"tiers(uint256)": "infinite",
						"withdraw()": "infinite"
					}
				},
				"methodIdentifiers": {
					"addTier(string,uint256)": "8ece7b91",
					"campaign_deadline()": "e4efd1dc",
					"campaign_description()": "0574f590",
					"campaign_name()": "4137e733",
					"campaign_owner()": "fdf04ed4",
					"fund(uint256)": "ca1d209d",
					"getContractBalance()": "6f9fb98a",
					"goal_amount()": "e036a772",
					"removeTier(uint256)": "7497211b",
					"tiers(uint256)": "039af9eb",
					"withdraw()": "3ccfd60b"
				}
			},
			"storageLayout": {
				"storage": [
					{
						"astId": 3,
						"contract": "contracts/crowdFunding.sol:crowdFunding",
						"label": "campaign_name",
						"offset": 0,
						"slot": "0",
						"type": "t_string_storage"
					},
					{
						"astId": 5,
						"contract": "contracts/crowdFunding.sol:crowdFunding",
						"label": "campaign_description",
						"offset": 0,
						"slot": "1",
						"type": "t_string_storage"
					},
					{
						"astId": 7,
						"contract": "contracts/crowdFunding.sol:crowdFunding",
						"label": "goal_amount",
						"offset": 0,
						"slot": "2",
						"type": "t_uint256"
					},
					{
						"astId": 9,
						"contract": "contracts/crowdFunding.sol:crowdFunding",
						"label": "campaign_deadline",
						"offset": 0,
						"slot": "3",
						"type": "t_uint256"
					},
					{
						"astId": 11,
						"contract": "contracts/crowdFunding.sol:crowdFunding",
						"label": "campaign_owner",
						"offset": 0,
						"slot": "4",
						"type": "t_address"
					},
					{
						"astId": 22,
						"contract": "contracts/crowdFunding.sol:crowdFunding",
						"label": "tiers",
						"offset": 0,
						"slot": "5",
						"type": "t_array(t_struct(tier)18_storage)dyn_storage"
					}
				],
				"types": {
					"t_address": {
						"encoding": "inplace",
						"label": "address",
						"numberOfBytes": "20"
					},
					"t_array(t_struct(tier)18_storage)dyn_storage": {
						"base": "t_struct(tier)18_storage",
						"encoding": "dynamic_array",
						"label": "struct crowdFunding.tier[]",
						"numberOfBytes": "32"
					},
					"t_string_storage": {
						"encoding": "bytes",
						"label": "string",
						"numberOfBytes": "32"
					},
					"t_struct(tier)18_storage": {
						"encoding": "inplace",
						"label": "struct crowdFunding.tier",
						"members": [
							{
								"astId": 13,
								"contract": "contracts/crowdFunding.sol:crowdFunding",
								"label": "tier_name",
								"offset": 0,
								"slot": "0",
								"type": "t_string_storage"
							},
							{
								"astId": 15,
								"contract": "contracts/crowdFunding.sol:crowdFunding",
								"label": "amount",
								"offset": 0,
								"slot": "1",
								"type": "t_uint256"
							},
							{
								"astId": 17,
								"contract": "contracts/crowdFunding.sol:crowdFunding",
								"label": "backers",
								"offset": 0,
								"slot": "2",
								"type": "t_uint256"
							}
						],
						"numberOfBytes": "96"
					},
					"t_uint256": {
						"encoding": "inplace",
						"label": "uint256",
						"numberOfBytes": "32"
					}
				}
			},
			"userdoc": {
				"kind": "user",
				"methods": {},
				"version": 1
			}
		}
	}
}