{
	"contracts/crowdFunding.sol": {
		"crowdFunding": {
			"abi": [
				{
					"inputs": [
						{
							"internalType": "string",
							"name": "name",
							"type": "string"
						},
						{
							"internalType": "string",
							"name": "description",
							"type": "string"
						},
						{
							"internalType": "uint256",
							"name": "goal",
							"type": "uint256"
						},
						{
							"internalType": "uint256",
							"name": "durationInDays",
							"type": "uint256"
						}
					],
					"stateMutability": "nonpayable",
					"type": "constructor"
				},
				{
					"inputs": [
						{
							"internalType": "string",
							"name": "name",
							"type": "string"
						},
						{
							"internalType": "uint256",
							"name": "amount",
							"type": "uint256"
						}
					],
					"name": "addTier",
					"outputs": [],
					"stateMutability": "nonpayable",
					"type": "function"
				},
				{
					"inputs": [
						{
							"internalType": "address",
							"name": "",
							"type": "address"
						}
					],
					"name": "backers",
					"outputs": [
						{
							"internalType": "uint256",
							"name": "total_contribution",
							"type": "uint256"
						}
					],
					"stateMutability": "view",
					"type": "function"
				},
				{
					"inputs": [],
					"name": "campaign_deadline",
					"outputs": [
						{
							"internalType": "uint256",
							"name": "",
							"type": "uint256"
						}
					],
					"stateMutability": "view",
					"type": "function"
				},
				{
					"inputs": [],
					"name": "campaign_description",
					"outputs": [
						{
							"internalType": "string",
							"name": "",
							"type": "string"
						}
					],
					"stateMutability": "view",
					"type": "function"
				},
				{
					"inputs": [],
					"name": "campaign_name",
					"outputs": [
						{
							"internalType": "string",
							"name": "",
							"type": "string"
						}
					],
					"stateMutability": "view",
					"type": "function"
				},
				{
					"inputs": [],
					"name": "campaign_owner",
					"outputs": [
						{
							"internalType": "address",
							"name": "",
							"type": "address"
						}
					],
					"stateMutability": "view",
					"type": "function"
				},
				{
					"inputs": [],
					"name": "campaign_paused",
					"outputs": [
						{
							"internalType": "bool",
							"name": "",
							"type": "bool"
						}
					],
					"stateMutability": "view",
					"type": "function"
				},
				{
					"inputs": [
						{
							"internalType": "uint256",
							"name": "daysToAdd",
							"type": "uint256"
						}
					],
					"name": "extendDeadline",
					"outputs": [],
					"stateMutability": "nonpayable",
					"type": "function"
				},
				{
					"inputs": [
						{
							"internalType": "uint256",
							"name": "tierIndex",
							"type": "uint256"
						}
					],
					"name": "fund",
					"outputs": [],
					"stateMutability": "payable",
					"type": "function"
				},
				{
					"inputs": [],
					"name": "getCampaignStatus",
					"outputs": [
						{
							"internalType": "enum crowdFunding.campaignState",
							"name": "",
							"type": "uint8"
						}
					],
					"stateMutability": "view",
					"type": "function"
				},
				{
					"inputs": [],
					"name": "getContractBalance",
					"outputs": [
						{
							"internalType": "uint256",
							"name": "",
							"type": "uint256"
						}
					],
					"stateMutability": "view",
					"type": "function"
				},
				{
					"inputs": [],
					"name": "getTiers",
					"outputs": [
						{
							"components": [
								{
									"internalType": "string",
									"name": "tier_name",
									"type": "string"
								},
								{
									"internalType": "uint256",
									"name": "amount",
									"type": "uint256"
								},
								{
									"internalType": "uint256",
									"name": "backers",
									"type": "uint256"
								}
							],
							"internalType": "struct crowdFunding.tier[]",
							"name": "",
							"type": "tuple[]"
						}
					],
					"stateMutability": "view",
					"type": "function"
				},
				{
					"inputs": [],
					"name": "goal_amount",
					"outputs": [
						{
							"internalType": "uint256",
							"name": "",
							"type": "uint256"
						}
					],
					"stateMutability": "view",
					"type": "function"
				},
				{
					"inputs": [
						{
							"internalType": "address",
							"name": "backer_address",
							"type": "address"
						},
						{
							"internalType": "uint256",
							"name": "tierIndex",
							"type": "uint256"
						}
					],
					"name": "hasFundedTier",
					"outputs": [
						{
							"internalType": "bool",
							"name": "",
							"type": "bool"
						}
					],
					"stateMutability": "view",
					"type": "function"
				},
				{
					"inputs": [],
					"name": "refund",
					"outputs": [],
					"stateMutability": "nonpayable",
					"type": "function"
				},
				{
					"inputs": [
						{
							"internalType": "uint256",
							"name": "index",
							"type": "uint256"
						}
					],
					"name": "removeTier",
					"outputs": [],
					"stateMutability": "nonpayable",
					"type": "function"
				},
				{
					"inputs": [],
					"name": "state",
					"outputs": [
						{
							"internalType": "enum crowdFunding.campaignState",
							"name": "",
							"type": "uint8"
						}
					],
					"stateMutability": "view",
					"type": "function"
				},
				{
					"inputs": [
						{
							"internalType": "uint256",
							"name": "",
							"type": "uint256"
						}
					],
					"name": "tiers",
					"outputs": [
						{
							"internalType": "string",
							"name": "tier_name",
							"type": "string"
						},
						{
							"internalType": "uint256",
							"name": "amount",
							"type": "uint256"
						},
						{
							"internalType": "uint256",
							"name": "backers",
							"type": "uint256"
						}
					],
					"stateMutability": "view",
					"type": "function"
				},
				{
					"inputs": [],
					"name": "tooglePause",
					"outputs": [],
					"stateMutability": "nonpayable",
					"type": "function"
				},
				{
					"inputs": [],
					"name": "withdraw",
					"outputs": [],
					"stateMutability": "nonpayable",
					"type": "function"
				}
			],
			"devdoc": {
				"kind": "dev",
				"methods": {},
				"version": 1
			},
			"evm": {
				"assembly": "    /* \"contracts/crowdFunding.sol\":61:4212  contract crowdFunding{... */\n  mstore(0x40, 0x80)\n    /* \"contracts/crowdFunding.sol\":1034:1378  constructor(string memory name, string memory description, uint256 goal, uint256 durationInDays){... */\n  callvalue\n  dup1\n  iszero\n  tag_1\n  jumpi\n  0x00\n  dup1\n  revert\ntag_1:\n  pop\n  mload(0x40)\n  sub(codesize, bytecodeSize)\n  dup1\n  bytecodeSize\n  dup4\n  codecopy\n  dup2\n  dup2\n  add\n  0x40\n  mstore\n  dup2\n  add\n  swap1\n  tag_2\n  swap2\n  swap1\n  tag_3\n  jump\t// in\ntag_2:\n    /* \"contracts/crowdFunding.sol\":1155:1159  name */\n  dup4\n    /* \"contracts/crowdFunding.sol\":1141:1154  campaign_name */\n  0x00\n    /* \"contracts/crowdFunding.sol\":1141:1159  campaign_name=name */\n  swap1\n  dup2\n  tag_6\n  swap2\n  swap1\n  tag_7\n  jump\t// in\ntag_6:\n  pop\n    /* \"contracts/crowdFunding.sol\":1191:1202  description */\n  dup3\n    /* \"contracts/crowdFunding.sol\":1170:1190  campaign_description */\n  0x01\n    /* \"contracts/crowdFunding.sol\":1170:1202  campaign_description=description */\n  swap1\n  dup2\n  tag_8\n  swap2\n  swap1\n  tag_7\n  jump\t// in\ntag_8:\n  pop\n    /* \"contracts/crowdFunding.sol\":1225:1229  goal */\n  dup2\n    /* \"contracts/crowdFunding.sol\":1213:1224  goal_amount */\n  0x02\n    /* \"contracts/crowdFunding.sol\":1213:1229  goal_amount=goal */\n  dup2\n  swap1\n  sstore\n  pop\n    /* \"contracts/crowdFunding.sol\":1290:1296  1 days */\n  0x015180\n    /* \"contracts/crowdFunding.sol\":1275:1289  durationInDays */\n  dup2\n    /* \"contracts/crowdFunding.sol\":1275:1296  durationInDays*1 days */\n  tag_9\n  swap2\n  swap1\n  tag_10\n  jump\t// in\ntag_9:\n    /* \"contracts/crowdFunding.sol\":1258:1273  block.timestamp */\n  timestamp\n    /* \"contracts/crowdFunding.sol\":1258:1297  block.timestamp+(durationInDays*1 days) */\n  tag_11\n  swap2\n  swap1\n  tag_12\n  jump\t// in\ntag_11:\n    /* \"contracts/crowdFunding.sol\":1240:1257  campaign_deadline */\n  0x03\n    /* \"contracts/crowdFunding.sol\":1240:1297  campaign_deadline=block.timestamp+(durationInDays*1 days) */\n  dup2\n  swap1\n  sstore\n  pop\n    /* \"contracts/crowdFunding.sol\":1323:1333  msg.sender */\n  caller\n    /* \"contracts/crowdFunding.sol\":1308:1322  campaign_owner */\n  0x04\n  0x00\n    /* \"contracts/crowdFunding.sol\":1308:1333  campaign_owner=msg.sender */\n  0x0100\n  exp\n  dup2\n  sload\n  dup2\n  0xffffffffffffffffffffffffffffffffffffffff\n  mul\n  not\n  and\n  swap1\n  dup4\n  0xffffffffffffffffffffffffffffffffffffffff\n  and\n  mul\n  or\n  swap1\n  sstore\n  pop\n    /* \"contracts/crowdFunding.sol\":1350:1370  campaignState.Active */\n  0x00\n    /* \"contracts/crowdFunding.sol\":1344:1349  state */\n  0x04\n  0x15\n    /* \"contracts/crowdFunding.sol\":1344:1370  state=campaignState.Active */\n  0x0100\n  exp\n  dup2\n  sload\n  dup2\n  0xff\n  mul\n  not\n  and\n  swap1\n  dup4\n  0x02\n  dup2\n  gt\n  iszero\n  tag_13\n  jumpi\n  tag_14\n  tag_15\n  jump\t// in\ntag_14:\ntag_13:\n  mul\n  or\n  swap1\n  sstore\n  pop\n    /* \"contracts/crowdFunding.sol\":1034:1378  constructor(string memory name, string memory description, uint256 goal, uint256 durationInDays){... */\n  pop\n  pop\n  pop\n  pop\n    /* \"contracts/crowdFunding.sol\":61:4212  contract crowdFunding{... */\n  jump(tag_16)\n    /* \"#utility.yul\":7:82   */\ntag_17:\n    /* \"#utility.yul\":40:46   */\n  0x00\n    /* \"#utility.yul\":73:75   */\n  0x40\n    /* \"#utility.yul\":67:76   */\n  mload\n    /* \"#utility.yul\":57:76   */\n  swap1\n  pop\n    /* \"#utility.yul\":7:82   */\n  swap1\n  jump\t// out\n    /* \"#utility.yul\":88:205   */\ntag_18:\n    /* \"#utility.yul\":197:198   */\n  0x00\n    /* \"#utility.yul\":194:195   */\n  dup1\n    /* \"#utility.yul\":187:199   */\n  revert\n    /* \"#utility.yul\":211:328   */\ntag_19:\n    /* \"#utility.yul\":320:321   */\n  0x00\n    /* \"#utility.yul\":317:318   */\n  dup1\n    /* \"#utility.yul\":310:322   */\n  revert\n    /* \"#utility.yul\":334:451   */\ntag_20:\n    /* \"#utility.yul\":443:444   */\n  0x00\n    /* \"#utility.yul\":440:441   */\n  dup1\n    /* \"#utility.yul\":433:445   */\n  revert\n    /* \"#utility.yul\":457:574   */\ntag_21:\n    /* \"#utility.yul\":566:567   */\n  0x00\n    /* \"#utility.yul\":563:564   */\n  dup1\n    /* \"#utility.yul\":556:568   */\n  revert\n    /* \"#utility.yul\":580:682   */\ntag_22:\n    /* \"#utility.yul\":621:627   */\n  0x00\n    /* \"#utility.yul\":672:674   */\n  0x1f\n    /* \"#utility.yul\":668:675   */\n  not\n    /* \"#utility.yul\":663:665   */\n  0x1f\n    /* \"#utility.yul\":656:661   */\n  dup4\n    /* \"#utility.yul\":652:666   */\n  add\n    /* \"#utility.yul\":648:676   */\n  and\n    /* \"#utility.yul\":638:676   */\n  swap1\n  pop\n    /* \"#utility.yul\":580:682   */\n  swap2\n  swap1\n  pop\n  jump\t// out\n    /* \"#utility.yul\":688:868   */\ntag_23:\n    /* \"#utility.yul\":736:813   */\n  0x4e487b7100000000000000000000000000000000000000000000000000000000\n    /* \"#utility.yul\":733:734   */\n  0x00\n    /* \"#utility.yul\":726:814   */\n  mstore\n    /* \"#utility.yul\":833:837   */\n  0x41\n    /* \"#utility.yul\":830:831   */\n  0x04\n    /* \"#utility.yul\":823:838   */\n  mstore\n    /* \"#utility.yul\":857:861   */\n  0x24\n    /* \"#utility.yul\":854:855   */\n  0x00\n    /* \"#utility.yul\":847:862   */\n  revert\n    /* \"#utility.yul\":874:1155   */\ntag_24:\n    /* \"#utility.yul\":957:984   */\n  tag_61\n    /* \"#utility.yul\":979:983   */\n  dup3\n    /* \"#utility.yul\":957:984   */\n  tag_22\n  jump\t// in\ntag_61:\n    /* \"#utility.yul\":949:955   */\n  dup2\n    /* \"#utility.yul\":945:985   */\n  add\n    /* \"#utility.yul\":1087:1093   */\n  dup2\n    /* \"#utility.yul\":1075:1085   */\n  dup2\n    /* \"#utility.yul\":1072:1094   */\n  lt\n    /* \"#utility.yul\":1051:1069   */\n  0xffffffffffffffff\n    /* \"#utility.yul\":1039:1049   */\n  dup3\n    /* \"#utility.yul\":1036:1070   */\n  gt\n    /* \"#utility.yul\":1033:1095   */\n  or\n    /* \"#utility.yul\":1030:1118   */\n  iszero\n  tag_62\n  jumpi\n    /* \"#utility.yul\":1098:1116   */\n  tag_63\n  tag_23\n  jump\t// in\ntag_63:\n    /* \"#utility.yul\":1030:1118   */\ntag_62:\n    /* \"#utility.yul\":1138:1148   */\n  dup1\n    /* \"#utility.yul\":1134:1136   */\n  0x40\n    /* \"#utility.yul\":1127:1149   */\n  mstore\n    /* \"#utility.yul\":917:1155   */\n  pop\n    /* \"#utility.yul\":874:1155   */\n  pop\n  pop\n  jump\t// out\n    /* \"#utility.yul\":1161:1290   */\ntag_25:\n    /* \"#utility.yul\":1195:1201   */\n  0x00\n    /* \"#utility.yul\":1222:1242   */\n  tag_65\n  tag_17\n  jump\t// in\ntag_65:\n    /* \"#utility.yul\":1212:1242   */\n  swap1\n  pop\n    /* \"#utility.yul\":1251:1284   */\n  tag_66\n    /* \"#utility.yul\":1279:1283   */\n  dup3\n    /* \"#utility.yul\":1271:1277   */\n  dup3\n    /* \"#utility.yul\":1251:1284   */\n  tag_24\n  jump\t// in\ntag_66:\n    /* \"#utility.yul\":1161:1290   */\n  swap2\n  swap1\n  pop\n  jump\t// out\n    /* \"#utility.yul\":1296:1604   */\ntag_26:\n    /* \"#utility.yul\":1358:1362   */\n  0x00\n    /* \"#utility.yul\":1448:1466   */\n  0xffffffffffffffff\n    /* \"#utility.yul\":1440:1446   */\n  dup3\n    /* \"#utility.yul\":1437:1467   */\n  gt\n    /* \"#utility.yul\":1434:1490   */\n  iszero\n  tag_68\n  jumpi\n    /* \"#utility.yul\":1470:1488   */\n  tag_69\n  tag_23\n  jump\t// in\ntag_69:\n    /* \"#utility.yul\":1434:1490   */\ntag_68:\n    /* \"#utility.yul\":1508:1537   */\n  tag_70\n    /* \"#utility.yul\":1530:1536   */\n  dup3\n    /* \"#utility.yul\":1508:1537   */\n  tag_22\n  jump\t// in\ntag_70:\n    /* \"#utility.yul\":1500:1537   */\n  swap1\n  pop\n    /* \"#utility.yul\":1592:1596   */\n  0x20\n    /* \"#utility.yul\":1586:1590   */\n  dup2\n    /* \"#utility.yul\":1582:1597   */\n  add\n    /* \"#utility.yul\":1574:1597   */\n  swap1\n  pop\n    /* \"#utility.yul\":1296:1604   */\n  swap2\n  swap1\n  pop\n  jump\t// out\n    /* \"#utility.yul\":1610:1749   */\ntag_27:\n    /* \"#utility.yul\":1699:1705   */\n  dup3\n    /* \"#utility.yul\":1694:1697   */\n  dup2\n    /* \"#utility.yul\":1689:1692   */\n  dup4\n    /* \"#utility.yul\":1683:1706   */\n  mcopy\n    /* \"#utility.yul\":1740:1741   */\n  0x00\n    /* \"#utility.yul\":1731:1737   */\n  dup4\n    /* \"#utility.yul\":1726:1729   */\n  dup4\n    /* \"#utility.yul\":1722:1738   */\n  add\n    /* \"#utility.yul\":1715:1742   */\n  mstore\n    /* \"#utility.yul\":1610:1749   */\n  pop\n  pop\n  pop\n  jump\t// out\n    /* \"#utility.yul\":1755:2189   */\ntag_28:\n    /* \"#utility.yul\":1844:1849   */\n  0x00\n    /* \"#utility.yul\":1869:1935   */\n  tag_73\n    /* \"#utility.yul\":1885:1934   */\n  tag_74\n    /* \"#utility.yul\":1927:1933   */\n  dup5\n    /* \"#utility.yul\":1885:1934   */\n  tag_26\n  jump\t// in\ntag_74:\n    /* \"#utility.yul\":1869:1935   */\n  tag_25\n  jump\t// in\ntag_73:\n    /* \"#utility.yul\":1860:1935   */\n  swap1\n  pop\n    /* \"#utility.yul\":1958:1964   */\n  dup3\n    /* \"#utility.yul\":1951:1956   */\n  dup2\n    /* \"#utility.yul\":1944:1965   */\n  mstore\n    /* \"#utility.yul\":1996:2000   */\n  0x20\n    /* \"#utility.yul\":1989:1994   */\n  dup2\n    /* \"#utility.yul\":1985:2001   */\n  add\n    /* \"#utility.yul\":2034:2037   */\n  dup5\n    /* \"#utility.yul\":2025:2031   */\n  dup5\n    /* \"#utility.yul\":2020:2023   */\n  dup5\n    /* \"#utility.yul\":2016:2032   */\n  add\n    /* \"#utility.yul\":2013:2038   */\n  gt\n    /* \"#utility.yul\":2010:2122   */\n  iszero\n  tag_75\n  jumpi\n    /* \"#utility.yul\":2041:2120   */\n  tag_76\n  tag_21\n  jump\t// in\ntag_76:\n    /* \"#utility.yul\":2010:2122   */\ntag_75:\n    /* \"#utility.yul\":2131:2183   */\n  tag_77\n    /* \"#utility.yul\":2176:2182   */\n  dup5\n    /* \"#utility.yul\":2171:2174   */\n  dup3\n    /* \"#utility.yul\":2166:2169   */\n  dup6\n    /* \"#utility.yul\":2131:2183   */\n  tag_27\n  jump\t// in\ntag_77:\n    /* \"#utility.yul\":1850:2189   */\n  pop\n    /* \"#utility.yul\":1755:2189   */\n  swap4\n  swap3\n  pop\n  pop\n  pop\n  jump\t// out\n    /* \"#utility.yul\":2209:2564   */\ntag_29:\n    /* \"#utility.yul\":2276:2281   */\n  0x00\n    /* \"#utility.yul\":2325:2328   */\n  dup3\n    /* \"#utility.yul\":2318:2322   */\n  0x1f\n    /* \"#utility.yul\":2310:2316   */\n  dup4\n    /* \"#utility.yul\":2306:2323   */\n  add\n    /* \"#utility.yul\":2302:2329   */\n  slt\n    /* \"#utility.yul\":2292:2414   */\n  tag_79\n  jumpi\n    /* \"#utility.yul\":2333:2412   */\n  tag_80\n  tag_20\n  jump\t// in\ntag_80:\n    /* \"#utility.yul\":2292:2414   */\ntag_79:\n    /* \"#utility.yul\":2443:2449   */\n  dup2\n    /* \"#utility.yul\":2437:2450   */\n  mload\n    /* \"#utility.yul\":2468:2558   */\n  tag_81\n    /* \"#utility.yul\":2554:2557   */\n  dup5\n    /* \"#utility.yul\":2546:2552   */\n  dup3\n    /* \"#utility.yul\":2539:2543   */\n  0x20\n    /* \"#utility.yul\":2531:2537   */\n  dup7\n    /* \"#utility.yul\":2527:2544   */\n  add\n    /* \"#utility.yul\":2468:2558   */\n  tag_28\n  jump\t// in\ntag_81:\n    /* \"#utility.yul\":2459:2558   */\n  swap2\n  pop\n    /* \"#utility.yul\":2282:2564   */\n  pop\n    /* \"#utility.yul\":2209:2564   */\n  swap3\n  swap2\n  pop\n  pop\n  jump\t// out\n    /* \"#utility.yul\":2570:2647   */\ntag_30:\n    /* \"#utility.yul\":2607:2614   */\n  0x00\n    /* \"#utility.yul\":2636:2641   */\n  dup2\n    /* \"#utility.yul\":2625:2641   */\n  swap1\n  pop\n    /* \"#utility.yul\":2570:2647   */\n  swap2\n  swap1\n  pop\n  jump\t// out\n    /* \"#utility.yul\":2653:2775   */\ntag_31:\n    /* \"#utility.yul\":2726:2750   */\n  tag_84\n    /* \"#utility.yul\":2744:2749   */\n  dup2\n    /* \"#utility.yul\":2726:2750   */\n  tag_30\n  jump\t// in\ntag_84:\n    /* \"#utility.yul\":2719:2724   */\n  dup2\n    /* \"#utility.yul\":2716:2751   */\n  eq\n    /* \"#utility.yul\":2706:2769   */\n  tag_85\n  jumpi\n    /* \"#utility.yul\":2765:2766   */\n  0x00\n    /* \"#utility.yul\":2762:2763   */\n  dup1\n    /* \"#utility.yul\":2755:2767   */\n  revert\n    /* \"#utility.yul\":2706:2769   */\ntag_85:\n    /* \"#utility.yul\":2653:2775   */\n  pop\n  jump\t// out\n    /* \"#utility.yul\":2781:2924   */\ntag_32:\n    /* \"#utility.yul\":2838:2843   */\n  0x00\n    /* \"#utility.yul\":2869:2875   */\n  dup2\n    /* \"#utility.yul\":2863:2876   */\n  mload\n    /* \"#utility.yul\":2854:2876   */\n  swap1\n  pop\n    /* \"#utility.yul\":2885:2918   */\n  tag_87\n    /* \"#utility.yul\":2912:2917   */\n  dup2\n    /* \"#utility.yul\":2885:2918   */\n  tag_31\n  jump\t// in\ntag_87:\n    /* \"#utility.yul\":2781:2924   */\n  swap3\n  swap2\n  pop\n  pop\n  jump\t// out\n    /* \"#utility.yul\":2930:4096   */\ntag_3:\n    /* \"#utility.yul\":3047:3053   */\n  0x00\n    /* \"#utility.yul\":3055:3061   */\n  dup1\n    /* \"#utility.yul\":3063:3069   */\n  0x00\n    /* \"#utility.yul\":3071:3077   */\n  dup1\n    /* \"#utility.yul\":3120:3123   */\n  0x80\n    /* \"#utility.yul\":3108:3117   */\n  dup6\n    /* \"#utility.yul\":3099:3106   */\n  dup8\n    /* \"#utility.yul\":3095:3118   */\n  sub\n    /* \"#utility.yul\":3091:3124   */\n  slt\n    /* \"#utility.yul\":3088:3208   */\n  iszero\n  tag_89\n  jumpi\n    /* \"#utility.yul\":3127:3206   */\n  tag_90\n  tag_18\n  jump\t// in\ntag_90:\n    /* \"#utility.yul\":3088:3208   */\ntag_89:\n    /* \"#utility.yul\":3268:3269   */\n  0x00\n    /* \"#utility.yul\":3257:3266   */\n  dup6\n    /* \"#utility.yul\":3253:3270   */\n  add\n    /* \"#utility.yul\":3247:3271   */\n  mload\n    /* \"#utility.yul\":3298:3316   */\n  0xffffffffffffffff\n    /* \"#utility.yul\":3290:3296   */\n  dup2\n    /* \"#utility.yul\":3287:3317   */\n  gt\n    /* \"#utility.yul\":3284:3401   */\n  iszero\n  tag_91\n  jumpi\n    /* \"#utility.yul\":3320:3399   */\n  tag_92\n  tag_19\n  jump\t// in\ntag_92:\n    /* \"#utility.yul\":3284:3401   */\ntag_91:\n    /* \"#utility.yul\":3425:3499   */\n  tag_93\n    /* \"#utility.yul\":3491:3498   */\n  dup8\n    /* \"#utility.yul\":3482:3488   */\n  dup3\n    /* \"#utility.yul\":3471:3480   */\n  dup9\n    /* \"#utility.yul\":3467:3489   */\n  add\n    /* \"#utility.yul\":3425:3499   */\n  tag_29\n  jump\t// in\ntag_93:\n    /* \"#utility.yul\":3415:3499   */\n  swap5\n  pop\n    /* \"#utility.yul\":3218:3509   */\n  pop\n    /* \"#utility.yul\":3569:3571   */\n  0x20\n    /* \"#utility.yul\":3558:3567   */\n  dup6\n    /* \"#utility.yul\":3554:3572   */\n  add\n    /* \"#utility.yul\":3548:3573   */\n  mload\n    /* \"#utility.yul\":3600:3618   */\n  0xffffffffffffffff\n    /* \"#utility.yul\":3592:3598   */\n  dup2\n    /* \"#utility.yul\":3589:3619   */\n  gt\n    /* \"#utility.yul\":3586:3703   */\n  iszero\n  tag_94\n  jumpi\n    /* \"#utility.yul\":3622:3701   */\n  tag_95\n  tag_19\n  jump\t// in\ntag_95:\n    /* \"#utility.yul\":3586:3703   */\ntag_94:\n    /* \"#utility.yul\":3727:3801   */\n  tag_96\n    /* \"#utility.yul\":3793:3800   */\n  dup8\n    /* \"#utility.yul\":3784:3790   */\n  dup3\n    /* \"#utility.yul\":3773:3782   */\n  dup9\n    /* \"#utility.yul\":3769:3791   */\n  add\n    /* \"#utility.yul\":3727:3801   */\n  tag_29\n  jump\t// in\ntag_96:\n    /* \"#utility.yul\":3717:3801   */\n  swap4\n  pop\n    /* \"#utility.yul\":3519:3811   */\n  pop\n    /* \"#utility.yul\":3850:3852   */\n  0x40\n    /* \"#utility.yul\":3876:3940   */\n  tag_97\n    /* \"#utility.yul\":3932:3939   */\n  dup8\n    /* \"#utility.yul\":3923:3929   */\n  dup3\n    /* \"#utility.yul\":3912:3921   */\n  dup9\n    /* \"#utility.yul\":3908:3930   */\n  add\n    /* \"#utility.yul\":3876:3940   */\n  tag_32\n  jump\t// in\ntag_97:\n    /* \"#utility.yul\":3866:3940   */\n  swap3\n  pop\n    /* \"#utility.yul\":3821:3950   */\n  pop\n    /* \"#utility.yul\":3989:3991   */\n  0x60\n    /* \"#utility.yul\":4015:4079   */\n  tag_98\n    /* \"#utility.yul\":4071:4078   */\n  dup8\n    /* \"#utility.yul\":4062:4068   */\n  dup3\n    /* \"#utility.yul\":4051:4060   */\n  dup9\n    /* \"#utility.yul\":4047:4069   */\n  add\n    /* \"#utility.yul\":4015:4079   */\n  tag_32\n  jump\t// in\ntag_98:\n    /* \"#utility.yul\":4005:4079   */\n  swap2\n  pop\n    /* \"#utility.yul\":3960:4089   */\n  pop\n    /* \"#utility.yul\":2930:4096   */\n  swap3\n  swap6\n  swap2\n  swap5\n  pop\n  swap3\n  pop\n  jump\t// out\n    /* \"#utility.yul\":4102:4201   */\ntag_33:\n    /* \"#utility.yul\":4154:4160   */\n  0x00\n    /* \"#utility.yul\":4188:4193   */\n  dup2\n    /* \"#utility.yul\":4182:4194   */\n  mload\n    /* \"#utility.yul\":4172:4194   */\n  swap1\n  pop\n    /* \"#utility.yul\":4102:4201   */\n  swap2\n  swap1\n  pop\n  jump\t// out\n    /* \"#utility.yul\":4207:4387   */\ntag_34:\n    /* \"#utility.yul\":4255:4332   */\n  0x4e487b7100000000000000000000000000000000000000000000000000000000\n    /* \"#utility.yul\":4252:4253   */\n  0x00\n    /* \"#utility.yul\":4245:4333   */\n  mstore\n    /* \"#utility.yul\":4352:4356   */\n  0x22\n    /* \"#utility.yul\":4349:4350   */\n  0x04\n    /* \"#utility.yul\":4342:4357   */\n  mstore\n    /* \"#utility.yul\":4376:4380   */\n  0x24\n    /* \"#utility.yul\":4373:4374   */\n  0x00\n    /* \"#utility.yul\":4366:4381   */\n  revert\n    /* \"#utility.yul\":4393:4713   */\ntag_35:\n    /* \"#utility.yul\":4437:4443   */\n  0x00\n    /* \"#utility.yul\":4474:4475   */\n  0x02\n    /* \"#utility.yul\":4468:4472   */\n  dup3\n    /* \"#utility.yul\":4464:4476   */\n  div\n    /* \"#utility.yul\":4454:4476   */\n  swap1\n  pop\n    /* \"#utility.yul\":4521:4522   */\n  0x01\n    /* \"#utility.yul\":4515:4519   */\n  dup3\n    /* \"#utility.yul\":4511:4523   */\n  and\n    /* \"#utility.yul\":4542:4560   */\n  dup1\n    /* \"#utility.yul\":4532:4613   */\n  tag_102\n  jumpi\n    /* \"#utility.yul\":4598:4602   */\n  0x7f\n    /* \"#utility.yul\":4590:4596   */\n  dup3\n    /* \"#utility.yul\":4586:4603   */\n  and\n    /* \"#utility.yul\":4576:4603   */\n  swap2\n  pop\n    /* \"#utility.yul\":4532:4613   */\ntag_102:\n    /* \"#utility.yul\":4660:4662   */\n  0x20\n    /* \"#utility.yul\":4652:4658   */\n  dup3\n    /* \"#utility.yul\":4649:4663   */\n  lt\n    /* \"#utility.yul\":4629:4647   */\n  dup2\n    /* \"#utility.yul\":4626:4664   */\n  sub\n    /* \"#utility.yul\":4623:4707   */\n  tag_103\n  jumpi\n    /* \"#utility.yul\":4679:4697   */\n  tag_104\n  tag_34\n  jump\t// in\ntag_104:\n    /* \"#utility.yul\":4623:4707   */\ntag_103:\n    /* \"#utility.yul\":4444:4713   */\n  pop\n    /* \"#utility.yul\":4393:4713   */\n  swap2\n  swap1\n  pop\n  jump\t// out\n    /* \"#utility.yul\":4719:4860   */\ntag_36:\n    /* \"#utility.yul\":4768:4772   */\n  0x00\n    /* \"#utility.yul\":4791:4794   */\n  dup2\n    /* \"#utility.yul\":4783:4794   */\n  swap1\n  pop\n    /* \"#utility.yul\":4814:4817   */\n  dup2\n    /* \"#utility.yul\":4811:4812   */\n  0x00\n    /* \"#utility.yul\":4804:4818   */\n  mstore\n    /* \"#utility.yul\":4848:4852   */\n  0x20\n    /* \"#utility.yul\":4845:4846   */\n  0x00\n    /* \"#utility.yul\":4835:4853   */\n  keccak256\n    /* \"#utility.yul\":4827:4853   */\n  swap1\n  pop\n    /* \"#utility.yul\":4719:4860   */\n  swap2\n  swap1\n  pop\n  jump\t// out\n    /* \"#utility.yul\":4866:4959   */\ntag_37:\n    /* \"#utility.yul\":4903:4909   */\n  0x00\n    /* \"#utility.yul\":4950:4952   */\n  0x20\n    /* \"#utility.yul\":4945:4947   */\n  0x1f\n    /* \"#utility.yul\":4938:4943   */\n  dup4\n    /* \"#utility.yul\":4934:4948   */\n  add\n    /* \"#utility.yul\":4930:4953   */\n  div\n    /* \"#utility.yul\":4920:4953   */\n  swap1\n  pop\n    /* \"#utility.yul\":4866:4959   */\n  swap2\n  swap1\n  pop\n  jump\t// out\n    /* \"#utility.yul\":4965:5072   */\ntag_38:\n    /* \"#utility.yul\":5009:5017   */\n  0x00\n    /* \"#utility.yul\":5059:5064   */\n  dup3\n    /* \"#utility.yul\":5053:5057   */\n  dup3\n    /* \"#utility.yul\":5049:5065   */\n  shl\n    /* \"#utility.yul\":5028:5065   */\n  swap1\n  pop\n    /* \"#utility.yul\":4965:5072   */\n  swap3\n  swap2\n  pop\n  pop\n  jump\t// out\n    /* \"#utility.yul\":5078:5471   */\ntag_39:\n    /* \"#utility.yul\":5147:5153   */\n  0x00\n    /* \"#utility.yul\":5197:5198   */\n  0x08\n    /* \"#utility.yul\":5185:5195   */\n  dup4\n    /* \"#utility.yul\":5181:5199   */\n  mul\n    /* \"#utility.yul\":5220:5317   */\n  tag_109\n    /* \"#utility.yul\":5250:5316   */\n  0xffffffffffffffffffffffffffffffffffffffffffffffffffffffffffffffff\n    /* \"#utility.yul\":5239:5248   */\n  dup3\n    /* \"#utility.yul\":5220:5317   */\n  tag_38\n  jump\t// in\ntag_109:\n    /* \"#utility.yul\":5338:5377   */\n  tag_110\n    /* \"#utility.yul\":5368:5376   */\n  dup7\n    /* \"#utility.yul\":5357:5366   */\n  dup4\n    /* \"#utility.yul\":5338:5377   */\n  tag_38\n  jump\t// in\ntag_110:\n    /* \"#utility.yul\":5326:5377   */\n  swap6\n  pop\n    /* \"#utility.yul\":5410:5414   */\n  dup1\n    /* \"#utility.yul\":5406:5415   */\n  not\n    /* \"#utility.yul\":5399:5404   */\n  dup5\n    /* \"#utility.yul\":5395:5416   */\n  and\n    /* \"#utility.yul\":5386:5416   */\n  swap4\n  pop\n    /* \"#utility.yul\":5459:5463   */\n  dup1\n    /* \"#utility.yul\":5449:5457   */\n  dup7\n    /* \"#utility.yul\":5445:5464   */\n  and\n    /* \"#utility.yul\":5438:5443   */\n  dup5\n    /* \"#utility.yul\":5435:5465   */\n  or\n    /* \"#utility.yul\":5425:5465   */\n  swap3\n  pop\n    /* \"#utility.yul\":5154:5471   */\n  pop\n  pop\n    /* \"#utility.yul\":5078:5471   */\n  swap4\n  swap3\n  pop\n  pop\n  pop\n  jump\t// out\n    /* \"#utility.yul\":5477:5537   */\ntag_40:\n    /* \"#utility.yul\":5505:5508   */\n  0x00\n    /* \"#utility.yul\":5526:5531   */\n  dup2\n    /* \"#utility.yul\":5519:5531   */\n  swap1\n  pop\n    /* \"#utility.yul\":5477:5537   */\n  swap2\n  swap1\n  pop\n  jump\t// out\n    /* \"#utility.yul\":5543:5685   */\ntag_41:\n    /* \"#utility.yul\":5593:5602   */\n  0x00\n    /* \"#utility.yul\":5626:5679   */\n  tag_113\n    /* \"#utility.yul\":5644:5678   */\n  tag_114\n    /* \"#utility.yul\":5653:5677   */\n  tag_115\n    /* \"#utility.yul\":5671:5676   */\n  dup5\n    /* \"#utility.yul\":5653:5677   */\n  tag_30\n  jump\t// in\ntag_115:\n    /* \"#utility.yul\":5644:5678   */\n  tag_40\n  jump\t// in\ntag_114:\n    /* \"#utility.yul\":5626:5679   */\n  tag_30\n  jump\t// in\ntag_113:\n    /* \"#utility.yul\":5613:5679   */\n  swap1\n  pop\n    /* \"#utility.yul\":5543:5685   */\n  swap2\n  swap1\n  pop\n  jump\t// out\n    /* \"#utility.yul\":5691:5766   */\ntag_42:\n    /* \"#utility.yul\":5734:5737   */\n  0x00\n    /* \"#utility.yul\":5755:5760   */\n  dup2\n    /* \"#utility.yul\":5748:5760   */\n  swap1\n  pop\n    /* \"#utility.yul\":5691:5766   */\n  swap2\n  swap1\n  pop\n  jump\t// out\n    /* \"#utility.yul\":5772:6041   */\ntag_43:\n    /* \"#utility.yul\":5882:5921   */\n  tag_118\n    /* \"#utility.yul\":5913:5920   */\n  dup4\n    /* \"#utility.yul\":5882:5921   */\n  tag_41\n  jump\t// in\ntag_118:\n    /* \"#utility.yul\":5943:6034   */\n  tag_119\n    /* \"#utility.yul\":5992:6033   */\n  tag_120\n    /* \"#utility.yul\":6016:6032   */\n  dup3\n    /* \"#utility.yul\":5992:6033   */\n  tag_42\n  jump\t// in\ntag_120:\n    /* \"#utility.yul\":5984:5990   */\n  dup5\n    /* \"#utility.yul\":5977:5981   */\n  dup5\n    /* \"#utility.yul\":5971:5982   */\n  sload\n    /* \"#utility.yul\":5943:6034   */\n  tag_39\n  jump\t// in\ntag_119:\n    /* \"#utility.yul\":5937:5941   */\n  dup3\n    /* \"#utility.yul\":5930:6035   */\n  sstore\n    /* \"#utility.yul\":5848:6041   */\n  pop\n    /* \"#utility.yul\":5772:6041   */\n  pop\n  pop\n  pop\n  jump\t// out\n    /* \"#utility.yul\":6047:6120   */\ntag_44:\n    /* \"#utility.yul\":6092:6095   */\n  0x00\n    /* \"#utility.yul\":6047:6120   */\n  swap1\n  jump\t// out\n    /* \"#utility.yul\":6126:6315   */\ntag_45:\n    /* \"#utility.yul\":6203:6235   */\n  tag_123\n  tag_44\n  jump\t// in\ntag_123:\n    /* \"#utility.yul\":6244:6309   */\n  tag_124\n    /* \"#utility.yul\":6302:6308   */\n  dup2\n    /* \"#utility.yul\":6294:6300   */\n  dup5\n    /* \"#utility.yul\":6288:6292   */\n  dup5\n    /* \"#utility.yul\":6244:6309   */\n  tag_43\n  jump\t// in\ntag_124:\n    /* \"#utility.yul\":6179:6315   */\n  pop\n    /* \"#utility.yul\":6126:6315   */\n  pop\n  pop\n  jump\t// out\n    /* \"#utility.yul\":6321:6507   */\ntag_46:\n    /* \"#utility.yul\":6381:6501   */\ntag_126:\n    /* \"#utility.yul\":6398:6401   */\n  dup2\n    /* \"#utility.yul\":6391:6396   */\n  dup2\n    /* \"#utility.yul\":6388:6402   */\n  lt\n    /* \"#utility.yul\":6381:6501   */\n  iszero\n  tag_128\n  jumpi\n    /* \"#utility.yul\":6452:6491   */\n  tag_129\n    /* \"#utility.yul\":6489:6490   */\n  0x00\n    /* \"#utility.yul\":6482:6487   */\n  dup3\n    /* \"#utility.yul\":6452:6491   */\n  tag_45\n  jump\t// in\ntag_129:\n    /* \"#utility.yul\":6425:6426   */\n  0x01\n    /* \"#utility.yul\":6418:6423   */\n  dup2\n    /* \"#utility.yul\":6414:6427   */\n  add\n    /* \"#utility.yul\":6405:6427   */\n  swap1\n  pop\n    /* \"#utility.yul\":6381:6501   */\n  jump(tag_126)\ntag_128:\n    /* \"#utility.yul\":6321:6507   */\n  pop\n  pop\n  jump\t// out\n    /* \"#utility.yul\":6513:7056   */\ntag_47:\n    /* \"#utility.yul\":6614:6616   */\n  0x1f\n    /* \"#utility.yul\":6609:6612   */\n  dup3\n    /* \"#utility.yul\":6606:6617   */\n  gt\n    /* \"#utility.yul\":6603:7049   */\n  iszero\n  tag_131\n  jumpi\n    /* \"#utility.yul\":6648:6686   */\n  tag_132\n    /* \"#utility.yul\":6680:6685   */\n  dup2\n    /* \"#utility.yul\":6648:6686   */\n  tag_36\n  jump\t// in\ntag_132:\n    /* \"#utility.yul\":6732:6761   */\n  tag_133\n    /* \"#utility.yul\":6750:6760   */\n  dup5\n    /* \"#utility.yul\":6732:6761   */\n  tag_37\n  jump\t// in\ntag_133:\n    /* \"#utility.yul\":6722:6730   */\n  dup2\n    /* \"#utility.yul\":6718:6762   */\n  add\n    /* \"#utility.yul\":6915:6917   */\n  0x20\n    /* \"#utility.yul\":6903:6913   */\n  dup6\n    /* \"#utility.yul\":6900:6918   */\n  lt\n    /* \"#utility.yul\":6897:6946   */\n  iszero\n  tag_134\n  jumpi\n    /* \"#utility.yul\":6936:6944   */\n  dup2\n    /* \"#utility.yul\":6921:6944   */\n  swap1\n  pop\n    /* \"#utility.yul\":6897:6946   */\ntag_134:\n    /* \"#utility.yul\":6959:7039   */\n  tag_135\n    /* \"#utility.yul\":7015:7037   */\n  tag_136\n    /* \"#utility.yul\":7033:7036   */\n  dup6\n    /* \"#utility.yul\":7015:7037   */\n  tag_37\n  jump\t// in\ntag_136:\n    /* \"#utility.yul\":7005:7013   */\n  dup4\n    /* \"#utility.yul\":7001:7038   */\n  add\n    /* \"#utility.yul\":6988:6999   */\n  dup3\n    /* \"#utility.yul\":6959:7039   */\n  tag_46\n  jump\t// in\ntag_135:\n    /* \"#utility.yul\":6618:7049   */\n  pop\n  pop\n    /* \"#utility.yul\":6603:7049   */\ntag_131:\n    /* \"#utility.yul\":6513:7056   */\n  pop\n  pop\n  pop\n  jump\t// out\n    /* \"#utility.yul\":7062:7179   */\ntag_48:\n    /* \"#utility.yul\":7116:7124   */\n  0x00\n    /* \"#utility.yul\":7166:7171   */\n  dup3\n    /* \"#utility.yul\":7160:7164   */\n  dup3\n    /* \"#utility.yul\":7156:7172   */\n  shr\n    /* \"#utility.yul\":7135:7172   */\n  swap1\n  pop\n    /* \"#utility.yul\":7062:7179   */\n  swap3\n  swap2\n  pop\n  pop\n  jump\t// out\n    /* \"#utility.yul\":7185:7354   */\ntag_49:\n    /* \"#utility.yul\":7229:7235   */\n  0x00\n    /* \"#utility.yul\":7262:7313   */\n  tag_139\n    /* \"#utility.yul\":7310:7311   */\n  0x00\n    /* \"#utility.yul\":7306:7312   */\n  not\n    /* \"#utility.yul\":7298:7303   */\n  dup5\n    /* \"#utility.yul\":7295:7296   */\n  0x08\n    /* \"#utility.yul\":7291:7304   */\n  mul\n    /* \"#utility.yul\":7262:7313   */\n  tag_48\n  jump\t// in\ntag_139:\n    /* \"#utility.yul\":7258:7314   */\n  not\n    /* \"#utility.yul\":7343:7347   */\n  dup1\n    /* \"#utility.yul\":7337:7341   */\n  dup4\n    /* \"#utility.yul\":7333:7348   */\n  and\n    /* \"#utility.yul\":7323:7348   */\n  swap2\n  pop\n    /* \"#utility.yul\":7236:7354   */\n  pop\n    /* \"#utility.yul\":7185:7354   */\n  swap3\n  swap2\n  pop\n  pop\n  jump\t// out\n    /* \"#utility.yul\":7359:7654   */\ntag_50:\n    /* \"#utility.yul\":7435:7439   */\n  0x00\n    /* \"#utility.yul\":7581:7610   */\n  tag_141\n    /* \"#utility.yul\":7606:7609   */\n  dup4\n    /* \"#utility.yul\":7600:7604   */\n  dup4\n    /* \"#utility.yul\":7581:7610   */\n  tag_49\n  jump\t// in\ntag_141:\n    /* \"#utility.yul\":7573:7610   */\n  swap2\n  pop\n    /* \"#utility.yul\":7643:7646   */\n  dup3\n    /* \"#utility.yul\":7640:7641   */\n  0x02\n    /* \"#utility.yul\":7636:7647   */\n  mul\n    /* \"#utility.yul\":7630:7634   */\n  dup3\n    /* \"#utility.yul\":7627:7648   */\n  or\n    /* \"#utility.yul\":7619:7648   */\n  swap1\n  pop\n    /* \"#utility.yul\":7359:7654   */\n  swap3\n  swap2\n  pop\n  pop\n  jump\t// out\n    /* \"#utility.yul\":7659:9054   */\ntag_7:\n    /* \"#utility.yul\":7776:7813   */\n  tag_143\n    /* \"#utility.yul\":7809:7812   */\n  dup3\n    /* \"#utility.yul\":7776:7813   */\n  tag_33\n  jump\t// in\ntag_143:\n    /* \"#utility.yul\":7878:7896   */\n  0xffffffffffffffff\n    /* \"#utility.yul\":7870:7876   */\n  dup2\n    /* \"#utility.yul\":7867:7897   */\n  gt\n    /* \"#utility.yul\":7864:7920   */\n  iszero\n  tag_144\n  jumpi\n    /* \"#utility.yul\":7900:7918   */\n  tag_145\n  tag_23\n  jump\t// in\ntag_145:\n    /* \"#utility.yul\":7864:7920   */\ntag_144:\n    /* \"#utility.yul\":7944:7982   */\n  tag_146\n    /* \"#utility.yul\":7976:7980   */\n  dup3\n    /* \"#utility.yul\":7970:7981   */\n  sload\n    /* \"#utility.yul\":7944:7982   */\n  tag_35\n  jump\t// in\ntag_146:\n    /* \"#utility.yul\":8029:8096   */\n  tag_147\n    /* \"#utility.yul\":8089:8095   */\n  dup3\n    /* \"#utility.yul\":8081:8087   */\n  dup3\n    /* \"#utility.yul\":8075:8079   */\n  dup6\n    /* \"#utility.yul\":8029:8096   */\n  tag_47\n  jump\t// in\ntag_147:\n    /* \"#utility.yul\":8123:8124   */\n  0x00\n    /* \"#utility.yul\":8147:8151   */\n  0x20\n    /* \"#utility.yul\":8134:8151   */\n  swap1\n  pop\n    /* \"#utility.yul\":8179:8181   */\n  0x1f\n    /* \"#utility.yul\":8171:8177   */\n  dup4\n    /* \"#utility.yul\":8168:8182   */\n  gt\n    /* \"#utility.yul\":8196:8197   */\n  0x01\n    /* \"#utility.yul\":8191:8809   */\n  dup2\n  eq\n  tag_149\n  jumpi\n    /* \"#utility.yul\":8853:8854   */\n  0x00\n    /* \"#utility.yul\":8870:8876   */\n  dup5\n    /* \"#utility.yul\":8867:8944   */\n  iszero\n  tag_150\n  jumpi\n    /* \"#utility.yul\":8919:8928   */\n  dup3\n    /* \"#utility.yul\":8914:8917   */\n  dup8\n    /* \"#utility.yul\":8910:8929   */\n  add\n    /* \"#utility.yul\":8904:8930   */\n  mload\n    /* \"#utility.yul\":8895:8930   */\n  swap1\n  pop\n    /* \"#utility.yul\":8867:8944   */\ntag_150:\n    /* \"#utility.yul\":8970:9037   */\n  tag_151\n    /* \"#utility.yul\":9030:9036   */\n  dup6\n    /* \"#utility.yul\":9023:9028   */\n  dup3\n    /* \"#utility.yul\":8970:9037   */\n  tag_50\n  jump\t// in\ntag_151:\n    /* \"#utility.yul\":8964:8968   */\n  dup7\n    /* \"#utility.yul\":8957:9038   */\n  sstore\n    /* \"#utility.yul\":8826:9048   */\n  pop\n    /* \"#utility.yul\":8161:9048   */\n  jump(tag_148)\n    /* \"#utility.yul\":8191:8809   */\ntag_149:\n    /* \"#utility.yul\":8243:8247   */\n  0x1f\n    /* \"#utility.yul\":8239:8248   */\n  not\n    /* \"#utility.yul\":8231:8237   */\n  dup5\n    /* \"#utility.yul\":8227:8249   */\n  and\n    /* \"#utility.yul\":8277:8314   */\n  tag_152\n    /* \"#utility.yul\":8309:8313   */\n  dup7\n    /* \"#utility.yul\":8277:8314   */\n  tag_36\n  jump\t// in\ntag_152:\n    /* \"#utility.yul\":8336:8337   */\n  0x00\n    /* \"#utility.yul\":8350:8558   */\ntag_153:\n    /* \"#utility.yul\":8364:8371   */\n  dup3\n    /* \"#utility.yul\":8361:8362   */\n  dup2\n    /* \"#utility.yul\":8358:8372   */\n  lt\n    /* \"#utility.yul\":8350:8558   */\n  iszero\n  tag_155\n  jumpi\n    /* \"#utility.yul\":8443:8452   */\n  dup5\n    /* \"#utility.yul\":8438:8441   */\n  dup10\n    /* \"#utility.yul\":8434:8453   */\n  add\n    /* \"#utility.yul\":8428:8454   */\n  mload\n    /* \"#utility.yul\":8420:8426   */\n  dup3\n    /* \"#utility.yul\":8413:8455   */\n  sstore\n    /* \"#utility.yul\":8494:8495   */\n  0x01\n    /* \"#utility.yul\":8486:8492   */\n  dup3\n    /* \"#utility.yul\":8482:8496   */\n  add\n    /* \"#utility.yul\":8472:8496   */\n  swap2\n  pop\n    /* \"#utility.yul\":8541:8543   */\n  0x20\n    /* \"#utility.yul\":8530:8539   */\n  dup6\n    /* \"#utility.yul\":8526:8544   */\n  add\n    /* \"#utility.yul\":8513:8544   */\n  swap5\n  pop\n    /* \"#utility.yul\":8387:8391   */\n  0x20\n    /* \"#utility.yul\":8384:8385   */\n  dup2\n    /* \"#utility.yul\":8380:8392   */\n  add\n    /* \"#utility.yul\":8375:8392   */\n  swap1\n  pop\n    /* \"#utility.yul\":8350:8558   */\n  jump(tag_153)\ntag_155:\n    /* \"#utility.yul\":8586:8592   */\n  dup7\n    /* \"#utility.yul\":8577:8584   */\n  dup4\n    /* \"#utility.yul\":8574:8593   */\n  lt\n    /* \"#utility.yul\":8571:8750   */\n  iszero\n  tag_156\n  jumpi\n    /* \"#utility.yul\":8644:8653   */\n  dup5\n    /* \"#utility.yul\":8639:8642   */\n  dup10\n    /* \"#utility.yul\":8635:8654   */\n  add\n    /* \"#utility.yul\":8629:8655   */\n  mload\n    /* \"#utility.yul\":8687:8735   */\n  tag_157\n    /* \"#utility.yul\":8729:8733   */\n  0x1f\n    /* \"#utility.yul\":8721:8727   */\n  dup10\n    /* \"#utility.yul\":8717:8734   */\n  and\n    /* \"#utility.yul\":8706:8715   */\n  dup3\n    /* \"#utility.yul\":8687:8735   */\n  tag_49\n  jump\t// in\ntag_157:\n    /* \"#utility.yul\":8679:8685   */\n  dup4\n    /* \"#utility.yul\":8672:8736   */\n  sstore\n    /* \"#utility.yul\":8594:8750   */\n  pop\n    /* \"#utility.yul\":8571:8750   */\ntag_156:\n    /* \"#utility.yul\":8796:8797   */\n  0x01\n    /* \"#utility.yul\":8792:8793   */\n  0x02\n    /* \"#utility.yul\":8784:8790   */\n  dup9\n    /* \"#utility.yul\":8780:8794   */\n  mul\n    /* \"#utility.yul\":8776:8798   */\n  add\n    /* \"#utility.yul\":8770:8774   */\n  dup9\n    /* \"#utility.yul\":8763:8799   */\n  sstore\n    /* \"#utility.yul\":8198:8809   */\n  pop\n  pop\n  pop\n    /* \"#utility.yul\":8161:9048   */\ntag_148:\n  pop\n    /* \"#utility.yul\":7751:9054   */\n  pop\n  pop\n  pop\n    /* \"#utility.yul\":7659:9054   */\n  pop\n  pop\n  jump\t// out\n    /* \"#utility.yul\":9060:9240   */\ntag_51:\n    /* \"#utility.yul\":9108:9185   */\n  0x4e487b7100000000000000000000000000000000000000000000000000000000\n    /* \"#utility.yul\":9105:9106   */\n  0x00\n    /* \"#utility.yul\":9098:9186   */\n  mstore\n    /* \"#utility.yul\":9205:9209   */\n  0x11\n    /* \"#utility.yul\":9202:9203   */\n  0x04\n    /* \"#utility.yul\":9195:9210   */\n  mstore\n    /* \"#utility.yul\":9229:9233   */\n  0x24\n    /* \"#utility.yul\":9226:9227   */\n  0x00\n    /* \"#utility.yul\":9219:9234   */\n  revert\n    /* \"#utility.yul\":9246:9656   */\ntag_10:\n    /* \"#utility.yul\":9286:9293   */\n  0x00\n    /* \"#utility.yul\":9309:9329   */\n  tag_160\n    /* \"#utility.yul\":9327:9328   */\n  dup3\n    /* \"#utility.yul\":9309:9329   */\n  tag_30\n  jump\t// in\ntag_160:\n    /* \"#utility.yul\":9304:9329   */\n  swap2\n  pop\n    /* \"#utility.yul\":9343:9363   */\n  tag_161\n    /* \"#utility.yul\":9361:9362   */\n  dup4\n    /* \"#utility.yul\":9343:9363   */\n  tag_30\n  jump\t// in\ntag_161:\n    /* \"#utility.yul\":9338:9363   */\n  swap3\n  pop\n    /* \"#utility.yul\":9398:9399   */\n  dup3\n    /* \"#utility.yul\":9395:9396   */\n  dup3\n    /* \"#utility.yul\":9391:9400   */\n  mul\n    /* \"#utility.yul\":9420:9450   */\n  tag_162\n    /* \"#utility.yul\":9438:9449   */\n  dup2\n    /* \"#utility.yul\":9420:9450   */\n  tag_30\n  jump\t// in\ntag_162:\n    /* \"#utility.yul\":9409:9450   */\n  swap2\n  pop\n    /* \"#utility.yul\":9599:9600   */\n  dup3\n    /* \"#utility.yul\":9590:9597   */\n  dup3\n    /* \"#utility.yul\":9586:9601   */\n  div\n    /* \"#utility.yul\":9583:9584   */\n  dup5\n    /* \"#utility.yul\":9580:9602   */\n  eq\n    /* \"#utility.yul\":9560:9561   */\n  dup4\n    /* \"#utility.yul\":9553:9562   */\n  iszero\n    /* \"#utility.yul\":9533:9616   */\n  or\n    /* \"#utility.yul\":9510:9649   */\n  tag_163\n  jumpi\n    /* \"#utility.yul\":9629:9647   */\n  tag_164\n  tag_51\n  jump\t// in\ntag_164:\n    /* \"#utility.yul\":9510:9649   */\ntag_163:\n    /* \"#utility.yul\":9294:9656   */\n  pop\n    /* \"#utility.yul\":9246:9656   */\n  swap3\n  swap2\n  pop\n  pop\n  jump\t// out\n    /* \"#utility.yul\":9662:9853   */\ntag_12:\n    /* \"#utility.yul\":9702:9705   */\n  0x00\n    /* \"#utility.yul\":9721:9741   */\n  tag_166\n    /* \"#utility.yul\":9739:9740   */\n  dup3\n    /* \"#utility.yul\":9721:9741   */\n  tag_30\n  jump\t// in\ntag_166:\n    /* \"#utility.yul\":9716:9741   */\n  swap2\n  pop\n    /* \"#utility.yul\":9755:9775   */\n  tag_167\n    /* \"#utility.yul\":9773:9774   */\n  dup4\n    /* \"#utility.yul\":9755:9775   */\n  tag_30\n  jump\t// in\ntag_167:\n    /* \"#utility.yul\":9750:9775   */\n  swap3\n  pop\n    /* \"#utility.yul\":9798:9799   */\n  dup3\n    /* \"#utility.yul\":9795:9796   */\n  dup3\n    /* \"#utility.yul\":9791:9800   */\n  add\n    /* \"#utility.yul\":9784:9800   */\n  swap1\n  pop\n    /* \"#utility.yul\":9819:9822   */\n  dup1\n    /* \"#utility.yul\":9816:9817   */\n  dup3\n    /* \"#utility.yul\":9813:9823   */\n  gt\n    /* \"#utility.yul\":9810:9846   */\n  iszero\n  tag_168\n  jumpi\n    /* \"#utility.yul\":9826:9844   */\n  tag_169\n  tag_51\n  jump\t// in\ntag_169:\n    /* \"#utility.yul\":9810:9846   */\ntag_168:\n    /* \"#utility.yul\":9662:9853   */\n  swap3\n  swap2\n  pop\n  pop\n  jump\t// out\n    /* \"#utility.yul\":9859:10039   */\ntag_15:\n    /* \"#utility.yul\":9907:9984   */\n  0x4e487b7100000000000000000000000000000000000000000000000000000000\n    /* \"#utility.yul\":9904:9905   */\n  0x00\n    /* \"#utility.yul\":9897:9985   */\n  mstore\n    /* \"#utility.yul\":10004:10008   */\n  0x21\n    /* \"#utility.yul\":10001:10002   */\n  0x04\n    /* \"#utility.yul\":9994:10009   */\n  mstore\n    /* \"#utility.yul\":10028:10032   */\n  0x24\n    /* \"#utility.yul\":10025:10026   */\n  0x00\n    /* \"#utility.yul\":10018:10033   */\n  revert\n    /* \"contracts/crowdFunding.sol\":61:4212  contract crowdFunding{... */\ntag_16:\n  dataSize(sub_0)\n  dup1\n  dataOffset(sub_0)\n  0x00\n  codecopy\n  0x00\n  return\nstop\n\nsub_0: assembly {\n        /* \"contracts/crowdFunding.sol\":61:4212  contract crowdFunding{... */\n      mstore(0x40, 0x80)\n      jumpi(tag_1, lt(calldatasize, 0x04))\n      shr(0xe0, calldataload(0x00))\n      dup1\n      0x7b4e5c98\n      gt\n      tag_22\n      jumpi\n      dup1\n      0xd621a776\n      gt\n      tag_23\n      jumpi\n      dup1\n      0xd621a776\n      eq\n      tag_17\n      jumpi\n      dup1\n      0xde170570\n      eq\n      tag_18\n      jumpi\n      dup1\n      0xe036a772\n      eq\n      tag_19\n      jumpi\n      dup1\n      0xe4efd1dc\n      eq\n      tag_20\n      jumpi\n      dup1\n      0xfdf04ed4\n      eq\n      tag_21\n      jumpi\n      jump(tag_1)\n    tag_23:\n      dup1\n      0x7b4e5c98\n      eq\n      tag_12\n      jumpi\n      dup1\n      0x8ece7b91\n      eq\n      tag_13\n      jumpi\n      dup1\n      0xb85dfb80\n      eq\n      tag_14\n      jumpi\n      dup1\n      0xc19d93fb\n      eq\n      tag_15\n      jumpi\n      dup1\n      0xca1d209d\n      eq\n      tag_16\n      jumpi\n      jump(tag_1)\n    tag_22:\n      dup1\n      0x4137e733\n      gt\n      tag_24\n      jumpi\n      dup1\n      0x4137e733\n      eq\n      tag_7\n      jumpi\n      dup1\n      0x590e1ae3\n      eq\n      tag_8\n      jumpi\n      dup1\n      0x6f9fb98a\n      eq\n      tag_9\n      jumpi\n      dup1\n      0x7497211b\n      eq\n      tag_10\n      jumpi\n      dup1\n      0x7adba527\n      eq\n      tag_11\n      jumpi\n      jump(tag_1)\n    tag_24:\n      dup1\n      0x039af9eb\n      eq\n      tag_2\n      jumpi\n      dup1\n      0x0574f590\n      eq\n      tag_3\n      jumpi\n      dup1\n      0x10550515\n      eq\n      tag_4\n      jumpi\n      dup1\n      0x389b7533\n      eq\n      tag_5\n      jumpi\n      dup1\n      0x3ccfd60b\n      eq\n      tag_6\n      jumpi\n    tag_1:\n      0x00\n      dup1\n      revert\n        /* \"contracts/crowdFunding.sol\":613:632  tier[] public tiers */\n    tag_2:\n      callvalue\n      dup1\n      iszero\n      tag_25\n      jumpi\n      0x00\n      dup1\n      revert\n    tag_25:\n      pop\n      tag_26\n      0x04\n      dup1\n      calldatasize\n      sub\n      dup2\n      add\n      swap1\n      tag_27\n      swap2\n      swap1\n      tag_28\n      jump\t// in\n    tag_27:\n      tag_29\n      jump\t// in\n    tag_26:\n      mload(0x40)\n      tag_30\n      swap4\n      swap3\n      swap2\n      swap1\n      tag_31\n      jump\t// in\n    tag_30:\n      mload(0x40)\n      dup1\n      swap2\n      sub\n      swap1\n      return\n        /* \"contracts/crowdFunding.sol\":123:157  string public campaign_description */\n    tag_3:\n      callvalue\n      dup1\n      iszero\n      tag_32\n      jumpi\n      0x00\n      dup1\n      revert\n    tag_32:\n      pop\n      tag_33\n      tag_34\n      jump\t// in\n    tag_33:\n      mload(0x40)\n      tag_35\n      swap2\n      swap1\n      tag_36\n      jump\t// in\n    tag_35:\n      mload(0x40)\n      dup1\n      swap2\n      sub\n      swap1\n      return\n        /* \"contracts/crowdFunding.sol\":3799:4087  function getCampaignStatus() public view returns (campaignState) {... */\n    tag_4:\n      callvalue\n      dup1\n      iszero\n      tag_37\n      jumpi\n      0x00\n      dup1\n      revert\n    tag_37:\n      pop\n      tag_38\n      tag_39\n      jump\t// in\n    tag_38:\n      mload(0x40)\n      tag_40\n      swap2\n      swap1\n      tag_41\n      jump\t// in\n    tag_40:\n      mload(0x40)\n      dup1\n      swap2\n      sub\n      swap1\n      return\n        /* \"contracts/crowdFunding.sol\":4095:4209  function extendDeadline(uint256 daysToAdd) public onlyOwner {... */\n    tag_5:\n      callvalue\n      dup1\n      iszero\n      tag_42\n      jumpi\n      0x00\n      dup1\n      revert\n    tag_42:\n      pop\n      tag_43\n      0x04\n      dup1\n      calldatasize\n      sub\n      dup2\n      add\n      swap1\n      tag_44\n      swap2\n      swap1\n      tag_28\n      jump\t// in\n    tag_44:\n      tag_45\n      jump\t// in\n    tag_43:\n      stop\n        /* \"contracts/crowdFunding.sol\":1810:2129  function withdraw() public onlyOwner {... */\n    tag_6:\n      callvalue\n      dup1\n      iszero\n      tag_46\n      jumpi\n      0x00\n      dup1\n      revert\n    tag_46:\n      pop\n      tag_47\n      tag_48\n      jump\t// in\n    tag_47:\n      stop\n        /* \"contracts/crowdFunding.sol\":89:116  string public campaign_name */\n    tag_7:\n      callvalue\n      dup1\n      iszero\n      tag_49\n      jumpi\n      0x00\n      dup1\n      revert\n    tag_49:\n      pop\n      tag_50\n      tag_51\n      jump\t// in\n    tag_50:\n      mload(0x40)\n      tag_52\n      swap2\n      swap1\n      tag_36\n      jump\t// in\n    tag_52:\n      mload(0x40)\n      dup1\n      swap2\n      sub\n      swap1\n      return\n        /* \"contracts/crowdFunding.sol\":3057:3426  function refund() public {... */\n    tag_8:\n      callvalue\n      dup1\n      iszero\n      tag_53\n      jumpi\n      0x00\n      dup1\n      revert\n    tag_53:\n      pop\n      tag_54\n      tag_55\n      jump\t// in\n    tag_54:\n      stop\n        /* \"contracts/crowdFunding.sol\":2137:2244  function getContractBalance() public view returns (uint256) {... */\n    tag_9:\n      callvalue\n      dup1\n      iszero\n      tag_56\n      jumpi\n      0x00\n      dup1\n      revert\n    tag_56:\n      pop\n      tag_57\n      tag_58\n      jump\t// in\n    tag_57:\n      mload(0x40)\n      tag_59\n      swap2\n      swap1\n      tag_60\n      jump\t// in\n    tag_59:\n      mload(0x40)\n      dup1\n      swap2\n      sub\n      swap1\n      return\n        /* \"contracts/crowdFunding.sol\":2443:2631  function removeTier(uint256 index) public onlyOwner {... */\n    tag_10:\n      callvalue\n      dup1\n      iszero\n      tag_61\n      jumpi\n      0x00\n      dup1\n      revert\n    tag_61:\n      pop\n      tag_62\n      0x04\n      dup1\n      calldatasize\n      sub\n      dup2\n      add\n      swap1\n      tag_63\n      swap2\n      swap1\n      tag_28\n      jump\t// in\n    tag_63:\n      tag_64\n      jump\t// in\n    tag_62:\n      stop\n        /* \"contracts/crowdFunding.sol\":3434:3598  function hasFundedTier(address backer_address, uint256 tierIndex) public view returns (bool){... */\n    tag_11:\n      callvalue\n      dup1\n      iszero\n      tag_65\n      jumpi\n      0x00\n      dup1\n      revert\n    tag_65:\n      pop\n      tag_66\n      0x04\n      dup1\n      calldatasize\n      sub\n      dup2\n      add\n      swap1\n      tag_67\n      swap2\n      swap1\n      tag_68\n      jump\t// in\n    tag_67:\n      tag_69\n      jump\t// in\n    tag_66:\n      mload(0x40)\n      tag_70\n      swap2\n      swap1\n      tag_71\n      jump\t// in\n    tag_70:\n      mload(0x40)\n      dup1\n      swap2\n      sub\n      swap1\n      return\n        /* \"contracts/crowdFunding.sol\":272:299  bool public campaign_paused */\n    tag_12:\n      callvalue\n      dup1\n      iszero\n      tag_72\n      jumpi\n      0x00\n      dup1\n      revert\n    tag_72:\n      pop\n      tag_73\n      tag_74\n      jump\t// in\n    tag_73:\n      mload(0x40)\n      tag_75\n      swap2\n      swap1\n      tag_71\n      jump\t// in\n    tag_75:\n      mload(0x40)\n      dup1\n      swap2\n      sub\n      swap1\n      return\n        /* \"contracts/crowdFunding.sol\":2252:2435  function addTier(string memory name, uint256 amount) public onlyOwner {... */\n    tag_13:\n      callvalue\n      dup1\n      iszero\n      tag_76\n      jumpi\n      0x00\n      dup1\n      revert\n    tag_76:\n      pop\n      tag_77\n      0x04\n      dup1\n      calldatasize\n      sub\n      dup2\n      add\n      swap1\n      tag_78\n      swap2\n      swap1\n      tag_79\n      jump\t// in\n    tag_78:\n      tag_80\n      jump\t// in\n    tag_77:\n      stop\n        /* \"contracts/crowdFunding.sol\":639:678  mapping(address=>backer) public backers */\n    tag_14:\n      callvalue\n      dup1\n      iszero\n      tag_81\n      jumpi\n      0x00\n      dup1\n      revert\n    tag_81:\n      pop\n      tag_82\n      0x04\n      dup1\n      calldatasize\n      sub\n      dup2\n      add\n      swap1\n      tag_83\n      swap2\n      swap1\n      tag_84\n      jump\t// in\n    tag_83:\n      tag_85\n      jump\t// in\n    tag_82:\n      mload(0x40)\n      tag_86\n      swap2\n      swap1\n      tag_60\n      jump\t// in\n    tag_86:\n      mload(0x40)\n      dup1\n      swap2\n      sub\n      swap1\n      return\n        /* \"contracts/crowdFunding.sol\":362:388  campaignState public state */\n    tag_15:\n      callvalue\n      dup1\n      iszero\n      tag_87\n      jumpi\n      0x00\n      dup1\n      revert\n    tag_87:\n      pop\n      tag_88\n      tag_89\n      jump\t// in\n    tag_88:\n      mload(0x40)\n      tag_90\n      swap2\n      swap1\n      tag_41\n      jump\t// in\n    tag_90:\n      mload(0x40)\n      dup1\n      swap2\n      sub\n      swap1\n      return\n        /* \"contracts/crowdFunding.sol\":1386:1802  function fund(uint256 tierIndex) public payable campaignOpen notPaused {... */\n    tag_16:\n      tag_91\n      0x04\n      dup1\n      calldatasize\n      sub\n      dup2\n      add\n      swap1\n      tag_92\n      swap2\n      swap1\n      tag_28\n      jump\t// in\n    tag_92:\n      tag_93\n      jump\t// in\n    tag_91:\n      stop\n        /* \"contracts/crowdFunding.sol\":3700:3791  function tooglePause() public onlyOwner {... */\n    tag_17:\n      callvalue\n      dup1\n      iszero\n      tag_94\n      jumpi\n      0x00\n      dup1\n      revert\n    tag_94:\n      pop\n      tag_95\n      tag_96\n      jump\t// in\n    tag_95:\n      stop\n        /* \"contracts/crowdFunding.sol\":3606:3692  function getTiers() public view returns (tier[] memory){... */\n    tag_18:\n      callvalue\n      dup1\n      iszero\n      tag_97\n      jumpi\n      0x00\n      dup1\n      revert\n    tag_97:\n      pop\n      tag_98\n      tag_99\n      jump\t// in\n    tag_98:\n      mload(0x40)\n      tag_100\n      swap2\n      swap1\n      tag_101\n      jump\t// in\n    tag_100:\n      mload(0x40)\n      dup1\n      swap2\n      sub\n      swap1\n      return\n        /* \"contracts/crowdFunding.sol\":164:190  uint256 public goal_amount */\n    tag_19:\n      callvalue\n      dup1\n      iszero\n      tag_102\n      jumpi\n      0x00\n      dup1\n      revert\n    tag_102:\n      pop\n      tag_103\n      tag_104\n      jump\t// in\n    tag_103:\n      mload(0x40)\n      tag_105\n      swap2\n      swap1\n      tag_60\n      jump\t// in\n    tag_105:\n      mload(0x40)\n      dup1\n      swap2\n      sub\n      swap1\n      return\n        /* \"contracts/crowdFunding.sol\":197:229  uint256 public campaign_deadline */\n    tag_20:\n      callvalue\n      dup1\n      iszero\n      tag_106\n      jumpi\n      0x00\n      dup1\n      revert\n    tag_106:\n      pop\n      tag_107\n      tag_108\n      jump\t// in\n    tag_107:\n      mload(0x40)\n      tag_109\n      swap2\n      swap1\n      tag_60\n      jump\t// in\n    tag_109:\n      mload(0x40)\n      dup1\n      swap2\n      sub\n      swap1\n      return\n        /* \"contracts/crowdFunding.sol\":236:265  address public campaign_owner */\n    tag_21:\n      callvalue\n      dup1\n      iszero\n      tag_110\n      jumpi\n      0x00\n      dup1\n      revert\n    tag_110:\n      pop\n      tag_111\n      tag_112\n      jump\t// in\n    tag_111:\n      mload(0x40)\n      tag_113\n      swap2\n      swap1\n      tag_114\n      jump\t// in\n    tag_113:\n      mload(0x40)\n      dup1\n      swap2\n      sub\n      swap1\n      return\n        /* \"contracts/crowdFunding.sol\":613:632  tier[] public tiers */\n    tag_29:\n      0x05\n      dup2\n      dup2\n      sload\n      dup2\n      lt\n      tag_115\n      jumpi\n      0x00\n      dup1\n      revert\n    tag_115:\n      swap1\n      0x00\n      mstore\n      keccak256(0x00, 0x20)\n      swap1\n      0x03\n      mul\n      add\n      0x00\n      swap2\n      pop\n      swap1\n      pop\n      dup1\n      0x00\n      add\n      dup1\n      sload\n      tag_117\n      swap1\n      tag_118\n      jump\t// in\n    tag_117:\n      dup1\n      0x1f\n      add\n      0x20\n      dup1\n      swap2\n      div\n      mul\n      0x20\n      add\n      mload(0x40)\n      swap1\n      dup2\n      add\n      0x40\n      mstore\n      dup1\n      swap3\n      swap2\n      swap1\n      dup2\n      dup2\n      mstore\n      0x20\n      add\n      dup3\n      dup1\n      sload\n      tag_119\n      swap1\n      tag_118\n      jump\t// in\n    tag_119:\n      dup1\n      iszero\n      tag_120\n      jumpi\n      dup1\n      0x1f\n      lt\n      tag_121\n      jumpi\n      0x0100\n      dup1\n      dup4\n      sload\n      div\n      mul\n      dup4\n      mstore\n      swap2\n      0x20\n      add\n      swap2\n      jump(tag_120)\n    tag_121:\n      dup3\n      add\n      swap2\n      swap1\n      0x00\n      mstore\n      keccak256(0x00, 0x20)\n      swap1\n    tag_122:\n      dup2\n      sload\n      dup2\n      mstore\n      swap1\n      0x01\n      add\n      swap1\n      0x20\n      add\n      dup1\n      dup4\n      gt\n      tag_122\n      jumpi\n      dup3\n      swap1\n      sub\n      0x1f\n      and\n      dup3\n      add\n      swap2\n    tag_120:\n      pop\n      pop\n      pop\n      pop\n      pop\n      swap1\n      dup1\n      0x01\n      add\n      sload\n      swap1\n      dup1\n      0x02\n      add\n      sload\n      swap1\n      pop\n      dup4\n      jump\t// out\n        /* \"contracts/crowdFunding.sol\":123:157  string public campaign_description */\n    tag_34:\n      0x01\n      dup1\n      sload\n      tag_123\n      swap1\n      tag_118\n      jump\t// in\n    tag_123:\n      dup1\n      0x1f\n      add\n      0x20\n      dup1\n      swap2\n      div\n      mul\n      0x20\n      add\n      mload(0x40)\n      swap1\n      dup2\n      add\n      0x40\n      mstore\n      dup1\n      swap3\n      swap2\n      swap1\n      dup2\n      dup2\n      mstore\n      0x20\n      add\n      dup3\n      dup1\n      sload\n      tag_124\n      swap1\n      tag_118\n      jump\t// in\n    tag_124:\n      dup1\n      iszero\n      tag_125\n      jumpi\n      dup1\n      0x1f\n      lt\n      tag_126\n      jumpi\n      0x0100\n      dup1\n      dup4\n      sload\n      div\n      mul\n      dup4\n      mstore\n      swap2\n      0x20\n      add\n      swap2\n      jump(tag_125)\n    tag_126:\n      dup3\n      add\n      swap2\n      swap1\n      0x00\n      mstore\n      keccak256(0x00, 0x20)\n      swap1\n    tag_127:\n      dup2\n      sload\n      dup2\n      mstore\n      swap1\n      0x01\n      add\n      swap1\n      0x20\n      add\n      dup1\n      dup4\n      gt\n      tag_127\n      jumpi\n      dup3\n      swap1\n      sub\n      0x1f\n      and\n      dup3\n      add\n      swap2\n    tag_125:\n      pop\n      pop\n      pop\n      pop\n      pop\n      dup2\n      jump\t// out\n        /* \"contracts/crowdFunding.sol\":3799:4087  function getCampaignStatus() public view returns (campaignState) {... */\n    tag_39:\n        /* \"contracts/crowdFunding.sol\":3849:3862  campaignState */\n      0x00\n        /* \"contracts/crowdFunding.sol\":3885:3905  campaignState.Active */\n      dup1\n        /* \"contracts/crowdFunding.sol\":3878:3905  state==campaignState.Active */\n      0x02\n      dup2\n      gt\n      iszero\n      tag_129\n      jumpi\n      tag_130\n      tag_131\n      jump\t// in\n    tag_130:\n    tag_129:\n        /* \"contracts/crowdFunding.sol\":3878:3883  state */\n      0x04\n      0x15\n      swap1\n      sload\n      swap1\n      0x0100\n      exp\n      swap1\n      div\n      0xff\n      and\n        /* \"contracts/crowdFunding.sol\":3878:3905  state==campaignState.Active */\n      0x02\n      dup2\n      gt\n      iszero\n      tag_132\n      jumpi\n      tag_133\n      tag_131\n      jump\t// in\n    tag_133:\n    tag_132:\n      eq\n        /* \"contracts/crowdFunding.sol\":3878:3942  state==campaignState.Active && block.timestamp>campaign_deadline */\n      dup1\n      iszero\n      tag_134\n      jumpi\n      pop\n        /* \"contracts/crowdFunding.sol\":3925:3942  campaign_deadline */\n      sload(0x03)\n        /* \"contracts/crowdFunding.sol\":3909:3924  block.timestamp */\n      timestamp\n        /* \"contracts/crowdFunding.sol\":3909:3942  block.timestamp>campaign_deadline */\n      gt\n        /* \"contracts/crowdFunding.sol\":3878:3942  state==campaignState.Active && block.timestamp>campaign_deadline */\n    tag_134:\n        /* \"contracts/crowdFunding.sol\":3875:4057  if(state==campaignState.Active && block.timestamp>campaign_deadline){... */\n      iszero\n      tag_135\n      jumpi\n        /* \"contracts/crowdFunding.sol\":3988:3999  goal_amount */\n      sload(0x02)\n        /* \"contracts/crowdFunding.sol\":3965:3986  address(this).balance */\n      selfbalance\n        /* \"contracts/crowdFunding.sol\":3965:3999  address(this).balance>=goal_amount */\n      lt\n      iszero\n        /* \"contracts/crowdFunding.sol\":3965:4045  address(this).balance>=goal_amount?campaignState.Successful:campaignState.Failed */\n      tag_136\n      jumpi\n        /* \"contracts/crowdFunding.sol\":4025:4045  campaignState.Failed */\n      0x02\n        /* \"contracts/crowdFunding.sol\":3965:4045  address(this).balance>=goal_amount?campaignState.Successful:campaignState.Failed */\n      jump(tag_137)\n    tag_136:\n        /* \"contracts/crowdFunding.sol\":4000:4024  campaignState.Successful */\n      0x01\n        /* \"contracts/crowdFunding.sol\":3965:4045  address(this).balance>=goal_amount?campaignState.Successful:campaignState.Failed */\n    tag_137:\n        /* \"contracts/crowdFunding.sol\":3958:4045  return address(this).balance>=goal_amount?campaignState.Successful:campaignState.Failed */\n      swap1\n      pop\n      jump(tag_128)\n        /* \"contracts/crowdFunding.sol\":3875:4057  if(state==campaignState.Active && block.timestamp>campaign_deadline){... */\n    tag_135:\n        /* \"contracts/crowdFunding.sol\":4074:4079  state */\n      0x04\n      0x15\n      swap1\n      sload\n      swap1\n      0x0100\n      exp\n      swap1\n      div\n      0xff\n      and\n        /* \"contracts/crowdFunding.sol\":4067:4079  return state */\n      swap1\n      pop\n        /* \"contracts/crowdFunding.sol\":3799:4087  function getCampaignStatus() public view returns (campaignState) {... */\n    tag_128:\n      swap1\n      jump\t// out\n        /* \"contracts/crowdFunding.sol\":4095:4209  function extendDeadline(uint256 daysToAdd) public onlyOwner {... */\n    tag_45:\n        /* \"contracts/crowdFunding.sol\":738:752  campaign_owner */\n      0x04\n      0x00\n      swap1\n      sload\n      swap1\n      0x0100\n      exp\n      swap1\n      div\n      0xffffffffffffffffffffffffffffffffffffffff\n      and\n        /* \"contracts/crowdFunding.sol\":726:752  msg.sender==campaign_owner */\n      0xffffffffffffffffffffffffffffffffffffffff\n      and\n        /* \"contracts/crowdFunding.sol\":726:736  msg.sender */\n      caller\n        /* \"contracts/crowdFunding.sol\":726:752  msg.sender==campaign_owner */\n      0xffffffffffffffffffffffffffffffffffffffff\n      and\n      eq\n        /* \"contracts/crowdFunding.sol\":718:775  require(msg.sender==campaign_owner, \"Not campaign owner\") */\n      tag_139\n      jumpi\n      mload(0x40)\n      0x08c379a000000000000000000000000000000000000000000000000000000000\n      dup2\n      mstore\n      0x04\n      add\n      tag_140\n      swap1\n      tag_141\n      jump\t// in\n    tag_140:\n      mload(0x40)\n      dup1\n      swap2\n      sub\n      swap1\n      revert\n    tag_139:\n        /* \"contracts/crowdFunding.sol\":4195:4201  1 days */\n      0x015180\n        /* \"contracts/crowdFunding.sol\":4185:4194  daysToAdd */\n      dup2\n        /* \"contracts/crowdFunding.sol\":4185:4201  daysToAdd*1 days */\n      tag_143\n      swap2\n      swap1\n      tag_144\n      jump\t// in\n    tag_143:\n        /* \"contracts/crowdFunding.sol\":4166:4183  campaign_deadline */\n      0x03\n      0x00\n        /* \"contracts/crowdFunding.sol\":4166:4201  campaign_deadline+=daysToAdd*1 days */\n      dup3\n      dup3\n      sload\n      tag_145\n      swap2\n      swap1\n      tag_146\n      jump\t// in\n    tag_145:\n      swap3\n      pop\n      pop\n      dup2\n      swap1\n      sstore\n      pop\n        /* \"contracts/crowdFunding.sol\":4095:4209  function extendDeadline(uint256 daysToAdd) public onlyOwner {... */\n      pop\n      jump\t// out\n        /* \"contracts/crowdFunding.sol\":1810:2129  function withdraw() public onlyOwner {... */\n    tag_48:\n        /* \"contracts/crowdFunding.sol\":738:752  campaign_owner */\n      0x04\n      0x00\n      swap1\n      sload\n      swap1\n      0x0100\n      exp\n      swap1\n      div\n      0xffffffffffffffffffffffffffffffffffffffff\n      and\n        /* \"contracts/crowdFunding.sol\":726:752  msg.sender==campaign_owner */\n      0xffffffffffffffffffffffffffffffffffffffff\n      and\n        /* \"contracts/crowdFunding.sol\":726:736  msg.sender */\n      caller\n        /* \"contracts/crowdFunding.sol\":726:752  msg.sender==campaign_owner */\n      0xffffffffffffffffffffffffffffffffffffffff\n      and\n      eq\n        /* \"contracts/crowdFunding.sol\":718:775  require(msg.sender==campaign_owner, \"Not campaign owner\") */\n      tag_148\n      jumpi\n      mload(0x40)\n      0x08c379a000000000000000000000000000000000000000000000000000000000\n      dup2\n      mstore\n      0x04\n      add\n      tag_149\n      swap1\n      tag_141\n      jump\t// in\n    tag_149:\n      mload(0x40)\n      dup1\n      swap2\n      sub\n      swap1\n      revert\n    tag_148:\n        /* \"contracts/crowdFunding.sol\":1858:1887  checkAndUpdateCampaignState() */\n      tag_151\n        /* \"contracts/crowdFunding.sol\":1858:1885  checkAndUpdateCampaignState */\n      tag_152\n        /* \"contracts/crowdFunding.sol\":1858:1887  checkAndUpdateCampaignState() */\n      jump\t// in\n    tag_151:\n        /* \"contracts/crowdFunding.sol\":1913:1937  campaignState.Successful */\n      0x01\n        /* \"contracts/crowdFunding.sol\":1906:1937  state==campaignState.Successful */\n      0x02\n      dup2\n      gt\n      iszero\n      tag_153\n      jumpi\n      tag_154\n      tag_131\n      jump\t// in\n    tag_154:\n    tag_153:\n        /* \"contracts/crowdFunding.sol\":1906:1911  state */\n      0x04\n      0x15\n      swap1\n      sload\n      swap1\n      0x0100\n      exp\n      swap1\n      div\n      0xff\n      and\n        /* \"contracts/crowdFunding.sol\":1906:1937  state==campaignState.Successful */\n      0x02\n      dup2\n      gt\n      iszero\n      tag_155\n      jumpi\n      tag_156\n      tag_131\n      jump\t// in\n    tag_156:\n    tag_155:\n      eq\n        /* \"contracts/crowdFunding.sol\":1898:1965  require(state==campaignState.Successful, \"Campaign not successful\") */\n      tag_157\n      jumpi\n      mload(0x40)\n      0x08c379a000000000000000000000000000000000000000000000000000000000\n      dup2\n      mstore\n      0x04\n      add\n      tag_158\n      swap1\n      tag_159\n      jump\t// in\n    tag_158:\n      mload(0x40)\n      dup1\n      swap2\n      sub\n      swap1\n      revert\n    tag_157:\n        /* \"contracts/crowdFunding.sol\":1978:1993  uint256 balance */\n      0x00\n        /* \"contracts/crowdFunding.sol\":1994:2015  address(this).balance */\n      selfbalance\n        /* \"contracts/crowdFunding.sol\":1978:2015  uint256 balance=address(this).balance */\n      swap1\n      pop\n        /* \"contracts/crowdFunding.sol\":2042:2043  0 */\n      0x00\n        /* \"contracts/crowdFunding.sol\":2034:2041  balance */\n      dup2\n        /* \"contracts/crowdFunding.sol\":2034:2043  balance>0 */\n      gt\n        /* \"contracts/crowdFunding.sol\":2026:2067  require(balance>0, \"Nothing to withdraw\") */\n      tag_160\n      jumpi\n      mload(0x40)\n      0x08c379a000000000000000000000000000000000000000000000000000000000\n      dup2\n      mstore\n      0x04\n      add\n      tag_161\n      swap1\n      tag_162\n      jump\t// in\n    tag_161:\n      mload(0x40)\n      dup1\n      swap2\n      sub\n      swap1\n      revert\n    tag_160:\n        /* \"contracts/crowdFunding.sol\":2088:2102  campaign_owner */\n      0x04\n      0x00\n      swap1\n      sload\n      swap1\n      0x0100\n      exp\n      swap1\n      div\n      0xffffffffffffffffffffffffffffffffffffffff\n      and\n        /* \"contracts/crowdFunding.sol\":2080:2112  payable(campaign_owner).transfer */\n      0xffffffffffffffffffffffffffffffffffffffff\n      and\n        /* \"contracts/crowdFunding.sol\":2080:2121  payable(campaign_owner).transfer(balance) */\n      0x08fc\n        /* \"contracts/crowdFunding.sol\":2113:2120  balance */\n      dup3\n        /* \"contracts/crowdFunding.sol\":2080:2121  payable(campaign_owner).transfer(balance) */\n      swap1\n      dup2\n      iszero\n      mul\n      swap1\n      mload(0x40)\n      0x00\n      mload(0x40)\n      dup1\n      dup4\n      sub\n      dup2\n      dup6\n      dup9\n      dup9\n      call\n      swap4\n      pop\n      pop\n      pop\n      pop\n      iszero\n      dup1\n      iszero\n      tag_164\n      jumpi\n      returndatasize\n      0x00\n      dup1\n      returndatacopy\n      revert(0x00, returndatasize)\n    tag_164:\n      pop\n        /* \"contracts/crowdFunding.sol\":1847:2129  {... */\n      pop\n        /* \"contracts/crowdFunding.sol\":1810:2129  function withdraw() public onlyOwner {... */\n      jump\t// out\n        /* \"contracts/crowdFunding.sol\":89:116  string public campaign_name */\n    tag_51:\n      0x00\n      dup1\n      sload\n      tag_165\n      swap1\n      tag_118\n      jump\t// in\n    tag_165:\n      dup1\n      0x1f\n      add\n      0x20\n      dup1\n      swap2\n      div\n      mul\n      0x20\n      add\n      mload(0x40)\n      swap1\n      dup2\n      add\n      0x40\n      mstore\n      dup1\n      swap3\n      swap2\n      swap1\n      dup2\n      dup2\n      mstore\n      0x20\n      add\n      dup3\n      dup1\n      sload\n      tag_166\n      swap1\n      tag_118\n      jump\t// in\n    tag_166:\n      dup1\n      iszero\n      tag_167\n      jumpi\n      dup1\n      0x1f\n      lt\n      tag_168\n      jumpi\n      0x0100\n      dup1\n      dup4\n      sload\n      div\n      mul\n      dup4\n      mstore\n      swap2\n      0x20\n      add\n      swap2\n      jump(tag_167)\n    tag_168:\n      dup3\n      add\n      swap2\n      swap1\n      0x00\n      mstore\n      keccak256(0x00, 0x20)\n      swap1\n    tag_169:\n      dup2\n      sload\n      dup2\n      mstore\n      swap1\n      0x01\n      add\n      swap1\n      0x20\n      add\n      dup1\n      dup4\n      gt\n      tag_169\n      jumpi\n      dup3\n      swap1\n      sub\n      0x1f\n      and\n      dup3\n      add\n      swap2\n    tag_167:\n      pop\n      pop\n      pop\n      pop\n      pop\n      dup2\n      jump\t// out\n        /* \"contracts/crowdFunding.sol\":3057:3426  function refund() public {... */\n    tag_55:\n        /* \"contracts/crowdFunding.sol\":3093:3122  checkAndUpdateCampaignState() */\n      tag_171\n        /* \"contracts/crowdFunding.sol\":3093:3120  checkAndUpdateCampaignState */\n      tag_152\n        /* \"contracts/crowdFunding.sol\":3093:3122  checkAndUpdateCampaignState() */\n      jump\t// in\n    tag_171:\n        /* \"contracts/crowdFunding.sol\":3148:3168  campaignState.Failed */\n      0x02\n        /* \"contracts/crowdFunding.sol\":3141:3168  state==campaignState.Failed */\n      dup1\n      dup2\n      gt\n      iszero\n      tag_172\n      jumpi\n      tag_173\n      tag_131\n      jump\t// in\n    tag_173:\n    tag_172:\n        /* \"contracts/crowdFunding.sol\":3141:3146  state */\n      0x04\n      0x15\n      swap1\n      sload\n      swap1\n      0x0100\n      exp\n      swap1\n      div\n      0xff\n      and\n        /* \"contracts/crowdFunding.sol\":3141:3168  state==campaignState.Failed */\n      0x02\n      dup2\n      gt\n      iszero\n      tag_174\n      jumpi\n      tag_175\n      tag_131\n      jump\t// in\n    tag_175:\n    tag_174:\n      eq\n        /* \"contracts/crowdFunding.sol\":3133:3195  require(state==campaignState.Failed, \"Campaign is not failed\") */\n      tag_176\n      jumpi\n      mload(0x40)\n      0x08c379a000000000000000000000000000000000000000000000000000000000\n      dup2\n      mstore\n      0x04\n      add\n      tag_177\n      swap1\n      tag_178\n      jump\t// in\n    tag_177:\n      mload(0x40)\n      dup1\n      swap2\n      sub\n      swap1\n      revert\n    tag_176:\n        /* \"contracts/crowdFunding.sol\":3208:3222  uint256 amount */\n      0x00\n        /* \"contracts/crowdFunding.sol\":3223:3230  backers */\n      0x06\n        /* \"contracts/crowdFunding.sol\":3223:3242  backers[msg.sender] */\n      0x00\n        /* \"contracts/crowdFunding.sol\":3231:3241  msg.sender */\n      caller\n        /* \"contracts/crowdFunding.sol\":3223:3242  backers[msg.sender] */\n      0xffffffffffffffffffffffffffffffffffffffff\n      and\n      0xffffffffffffffffffffffffffffffffffffffff\n      and\n      dup2\n      mstore\n      0x20\n      add\n      swap1\n      dup2\n      mstore\n      0x20\n      add\n      0x00\n      keccak256\n        /* \"contracts/crowdFunding.sol\":3223:3261  backers[msg.sender].total_contribution */\n      0x00\n      add\n      sload\n        /* \"contracts/crowdFunding.sol\":3208:3261  uint256 amount=backers[msg.sender].total_contribution */\n      swap1\n      pop\n        /* \"contracts/crowdFunding.sol\":3287:3288  0 */\n      0x00\n        /* \"contracts/crowdFunding.sol\":3280:3286  amount */\n      dup2\n        /* \"contracts/crowdFunding.sol\":3280:3288  amount>0 */\n      gt\n        /* \"contracts/crowdFunding.sol\":3272:3318  require(amount>0, \"No contribution to refund\") */\n      tag_179\n      jumpi\n      mload(0x40)\n      0x08c379a000000000000000000000000000000000000000000000000000000000\n      dup2\n      mstore\n      0x04\n      add\n      tag_180\n      swap1\n      tag_181\n      jump\t// in\n    tag_180:\n      mload(0x40)\n      dup1\n      swap2\n      sub\n      swap1\n      revert\n    tag_179:\n        /* \"contracts/crowdFunding.sol\":3370:3371  0 */\n      0x00\n        /* \"contracts/crowdFunding.sol\":3331:3338  backers */\n      0x06\n        /* \"contracts/crowdFunding.sol\":3331:3350  backers[msg.sender] */\n      0x00\n        /* \"contracts/crowdFunding.sol\":3339:3349  msg.sender */\n      caller\n        /* \"contracts/crowdFunding.sol\":3331:3350  backers[msg.sender] */\n      0xffffffffffffffffffffffffffffffffffffffff\n      and\n      0xffffffffffffffffffffffffffffffffffffffff\n      and\n      dup2\n      mstore\n      0x20\n      add\n      swap1\n      dup2\n      mstore\n      0x20\n      add\n      0x00\n      keccak256\n        /* \"contracts/crowdFunding.sol\":3331:3369  backers[msg.sender].total_contribution */\n      0x00\n      add\n        /* \"contracts/crowdFunding.sol\":3331:3371  backers[msg.sender].total_contribution=0 */\n      dup2\n      swap1\n      sstore\n      pop\n        /* \"contracts/crowdFunding.sol\":3390:3400  msg.sender */\n      caller\n        /* \"contracts/crowdFunding.sol\":3382:3410  payable(msg.sender).transfer */\n      0xffffffffffffffffffffffffffffffffffffffff\n      and\n        /* \"contracts/crowdFunding.sol\":3382:3418  payable(msg.sender).transfer(amount) */\n      0x08fc\n        /* \"contracts/crowdFunding.sol\":3411:3417  amount */\n      dup3\n        /* \"contracts/crowdFunding.sol\":3382:3418  payable(msg.sender).transfer(amount) */\n      swap1\n      dup2\n      iszero\n      mul\n      swap1\n      mload(0x40)\n      0x00\n      mload(0x40)\n      dup1\n      dup4\n      sub\n      dup2\n      dup6\n      dup9\n      dup9\n      call\n      swap4\n      pop\n      pop\n      pop\n      pop\n      iszero\n      dup1\n      iszero\n      tag_183\n      jumpi\n      returndatasize\n      0x00\n      dup1\n      returndatacopy\n      revert(0x00, returndatasize)\n    tag_183:\n      pop\n        /* \"contracts/crowdFunding.sol\":3082:3426  {... */\n      pop\n        /* \"contracts/crowdFunding.sol\":3057:3426  function refund() public {... */\n      jump\t// out\n        /* \"contracts/crowdFunding.sol\":2137:2244  function getContractBalance() public view returns (uint256) {... */\n    tag_58:\n        /* \"contracts/crowdFunding.sol\":2188:2195  uint256 */\n      0x00\n        /* \"contracts/crowdFunding.sol\":2215:2236  address(this).balance */\n      selfbalance\n        /* \"contracts/crowdFunding.sol\":2208:2236  return address(this).balance */\n      swap1\n      pop\n        /* \"contracts/crowdFunding.sol\":2137:2244  function getContractBalance() public view returns (uint256) {... */\n      swap1\n      jump\t// out\n        /* \"contracts/crowdFunding.sol\":2443:2631  function removeTier(uint256 index) public onlyOwner {... */\n    tag_64:\n        /* \"contracts/crowdFunding.sol\":738:752  campaign_owner */\n      0x04\n      0x00\n      swap1\n      sload\n      swap1\n      0x0100\n      exp\n      swap1\n      div\n      0xffffffffffffffffffffffffffffffffffffffff\n      and\n        /* \"contracts/crowdFunding.sol\":726:752  msg.sender==campaign_owner */\n      0xffffffffffffffffffffffffffffffffffffffff\n      and\n        /* \"contracts/crowdFunding.sol\":726:736  msg.sender */\n      caller\n        /* \"contracts/crowdFunding.sol\":726:752  msg.sender==campaign_owner */\n      0xffffffffffffffffffffffffffffffffffffffff\n      and\n      eq\n        /* \"contracts/crowdFunding.sol\":718:775  require(msg.sender==campaign_owner, \"Not campaign owner\") */\n      tag_186\n      jumpi\n      mload(0x40)\n      0x08c379a000000000000000000000000000000000000000000000000000000000\n      dup2\n      mstore\n      0x04\n      add\n      tag_187\n      swap1\n      tag_141\n      jump\t// in\n    tag_187:\n      mload(0x40)\n      dup1\n      swap2\n      sub\n      swap1\n      revert\n    tag_186:\n        /* \"contracts/crowdFunding.sol\":2520:2525  tiers */\n      0x05\n        /* \"contracts/crowdFunding.sol\":2520:2532  tiers.length */\n      dup1\n      sload\n      swap1\n      pop\n        /* \"contracts/crowdFunding.sol\":2514:2519  index */\n      dup2\n        /* \"contracts/crowdFunding.sol\":2514:2532  index<tiers.length */\n      lt\n        /* \"contracts/crowdFunding.sol\":2506:2556  require(index<tiers.length, \"Tier does not exist\") */\n      tag_189\n      jumpi\n      mload(0x40)\n      0x08c379a000000000000000000000000000000000000000000000000000000000\n      dup2\n      mstore\n      0x04\n      add\n      tag_190\n      swap1\n      tag_191\n      jump\t// in\n    tag_190:\n      mload(0x40)\n      dup1\n      swap2\n      sub\n      swap1\n      revert\n    tag_189:\n        /* \"contracts/crowdFunding.sol\":2580:2585  tiers */\n      0x05\n        /* \"contracts/crowdFunding.sol\":2599:2600  1 */\n      0x01\n        /* \"contracts/crowdFunding.sol\":2586:2591  tiers */\n      0x05\n        /* \"contracts/crowdFunding.sol\":2586:2598  tiers.length */\n      dup1\n      sload\n      swap1\n      pop\n        /* \"contracts/crowdFunding.sol\":2586:2600  tiers.length-1 */\n      tag_192\n      swap2\n      swap1\n      tag_193\n      jump\t// in\n    tag_192:\n        /* \"contracts/crowdFunding.sol\":2580:2601  tiers[tiers.length-1] */\n      dup2\n      sload\n      dup2\n      lt\n      tag_194\n      jumpi\n      tag_195\n      tag_196\n      jump\t// in\n    tag_195:\n    tag_194:\n      swap1\n      0x00\n      mstore\n      keccak256(0x00, 0x20)\n      swap1\n      0x03\n      mul\n      add\n        /* \"contracts/crowdFunding.sol\":2567:2572  tiers */\n      0x05\n        /* \"contracts/crowdFunding.sol\":2573:2578  index */\n      dup3\n        /* \"contracts/crowdFunding.sol\":2567:2579  tiers[index] */\n      dup2\n      sload\n      dup2\n      lt\n      tag_198\n      jumpi\n      tag_199\n      tag_196\n      jump\t// in\n    tag_199:\n    tag_198:\n      swap1\n      0x00\n      mstore\n      keccak256(0x00, 0x20)\n      swap1\n      0x03\n      mul\n      add\n        /* \"contracts/crowdFunding.sol\":2567:2601  tiers[index]=tiers[tiers.length-1] */\n      0x00\n      dup3\n      add\n      dup2\n      0x00\n      add\n      swap1\n      dup2\n      tag_201\n      swap2\n      swap1\n      tag_202\n      jump\t// in\n    tag_201:\n      pop\n      0x01\n      dup3\n      add\n      sload\n      dup2\n      0x01\n      add\n      sstore\n      0x02\n      dup3\n      add\n      sload\n      dup2\n      0x02\n      add\n      sstore\n      swap1\n      pop\n      pop\n        /* \"contracts/crowdFunding.sol\":2612:2617  tiers */\n      0x05\n        /* \"contracts/crowdFunding.sol\":2612:2623  tiers.pop() */\n      dup1\n      sload\n      dup1\n      tag_203\n      jumpi\n      tag_204\n      tag_205\n      jump\t// in\n    tag_204:\n    tag_203:\n      0x01\n      swap1\n      sub\n      dup2\n      dup2\n      swap1\n      0x00\n      mstore\n      keccak256(0x00, 0x20)\n      swap1\n      0x03\n      mul\n      add\n      0x00\n      dup1\n      dup3\n      add\n      0x00\n      tag_207\n      swap2\n      swap1\n      tag_208\n      jump\t// in\n    tag_207:\n      0x01\n      dup3\n      add\n      0x00\n      swap1\n      sstore\n      0x02\n      dup3\n      add\n      0x00\n      swap1\n      sstore\n      pop\n      pop\n      swap1\n      sstore\n        /* \"contracts/crowdFunding.sol\":2443:2631  function removeTier(uint256 index) public onlyOwner {... */\n      pop\n      jump\t// out\n        /* \"contracts/crowdFunding.sol\":3434:3598  function hasFundedTier(address backer_address, uint256 tierIndex) public view returns (bool){... */\n    tag_69:\n        /* \"contracts/crowdFunding.sol\":3521:3525  bool */\n      0x00\n        /* \"contracts/crowdFunding.sol\":3544:3551  backers */\n      0x06\n        /* \"contracts/crowdFunding.sol\":3544:3567  backers[backer_address] */\n      0x00\n        /* \"contracts/crowdFunding.sol\":3552:3566  backer_address */\n      dup5\n        /* \"contracts/crowdFunding.sol\":3544:3567  backers[backer_address] */\n      0xffffffffffffffffffffffffffffffffffffffff\n      and\n      0xffffffffffffffffffffffffffffffffffffffff\n      and\n      dup2\n      mstore\n      0x20\n      add\n      swap1\n      dup2\n      mstore\n      0x20\n      add\n      0x00\n      keccak256\n        /* \"contracts/crowdFunding.sol\":3544:3579  backers[backer_address].fundedTiers */\n      0x01\n      add\n        /* \"contracts/crowdFunding.sol\":3544:3590  backers[backer_address].fundedTiers[tierIndex] */\n      0x00\n        /* \"contracts/crowdFunding.sol\":3580:3589  tierIndex */\n      dup4\n        /* \"contracts/crowdFunding.sol\":3544:3590  backers[backer_address].fundedTiers[tierIndex] */\n      dup2\n      mstore\n      0x20\n      add\n      swap1\n      dup2\n      mstore\n      0x20\n      add\n      0x00\n      keccak256\n      0x00\n      swap1\n      sload\n      swap1\n      0x0100\n      exp\n      swap1\n      div\n      0xff\n      and\n        /* \"contracts/crowdFunding.sol\":3537:3590  return backers[backer_address].fundedTiers[tierIndex] */\n      swap1\n      pop\n        /* \"contracts/crowdFunding.sol\":3434:3598  function hasFundedTier(address backer_address, uint256 tierIndex) public view returns (bool){... */\n      swap3\n      swap2\n      pop\n      pop\n      jump\t// out\n        /* \"contracts/crowdFunding.sol\":272:299  bool public campaign_paused */\n    tag_74:\n      0x04\n      0x14\n      swap1\n      sload\n      swap1\n      0x0100\n      exp\n      swap1\n      div\n      0xff\n      and\n      dup2\n      jump\t// out\n        /* \"contracts/crowdFunding.sol\":2252:2435  function addTier(string memory name, uint256 amount) public onlyOwner {... */\n    tag_80:\n        /* \"contracts/crowdFunding.sol\":738:752  campaign_owner */\n      0x04\n      0x00\n      swap1\n      sload\n      swap1\n      0x0100\n      exp\n      swap1\n      div\n      0xffffffffffffffffffffffffffffffffffffffff\n      and\n        /* \"contracts/crowdFunding.sol\":726:752  msg.sender==campaign_owner */\n      0xffffffffffffffffffffffffffffffffffffffff\n      and\n        /* \"contracts/crowdFunding.sol\":726:736  msg.sender */\n      caller\n        /* \"contracts/crowdFunding.sol\":726:752  msg.sender==campaign_owner */\n      0xffffffffffffffffffffffffffffffffffffffff\n      and\n      eq\n        /* \"contracts/crowdFunding.sol\":718:775  require(msg.sender==campaign_owner, \"Not campaign owner\") */\n      tag_211\n      jumpi\n      mload(0x40)\n      0x08c379a000000000000000000000000000000000000000000000000000000000\n      dup2\n      mstore\n      0x04\n      add\n      tag_212\n      swap1\n      tag_141\n      jump\t// in\n    tag_212:\n      mload(0x40)\n      dup1\n      swap2\n      sub\n      swap1\n      revert\n    tag_211:\n        /* \"contracts/crowdFunding.sol\":2348:2349  0 */\n      0x00\n        /* \"contracts/crowdFunding.sol\":2341:2347  amount */\n      dup2\n        /* \"contracts/crowdFunding.sol\":2341:2349  amount>0 */\n      gt\n        /* \"contracts/crowdFunding.sol\":2333:2383  require(amount>0, \"Amount must be greater than 0\") */\n      tag_214\n      jumpi\n      mload(0x40)\n      0x08c379a000000000000000000000000000000000000000000000000000000000\n      dup2\n      mstore\n      0x04\n      add\n      tag_215\n      swap1\n      tag_216\n      jump\t// in\n    tag_215:\n      mload(0x40)\n      dup1\n      swap2\n      sub\n      swap1\n      revert\n    tag_214:\n        /* \"contracts/crowdFunding.sol\":2394:2399  tiers */\n      0x05\n        /* \"contracts/crowdFunding.sol\":2405:2426  tier(name, amount, 0) */\n      mload(0x40)\n      dup1\n      0x60\n      add\n      0x40\n      mstore\n      dup1\n        /* \"contracts/crowdFunding.sol\":2410:2414  name */\n      dup5\n        /* \"contracts/crowdFunding.sol\":2405:2426  tier(name, amount, 0) */\n      dup2\n      mstore\n      0x20\n      add\n        /* \"contracts/crowdFunding.sol\":2416:2422  amount */\n      dup4\n        /* \"contracts/crowdFunding.sol\":2405:2426  tier(name, amount, 0) */\n      dup2\n      mstore\n      0x20\n      add\n        /* \"contracts/crowdFunding.sol\":2424:2425  0 */\n      0x00\n        /* \"contracts/crowdFunding.sol\":2405:2426  tier(name, amount, 0) */\n      dup2\n      mstore\n      pop\n        /* \"contracts/crowdFunding.sol\":2394:2427  tiers.push(tier(name, amount, 0)) */\n      swap1\n      dup1\n      0x01\n      dup2\n      sload\n      add\n      dup1\n      dup3\n      sstore\n      dup1\n      swap2\n      pop\n      pop\n      0x01\n      swap1\n      sub\n      swap1\n      0x00\n      mstore\n      keccak256(0x00, 0x20)\n      swap1\n      0x03\n      mul\n      add\n      0x00\n      swap1\n      swap2\n      swap1\n      swap2\n      swap1\n      swap2\n      pop\n      0x00\n      dup3\n      add\n      mload\n      dup2\n      0x00\n      add\n      swap1\n      dup2\n      tag_218\n      swap2\n      swap1\n      tag_219\n      jump\t// in\n    tag_218:\n      pop\n      0x20\n      dup3\n      add\n      mload\n      dup2\n      0x01\n      add\n      sstore\n      0x40\n      dup3\n      add\n      mload\n      dup2\n      0x02\n      add\n      sstore\n      pop\n      pop\n        /* \"contracts/crowdFunding.sol\":2252:2435  function addTier(string memory name, uint256 amount) public onlyOwner {... */\n      pop\n      pop\n      jump\t// out\n        /* \"contracts/crowdFunding.sol\":639:678  mapping(address=>backer) public backers */\n    tag_85:\n      mstore(0x20, 0x06)\n      dup1\n      0x00\n      mstore\n      keccak256(0x00, 0x40)\n      0x00\n      swap2\n      pop\n      swap1\n      pop\n      dup1\n      0x00\n      add\n      sload\n      swap1\n      pop\n      dup2\n      jump\t// out\n        /* \"contracts/crowdFunding.sol\":362:388  campaignState public state */\n    tag_89:\n      0x04\n      0x15\n      swap1\n      sload\n      swap1\n      0x0100\n      exp\n      swap1\n      div\n      0xff\n      and\n      dup2\n      jump\t// out\n        /* \"contracts/crowdFunding.sol\":1386:1802  function fund(uint256 tierIndex) public payable campaignOpen notPaused {... */\n    tag_93:\n        /* \"contracts/crowdFunding.sol\":853:873  campaignState.Active */\n      0x00\n        /* \"contracts/crowdFunding.sol\":846:873  state==campaignState.Active */\n      0x02\n      dup2\n      gt\n      iszero\n      tag_221\n      jumpi\n      tag_222\n      tag_131\n      jump\t// in\n    tag_222:\n    tag_221:\n        /* \"contracts/crowdFunding.sol\":846:851  state */\n      0x04\n      0x15\n      swap1\n      sload\n      swap1\n      0x0100\n      exp\n      swap1\n      div\n      0xff\n      and\n        /* \"contracts/crowdFunding.sol\":846:873  state==campaignState.Active */\n      0x02\n      dup2\n      gt\n      iszero\n      tag_223\n      jumpi\n      tag_224\n      tag_131\n      jump\t// in\n    tag_224:\n    tag_223:\n      eq\n        /* \"contracts/crowdFunding.sol\":838:900  require(state==campaignState.Active, \"Campaign is not active\") */\n      tag_225\n      jumpi\n      mload(0x40)\n      0x08c379a000000000000000000000000000000000000000000000000000000000\n      dup2\n      mstore\n      0x04\n      add\n      tag_226\n      swap1\n      tag_227\n      jump\t// in\n    tag_226:\n      mload(0x40)\n      dup1\n      swap2\n      sub\n      swap1\n      revert\n    tag_225:\n        /* \"contracts/crowdFunding.sol\":968:983  campaign_paused */\n      0x04\n      0x14\n      swap1\n      sload\n      swap1\n      0x0100\n      exp\n      swap1\n      div\n      0xff\n      and\n        /* \"contracts/crowdFunding.sol\":967:983  !campaign_paused */\n      iszero\n        /* \"contracts/crowdFunding.sol\":959:1006  require(!campaign_paused, \"Campaign is paused\") */\n      tag_229\n      jumpi\n      mload(0x40)\n      0x08c379a000000000000000000000000000000000000000000000000000000000\n      dup2\n      mstore\n      0x04\n      add\n      tag_230\n      swap1\n      tag_231\n      jump\t// in\n    tag_230:\n      mload(0x40)\n      dup1\n      swap2\n      sub\n      swap1\n      revert\n    tag_229:\n        /* \"contracts/crowdFunding.sol\":1486:1491  tiers */\n      0x05\n        /* \"contracts/crowdFunding.sol\":1486:1498  tiers.length */\n      dup1\n      sload\n      swap1\n      pop\n        /* \"contracts/crowdFunding.sol\":1476:1485  tierIndex */\n      dup2\n        /* \"contracts/crowdFunding.sol\":1476:1498  tierIndex<tiers.length */\n      lt\n        /* \"contracts/crowdFunding.sol\":1468:1515  require(tierIndex<tiers.length, \"Invalid Tier\") */\n      tag_233\n      jumpi\n      mload(0x40)\n      0x08c379a000000000000000000000000000000000000000000000000000000000\n      dup2\n      mstore\n      0x04\n      add\n      tag_234\n      swap1\n      tag_235\n      jump\t// in\n    tag_234:\n      mload(0x40)\n      dup1\n      swap2\n      sub\n      swap1\n      revert\n    tag_233:\n        /* \"contracts/crowdFunding.sol\":1545:1550  tiers */\n      0x05\n        /* \"contracts/crowdFunding.sol\":1551:1560  tierIndex */\n      dup2\n        /* \"contracts/crowdFunding.sol\":1545:1561  tiers[tierIndex] */\n      dup2\n      sload\n      dup2\n      lt\n      tag_236\n      jumpi\n      tag_237\n      tag_196\n      jump\t// in\n    tag_237:\n    tag_236:\n      swap1\n      0x00\n      mstore\n      keccak256(0x00, 0x20)\n      swap1\n      0x03\n      mul\n      add\n        /* \"contracts/crowdFunding.sol\":1545:1568  tiers[tierIndex].amount */\n      0x01\n      add\n      sload\n        /* \"contracts/crowdFunding.sol\":1534:1543  msg.value */\n      callvalue\n        /* \"contracts/crowdFunding.sol\":1534:1568  msg.value==tiers[tierIndex].amount */\n      eq\n        /* \"contracts/crowdFunding.sol\":1526:1594  require(msg.value==tiers[tierIndex].amount, \"Invalid amount backed\") */\n      tag_239\n      jumpi\n      mload(0x40)\n      0x08c379a000000000000000000000000000000000000000000000000000000000\n      dup2\n      mstore\n      0x04\n      add\n      tag_240\n      swap1\n      tag_241\n      jump\t// in\n    tag_240:\n      mload(0x40)\n      dup1\n      swap2\n      sub\n      swap1\n      revert\n    tag_239:\n        /* \"contracts/crowdFunding.sol\":1607:1612  tiers */\n      0x05\n        /* \"contracts/crowdFunding.sol\":1613:1622  tierIndex */\n      dup2\n        /* \"contracts/crowdFunding.sol\":1607:1623  tiers[tierIndex] */\n      dup2\n      sload\n      dup2\n      lt\n      tag_242\n      jumpi\n      tag_243\n      tag_196\n      jump\t// in\n    tag_243:\n    tag_242:\n      swap1\n      0x00\n      mstore\n      keccak256(0x00, 0x20)\n      swap1\n      0x03\n      mul\n      add\n        /* \"contracts/crowdFunding.sol\":1607:1631  tiers[tierIndex].backers */\n      0x02\n      add\n      0x00\n        /* \"contracts/crowdFunding.sol\":1607:1633  tiers[tierIndex].backers++ */\n      dup2\n      sload\n      dup1\n      swap3\n      swap2\n      swap1\n      tag_245\n      swap1\n      tag_246\n      jump\t// in\n    tag_245:\n      swap2\n      swap1\n      pop\n      sstore\n      pop\n        /* \"contracts/crowdFunding.sol\":1684:1693  msg.value */\n      callvalue\n        /* \"contracts/crowdFunding.sol\":1644:1651  backers */\n      0x06\n        /* \"contracts/crowdFunding.sol\":1644:1663  backers[msg.sender] */\n      0x00\n        /* \"contracts/crowdFunding.sol\":1652:1662  msg.sender */\n      caller\n        /* \"contracts/crowdFunding.sol\":1644:1663  backers[msg.sender] */\n      0xffffffffffffffffffffffffffffffffffffffff\n      and\n      0xffffffffffffffffffffffffffffffffffffffff\n      and\n      dup2\n      mstore\n      0x20\n      add\n      swap1\n      dup2\n      mstore\n      0x20\n      add\n      0x00\n      keccak256\n        /* \"contracts/crowdFunding.sol\":1644:1682  backers[msg.sender].total_contribution */\n      0x00\n      add\n      0x00\n        /* \"contracts/crowdFunding.sol\":1644:1693  backers[msg.sender].total_contribution+=msg.value */\n      dup3\n      dup3\n      sload\n      tag_247\n      swap2\n      swap1\n      tag_146\n      jump\t// in\n    tag_247:\n      swap3\n      pop\n      pop\n      dup2\n      swap1\n      sstore\n      pop\n        /* \"contracts/crowdFunding.sol\":1747:1751  true */\n      0x01\n        /* \"contracts/crowdFunding.sol\":1704:1711  backers */\n      0x06\n        /* \"contracts/crowdFunding.sol\":1704:1723  backers[msg.sender] */\n      0x00\n        /* \"contracts/crowdFunding.sol\":1712:1722  msg.sender */\n      caller\n        /* \"contracts/crowdFunding.sol\":1704:1723  backers[msg.sender] */\n      0xffffffffffffffffffffffffffffffffffffffff\n      and\n      0xffffffffffffffffffffffffffffffffffffffff\n      and\n      dup2\n      mstore\n      0x20\n      add\n      swap1\n      dup2\n      mstore\n      0x20\n      add\n      0x00\n      keccak256\n        /* \"contracts/crowdFunding.sol\":1704:1735  backers[msg.sender].fundedTiers */\n      0x01\n      add\n        /* \"contracts/crowdFunding.sol\":1704:1746  backers[msg.sender].fundedTiers[tierIndex] */\n      0x00\n        /* \"contracts/crowdFunding.sol\":1736:1745  tierIndex */\n      dup4\n        /* \"contracts/crowdFunding.sol\":1704:1746  backers[msg.sender].fundedTiers[tierIndex] */\n      dup2\n      mstore\n      0x20\n      add\n      swap1\n      dup2\n      mstore\n      0x20\n      add\n      0x00\n      keccak256\n      0x00\n        /* \"contracts/crowdFunding.sol\":1704:1751  backers[msg.sender].fundedTiers[tierIndex]=true */\n      0x0100\n      exp\n      dup2\n      sload\n      dup2\n      0xff\n      mul\n      not\n      and\n      swap1\n      dup4\n      iszero\n      iszero\n      mul\n      or\n      swap1\n      sstore\n      pop\n        /* \"contracts/crowdFunding.sol\":1765:1794  checkAndUpdateCampaignState() */\n      tag_248\n        /* \"contracts/crowdFunding.sol\":1765:1792  checkAndUpdateCampaignState */\n      tag_152\n        /* \"contracts/crowdFunding.sol\":1765:1794  checkAndUpdateCampaignState() */\n      jump\t// in\n    tag_248:\n        /* \"contracts/crowdFunding.sol\":1386:1802  function fund(uint256 tierIndex) public payable campaignOpen notPaused {... */\n      pop\n      jump\t// out\n        /* \"contracts/crowdFunding.sol\":3700:3791  function tooglePause() public onlyOwner {... */\n    tag_96:\n        /* \"contracts/crowdFunding.sol\":738:752  campaign_owner */\n      0x04\n      0x00\n      swap1\n      sload\n      swap1\n      0x0100\n      exp\n      swap1\n      div\n      0xffffffffffffffffffffffffffffffffffffffff\n      and\n        /* \"contracts/crowdFunding.sol\":726:752  msg.sender==campaign_owner */\n      0xffffffffffffffffffffffffffffffffffffffff\n      and\n        /* \"contracts/crowdFunding.sol\":726:736  msg.sender */\n      caller\n        /* \"contracts/crowdFunding.sol\":726:752  msg.sender==campaign_owner */\n      0xffffffffffffffffffffffffffffffffffffffff\n      and\n      eq\n        /* \"contracts/crowdFunding.sol\":718:775  require(msg.sender==campaign_owner, \"Not campaign owner\") */\n      tag_250\n      jumpi\n      mload(0x40)\n      0x08c379a000000000000000000000000000000000000000000000000000000000\n      dup2\n      mstore\n      0x04\n      add\n      tag_251\n      swap1\n      tag_141\n      jump\t// in\n    tag_251:\n      mload(0x40)\n      dup1\n      swap2\n      sub\n      swap1\n      revert\n    tag_250:\n        /* \"contracts/crowdFunding.sol\":3768:3783  campaign_paused */\n      0x04\n      0x14\n      swap1\n      sload\n      swap1\n      0x0100\n      exp\n      swap1\n      div\n      0xff\n      and\n        /* \"contracts/crowdFunding.sol\":3767:3783  !campaign_paused */\n      iszero\n        /* \"contracts/crowdFunding.sol\":3751:3766  campaign_paused */\n      0x04\n      0x14\n        /* \"contracts/crowdFunding.sol\":3751:3783  campaign_paused=!campaign_paused */\n      0x0100\n      exp\n      dup2\n      sload\n      dup2\n      0xff\n      mul\n      not\n      and\n      swap1\n      dup4\n      iszero\n      iszero\n      mul\n      or\n      swap1\n      sstore\n      pop\n        /* \"contracts/crowdFunding.sol\":3700:3791  function tooglePause() public onlyOwner {... */\n      jump\t// out\n        /* \"contracts/crowdFunding.sol\":3606:3692  function getTiers() public view returns (tier[] memory){... */\n    tag_99:\n        /* \"contracts/crowdFunding.sol\":3647:3660  tier[] memory */\n      0x60\n        /* \"contracts/crowdFunding.sol\":3679:3684  tiers */\n      0x05\n        /* \"contracts/crowdFunding.sol\":3672:3684  return tiers */\n      dup1\n      sload\n      dup1\n      0x20\n      mul\n      0x20\n      add\n      mload(0x40)\n      swap1\n      dup2\n      add\n      0x40\n      mstore\n      dup1\n      swap3\n      swap2\n      swap1\n      dup2\n      dup2\n      mstore\n      0x20\n      add\n      0x00\n      swap1\n    tag_254:\n      dup3\n      dup3\n      lt\n      iszero\n      tag_255\n      jumpi\n      dup4\n      dup3\n      swap1\n      0x00\n      mstore\n      keccak256(0x00, 0x20)\n      swap1\n      0x03\n      mul\n      add\n      mload(0x40)\n      dup1\n      0x60\n      add\n      0x40\n      mstore\n      swap1\n      dup2\n      0x00\n      dup3\n      add\n      dup1\n      sload\n      tag_257\n      swap1\n      tag_118\n      jump\t// in\n    tag_257:\n      dup1\n      0x1f\n      add\n      0x20\n      dup1\n      swap2\n      div\n      mul\n      0x20\n      add\n      mload(0x40)\n      swap1\n      dup2\n      add\n      0x40\n      mstore\n      dup1\n      swap3\n      swap2\n      swap1\n      dup2\n      dup2\n      mstore\n      0x20\n      add\n      dup3\n      dup1\n      sload\n      tag_258\n      swap1\n      tag_118\n      jump\t// in\n    tag_258:\n      dup1\n      iszero\n      tag_259\n      jumpi\n      dup1\n      0x1f\n      lt\n      tag_260\n      jumpi\n      0x0100\n      dup1\n      dup4\n      sload\n      div\n      mul\n      dup4\n      mstore\n      swap2\n      0x20\n      add\n      swap2\n      jump(tag_259)\n    tag_260:\n      dup3\n      add\n      swap2\n      swap1\n      0x00\n      mstore\n      keccak256(0x00, 0x20)\n      swap1\n    tag_261:\n      dup2\n      sload\n      dup2\n      mstore\n      swap1\n      0x01\n      add\n      swap1\n      0x20\n      add\n      dup1\n      dup4\n      gt\n      tag_261\n      jumpi\n      dup3\n      swap1\n      sub\n      0x1f\n      and\n      dup3\n      add\n      swap2\n    tag_259:\n      pop\n      pop\n      pop\n      pop\n      pop\n      dup2\n      mstore\n      0x20\n      add\n      0x01\n      dup3\n      add\n      sload\n      dup2\n      mstore\n      0x20\n      add\n      0x02\n      dup3\n      add\n      sload\n      dup2\n      mstore\n      pop\n      pop\n      dup2\n      mstore\n      0x20\n      add\n      swap1\n      0x01\n      add\n      swap1\n      jump(tag_254)\n    tag_255:\n      pop\n      pop\n      pop\n      pop\n      swap1\n      pop\n        /* \"contracts/crowdFunding.sol\":3606:3692  function getTiers() public view returns (tier[] memory){... */\n      swap1\n      jump\t// out\n        /* \"contracts/crowdFunding.sol\":164:190  uint256 public goal_amount */\n    tag_104:\n      sload(0x02)\n      dup2\n      jump\t// out\n        /* \"contracts/crowdFunding.sol\":197:229  uint256 public campaign_deadline */\n    tag_108:\n      sload(0x03)\n      dup2\n      jump\t// out\n        /* \"contracts/crowdFunding.sol\":236:265  address public campaign_owner */\n    tag_112:\n      0x04\n      0x00\n      swap1\n      sload\n      swap1\n      0x0100\n      exp\n      swap1\n      div\n      0xffffffffffffffffffffffffffffffffffffffff\n      and\n      dup2\n      jump\t// out\n        /* \"contracts/crowdFunding.sol\":2639:3049  function checkAndUpdateCampaignState() internal{... */\n    tag_152:\n        /* \"contracts/crowdFunding.sol\":2707:2727  campaignState.Active */\n      0x00\n        /* \"contracts/crowdFunding.sol\":2700:2727  state==campaignState.Active */\n      0x02\n      dup2\n      gt\n      iszero\n      tag_263\n      jumpi\n      tag_264\n      tag_131\n      jump\t// in\n    tag_264:\n    tag_263:\n        /* \"contracts/crowdFunding.sol\":2700:2705  state */\n      0x04\n      0x15\n      swap1\n      sload\n      swap1\n      0x0100\n      exp\n      swap1\n      div\n      0xff\n      and\n        /* \"contracts/crowdFunding.sol\":2700:2727  state==campaignState.Active */\n      0x02\n      dup2\n      gt\n      iszero\n      tag_265\n      jumpi\n      tag_266\n      tag_131\n      jump\t// in\n    tag_266:\n    tag_265:\n      sub\n        /* \"contracts/crowdFunding.sol\":2697:3042  if(state==campaignState.Active){... */\n      tag_267\n      jumpi\n        /* \"contracts/crowdFunding.sol\":2763:2780  campaign_deadline */\n      sload(0x03)\n        /* \"contracts/crowdFunding.sol\":2746:2761  block.timestamp */\n      timestamp\n        /* \"contracts/crowdFunding.sol\":2746:2780  block.timestamp>=campaign_deadline */\n      lt\n        /* \"contracts/crowdFunding.sol\":2743:3031  if(block.timestamp>=campaign_deadline){... */\n      tag_268\n      jumpi\n        /* \"contracts/crowdFunding.sol\":2829:2840  goal_amount */\n      sload(0x02)\n        /* \"contracts/crowdFunding.sol\":2806:2827  address(this).balance */\n      selfbalance\n        /* \"contracts/crowdFunding.sol\":2806:2840  address(this).balance>=goal_amount */\n      lt\n      iszero\n        /* \"contracts/crowdFunding.sol\":2806:2888  address(this).balance>=goal_amount? campaignState.Successful: campaignState.Failed */\n      tag_269\n      jumpi\n        /* \"contracts/crowdFunding.sol\":2868:2888  campaignState.Failed */\n      0x02\n        /* \"contracts/crowdFunding.sol\":2806:2888  address(this).balance>=goal_amount? campaignState.Successful: campaignState.Failed */\n      jump(tag_270)\n    tag_269:\n        /* \"contracts/crowdFunding.sol\":2842:2866  campaignState.Successful */\n      0x01\n        /* \"contracts/crowdFunding.sol\":2806:2888  address(this).balance>=goal_amount? campaignState.Successful: campaignState.Failed */\n    tag_270:\n        /* \"contracts/crowdFunding.sol\":2800:2805  state */\n      0x04\n      0x15\n        /* \"contracts/crowdFunding.sol\":2800:2888  state=address(this).balance>=goal_amount? campaignState.Successful: campaignState.Failed */\n      0x0100\n      exp\n      dup2\n      sload\n      dup2\n      0xff\n      mul\n      not\n      and\n      swap1\n      dup4\n      0x02\n      dup2\n      gt\n      iszero\n      tag_271\n      jumpi\n      tag_272\n      tag_131\n      jump\t// in\n    tag_272:\n    tag_271:\n      mul\n      or\n      swap1\n      sstore\n      pop\n        /* \"contracts/crowdFunding.sol\":2743:3031  if(block.timestamp>=campaign_deadline){... */\n      jump(tag_273)\n    tag_268:\n        /* \"contracts/crowdFunding.sol\":2956:2967  goal_amount */\n      sload(0x02)\n        /* \"contracts/crowdFunding.sol\":2933:2954  address(this).balance */\n      selfbalance\n        /* \"contracts/crowdFunding.sol\":2933:2967  address(this).balance>=goal_amount */\n      lt\n      iszero\n        /* \"contracts/crowdFunding.sol\":2933:3015  address(this).balance>=goal_amount? campaignState.Successful: campaignState.Active */\n      tag_274\n      jumpi\n        /* \"contracts/crowdFunding.sol\":2995:3015  campaignState.Active */\n      0x00\n        /* \"contracts/crowdFunding.sol\":2933:3015  address(this).balance>=goal_amount? campaignState.Successful: campaignState.Active */\n      jump(tag_275)\n    tag_274:\n        /* \"contracts/crowdFunding.sol\":2969:2993  campaignState.Successful */\n      0x01\n        /* \"contracts/crowdFunding.sol\":2933:3015  address(this).balance>=goal_amount? campaignState.Successful: campaignState.Active */\n    tag_275:\n        /* \"contracts/crowdFunding.sol\":2927:2932  state */\n      0x04\n      0x15\n        /* \"contracts/crowdFunding.sol\":2927:3015  state=address(this).balance>=goal_amount? campaignState.Successful: campaignState.Active */\n      0x0100\n      exp\n      dup2\n      sload\n      dup2\n      0xff\n      mul\n      not\n      and\n      swap1\n      dup4\n      0x02\n      dup2\n      gt\n      iszero\n      tag_276\n      jumpi\n      tag_277\n      tag_131\n      jump\t// in\n    tag_277:\n    tag_276:\n      mul\n      or\n      swap1\n      sstore\n      pop\n        /* \"contracts/crowdFunding.sol\":2743:3031  if(block.timestamp>=campaign_deadline){... */\n    tag_273:\n        /* \"contracts/crowdFunding.sol\":2697:3042  if(state==campaignState.Active){... */\n    tag_267:\n        /* \"contracts/crowdFunding.sol\":2639:3049  function checkAndUpdateCampaignState() internal{... */\n      jump\t// out\n    tag_208:\n      pop\n      dup1\n      sload\n      tag_278\n      swap1\n      tag_118\n      jump\t// in\n    tag_278:\n      0x00\n      dup3\n      sstore\n      dup1\n      0x1f\n      lt\n      tag_280\n      jumpi\n      pop\n      jump(tag_279)\n    tag_280:\n      0x1f\n      add\n      0x20\n      swap1\n      div\n      swap1\n      0x00\n      mstore\n      keccak256(0x00, 0x20)\n      swap1\n      dup2\n      add\n      swap1\n      tag_281\n      swap2\n      swap1\n      tag_282\n      jump\t// in\n    tag_281:\n    tag_279:\n      pop\n      jump\t// out\n    tag_282:\n    tag_283:\n      dup1\n      dup3\n      gt\n      iszero\n      tag_284\n      jumpi\n      0x00\n      dup2\n      0x00\n      swap1\n      sstore\n      pop\n      0x01\n      add\n      jump(tag_283)\n    tag_284:\n      pop\n      swap1\n      jump\t// out\n        /* \"#utility.yul\":7:82   */\n    tag_285:\n        /* \"#utility.yul\":40:46   */\n      0x00\n        /* \"#utility.yul\":73:75   */\n      0x40\n        /* \"#utility.yul\":67:76   */\n      mload\n        /* \"#utility.yul\":57:76   */\n      swap1\n      pop\n        /* \"#utility.yul\":7:82   */\n      swap1\n      jump\t// out\n        /* \"#utility.yul\":88:205   */\n    tag_286:\n        /* \"#utility.yul\":197:198   */\n      0x00\n        /* \"#utility.yul\":194:195   */\n      dup1\n        /* \"#utility.yul\":187:199   */\n      revert\n        /* \"#utility.yul\":211:328   */\n    tag_287:\n        /* \"#utility.yul\":320:321   */\n      0x00\n        /* \"#utility.yul\":317:318   */\n      dup1\n        /* \"#utility.yul\":310:322   */\n      revert\n        /* \"#utility.yul\":334:411   */\n    tag_288:\n        /* \"#utility.yul\":371:378   */\n      0x00\n        /* \"#utility.yul\":400:405   */\n      dup2\n        /* \"#utility.yul\":389:405   */\n      swap1\n      pop\n        /* \"#utility.yul\":334:411   */\n      swap2\n      swap1\n      pop\n      jump\t// out\n        /* \"#utility.yul\":417:539   */\n    tag_289:\n        /* \"#utility.yul\":490:514   */\n      tag_373\n        /* \"#utility.yul\":508:513   */\n      dup2\n        /* \"#utility.yul\":490:514   */\n      tag_288\n      jump\t// in\n    tag_373:\n        /* \"#utility.yul\":483:488   */\n      dup2\n        /* \"#utility.yul\":480:515   */\n      eq\n        /* \"#utility.yul\":470:533   */\n      tag_374\n      jumpi\n        /* \"#utility.yul\":529:530   */\n      0x00\n        /* \"#utility.yul\":526:527   */\n      dup1\n        /* \"#utility.yul\":519:531   */\n      revert\n        /* \"#utility.yul\":470:533   */\n    tag_374:\n        /* \"#utility.yul\":417:539   */\n      pop\n      jump\t// out\n        /* \"#utility.yul\":545:684   */\n    tag_290:\n        /* \"#utility.yul\":591:596   */\n      0x00\n        /* \"#utility.yul\":629:635   */\n      dup2\n        /* \"#utility.yul\":616:636   */\n      calldataload\n        /* \"#utility.yul\":607:636   */\n      swap1\n      pop\n        /* \"#utility.yul\":645:678   */\n      tag_376\n        /* \"#utility.yul\":672:677   */\n      dup2\n        /* \"#utility.yul\":645:678   */\n      tag_289\n      jump\t// in\n    tag_376:\n        /* \"#utility.yul\":545:684   */\n      swap3\n      swap2\n      pop\n      pop\n      jump\t// out\n        /* \"#utility.yul\":690:1019   */\n    tag_28:\n        /* \"#utility.yul\":749:755   */\n      0x00\n        /* \"#utility.yul\":798:800   */\n      0x20\n        /* \"#utility.yul\":786:795   */\n      dup3\n        /* \"#utility.yul\":777:784   */\n      dup5\n        /* \"#utility.yul\":773:796   */\n      sub\n        /* \"#utility.yul\":769:801   */\n      slt\n        /* \"#utility.yul\":766:885   */\n      iszero\n      tag_378\n      jumpi\n        /* \"#utility.yul\":804:883   */\n      tag_379\n      tag_286\n      jump\t// in\n    tag_379:\n        /* \"#utility.yul\":766:885   */\n    tag_378:\n        /* \"#utility.yul\":924:925   */\n      0x00\n        /* \"#utility.yul\":949:1002   */\n      tag_380\n        /* \"#utility.yul\":994:1001   */\n      dup5\n        /* \"#utility.yul\":985:991   */\n      dup3\n        /* \"#utility.yul\":974:983   */\n      dup6\n        /* \"#utility.yul\":970:992   */\n      add\n        /* \"#utility.yul\":949:1002   */\n      tag_290\n      jump\t// in\n    tag_380:\n        /* \"#utility.yul\":939:1002   */\n      swap2\n      pop\n        /* \"#utility.yul\":895:1012   */\n      pop\n        /* \"#utility.yul\":690:1019   */\n      swap3\n      swap2\n      pop\n      pop\n      jump\t// out\n        /* \"#utility.yul\":1025:1124   */\n    tag_291:\n        /* \"#utility.yul\":1077:1083   */\n      0x00\n        /* \"#utility.yul\":1111:1116   */\n      dup2\n        /* \"#utility.yul\":1105:1117   */\n      mload\n        /* \"#utility.yul\":1095:1117   */\n      swap1\n      pop\n        /* \"#utility.yul\":1025:1124   */\n      swap2\n      swap1\n      pop\n      jump\t// out\n        /* \"#utility.yul\":1130:1299   */\n    tag_292:\n        /* \"#utility.yul\":1214:1225   */\n      0x00\n        /* \"#utility.yul\":1248:1254   */\n      dup3\n        /* \"#utility.yul\":1243:1246   */\n      dup3\n        /* \"#utility.yul\":1236:1255   */\n      mstore\n        /* \"#utility.yul\":1288:1292   */\n      0x20\n        /* \"#utility.yul\":1283:1286   */\n      dup3\n        /* \"#utility.yul\":1279:1293   */\n      add\n        /* \"#utility.yul\":1264:1293   */\n      swap1\n      pop\n        /* \"#utility.yul\":1130:1299   */\n      swap3\n      swap2\n      pop\n      pop\n      jump\t// out\n        /* \"#utility.yul\":1305:1444   */\n    tag_293:\n        /* \"#utility.yul\":1394:1400   */\n      dup3\n        /* \"#utility.yul\":1389:1392   */\n      dup2\n        /* \"#utility.yul\":1384:1387   */\n      dup4\n        /* \"#utility.yul\":1378:1401   */\n      mcopy\n        /* \"#utility.yul\":1435:1436   */\n      0x00\n        /* \"#utility.yul\":1426:1432   */\n      dup4\n        /* \"#utility.yul\":1421:1424   */\n      dup4\n        /* \"#utility.yul\":1417:1433   */\n      add\n        /* \"#utility.yul\":1410:1437   */\n      mstore\n        /* \"#utility.yul\":1305:1444   */\n      pop\n      pop\n      pop\n      jump\t// out\n        /* \"#utility.yul\":1450:1552   */\n    tag_294:\n        /* \"#utility.yul\":1491:1497   */\n      0x00\n        /* \"#utility.yul\":1542:1544   */\n      0x1f\n        /* \"#utility.yul\":1538:1545   */\n      not\n        /* \"#utility.yul\":1533:1535   */\n      0x1f\n        /* \"#utility.yul\":1526:1531   */\n      dup4\n        /* \"#utility.yul\":1522:1536   */\n      add\n        /* \"#utility.yul\":1518:1546   */\n      and\n        /* \"#utility.yul\":1508:1546   */\n      swap1\n      pop\n        /* \"#utility.yul\":1450:1552   */\n      swap2\n      swap1\n      pop\n      jump\t// out\n        /* \"#utility.yul\":1558:1935   */\n    tag_295:\n        /* \"#utility.yul\":1646:1649   */\n      0x00\n        /* \"#utility.yul\":1674:1713   */\n      tag_386\n        /* \"#utility.yul\":1707:1712   */\n      dup3\n        /* \"#utility.yul\":1674:1713   */\n      tag_291\n      jump\t// in\n    tag_386:\n        /* \"#utility.yul\":1729:1800   */\n      tag_387\n        /* \"#utility.yul\":1793:1799   */\n      dup2\n        /* \"#utility.yul\":1788:1791   */\n      dup6\n        /* \"#utility.yul\":1729:1800   */\n      tag_292\n      jump\t// in\n    tag_387:\n        /* \"#utility.yul\":1722:1800   */\n      swap4\n      pop\n        /* \"#utility.yul\":1809:1874   */\n      tag_388\n        /* \"#utility.yul\":1867:1873   */\n      dup2\n        /* \"#utility.yul\":1862:1865   */\n      dup6\n        /* \"#utility.yul\":1855:1859   */\n      0x20\n        /* \"#utility.yul\":1848:1853   */\n      dup7\n        /* \"#utility.yul\":1844:1860   */\n      add\n        /* \"#utility.yul\":1809:1874   */\n      tag_293\n      jump\t// in\n    tag_388:\n        /* \"#utility.yul\":1899:1928   */\n      tag_389\n        /* \"#utility.yul\":1921:1927   */\n      dup2\n        /* \"#utility.yul\":1899:1928   */\n      tag_294\n      jump\t// in\n    tag_389:\n        /* \"#utility.yul\":1894:1897   */\n      dup5\n        /* \"#utility.yul\":1890:1929   */\n      add\n        /* \"#utility.yul\":1883:1929   */\n      swap2\n      pop\n        /* \"#utility.yul\":1650:1935   */\n      pop\n        /* \"#utility.yul\":1558:1935   */\n      swap3\n      swap2\n      pop\n      pop\n      jump\t// out\n        /* \"#utility.yul\":1941:2059   */\n    tag_296:\n        /* \"#utility.yul\":2028:2052   */\n      tag_391\n        /* \"#utility.yul\":2046:2051   */\n      dup2\n        /* \"#utility.yul\":2028:2052   */\n      tag_288\n      jump\t// in\n    tag_391:\n        /* \"#utility.yul\":2023:2026   */\n      dup3\n        /* \"#utility.yul\":2016:2053   */\n      mstore\n        /* \"#utility.yul\":1941:2059   */\n      pop\n      pop\n      jump\t// out\n        /* \"#utility.yul\":2065:2598   */\n    tag_31:\n        /* \"#utility.yul\":2234:2238   */\n      0x00\n        /* \"#utility.yul\":2272:2274   */\n      0x60\n        /* \"#utility.yul\":2261:2270   */\n      dup3\n        /* \"#utility.yul\":2257:2275   */\n      add\n        /* \"#utility.yul\":2249:2275   */\n      swap1\n      pop\n        /* \"#utility.yul\":2321:2330   */\n      dup2\n        /* \"#utility.yul\":2315:2319   */\n      dup2\n        /* \"#utility.yul\":2311:2331   */\n      sub\n        /* \"#utility.yul\":2307:2308   */\n      0x00\n        /* \"#utility.yul\":2296:2305   */\n      dup4\n        /* \"#utility.yul\":2292:2309   */\n      add\n        /* \"#utility.yul\":2285:2332   */\n      mstore\n        /* \"#utility.yul\":2349:2427   */\n      tag_393\n        /* \"#utility.yul\":2422:2426   */\n      dup2\n        /* \"#utility.yul\":2413:2419   */\n      dup7\n        /* \"#utility.yul\":2349:2427   */\n      tag_295\n      jump\t// in\n    tag_393:\n        /* \"#utility.yul\":2341:2427   */\n      swap1\n      pop\n        /* \"#utility.yul\":2437:2509   */\n      tag_394\n        /* \"#utility.yul\":2505:2507   */\n      0x20\n        /* \"#utility.yul\":2494:2503   */\n      dup4\n        /* \"#utility.yul\":2490:2508   */\n      add\n        /* \"#utility.yul\":2481:2487   */\n      dup6\n        /* \"#utility.yul\":2437:2509   */\n      tag_296\n      jump\t// in\n    tag_394:\n        /* \"#utility.yul\":2519:2591   */\n      tag_395\n        /* \"#utility.yul\":2587:2589   */\n      0x40\n        /* \"#utility.yul\":2576:2585   */\n      dup4\n        /* \"#utility.yul\":2572:2590   */\n      add\n        /* \"#utility.yul\":2563:2569   */\n      dup5\n        /* \"#utility.yul\":2519:2591   */\n      tag_296\n      jump\t// in\n    tag_395:\n        /* \"#utility.yul\":2065:2598   */\n      swap5\n      swap4\n      pop\n      pop\n      pop\n      pop\n      jump\t// out\n        /* \"#utility.yul\":2604:2917   */\n    tag_36:\n        /* \"#utility.yul\":2717:2721   */\n      0x00\n        /* \"#utility.yul\":2755:2757   */\n      0x20\n        /* \"#utility.yul\":2744:2753   */\n      dup3\n        /* \"#utility.yul\":2740:2758   */\n      add\n        /* \"#utility.yul\":2732:2758   */\n      swap1\n      pop\n        /* \"#utility.yul\":2804:2813   */\n      dup2\n        /* \"#utility.yul\":2798:2802   */\n      dup2\n        /* \"#utility.yul\":2794:2814   */\n      sub\n        /* \"#utility.yul\":2790:2791   */\n      0x00\n        /* \"#utility.yul\":2779:2788   */\n      dup4\n        /* \"#utility.yul\":2775:2792   */\n      add\n        /* \"#utility.yul\":2768:2815   */\n      mstore\n        /* \"#utility.yul\":2832:2910   */\n      tag_397\n        /* \"#utility.yul\":2905:2909   */\n      dup2\n        /* \"#utility.yul\":2896:2902   */\n      dup5\n        /* \"#utility.yul\":2832:2910   */\n      tag_295\n      jump\t// in\n    tag_397:\n        /* \"#utility.yul\":2824:2910   */\n      swap1\n      pop\n        /* \"#utility.yul\":2604:2917   */\n      swap3\n      swap2\n      pop\n      pop\n      jump\t// out\n        /* \"#utility.yul\":2923:3103   */\n    tag_131:\n        /* \"#utility.yul\":2971:3048   */\n      0x4e487b7100000000000000000000000000000000000000000000000000000000\n        /* \"#utility.yul\":2968:2969   */\n      0x00\n        /* \"#utility.yul\":2961:3049   */\n      mstore\n        /* \"#utility.yul\":3068:3072   */\n      0x21\n        /* \"#utility.yul\":3065:3066   */\n      0x04\n        /* \"#utility.yul\":3058:3073   */\n      mstore\n        /* \"#utility.yul\":3092:3096   */\n      0x24\n        /* \"#utility.yul\":3089:3090   */\n      0x00\n        /* \"#utility.yul\":3082:3097   */\n      revert\n        /* \"#utility.yul\":3109:3230   */\n    tag_297:\n        /* \"#utility.yul\":3198:3199   */\n      0x03\n        /* \"#utility.yul\":3191:3196   */\n      dup2\n        /* \"#utility.yul\":3188:3200   */\n      lt\n        /* \"#utility.yul\":3178:3224   */\n      tag_400\n      jumpi\n        /* \"#utility.yul\":3204:3222   */\n      tag_401\n      tag_131\n      jump\t// in\n    tag_401:\n        /* \"#utility.yul\":3178:3224   */\n    tag_400:\n        /* \"#utility.yul\":3109:3230   */\n      pop\n      jump\t// out\n        /* \"#utility.yul\":3236:3379   */\n    tag_298:\n        /* \"#utility.yul\":3289:3296   */\n      0x00\n        /* \"#utility.yul\":3318:3323   */\n      dup2\n        /* \"#utility.yul\":3307:3323   */\n      swap1\n      pop\n        /* \"#utility.yul\":3324:3373   */\n      tag_403\n        /* \"#utility.yul\":3367:3372   */\n      dup3\n        /* \"#utility.yul\":3324:3373   */\n      tag_297\n      jump\t// in\n    tag_403:\n        /* \"#utility.yul\":3236:3379   */\n      swap2\n      swap1\n      pop\n      jump\t// out\n        /* \"#utility.yul\":3385:3528   */\n    tag_299:\n        /* \"#utility.yul\":3449:3458   */\n      0x00\n        /* \"#utility.yul\":3482:3522   */\n      tag_405\n        /* \"#utility.yul\":3516:3521   */\n      dup3\n        /* \"#utility.yul\":3482:3522   */\n      tag_298\n      jump\t// in\n    tag_405:\n        /* \"#utility.yul\":3469:3522   */\n      swap1\n      pop\n        /* \"#utility.yul\":3385:3528   */\n      swap2\n      swap1\n      pop\n      jump\t// out\n        /* \"#utility.yul\":3534:3693   */\n    tag_300:\n        /* \"#utility.yul\":3635:3686   */\n      tag_407\n        /* \"#utility.yul\":3680:3685   */\n      dup2\n        /* \"#utility.yul\":3635:3686   */\n      tag_299\n      jump\t// in\n    tag_407:\n        /* \"#utility.yul\":3630:3633   */\n      dup3\n        /* \"#utility.yul\":3623:3687   */\n      mstore\n        /* \"#utility.yul\":3534:3693   */\n      pop\n      pop\n      jump\t// out\n        /* \"#utility.yul\":3699:3949   */\n    tag_41:\n        /* \"#utility.yul\":3806:3810   */\n      0x00\n        /* \"#utility.yul\":3844:3846   */\n      0x20\n        /* \"#utility.yul\":3833:3842   */\n      dup3\n        /* \"#utility.yul\":3829:3847   */\n      add\n        /* \"#utility.yul\":3821:3847   */\n      swap1\n      pop\n        /* \"#utility.yul\":3857:3942   */\n      tag_409\n        /* \"#utility.yul\":3939:3940   */\n      0x00\n        /* \"#utility.yul\":3928:3937   */\n      dup4\n        /* \"#utility.yul\":3924:3941   */\n      add\n        /* \"#utility.yul\":3915:3921   */\n      dup5\n        /* \"#utility.yul\":3857:3942   */\n      tag_300\n      jump\t// in\n    tag_409:\n        /* \"#utility.yul\":3699:3949   */\n      swap3\n      swap2\n      pop\n      pop\n      jump\t// out\n        /* \"#utility.yul\":3955:4177   */\n    tag_60:\n        /* \"#utility.yul\":4048:4052   */\n      0x00\n        /* \"#utility.yul\":4086:4088   */\n      0x20\n        /* \"#utility.yul\":4075:4084   */\n      dup3\n        /* \"#utility.yul\":4071:4089   */\n      add\n        /* \"#utility.yul\":4063:4089   */\n      swap1\n      pop\n        /* \"#utility.yul\":4099:4170   */\n      tag_411\n        /* \"#utility.yul\":4167:4168   */\n      0x00\n        /* \"#utility.yul\":4156:4165   */\n      dup4\n        /* \"#utility.yul\":4152:4169   */\n      add\n        /* \"#utility.yul\":4143:4149   */\n      dup5\n        /* \"#utility.yul\":4099:4170   */\n      tag_296\n      jump\t// in\n    tag_411:\n        /* \"#utility.yul\":3955:4177   */\n      swap3\n      swap2\n      pop\n      pop\n      jump\t// out\n        /* \"#utility.yul\":4183:4309   */\n    tag_301:\n        /* \"#utility.yul\":4220:4227   */\n      0x00\n        /* \"#utility.yul\":4260:4302   */\n      0xffffffffffffffffffffffffffffffffffffffff\n        /* \"#utility.yul\":4253:4258   */\n      dup3\n        /* \"#utility.yul\":4249:4303   */\n      and\n        /* \"#utility.yul\":4238:4303   */\n      swap1\n      pop\n        /* \"#utility.yul\":4183:4309   */\n      swap2\n      swap1\n      pop\n      jump\t// out\n        /* \"#utility.yul\":4315:4411   */\n    tag_302:\n        /* \"#utility.yul\":4352:4359   */\n      0x00\n        /* \"#utility.yul\":4381:4405   */\n      tag_414\n        /* \"#utility.yul\":4399:4404   */\n      dup3\n        /* \"#utility.yul\":4381:4405   */\n      tag_301\n      jump\t// in\n    tag_414:\n        /* \"#utility.yul\":4370:4405   */\n      swap1\n      pop\n        /* \"#utility.yul\":4315:4411   */\n      swap2\n      swap1\n      pop\n      jump\t// out\n        /* \"#utility.yul\":4417:4539   */\n    tag_303:\n        /* \"#utility.yul\":4490:4514   */\n      tag_416\n        /* \"#utility.yul\":4508:4513   */\n      dup2\n        /* \"#utility.yul\":4490:4514   */\n      tag_302\n      jump\t// in\n    tag_416:\n        /* \"#utility.yul\":4483:4488   */\n      dup2\n        /* \"#utility.yul\":4480:4515   */\n      eq\n        /* \"#utility.yul\":4470:4533   */\n      tag_417\n      jumpi\n        /* \"#utility.yul\":4529:4530   */\n      0x00\n        /* \"#utility.yul\":4526:4527   */\n      dup1\n        /* \"#utility.yul\":4519:4531   */\n      revert\n        /* \"#utility.yul\":4470:4533   */\n    tag_417:\n        /* \"#utility.yul\":4417:4539   */\n      pop\n      jump\t// out\n        /* \"#utility.yul\":4545:4684   */\n    tag_304:\n        /* \"#utility.yul\":4591:4596   */\n      0x00\n        /* \"#utility.yul\":4629:4635   */\n      dup2\n        /* \"#utility.yul\":4616:4636   */\n      calldataload\n        /* \"#utility.yul\":4607:4636   */\n      swap1\n      pop\n        /* \"#utility.yul\":4645:4678   */\n      tag_419\n        /* \"#utility.yul\":4672:4677   */\n      dup2\n        /* \"#utility.yul\":4645:4678   */\n      tag_303\n      jump\t// in\n    tag_419:\n        /* \"#utility.yul\":4545:4684   */\n      swap3\n      swap2\n      pop\n      pop\n      jump\t// out\n        /* \"#utility.yul\":4690:5164   */\n    tag_68:\n        /* \"#utility.yul\":4758:4764   */\n      0x00\n        /* \"#utility.yul\":4766:4772   */\n      dup1\n        /* \"#utility.yul\":4815:4817   */\n      0x40\n        /* \"#utility.yul\":4803:4812   */\n      dup4\n        /* \"#utility.yul\":4794:4801   */\n      dup6\n        /* \"#utility.yul\":4790:4813   */\n      sub\n        /* \"#utility.yul\":4786:4818   */\n      slt\n        /* \"#utility.yul\":4783:4902   */\n      iszero\n      tag_421\n      jumpi\n        /* \"#utility.yul\":4821:4900   */\n      tag_422\n      tag_286\n      jump\t// in\n    tag_422:\n        /* \"#utility.yul\":4783:4902   */\n    tag_421:\n        /* \"#utility.yul\":4941:4942   */\n      0x00\n        /* \"#utility.yul\":4966:5019   */\n      tag_423\n        /* \"#utility.yul\":5011:5018   */\n      dup6\n        /* \"#utility.yul\":5002:5008   */\n      dup3\n        /* \"#utility.yul\":4991:5000   */\n      dup7\n        /* \"#utility.yul\":4987:5009   */\n      add\n        /* \"#utility.yul\":4966:5019   */\n      tag_304\n      jump\t// in\n    tag_423:\n        /* \"#utility.yul\":4956:5019   */\n      swap3\n      pop\n        /* \"#utility.yul\":4912:5029   */\n      pop\n        /* \"#utility.yul\":5068:5070   */\n      0x20\n        /* \"#utility.yul\":5094:5147   */\n      tag_424\n        /* \"#utility.yul\":5139:5146   */\n      dup6\n        /* \"#utility.yul\":5130:5136   */\n      dup3\n        /* \"#utility.yul\":5119:5128   */\n      dup7\n        /* \"#utility.yul\":5115:5137   */\n      add\n        /* \"#utility.yul\":5094:5147   */\n      tag_290\n      jump\t// in\n    tag_424:\n        /* \"#utility.yul\":5084:5147   */\n      swap2\n      pop\n        /* \"#utility.yul\":5039:5157   */\n      pop\n        /* \"#utility.yul\":4690:5164   */\n      swap3\n      pop\n      swap3\n      swap1\n      pop\n      jump\t// out\n        /* \"#utility.yul\":5170:5260   */\n    tag_305:\n        /* \"#utility.yul\":5204:5211   */\n      0x00\n        /* \"#utility.yul\":5247:5252   */\n      dup2\n        /* \"#utility.yul\":5240:5253   */\n      iszero\n        /* \"#utility.yul\":5233:5254   */\n      iszero\n        /* \"#utility.yul\":5222:5254   */\n      swap1\n      pop\n        /* \"#utility.yul\":5170:5260   */\n      swap2\n      swap1\n      pop\n      jump\t// out\n        /* \"#utility.yul\":5266:5375   */\n    tag_306:\n        /* \"#utility.yul\":5347:5368   */\n      tag_427\n        /* \"#utility.yul\":5362:5367   */\n      dup2\n        /* \"#utility.yul\":5347:5368   */\n      tag_305\n      jump\t// in\n    tag_427:\n        /* \"#utility.yul\":5342:5345   */\n      dup3\n        /* \"#utility.yul\":5335:5369   */\n      mstore\n        /* \"#utility.yul\":5266:5375   */\n      pop\n      pop\n      jump\t// out\n        /* \"#utility.yul\":5381:5591   */\n    tag_71:\n        /* \"#utility.yul\":5468:5472   */\n      0x00\n        /* \"#utility.yul\":5506:5508   */\n      0x20\n        /* \"#utility.yul\":5495:5504   */\n      dup3\n        /* \"#utility.yul\":5491:5509   */\n      add\n        /* \"#utility.yul\":5483:5509   */\n      swap1\n      pop\n        /* \"#utility.yul\":5519:5584   */\n      tag_429\n        /* \"#utility.yul\":5581:5582   */\n      0x00\n        /* \"#utility.yul\":5570:5579   */\n      dup4\n        /* \"#utility.yul\":5566:5583   */\n      add\n        /* \"#utility.yul\":5557:5563   */\n      dup5\n        /* \"#utility.yul\":5519:5584   */\n      tag_306\n      jump\t// in\n    tag_429:\n        /* \"#utility.yul\":5381:5591   */\n      swap3\n      swap2\n      pop\n      pop\n      jump\t// out\n        /* \"#utility.yul\":5597:5714   */\n    tag_307:\n        /* \"#utility.yul\":5706:5707   */\n      0x00\n        /* \"#utility.yul\":5703:5704   */\n      dup1\n        /* \"#utility.yul\":5696:5708   */\n      revert\n        /* \"#utility.yul\":5720:5837   */\n    tag_308:\n        /* \"#utility.yul\":5829:5830   */\n      0x00\n        /* \"#utility.yul\":5826:5827   */\n      dup1\n        /* \"#utility.yul\":5819:5831   */\n      revert\n        /* \"#utility.yul\":5843:6023   */\n    tag_309:\n        /* \"#utility.yul\":5891:5968   */\n      0x4e487b7100000000000000000000000000000000000000000000000000000000\n        /* \"#utility.yul\":5888:5889   */\n      0x00\n        /* \"#utility.yul\":5881:5969   */\n      mstore\n        /* \"#utility.yul\":5988:5992   */\n      0x41\n        /* \"#utility.yul\":5985:5986   */\n      0x04\n        /* \"#utility.yul\":5978:5993   */\n      mstore\n        /* \"#utility.yul\":6012:6016   */\n      0x24\n        /* \"#utility.yul\":6009:6010   */\n      0x00\n        /* \"#utility.yul\":6002:6017   */\n      revert\n        /* \"#utility.yul\":6029:6310   */\n    tag_310:\n        /* \"#utility.yul\":6112:6139   */\n      tag_434\n        /* \"#utility.yul\":6134:6138   */\n      dup3\n        /* \"#utility.yul\":6112:6139   */\n      tag_294\n      jump\t// in\n    tag_434:\n        /* \"#utility.yul\":6104:6110   */\n      dup2\n        /* \"#utility.yul\":6100:6140   */\n      add\n        /* \"#utility.yul\":6242:6248   */\n      dup2\n        /* \"#utility.yul\":6230:6240   */\n      dup2\n        /* \"#utility.yul\":6227:6249   */\n      lt\n        /* \"#utility.yul\":6206:6224   */\n      0xffffffffffffffff\n        /* \"#utility.yul\":6194:6204   */\n      dup3\n        /* \"#utility.yul\":6191:6225   */\n      gt\n        /* \"#utility.yul\":6188:6250   */\n      or\n        /* \"#utility.yul\":6185:6273   */\n      iszero\n      tag_435\n      jumpi\n        /* \"#utility.yul\":6253:6271   */\n      tag_436\n      tag_309\n      jump\t// in\n    tag_436:\n        /* \"#utility.yul\":6185:6273   */\n    tag_435:\n        /* \"#utility.yul\":6293:6303   */\n      dup1\n        /* \"#utility.yul\":6289:6291   */\n      0x40\n        /* \"#utility.yul\":6282:6304   */\n      mstore\n        /* \"#utility.yul\":6072:6310   */\n      pop\n        /* \"#utility.yul\":6029:6310   */\n      pop\n      pop\n      jump\t// out\n        /* \"#utility.yul\":6316:6445   */\n    tag_311:\n        /* \"#utility.yul\":6350:6356   */\n      0x00\n        /* \"#utility.yul\":6377:6397   */\n      tag_438\n      tag_285\n      jump\t// in\n    tag_438:\n        /* \"#utility.yul\":6367:6397   */\n      swap1\n      pop\n        /* \"#utility.yul\":6406:6439   */\n      tag_439\n        /* \"#utility.yul\":6434:6438   */\n      dup3\n        /* \"#utility.yul\":6426:6432   */\n      dup3\n        /* \"#utility.yul\":6406:6439   */\n      tag_310\n      jump\t// in\n    tag_439:\n        /* \"#utility.yul\":6316:6445   */\n      swap2\n      swap1\n      pop\n      jump\t// out\n        /* \"#utility.yul\":6451:6759   */\n    tag_312:\n        /* \"#utility.yul\":6513:6517   */\n      0x00\n        /* \"#utility.yul\":6603:6621   */\n      0xffffffffffffffff\n        /* \"#utility.yul\":6595:6601   */\n      dup3\n        /* \"#utility.yul\":6592:6622   */\n      gt\n        /* \"#utility.yul\":6589:6645   */\n      iszero\n      tag_441\n      jumpi\n        /* \"#utility.yul\":6625:6643   */\n      tag_442\n      tag_309\n      jump\t// in\n    tag_442:\n        /* \"#utility.yul\":6589:6645   */\n    tag_441:\n        /* \"#utility.yul\":6663:6692   */\n      tag_443\n        /* \"#utility.yul\":6685:6691   */\n      dup3\n        /* \"#utility.yul\":6663:6692   */\n      tag_294\n      jump\t// in\n    tag_443:\n        /* \"#utility.yul\":6655:6692   */\n      swap1\n      pop\n        /* \"#utility.yul\":6747:6751   */\n      0x20\n        /* \"#utility.yul\":6741:6745   */\n      dup2\n        /* \"#utility.yul\":6737:6752   */\n      add\n        /* \"#utility.yul\":6729:6752   */\n      swap1\n      pop\n        /* \"#utility.yul\":6451:6759   */\n      swap2\n      swap1\n      pop\n      jump\t// out\n        /* \"#utility.yul\":6765:6913   */\n    tag_313:\n        /* \"#utility.yul\":6863:6869   */\n      dup3\n        /* \"#utility.yul\":6858:6861   */\n      dup2\n        /* \"#utility.yul\":6853:6856   */\n      dup4\n        /* \"#utility.yul\":6840:6870   */\n      calldatacopy\n        /* \"#utility.yul\":6904:6905   */\n      0x00\n        /* \"#utility.yul\":6895:6901   */\n      dup4\n        /* \"#utility.yul\":6890:6893   */\n      dup4\n        /* \"#utility.yul\":6886:6902   */\n      add\n        /* \"#utility.yul\":6879:6906   */\n      mstore\n        /* \"#utility.yul\":6765:6913   */\n      pop\n      pop\n      pop\n      jump\t// out\n        /* \"#utility.yul\":6919:7344   */\n    tag_314:\n        /* \"#utility.yul\":6997:7002   */\n      0x00\n        /* \"#utility.yul\":7022:7088   */\n      tag_446\n        /* \"#utility.yul\":7038:7087   */\n      tag_447\n        /* \"#utility.yul\":7080:7086   */\n      dup5\n        /* \"#utility.yul\":7038:7087   */\n      tag_312\n      jump\t// in\n    tag_447:\n        /* \"#utility.yul\":7022:7088   */\n      tag_311\n      jump\t// in\n    tag_446:\n        /* \"#utility.yul\":7013:7088   */\n      swap1\n      pop\n        /* \"#utility.yul\":7111:7117   */\n      dup3\n        /* \"#utility.yul\":7104:7109   */\n      dup2\n        /* \"#utility.yul\":7097:7118   */\n      mstore\n        /* \"#utility.yul\":7149:7153   */\n      0x20\n        /* \"#utility.yul\":7142:7147   */\n      dup2\n        /* \"#utility.yul\":7138:7154   */\n      add\n        /* \"#utility.yul\":7187:7190   */\n      dup5\n        /* \"#utility.yul\":7178:7184   */\n      dup5\n        /* \"#utility.yul\":7173:7176   */\n      dup5\n        /* \"#utility.yul\":7169:7185   */\n      add\n        /* \"#utility.yul\":7166:7191   */\n      gt\n        /* \"#utility.yul\":7163:7275   */\n      iszero\n      tag_448\n      jumpi\n        /* \"#utility.yul\":7194:7273   */\n      tag_449\n      tag_308\n      jump\t// in\n    tag_449:\n        /* \"#utility.yul\":7163:7275   */\n    tag_448:\n        /* \"#utility.yul\":7284:7338   */\n      tag_450\n        /* \"#utility.yul\":7331:7337   */\n      dup5\n        /* \"#utility.yul\":7326:7329   */\n      dup3\n        /* \"#utility.yul\":7321:7324   */\n      dup6\n        /* \"#utility.yul\":7284:7338   */\n      tag_313\n      jump\t// in\n    tag_450:\n        /* \"#utility.yul\":7003:7344   */\n      pop\n        /* \"#utility.yul\":6919:7344   */\n      swap4\n      swap3\n      pop\n      pop\n      pop\n      jump\t// out\n        /* \"#utility.yul\":7364:7704   */\n    tag_315:\n        /* \"#utility.yul\":7420:7425   */\n      0x00\n        /* \"#utility.yul\":7469:7472   */\n      dup3\n        /* \"#utility.yul\":7462:7466   */\n      0x1f\n        /* \"#utility.yul\":7454:7460   */\n      dup4\n        /* \"#utility.yul\":7450:7467   */\n      add\n        /* \"#utility.yul\":7446:7473   */\n      slt\n        /* \"#utility.yul\":7436:7558   */\n      tag_452\n      jumpi\n        /* \"#utility.yul\":7477:7556   */\n      tag_453\n      tag_307\n      jump\t// in\n    tag_453:\n        /* \"#utility.yul\":7436:7558   */\n    tag_452:\n        /* \"#utility.yul\":7594:7600   */\n      dup2\n        /* \"#utility.yul\":7581:7601   */\n      calldataload\n        /* \"#utility.yul\":7619:7698   */\n      tag_454\n        /* \"#utility.yul\":7694:7697   */\n      dup5\n        /* \"#utility.yul\":7686:7692   */\n      dup3\n        /* \"#utility.yul\":7679:7683   */\n      0x20\n        /* \"#utility.yul\":7671:7677   */\n      dup7\n        /* \"#utility.yul\":7667:7684   */\n      add\n        /* \"#utility.yul\":7619:7698   */\n      tag_314\n      jump\t// in\n    tag_454:\n        /* \"#utility.yul\":7610:7698   */\n      swap2\n      pop\n        /* \"#utility.yul\":7426:7704   */\n      pop\n        /* \"#utility.yul\":7364:7704   */\n      swap3\n      swap2\n      pop\n      pop\n      jump\t// out\n        /* \"#utility.yul\":7710:8364   */\n    tag_79:\n        /* \"#utility.yul\":7788:7794   */\n      0x00\n        /* \"#utility.yul\":7796:7802   */\n      dup1\n        /* \"#utility.yul\":7845:7847   */\n      0x40\n        /* \"#utility.yul\":7833:7842   */\n      dup4\n        /* \"#utility.yul\":7824:7831   */\n      dup6\n        /* \"#utility.yul\":7820:7843   */\n      sub\n        /* \"#utility.yul\":7816:7848   */\n      slt\n        /* \"#utility.yul\":7813:7932   */\n      iszero\n      tag_456\n      jumpi\n        /* \"#utility.yul\":7851:7930   */\n      tag_457\n      tag_286\n      jump\t// in\n    tag_457:\n        /* \"#utility.yul\":7813:7932   */\n    tag_456:\n        /* \"#utility.yul\":7999:8000   */\n      0x00\n        /* \"#utility.yul\":7988:7997   */\n      dup4\n        /* \"#utility.yul\":7984:8001   */\n      add\n        /* \"#utility.yul\":7971:8002   */\n      calldataload\n        /* \"#utility.yul\":8029:8047   */\n      0xffffffffffffffff\n        /* \"#utility.yul\":8021:8027   */\n      dup2\n        /* \"#utility.yul\":8018:8048   */\n      gt\n        /* \"#utility.yul\":8015:8132   */\n      iszero\n      tag_458\n      jumpi\n        /* \"#utility.yul\":8051:8130   */\n      tag_459\n      tag_287\n      jump\t// in\n    tag_459:\n        /* \"#utility.yul\":8015:8132   */\n    tag_458:\n        /* \"#utility.yul\":8156:8219   */\n      tag_460\n        /* \"#utility.yul\":8211:8218   */\n      dup6\n        /* \"#utility.yul\":8202:8208   */\n      dup3\n        /* \"#utility.yul\":8191:8200   */\n      dup7\n        /* \"#utility.yul\":8187:8209   */\n      add\n        /* \"#utility.yul\":8156:8219   */\n      tag_315\n      jump\t// in\n    tag_460:\n        /* \"#utility.yul\":8146:8219   */\n      swap3\n      pop\n        /* \"#utility.yul\":7942:8229   */\n      pop\n        /* \"#utility.yul\":8268:8270   */\n      0x20\n        /* \"#utility.yul\":8294:8347   */\n      tag_461\n        /* \"#utility.yul\":8339:8346   */\n      dup6\n        /* \"#utility.yul\":8330:8336   */\n      dup3\n        /* \"#utility.yul\":8319:8328   */\n      dup7\n        /* \"#utility.yul\":8315:8337   */\n      add\n        /* \"#utility.yul\":8294:8347   */\n      tag_290\n      jump\t// in\n    tag_461:\n        /* \"#utility.yul\":8284:8347   */\n      swap2\n      pop\n        /* \"#utility.yul\":8239:8357   */\n      pop\n        /* \"#utility.yul\":7710:8364   */\n      swap3\n      pop\n      swap3\n      swap1\n      pop\n      jump\t// out\n        /* \"#utility.yul\":8370:8699   */\n    tag_84:\n        /* \"#utility.yul\":8429:8435   */\n      0x00\n        /* \"#utility.yul\":8478:8480   */\n      0x20\n        /* \"#utility.yul\":8466:8475   */\n      dup3\n        /* \"#utility.yul\":8457:8464   */\n      dup5\n        /* \"#utility.yul\":8453:8476   */\n      sub\n        /* \"#utility.yul\":8449:8481   */\n      slt\n        /* \"#utility.yul\":8446:8565   */\n      iszero\n      tag_463\n      jumpi\n        /* \"#utility.yul\":8484:8563   */\n      tag_464\n      tag_286\n      jump\t// in\n    tag_464:\n        /* \"#utility.yul\":8446:8565   */\n    tag_463:\n        /* \"#utility.yul\":8604:8605   */\n      0x00\n        /* \"#utility.yul\":8629:8682   */\n      tag_465\n        /* \"#utility.yul\":8674:8681   */\n      dup5\n        /* \"#utility.yul\":8665:8671   */\n      dup3\n        /* \"#utility.yul\":8654:8663   */\n      dup6\n        /* \"#utility.yul\":8650:8672   */\n      add\n        /* \"#utility.yul\":8629:8682   */\n      tag_304\n      jump\t// in\n    tag_465:\n        /* \"#utility.yul\":8619:8682   */\n      swap2\n      pop\n        /* \"#utility.yul\":8575:8692   */\n      pop\n        /* \"#utility.yul\":8370:8699   */\n      swap3\n      swap2\n      pop\n      pop\n      jump\t// out\n        /* \"#utility.yul\":8705:8839   */\n    tag_316:\n        /* \"#utility.yul\":8792:8798   */\n      0x00\n        /* \"#utility.yul\":8826:8831   */\n      dup2\n        /* \"#utility.yul\":8820:8832   */\n      mload\n        /* \"#utility.yul\":8810:8832   */\n      swap1\n      pop\n        /* \"#utility.yul\":8705:8839   */\n      swap2\n      swap1\n      pop\n      jump\t// out\n        /* \"#utility.yul\":8845:9049   */\n    tag_317:\n        /* \"#utility.yul\":8964:8975   */\n      0x00\n        /* \"#utility.yul\":8998:9004   */\n      dup3\n        /* \"#utility.yul\":8993:8996   */\n      dup3\n        /* \"#utility.yul\":8986:9005   */\n      mstore\n        /* \"#utility.yul\":9038:9042   */\n      0x20\n        /* \"#utility.yul\":9033:9036   */\n      dup3\n        /* \"#utility.yul\":9029:9043   */\n      add\n        /* \"#utility.yul\":9014:9043   */\n      swap1\n      pop\n        /* \"#utility.yul\":8845:9049   */\n      swap3\n      swap2\n      pop\n      pop\n      jump\t// out\n        /* \"#utility.yul\":9055:9207   */\n    tag_318:\n        /* \"#utility.yul\":9142:9146   */\n      0x00\n        /* \"#utility.yul\":9165:9168   */\n      dup2\n        /* \"#utility.yul\":9157:9168   */\n      swap1\n      pop\n        /* \"#utility.yul\":9195:9199   */\n      0x20\n        /* \"#utility.yul\":9190:9193   */\n      dup3\n        /* \"#utility.yul\":9186:9200   */\n      add\n        /* \"#utility.yul\":9178:9200   */\n      swap1\n      pop\n        /* \"#utility.yul\":9055:9207   */\n      swap2\n      swap1\n      pop\n      jump\t// out\n        /* \"#utility.yul\":9213:9372   */\n    tag_319:\n        /* \"#utility.yul\":9287:9298   */\n      0x00\n        /* \"#utility.yul\":9321:9327   */\n      dup3\n        /* \"#utility.yul\":9316:9319   */\n      dup3\n        /* \"#utility.yul\":9309:9328   */\n      mstore\n        /* \"#utility.yul\":9361:9365   */\n      0x20\n        /* \"#utility.yul\":9356:9359   */\n      dup3\n        /* \"#utility.yul\":9352:9366   */\n      add\n        /* \"#utility.yul\":9337:9366   */\n      swap1\n      pop\n        /* \"#utility.yul\":9213:9372   */\n      swap3\n      swap2\n      pop\n      pop\n      jump\t// out\n        /* \"#utility.yul\":9378:9735   */\n    tag_320:\n        /* \"#utility.yul\":9456:9459   */\n      0x00\n        /* \"#utility.yul\":9484:9523   */\n      tag_471\n        /* \"#utility.yul\":9517:9522   */\n      dup3\n        /* \"#utility.yul\":9484:9523   */\n      tag_291\n      jump\t// in\n    tag_471:\n        /* \"#utility.yul\":9539:9600   */\n      tag_472\n        /* \"#utility.yul\":9593:9599   */\n      dup2\n        /* \"#utility.yul\":9588:9591   */\n      dup6\n        /* \"#utility.yul\":9539:9600   */\n      tag_319\n      jump\t// in\n    tag_472:\n        /* \"#utility.yul\":9532:9600   */\n      swap4\n      pop\n        /* \"#utility.yul\":9609:9674   */\n      tag_473\n        /* \"#utility.yul\":9667:9673   */\n      dup2\n        /* \"#utility.yul\":9662:9665   */\n      dup6\n        /* \"#utility.yul\":9655:9659   */\n      0x20\n        /* \"#utility.yul\":9648:9653   */\n      dup7\n        /* \"#utility.yul\":9644:9660   */\n      add\n        /* \"#utility.yul\":9609:9674   */\n      tag_293\n      jump\t// in\n    tag_473:\n        /* \"#utility.yul\":9699:9728   */\n      tag_474\n        /* \"#utility.yul\":9721:9727   */\n      dup2\n        /* \"#utility.yul\":9699:9728   */\n      tag_294\n      jump\t// in\n    tag_474:\n        /* \"#utility.yul\":9694:9697   */\n      dup5\n        /* \"#utility.yul\":9690:9729   */\n      add\n        /* \"#utility.yul\":9683:9729   */\n      swap2\n      pop\n        /* \"#utility.yul\":9460:9735   */\n      pop\n        /* \"#utility.yul\":9378:9735   */\n      swap3\n      swap2\n      pop\n      pop\n      jump\t// out\n        /* \"#utility.yul\":9741:9849   */\n    tag_321:\n        /* \"#utility.yul\":9818:9842   */\n      tag_476\n        /* \"#utility.yul\":9836:9841   */\n      dup2\n        /* \"#utility.yul\":9818:9842   */\n      tag_288\n      jump\t// in\n    tag_476:\n        /* \"#utility.yul\":9813:9816   */\n      dup3\n        /* \"#utility.yul\":9806:9843   */\n      mstore\n        /* \"#utility.yul\":9741:9849   */\n      pop\n      pop\n      jump\t// out\n        /* \"#utility.yul\":9915:10685   */\n    tag_322:\n        /* \"#utility.yul\":10014:10017   */\n      0x00\n        /* \"#utility.yul\":10050:10054   */\n      0x60\n        /* \"#utility.yul\":10045:10048   */\n      dup4\n        /* \"#utility.yul\":10041:10055   */\n      add\n        /* \"#utility.yul\":10142:10146   */\n      0x00\n        /* \"#utility.yul\":10135:10140   */\n      dup4\n        /* \"#utility.yul\":10131:10147   */\n      add\n        /* \"#utility.yul\":10125:10148   */\n      mload\n        /* \"#utility.yul\":10195:10198   */\n      dup5\n        /* \"#utility.yul\":10189:10193   */\n      dup3\n        /* \"#utility.yul\":10185:10199   */\n      sub\n        /* \"#utility.yul\":10178:10182   */\n      0x00\n        /* \"#utility.yul\":10173:10176   */\n      dup7\n        /* \"#utility.yul\":10169:10183   */\n      add\n        /* \"#utility.yul\":10162:10200   */\n      mstore\n        /* \"#utility.yul\":10221:10294   */\n      tag_478\n        /* \"#utility.yul\":10289:10293   */\n      dup3\n        /* \"#utility.yul\":10275:10287   */\n      dup3\n        /* \"#utility.yul\":10221:10294   */\n      tag_320\n      jump\t// in\n    tag_478:\n        /* \"#utility.yul\":10213:10294   */\n      swap2\n      pop\n        /* \"#utility.yul\":10065:10305   */\n      pop\n        /* \"#utility.yul\":10389:10393   */\n      0x20\n        /* \"#utility.yul\":10382:10387   */\n      dup4\n        /* \"#utility.yul\":10378:10394   */\n      add\n        /* \"#utility.yul\":10372:10395   */\n      mload\n        /* \"#utility.yul\":10408:10471   */\n      tag_479\n        /* \"#utility.yul\":10465:10469   */\n      0x20\n        /* \"#utility.yul\":10460:10463   */\n      dup7\n        /* \"#utility.yul\":10456:10470   */\n      add\n        /* \"#utility.yul\":10442:10454   */\n      dup3\n        /* \"#utility.yul\":10408:10471   */\n      tag_321\n      jump\t// in\n    tag_479:\n        /* \"#utility.yul\":10315:10481   */\n      pop\n        /* \"#utility.yul\":10566:10570   */\n      0x40\n        /* \"#utility.yul\":10559:10564   */\n      dup4\n        /* \"#utility.yul\":10555:10571   */\n      add\n        /* \"#utility.yul\":10549:10572   */\n      mload\n        /* \"#utility.yul\":10585:10648   */\n      tag_480\n        /* \"#utility.yul\":10642:10646   */\n      0x40\n        /* \"#utility.yul\":10637:10640   */\n      dup7\n        /* \"#utility.yul\":10633:10647   */\n      add\n        /* \"#utility.yul\":10619:10631   */\n      dup3\n        /* \"#utility.yul\":10585:10648   */\n      tag_321\n      jump\t// in\n    tag_480:\n        /* \"#utility.yul\":10491:10658   */\n      pop\n        /* \"#utility.yul\":10675:10679   */\n      dup1\n        /* \"#utility.yul\":10668:10679   */\n      swap2\n      pop\n        /* \"#utility.yul\":10019:10685   */\n      pop\n        /* \"#utility.yul\":9915:10685   */\n      swap3\n      swap2\n      pop\n      pop\n      jump\t// out\n        /* \"#utility.yul\":10691:10927   */\n    tag_323:\n        /* \"#utility.yul\":10800:10810   */\n      0x00\n        /* \"#utility.yul\":10835:10921   */\n      tag_482\n        /* \"#utility.yul\":10917:10920   */\n      dup4\n        /* \"#utility.yul\":10909:10915   */\n      dup4\n        /* \"#utility.yul\":10835:10921   */\n      tag_322\n      jump\t// in\n    tag_482:\n        /* \"#utility.yul\":10821:10921   */\n      swap1\n      pop\n        /* \"#utility.yul\":10691:10927   */\n      swap3\n      swap2\n      pop\n      pop\n      jump\t// out\n        /* \"#utility.yul\":10933:11066   */\n    tag_324:\n        /* \"#utility.yul\":11023:11027   */\n      0x00\n        /* \"#utility.yul\":11055:11059   */\n      0x20\n        /* \"#utility.yul\":11050:11053   */\n      dup3\n        /* \"#utility.yul\":11046:11060   */\n      add\n        /* \"#utility.yul\":11038:11060   */\n      swap1\n      pop\n        /* \"#utility.yul\":10933:11066   */\n      swap2\n      swap1\n      pop\n      jump\t// out\n        /* \"#utility.yul\":11136:12207   */\n    tag_325:\n        /* \"#utility.yul\":11295:11298   */\n      0x00\n        /* \"#utility.yul\":11324:11398   */\n      tag_485\n        /* \"#utility.yul\":11392:11397   */\n      dup3\n        /* \"#utility.yul\":11324:11398   */\n      tag_316\n      jump\t// in\n    tag_485:\n        /* \"#utility.yul\":11414:11520   */\n      tag_486\n        /* \"#utility.yul\":11513:11519   */\n      dup2\n        /* \"#utility.yul\":11508:11511   */\n      dup6\n        /* \"#utility.yul\":11414:11520   */\n      tag_317\n      jump\t// in\n    tag_486:\n        /* \"#utility.yul\":11407:11520   */\n      swap4\n      pop\n        /* \"#utility.yul\":11546:11549   */\n      dup4\n        /* \"#utility.yul\":11591:11595   */\n      0x20\n        /* \"#utility.yul\":11583:11589   */\n      dup3\n        /* \"#utility.yul\":11579:11596   */\n      mul\n        /* \"#utility.yul\":11574:11577   */\n      dup6\n        /* \"#utility.yul\":11570:11597   */\n      add\n        /* \"#utility.yul\":11621:11697   */\n      tag_487\n        /* \"#utility.yul\":11691:11696   */\n      dup6\n        /* \"#utility.yul\":11621:11697   */\n      tag_318\n      jump\t// in\n    tag_487:\n        /* \"#utility.yul\":11720:11727   */\n      dup1\n        /* \"#utility.yul\":11751:11752   */\n      0x00\n        /* \"#utility.yul\":11736:12162   */\n    tag_488:\n        /* \"#utility.yul\":11761:11767   */\n      dup6\n        /* \"#utility.yul\":11758:11759   */\n      dup2\n        /* \"#utility.yul\":11755:11768   */\n      lt\n        /* \"#utility.yul\":11736:12162   */\n      iszero\n      tag_490\n      jumpi\n        /* \"#utility.yul\":11832:11841   */\n      dup5\n        /* \"#utility.yul\":11826:11830   */\n      dup5\n        /* \"#utility.yul\":11822:11842   */\n      sub\n        /* \"#utility.yul\":11817:11820   */\n      dup10\n        /* \"#utility.yul\":11810:11843   */\n      mstore\n        /* \"#utility.yul\":11883:11889   */\n      dup2\n        /* \"#utility.yul\":11877:11890   */\n      mload\n        /* \"#utility.yul\":11911:12015   */\n      tag_491\n        /* \"#utility.yul\":12010:12014   */\n      dup6\n        /* \"#utility.yul\":11995:12008   */\n      dup3\n        /* \"#utility.yul\":11911:12015   */\n      tag_323\n      jump\t// in\n    tag_491:\n        /* \"#utility.yul\":11903:12015   */\n      swap5\n      pop\n        /* \"#utility.yul\":12038:12118   */\n      tag_492\n        /* \"#utility.yul\":12111:12117   */\n      dup4\n        /* \"#utility.yul\":12038:12118   */\n      tag_324\n      jump\t// in\n    tag_492:\n        /* \"#utility.yul\":12028:12118   */\n      swap3\n      pop\n        /* \"#utility.yul\":12147:12151   */\n      0x20\n        /* \"#utility.yul\":12142:12145   */\n      dup11\n        /* \"#utility.yul\":12138:12152   */\n      add\n        /* \"#utility.yul\":12131:12152   */\n      swap10\n      pop\n        /* \"#utility.yul\":11796:12162   */\n      pop\n        /* \"#utility.yul\":11783:11784   */\n      0x01\n        /* \"#utility.yul\":11780:11781   */\n      dup2\n        /* \"#utility.yul\":11776:11785   */\n      add\n        /* \"#utility.yul\":11771:11785   */\n      swap1\n      pop\n        /* \"#utility.yul\":11736:12162   */\n      jump(tag_488)\n    tag_490:\n        /* \"#utility.yul\":11740:11754   */\n      pop\n        /* \"#utility.yul\":12178:12182   */\n      dup3\n        /* \"#utility.yul\":12171:12182   */\n      swap8\n      pop\n        /* \"#utility.yul\":12198:12201   */\n      dup8\n        /* \"#utility.yul\":12191:12201   */\n      swap6\n      pop\n        /* \"#utility.yul\":11300:12207   */\n      pop\n      pop\n      pop\n      pop\n      pop\n        /* \"#utility.yul\":11136:12207   */\n      swap3\n      swap2\n      pop\n      pop\n      jump\t// out\n        /* \"#utility.yul\":12213:12666   */\n    tag_101:\n        /* \"#utility.yul\":12396:12400   */\n      0x00\n        /* \"#utility.yul\":12434:12436   */\n      0x20\n        /* \"#utility.yul\":12423:12432   */\n      dup3\n        /* \"#utility.yul\":12419:12437   */\n      add\n        /* \"#utility.yul\":12411:12437   */\n      swap1\n      pop\n        /* \"#utility.yul\":12483:12492   */\n      dup2\n        /* \"#utility.yul\":12477:12481   */\n      dup2\n        /* \"#utility.yul\":12473:12493   */\n      sub\n        /* \"#utility.yul\":12469:12470   */\n      0x00\n        /* \"#utility.yul\":12458:12467   */\n      dup4\n        /* \"#utility.yul\":12454:12471   */\n      add\n        /* \"#utility.yul\":12447:12494   */\n      mstore\n        /* \"#utility.yul\":12511:12659   */\n      tag_494\n        /* \"#utility.yul\":12654:12658   */\n      dup2\n        /* \"#utility.yul\":12645:12651   */\n      dup5\n        /* \"#utility.yul\":12511:12659   */\n      tag_325\n      jump\t// in\n    tag_494:\n        /* \"#utility.yul\":12503:12659   */\n      swap1\n      pop\n        /* \"#utility.yul\":12213:12666   */\n      swap3\n      swap2\n      pop\n      pop\n      jump\t// out\n        /* \"#utility.yul\":12672:12790   */\n    tag_326:\n        /* \"#utility.yul\":12759:12783   */\n      tag_496\n        /* \"#utility.yul\":12777:12782   */\n      dup2\n        /* \"#utility.yul\":12759:12783   */\n      tag_302\n      jump\t// in\n    tag_496:\n        /* \"#utility.yul\":12754:12757   */\n      dup3\n        /* \"#utility.yul\":12747:12784   */\n      mstore\n        /* \"#utility.yul\":12672:12790   */\n      pop\n      pop\n      jump\t// out\n        /* \"#utility.yul\":12796:13018   */\n    tag_114:\n        /* \"#utility.yul\":12889:12893   */\n      0x00\n        /* \"#utility.yul\":12927:12929   */\n      0x20\n        /* \"#utility.yul\":12916:12925   */\n      dup3\n        /* \"#utility.yul\":12912:12930   */\n      add\n        /* \"#utility.yul\":12904:12930   */\n      swap1\n      pop\n        /* \"#utility.yul\":12940:13011   */\n      tag_498\n        /* \"#utility.yul\":13008:13009   */\n      0x00\n        /* \"#utility.yul\":12997:13006   */\n      dup4\n        /* \"#utility.yul\":12993:13010   */\n      add\n        /* \"#utility.yul\":12984:12990   */\n      dup5\n        /* \"#utility.yul\":12940:13011   */\n      tag_326\n      jump\t// in\n    tag_498:\n        /* \"#utility.yul\":12796:13018   */\n      swap3\n      swap2\n      pop\n      pop\n      jump\t// out\n        /* \"#utility.yul\":13024:13204   */\n    tag_327:\n        /* \"#utility.yul\":13072:13149   */\n      0x4e487b7100000000000000000000000000000000000000000000000000000000\n        /* \"#utility.yul\":13069:13070   */\n      0x00\n        /* \"#utility.yul\":13062:13150   */\n      mstore\n        /* \"#utility.yul\":13169:13173   */\n      0x22\n        /* \"#utility.yul\":13166:13167   */\n      0x04\n        /* \"#utility.yul\":13159:13174   */\n      mstore\n        /* \"#utility.yul\":13193:13197   */\n      0x24\n        /* \"#utility.yul\":13190:13191   */\n      0x00\n        /* \"#utility.yul\":13183:13198   */\n      revert\n        /* \"#utility.yul\":13210:13530   */\n    tag_118:\n        /* \"#utility.yul\":13254:13260   */\n      0x00\n        /* \"#utility.yul\":13291:13292   */\n      0x02\n        /* \"#utility.yul\":13285:13289   */\n      dup3\n        /* \"#utility.yul\":13281:13293   */\n      div\n        /* \"#utility.yul\":13271:13293   */\n      swap1\n      pop\n        /* \"#utility.yul\":13338:13339   */\n      0x01\n        /* \"#utility.yul\":13332:13336   */\n      dup3\n        /* \"#utility.yul\":13328:13340   */\n      and\n        /* \"#utility.yul\":13359:13377   */\n      dup1\n        /* \"#utility.yul\":13349:13430   */\n      tag_501\n      jumpi\n        /* \"#utility.yul\":13415:13419   */\n      0x7f\n        /* \"#utility.yul\":13407:13413   */\n      dup3\n        /* \"#utility.yul\":13403:13420   */\n      and\n        /* \"#utility.yul\":13393:13420   */\n      swap2\n      pop\n        /* \"#utility.yul\":13349:13430   */\n    tag_501:\n        /* \"#utility.yul\":13477:13479   */\n      0x20\n        /* \"#utility.yul\":13469:13475   */\n      dup3\n        /* \"#utility.yul\":13466:13480   */\n      lt\n        /* \"#utility.yul\":13446:13464   */\n      dup2\n        /* \"#utility.yul\":13443:13481   */\n      sub\n        /* \"#utility.yul\":13440:13524   */\n      tag_502\n      jumpi\n        /* \"#utility.yul\":13496:13514   */\n      tag_503\n      tag_327\n      jump\t// in\n    tag_503:\n        /* \"#utility.yul\":13440:13524   */\n    tag_502:\n        /* \"#utility.yul\":13261:13530   */\n      pop\n        /* \"#utility.yul\":13210:13530   */\n      swap2\n      swap1\n      pop\n      jump\t// out\n        /* \"#utility.yul\":13536:13704   */\n    tag_328:\n        /* \"#utility.yul\":13676:13696   */\n      0x4e6f742063616d706169676e206f776e65720000000000000000000000000000\n        /* \"#utility.yul\":13672:13673   */\n      0x00\n        /* \"#utility.yul\":13664:13670   */\n      dup3\n        /* \"#utility.yul\":13660:13674   */\n      add\n        /* \"#utility.yul\":13653:13697   */\n      mstore\n        /* \"#utility.yul\":13536:13704   */\n      pop\n      jump\t// out\n        /* \"#utility.yul\":13710:14076   */\n    tag_329:\n        /* \"#utility.yul\":13852:13855   */\n      0x00\n        /* \"#utility.yul\":13873:13940   */\n      tag_506\n        /* \"#utility.yul\":13937:13939   */\n      0x12\n        /* \"#utility.yul\":13932:13935   */\n      dup4\n        /* \"#utility.yul\":13873:13940   */\n      tag_292\n      jump\t// in\n    tag_506:\n        /* \"#utility.yul\":13866:13940   */\n      swap2\n      pop\n        /* \"#utility.yul\":13949:14042   */\n      tag_507\n        /* \"#utility.yul\":14038:14041   */\n      dup3\n        /* \"#utility.yul\":13949:14042   */\n      tag_328\n      jump\t// in\n    tag_507:\n        /* \"#utility.yul\":14067:14069   */\n      0x20\n        /* \"#utility.yul\":14062:14065   */\n      dup3\n        /* \"#utility.yul\":14058:14070   */\n      add\n        /* \"#utility.yul\":14051:14070   */\n      swap1\n      pop\n        /* \"#utility.yul\":13710:14076   */\n      swap2\n      swap1\n      pop\n      jump\t// out\n        /* \"#utility.yul\":14082:14501   */\n    tag_141:\n        /* \"#utility.yul\":14248:14252   */\n      0x00\n        /* \"#utility.yul\":14286:14288   */\n      0x20\n        /* \"#utility.yul\":14275:14284   */\n      dup3\n        /* \"#utility.yul\":14271:14289   */\n      add\n        /* \"#utility.yul\":14263:14289   */\n      swap1\n      pop\n        /* \"#utility.yul\":14335:14344   */\n      dup2\n        /* \"#utility.yul\":14329:14333   */\n      dup2\n        /* \"#utility.yul\":14325:14345   */\n      sub\n        /* \"#utility.yul\":14321:14322   */\n      0x00\n        /* \"#utility.yul\":14310:14319   */\n      dup4\n        /* \"#utility.yul\":14306:14323   */\n      add\n        /* \"#utility.yul\":14299:14346   */\n      mstore\n        /* \"#utility.yul\":14363:14494   */\n      tag_509\n        /* \"#utility.yul\":14489:14493   */\n      dup2\n        /* \"#utility.yul\":14363:14494   */\n      tag_329\n      jump\t// in\n    tag_509:\n        /* \"#utility.yul\":14355:14494   */\n      swap1\n      pop\n        /* \"#utility.yul\":14082:14501   */\n      swap2\n      swap1\n      pop\n      jump\t// out\n        /* \"#utility.yul\":14507:14687   */\n    tag_330:\n        /* \"#utility.yul\":14555:14632   */\n      0x4e487b7100000000000000000000000000000000000000000000000000000000\n        /* \"#utility.yul\":14552:14553   */\n      0x00\n        /* \"#utility.yul\":14545:14633   */\n      mstore\n        /* \"#utility.yul\":14652:14656   */\n      0x11\n        /* \"#utility.yul\":14649:14650   */\n      0x04\n        /* \"#utility.yul\":14642:14657   */\n      mstore\n        /* \"#utility.yul\":14676:14680   */\n      0x24\n        /* \"#utility.yul\":14673:14674   */\n      0x00\n        /* \"#utility.yul\":14666:14681   */\n      revert\n        /* \"#utility.yul\":14693:15103   */\n    tag_144:\n        /* \"#utility.yul\":14733:14740   */\n      0x00\n        /* \"#utility.yul\":14756:14776   */\n      tag_512\n        /* \"#utility.yul\":14774:14775   */\n      dup3\n        /* \"#utility.yul\":14756:14776   */\n      tag_288\n      jump\t// in\n    tag_512:\n        /* \"#utility.yul\":14751:14776   */\n      swap2\n      pop\n        /* \"#utility.yul\":14790:14810   */\n      tag_513\n        /* \"#utility.yul\":14808:14809   */\n      dup4\n        /* \"#utility.yul\":14790:14810   */\n      tag_288\n      jump\t// in\n    tag_513:\n        /* \"#utility.yul\":14785:14810   */\n      swap3\n      pop\n        /* \"#utility.yul\":14845:14846   */\n      dup3\n        /* \"#utility.yul\":14842:14843   */\n      dup3\n        /* \"#utility.yul\":14838:14847   */\n      mul\n        /* \"#utility.yul\":14867:14897   */\n      tag_514\n        /* \"#utility.yul\":14885:14896   */\n      dup2\n        /* \"#utility.yul\":14867:14897   */\n      tag_288\n      jump\t// in\n    tag_514:\n        /* \"#utility.yul\":14856:14897   */\n      swap2\n      pop\n        /* \"#utility.yul\":15046:15047   */\n      dup3\n        /* \"#utility.yul\":15037:15044   */\n      dup3\n        /* \"#utility.yul\":15033:15048   */\n      div\n        /* \"#utility.yul\":15030:15031   */\n      dup5\n        /* \"#utility.yul\":15027:15049   */\n      eq\n        /* \"#utility.yul\":15007:15008   */\n      dup4\n        /* \"#utility.yul\":15000:15009   */\n      iszero\n        /* \"#utility.yul\":14980:15063   */\n      or\n        /* \"#utility.yul\":14957:15096   */\n      tag_515\n      jumpi\n        /* \"#utility.yul\":15076:15094   */\n      tag_516\n      tag_330\n      jump\t// in\n    tag_516:\n        /* \"#utility.yul\":14957:15096   */\n    tag_515:\n        /* \"#utility.yul\":14741:15103   */\n      pop\n        /* \"#utility.yul\":14693:15103   */\n      swap3\n      swap2\n      pop\n      pop\n      jump\t// out\n        /* \"#utility.yul\":15109:15300   */\n    tag_146:\n        /* \"#utility.yul\":15149:15152   */\n      0x00\n        /* \"#utility.yul\":15168:15188   */\n      tag_518\n        /* \"#utility.yul\":15186:15187   */\n      dup3\n        /* \"#utility.yul\":15168:15188   */\n      tag_288\n      jump\t// in\n    tag_518:\n        /* \"#utility.yul\":15163:15188   */\n      swap2\n      pop\n        /* \"#utility.yul\":15202:15222   */\n      tag_519\n        /* \"#utility.yul\":15220:15221   */\n      dup4\n        /* \"#utility.yul\":15202:15222   */\n      tag_288\n      jump\t// in\n    tag_519:\n        /* \"#utility.yul\":15197:15222   */\n      swap3\n      pop\n        /* \"#utility.yul\":15245:15246   */\n      dup3\n        /* \"#utility.yul\":15242:15243   */\n      dup3\n        /* \"#utility.yul\":15238:15247   */\n      add\n        /* \"#utility.yul\":15231:15247   */\n      swap1\n      pop\n        /* \"#utility.yul\":15266:15269   */\n      dup1\n        /* \"#utility.yul\":15263:15264   */\n      dup3\n        /* \"#utility.yul\":15260:15270   */\n      gt\n        /* \"#utility.yul\":15257:15293   */\n      iszero\n      tag_520\n      jumpi\n        /* \"#utility.yul\":15273:15291   */\n      tag_521\n      tag_330\n      jump\t// in\n    tag_521:\n        /* \"#utility.yul\":15257:15293   */\n    tag_520:\n        /* \"#utility.yul\":15109:15300   */\n      swap3\n      swap2\n      pop\n      pop\n      jump\t// out\n        /* \"#utility.yul\":15306:15479   */\n    tag_331:\n        /* \"#utility.yul\":15446:15471   */\n      0x43616d706169676e206e6f74207375636365737366756c000000000000000000\n        /* \"#utility.yul\":15442:15443   */\n      0x00\n        /* \"#utility.yul\":15434:15440   */\n      dup3\n        /* \"#utility.yul\":15430:15444   */\n      add\n        /* \"#utility.yul\":15423:15472   */\n      mstore\n        /* \"#utility.yul\":15306:15479   */\n      pop\n      jump\t// out\n        /* \"#utility.yul\":15485:15851   */\n    tag_332:\n        /* \"#utility.yul\":15627:15630   */\n      0x00\n        /* \"#utility.yul\":15648:15715   */\n      tag_524\n        /* \"#utility.yul\":15712:15714   */\n      0x17\n        /* \"#utility.yul\":15707:15710   */\n      dup4\n        /* \"#utility.yul\":15648:15715   */\n      tag_292\n      jump\t// in\n    tag_524:\n        /* \"#utility.yul\":15641:15715   */\n      swap2\n      pop\n        /* \"#utility.yul\":15724:15817   */\n      tag_525\n        /* \"#utility.yul\":15813:15816   */\n      dup3\n        /* \"#utility.yul\":15724:15817   */\n      tag_331\n      jump\t// in\n    tag_525:\n        /* \"#utility.yul\":15842:15844   */\n      0x20\n        /* \"#utility.yul\":15837:15840   */\n      dup3\n        /* \"#utility.yul\":15833:15845   */\n      add\n        /* \"#utility.yul\":15826:15845   */\n      swap1\n      pop\n        /* \"#utility.yul\":15485:15851   */\n      swap2\n      swap1\n      pop\n      jump\t// out\n        /* \"#utility.yul\":15857:16276   */\n    tag_159:\n        /* \"#utility.yul\":16023:16027   */\n      0x00\n        /* \"#utility.yul\":16061:16063   */\n      0x20\n        /* \"#utility.yul\":16050:16059   */\n      dup3\n        /* \"#utility.yul\":16046:16064   */\n      add\n        /* \"#utility.yul\":16038:16064   */\n      swap1\n      pop\n        /* \"#utility.yul\":16110:16119   */\n      dup2\n        /* \"#utility.yul\":16104:16108   */\n      dup2\n        /* \"#utility.yul\":16100:16120   */\n      sub\n        /* \"#utility.yul\":16096:16097   */\n      0x00\n        /* \"#utility.yul\":16085:16094   */\n      dup4\n        /* \"#utility.yul\":16081:16098   */\n      add\n        /* \"#utility.yul\":16074:16121   */\n      mstore\n        /* \"#utility.yul\":16138:16269   */\n      tag_527\n        /* \"#utility.yul\":16264:16268   */\n      dup2\n        /* \"#utility.yul\":16138:16269   */\n      tag_332\n      jump\t// in\n    tag_527:\n        /* \"#utility.yul\":16130:16269   */\n      swap1\n      pop\n        /* \"#utility.yul\":15857:16276   */\n      swap2\n      swap1\n      pop\n      jump\t// out\n        /* \"#utility.yul\":16282:16451   */\n    tag_333:\n        /* \"#utility.yul\":16422:16443   */\n      0x4e6f7468696e6720746f20776974686472617700000000000000000000000000\n        /* \"#utility.yul\":16418:16419   */\n      0x00\n        /* \"#utility.yul\":16410:16416   */\n      dup3\n        /* \"#utility.yul\":16406:16420   */\n      add\n        /* \"#utility.yul\":16399:16444   */\n      mstore\n        /* \"#utility.yul\":16282:16451   */\n      pop\n      jump\t// out\n        /* \"#utility.yul\":16457:16823   */\n    tag_334:\n        /* \"#utility.yul\":16599:16602   */\n      0x00\n        /* \"#utility.yul\":16620:16687   */\n      tag_530\n        /* \"#utility.yul\":16684:16686   */\n      0x13\n        /* \"#utility.yul\":16679:16682   */\n      dup4\n        /* \"#utility.yul\":16620:16687   */\n      tag_292\n      jump\t// in\n    tag_530:\n        /* \"#utility.yul\":16613:16687   */\n      swap2\n      pop\n        /* \"#utility.yul\":16696:16789   */\n      tag_531\n        /* \"#utility.yul\":16785:16788   */\n      dup3\n        /* \"#utility.yul\":16696:16789   */\n      tag_333\n      jump\t// in\n    tag_531:\n        /* \"#utility.yul\":16814:16816   */\n      0x20\n        /* \"#utility.yul\":16809:16812   */\n      dup3\n        /* \"#utility.yul\":16805:16817   */\n      add\n        /* \"#utility.yul\":16798:16817   */\n      swap1\n      pop\n        /* \"#utility.yul\":16457:16823   */\n      swap2\n      swap1\n      pop\n      jump\t// out\n        /* \"#utility.yul\":16829:17248   */\n    tag_162:\n        /* \"#utility.yul\":16995:16999   */\n      0x00\n        /* \"#utility.yul\":17033:17035   */\n      0x20\n        /* \"#utility.yul\":17022:17031   */\n      dup3\n        /* \"#utility.yul\":17018:17036   */\n      add\n        /* \"#utility.yul\":17010:17036   */\n      swap1\n      pop\n        /* \"#utility.yul\":17082:17091   */\n      dup2\n        /* \"#utility.yul\":17076:17080   */\n      dup2\n        /* \"#utility.yul\":17072:17092   */\n      sub\n        /* \"#utility.yul\":17068:17069   */\n      0x00\n        /* \"#utility.yul\":17057:17066   */\n      dup4\n        /* \"#utility.yul\":17053:17070   */\n      add\n        /* \"#utility.yul\":17046:17093   */\n      mstore\n        /* \"#utility.yul\":17110:17241   */\n      tag_533\n        /* \"#utility.yul\":17236:17240   */\n      dup2\n        /* \"#utility.yul\":17110:17241   */\n      tag_334\n      jump\t// in\n    tag_533:\n        /* \"#utility.yul\":17102:17241   */\n      swap1\n      pop\n        /* \"#utility.yul\":16829:17248   */\n      swap2\n      swap1\n      pop\n      jump\t// out\n        /* \"#utility.yul\":17254:17426   */\n    tag_335:\n        /* \"#utility.yul\":17394:17418   */\n      0x43616d706169676e206973206e6f74206661696c656400000000000000000000\n        /* \"#utility.yul\":17390:17391   */\n      0x00\n        /* \"#utility.yul\":17382:17388   */\n      dup3\n        /* \"#utility.yul\":17378:17392   */\n      add\n        /* \"#utility.yul\":17371:17419   */\n      mstore\n        /* \"#utility.yul\":17254:17426   */\n      pop\n      jump\t// out\n        /* \"#utility.yul\":17432:17798   */\n    tag_336:\n        /* \"#utility.yul\":17574:17577   */\n      0x00\n        /* \"#utility.yul\":17595:17662   */\n      tag_536\n        /* \"#utility.yul\":17659:17661   */\n      0x16\n        /* \"#utility.yul\":17654:17657   */\n      dup4\n        /* \"#utility.yul\":17595:17662   */\n      tag_292\n      jump\t// in\n    tag_536:\n        /* \"#utility.yul\":17588:17662   */\n      swap2\n      pop\n        /* \"#utility.yul\":17671:17764   */\n      tag_537\n        /* \"#utility.yul\":17760:17763   */\n      dup3\n        /* \"#utility.yul\":17671:17764   */\n      tag_335\n      jump\t// in\n    tag_537:\n        /* \"#utility.yul\":17789:17791   */\n      0x20\n        /* \"#utility.yul\":17784:17787   */\n      dup3\n        /* \"#utility.yul\":17780:17792   */\n      add\n        /* \"#utility.yul\":17773:17792   */\n      swap1\n      pop\n        /* \"#utility.yul\":17432:17798   */\n      swap2\n      swap1\n      pop\n      jump\t// out\n        /* \"#utility.yul\":17804:18223   */\n    tag_178:\n        /* \"#utility.yul\":17970:17974   */\n      0x00\n        /* \"#utility.yul\":18008:18010   */\n      0x20\n        /* \"#utility.yul\":17997:18006   */\n      dup3\n        /* \"#utility.yul\":17993:18011   */\n      add\n        /* \"#utility.yul\":17985:18011   */\n      swap1\n      pop\n        /* \"#utility.yul\":18057:18066   */\n      dup2\n        /* \"#utility.yul\":18051:18055   */\n      dup2\n        /* \"#utility.yul\":18047:18067   */\n      sub\n        /* \"#utility.yul\":18043:18044   */\n      0x00\n        /* \"#utility.yul\":18032:18041   */\n      dup4\n        /* \"#utility.yul\":18028:18045   */\n      add\n        /* \"#utility.yul\":18021:18068   */\n      mstore\n        /* \"#utility.yul\":18085:18216   */\n      tag_539\n        /* \"#utility.yul\":18211:18215   */\n      dup2\n        /* \"#utility.yul\":18085:18216   */\n      tag_336\n      jump\t// in\n    tag_539:\n        /* \"#utility.yul\":18077:18216   */\n      swap1\n      pop\n        /* \"#utility.yul\":17804:18223   */\n      swap2\n      swap1\n      pop\n      jump\t// out\n        /* \"#utility.yul\":18229:18404   */\n    tag_337:\n        /* \"#utility.yul\":18369:18396   */\n      0x4e6f20636f6e747269627574696f6e20746f20726566756e6400000000000000\n        /* \"#utility.yul\":18365:18366   */\n      0x00\n        /* \"#utility.yul\":18357:18363   */\n      dup3\n        /* \"#utility.yul\":18353:18367   */\n      add\n        /* \"#utility.yul\":18346:18397   */\n      mstore\n        /* \"#utility.yul\":18229:18404   */\n      pop\n      jump\t// out\n        /* \"#utility.yul\":18410:18776   */\n    tag_338:\n        /* \"#utility.yul\":18552:18555   */\n      0x00\n        /* \"#utility.yul\":18573:18640   */\n      tag_542\n        /* \"#utility.yul\":18637:18639   */\n      0x19\n        /* \"#utility.yul\":18632:18635   */\n      dup4\n        /* \"#utility.yul\":18573:18640   */\n      tag_292\n      jump\t// in\n    tag_542:\n        /* \"#utility.yul\":18566:18640   */\n      swap2\n      pop\n        /* \"#utility.yul\":18649:18742   */\n      tag_543\n        /* \"#utility.yul\":18738:18741   */\n      dup3\n        /* \"#utility.yul\":18649:18742   */\n      tag_337\n      jump\t// in\n    tag_543:\n        /* \"#utility.yul\":18767:18769   */\n      0x20\n        /* \"#utility.yul\":18762:18765   */\n      dup3\n        /* \"#utility.yul\":18758:18770   */\n      add\n        /* \"#utility.yul\":18751:18770   */\n      swap1\n      pop\n        /* \"#utility.yul\":18410:18776   */\n      swap2\n      swap1\n      pop\n      jump\t// out\n        /* \"#utility.yul\":18782:19201   */\n    tag_181:\n        /* \"#utility.yul\":18948:18952   */\n      0x00\n        /* \"#utility.yul\":18986:18988   */\n      0x20\n        /* \"#utility.yul\":18975:18984   */\n      dup3\n        /* \"#utility.yul\":18971:18989   */\n      add\n        /* \"#utility.yul\":18963:18989   */\n      swap1\n      pop\n        /* \"#utility.yul\":19035:19044   */\n      dup2\n        /* \"#utility.yul\":19029:19033   */\n      dup2\n        /* \"#utility.yul\":19025:19045   */\n      sub\n        /* \"#utility.yul\":19021:19022   */\n      0x00\n        /* \"#utility.yul\":19010:19019   */\n      dup4\n        /* \"#utility.yul\":19006:19023   */\n      add\n        /* \"#utility.yul\":18999:19046   */\n      mstore\n        /* \"#utility.yul\":19063:19194   */\n      tag_545\n        /* \"#utility.yul\":19189:19193   */\n      dup2\n        /* \"#utility.yul\":19063:19194   */\n      tag_338\n      jump\t// in\n    tag_545:\n        /* \"#utility.yul\":19055:19194   */\n      swap1\n      pop\n        /* \"#utility.yul\":18782:19201   */\n      swap2\n      swap1\n      pop\n      jump\t// out\n        /* \"#utility.yul\":19207:19376   */\n    tag_339:\n        /* \"#utility.yul\":19347:19368   */\n      0x5469657220646f6573206e6f7420657869737400000000000000000000000000\n        /* \"#utility.yul\":19343:19344   */\n      0x00\n        /* \"#utility.yul\":19335:19341   */\n      dup3\n        /* \"#utility.yul\":19331:19345   */\n      add\n        /* \"#utility.yul\":19324:19369   */\n      mstore\n        /* \"#utility.yul\":19207:19376   */\n      pop\n      jump\t// out\n        /* \"#utility.yul\":19382:19748   */\n    tag_340:\n        /* \"#utility.yul\":19524:19527   */\n      0x00\n        /* \"#utility.yul\":19545:19612   */\n      tag_548\n        /* \"#utility.yul\":19609:19611   */\n      0x13\n        /* \"#utility.yul\":19604:19607   */\n      dup4\n        /* \"#utility.yul\":19545:19612   */\n      tag_292\n      jump\t// in\n    tag_548:\n        /* \"#utility.yul\":19538:19612   */\n      swap2\n      pop\n        /* \"#utility.yul\":19621:19714   */\n      tag_549\n        /* \"#utility.yul\":19710:19713   */\n      dup3\n        /* \"#utility.yul\":19621:19714   */\n      tag_339\n      jump\t// in\n    tag_549:\n        /* \"#utility.yul\":19739:19741   */\n      0x20\n        /* \"#utility.yul\":19734:19737   */\n      dup3\n        /* \"#utility.yul\":19730:19742   */\n      add\n        /* \"#utility.yul\":19723:19742   */\n      swap1\n      pop\n        /* \"#utility.yul\":19382:19748   */\n      swap2\n      swap1\n      pop\n      jump\t// out\n        /* \"#utility.yul\":19754:20173   */\n    tag_191:\n        /* \"#utility.yul\":19920:19924   */\n      0x00\n        /* \"#utility.yul\":19958:19960   */\n      0x20\n        /* \"#utility.yul\":19947:19956   */\n      dup3\n        /* \"#utility.yul\":19943:19961   */\n      add\n        /* \"#utility.yul\":19935:19961   */\n      swap1\n      pop\n        /* \"#utility.yul\":20007:20016   */\n      dup2\n        /* \"#utility.yul\":20001:20005   */\n      dup2\n        /* \"#utility.yul\":19997:20017   */\n      sub\n        /* \"#utility.yul\":19993:19994   */\n      0x00\n        /* \"#utility.yul\":19982:19991   */\n      dup4\n        /* \"#utility.yul\":19978:19995   */\n      add\n        /* \"#utility.yul\":19971:20018   */\n      mstore\n        /* \"#utility.yul\":20035:20166   */\n      tag_551\n        /* \"#utility.yul\":20161:20165   */\n      dup2\n        /* \"#utility.yul\":20035:20166   */\n      tag_340\n      jump\t// in\n    tag_551:\n        /* \"#utility.yul\":20027:20166   */\n      swap1\n      pop\n        /* \"#utility.yul\":19754:20173   */\n      swap2\n      swap1\n      pop\n      jump\t// out\n        /* \"#utility.yul\":20179:20373   */\n    tag_193:\n        /* \"#utility.yul\":20219:20223   */\n      0x00\n        /* \"#utility.yul\":20239:20259   */\n      tag_553\n        /* \"#utility.yul\":20257:20258   */\n      dup3\n        /* \"#utility.yul\":20239:20259   */\n      tag_288\n      jump\t// in\n    tag_553:\n        /* \"#utility.yul\":20234:20259   */\n      swap2\n      pop\n        /* \"#utility.yul\":20273:20293   */\n      tag_554\n        /* \"#utility.yul\":20291:20292   */\n      dup4\n        /* \"#utility.yul\":20273:20293   */\n      tag_288\n      jump\t// in\n    tag_554:\n        /* \"#utility.yul\":20268:20293   */\n      swap3\n      pop\n        /* \"#utility.yul\":20317:20318   */\n      dup3\n        /* \"#utility.yul\":20314:20315   */\n      dup3\n        /* \"#utility.yul\":20310:20319   */\n      sub\n        /* \"#utility.yul\":20302:20319   */\n      swap1\n      pop\n        /* \"#utility.yul\":20341:20342   */\n      dup2\n        /* \"#utility.yul\":20335:20339   */\n      dup2\n        /* \"#utility.yul\":20332:20343   */\n      gt\n        /* \"#utility.yul\":20329:20366   */\n      iszero\n      tag_555\n      jumpi\n        /* \"#utility.yul\":20346:20364   */\n      tag_556\n      tag_330\n      jump\t// in\n    tag_556:\n        /* \"#utility.yul\":20329:20366   */\n    tag_555:\n        /* \"#utility.yul\":20179:20373   */\n      swap3\n      swap2\n      pop\n      pop\n      jump\t// out\n        /* \"#utility.yul\":20379:20559   */\n    tag_196:\n        /* \"#utility.yul\":20427:20504   */\n      0x4e487b7100000000000000000000000000000000000000000000000000000000\n        /* \"#utility.yul\":20424:20425   */\n      0x00\n        /* \"#utility.yul\":20417:20505   */\n      mstore\n        /* \"#utility.yul\":20524:20528   */\n      0x32\n        /* \"#utility.yul\":20521:20522   */\n      0x04\n        /* \"#utility.yul\":20514:20529   */\n      mstore\n        /* \"#utility.yul\":20548:20552   */\n      0x24\n        /* \"#utility.yul\":20545:20546   */\n      0x00\n        /* \"#utility.yul\":20538:20553   */\n      revert\n        /* \"#utility.yul\":20565:20714   */\n    tag_341:\n        /* \"#utility.yul\":20614:20620   */\n      0x00\n        /* \"#utility.yul\":20648:20653   */\n      dup2\n        /* \"#utility.yul\":20642:20654   */\n      sload\n        /* \"#utility.yul\":20632:20654   */\n      swap1\n      pop\n        /* \"#utility.yul\":20674:20707   */\n      tag_559\n        /* \"#utility.yul\":20700:20706   */\n      dup2\n        /* \"#utility.yul\":20674:20707   */\n      tag_118\n      jump\t// in\n    tag_559:\n        /* \"#utility.yul\":20664:20707   */\n      swap1\n      pop\n        /* \"#utility.yul\":20565:20714   */\n      swap2\n      swap1\n      pop\n      jump\t// out\n        /* \"#utility.yul\":20720:20861   */\n    tag_342:\n        /* \"#utility.yul\":20769:20773   */\n      0x00\n        /* \"#utility.yul\":20792:20795   */\n      dup2\n        /* \"#utility.yul\":20784:20795   */\n      swap1\n      pop\n        /* \"#utility.yul\":20815:20818   */\n      dup2\n        /* \"#utility.yul\":20812:20813   */\n      0x00\n        /* \"#utility.yul\":20805:20819   */\n      mstore\n        /* \"#utility.yul\":20849:20853   */\n      0x20\n        /* \"#utility.yul\":20846:20847   */\n      0x00\n        /* \"#utility.yul\":20836:20854   */\n      keccak256\n        /* \"#utility.yul\":20828:20854   */\n      swap1\n      pop\n        /* \"#utility.yul\":20720:20861   */\n      swap2\n      swap1\n      pop\n      jump\t// out\n        /* \"#utility.yul\":20867:20960   */\n    tag_343:\n        /* \"#utility.yul\":20904:20910   */\n      0x00\n        /* \"#utility.yul\":20951:20953   */\n      0x20\n        /* \"#utility.yul\":20946:20948   */\n      0x1f\n        /* \"#utility.yul\":20939:20944   */\n      dup4\n        /* \"#utility.yul\":20935:20949   */\n      add\n        /* \"#utility.yul\":20931:20954   */\n      div\n        /* \"#utility.yul\":20921:20954   */\n      swap1\n      pop\n        /* \"#utility.yul\":20867:20960   */\n      swap2\n      swap1\n      pop\n      jump\t// out\n        /* \"#utility.yul\":20966:21073   */\n    tag_344:\n        /* \"#utility.yul\":21010:21018   */\n      0x00\n        /* \"#utility.yul\":21060:21065   */\n      dup3\n        /* \"#utility.yul\":21054:21058   */\n      dup3\n        /* \"#utility.yul\":21050:21066   */\n      shl\n        /* \"#utility.yul\":21029:21066   */\n      swap1\n      pop\n        /* \"#utility.yul\":20966:21073   */\n      swap3\n      swap2\n      pop\n      pop\n      jump\t// out\n        /* \"#utility.yul\":21079:21472   */\n    tag_345:\n        /* \"#utility.yul\":21148:21154   */\n      0x00\n        /* \"#utility.yul\":21198:21199   */\n      0x08\n        /* \"#utility.yul\":21186:21196   */\n      dup4\n        /* \"#utility.yul\":21182:21200   */\n      mul\n        /* \"#utility.yul\":21221:21318   */\n      tag_564\n        /* \"#utility.yul\":21251:21317   */\n      0xffffffffffffffffffffffffffffffffffffffffffffffffffffffffffffffff\n        /* \"#utility.yul\":21240:21249   */\n      dup3\n        /* \"#utility.yul\":21221:21318   */\n      tag_344\n      jump\t// in\n    tag_564:\n        /* \"#utility.yul\":21339:21378   */\n      tag_565\n        /* \"#utility.yul\":21369:21377   */\n      dup7\n        /* \"#utility.yul\":21358:21367   */\n      dup4\n        /* \"#utility.yul\":21339:21378   */\n      tag_344\n      jump\t// in\n    tag_565:\n        /* \"#utility.yul\":21327:21378   */\n      swap6\n      pop\n        /* \"#utility.yul\":21411:21415   */\n      dup1\n        /* \"#utility.yul\":21407:21416   */\n      not\n        /* \"#utility.yul\":21400:21405   */\n      dup5\n        /* \"#utility.yul\":21396:21417   */\n      and\n        /* \"#utility.yul\":21387:21417   */\n      swap4\n      pop\n        /* \"#utility.yul\":21460:21464   */\n      dup1\n        /* \"#utility.yul\":21450:21458   */\n      dup7\n        /* \"#utility.yul\":21446:21465   */\n      and\n        /* \"#utility.yul\":21439:21444   */\n      dup5\n        /* \"#utility.yul\":21436:21466   */\n      or\n        /* \"#utility.yul\":21426:21466   */\n      swap3\n      pop\n        /* \"#utility.yul\":21155:21472   */\n      pop\n      pop\n        /* \"#utility.yul\":21079:21472   */\n      swap4\n      swap3\n      pop\n      pop\n      pop\n      jump\t// out\n        /* \"#utility.yul\":21478:21538   */\n    tag_346:\n        /* \"#utility.yul\":21506:21509   */\n      0x00\n        /* \"#utility.yul\":21527:21532   */\n      dup2\n        /* \"#utility.yul\":21520:21532   */\n      swap1\n      pop\n        /* \"#utility.yul\":21478:21538   */\n      swap2\n      swap1\n      pop\n      jump\t// out\n        /* \"#utility.yul\":21544:21686   */\n    tag_347:\n        /* \"#utility.yul\":21594:21603   */\n      0x00\n        /* \"#utility.yul\":21627:21680   */\n      tag_568\n        /* \"#utility.yul\":21645:21679   */\n      tag_569\n        /* \"#utility.yul\":21654:21678   */\n      tag_570\n        /* \"#utility.yul\":21672:21677   */\n      dup5\n        /* \"#utility.yul\":21654:21678   */\n      tag_288\n      jump\t// in\n    tag_570:\n        /* \"#utility.yul\":21645:21679   */\n      tag_346\n      jump\t// in\n    tag_569:\n        /* \"#utility.yul\":21627:21680   */\n      tag_288\n      jump\t// in\n    tag_568:\n        /* \"#utility.yul\":21614:21680   */\n      swap1\n      pop\n        /* \"#utility.yul\":21544:21686   */\n      swap2\n      swap1\n      pop\n      jump\t// out\n        /* \"#utility.yul\":21692:21767   */\n    tag_348:\n        /* \"#utility.yul\":21735:21738   */\n      0x00\n        /* \"#utility.yul\":21756:21761   */\n      dup2\n        /* \"#utility.yul\":21749:21761   */\n      swap1\n      pop\n        /* \"#utility.yul\":21692:21767   */\n      swap2\n      swap1\n      pop\n      jump\t// out\n        /* \"#utility.yul\":21773:22042   */\n    tag_349:\n        /* \"#utility.yul\":21883:21922   */\n      tag_573\n        /* \"#utility.yul\":21914:21921   */\n      dup4\n        /* \"#utility.yul\":21883:21922   */\n      tag_347\n      jump\t// in\n    tag_573:\n        /* \"#utility.yul\":21944:22035   */\n      tag_574\n        /* \"#utility.yul\":21993:22034   */\n      tag_575\n        /* \"#utility.yul\":22017:22033   */\n      dup3\n        /* \"#utility.yul\":21993:22034   */\n      tag_348\n      jump\t// in\n    tag_575:\n        /* \"#utility.yul\":21985:21991   */\n      dup5\n        /* \"#utility.yul\":21978:21982   */\n      dup5\n        /* \"#utility.yul\":21972:21983   */\n      sload\n        /* \"#utility.yul\":21944:22035   */\n      tag_345\n      jump\t// in\n    tag_574:\n        /* \"#utility.yul\":21938:21942   */\n      dup3\n        /* \"#utility.yul\":21931:22036   */\n      sstore\n        /* \"#utility.yul\":21849:22042   */\n      pop\n        /* \"#utility.yul\":21773:22042   */\n      pop\n      pop\n      pop\n      jump\t// out\n        /* \"#utility.yul\":22048:22121   */\n    tag_350:\n        /* \"#utility.yul\":22093:22096   */\n      0x00\n        /* \"#utility.yul\":22048:22121   */\n      swap1\n      jump\t// out\n        /* \"#utility.yul\":22127:22316   */\n    tag_351:\n        /* \"#utility.yul\":22204:22236   */\n      tag_578\n      tag_350\n      jump\t// in\n    tag_578:\n        /* \"#utility.yul\":22245:22310   */\n      tag_579\n        /* \"#utility.yul\":22303:22309   */\n      dup2\n        /* \"#utility.yul\":22295:22301   */\n      dup5\n        /* \"#utility.yul\":22289:22293   */\n      dup5\n        /* \"#utility.yul\":22245:22310   */\n      tag_349\n      jump\t// in\n    tag_579:\n        /* \"#utility.yul\":22180:22316   */\n      pop\n        /* \"#utility.yul\":22127:22316   */\n      pop\n      pop\n      jump\t// out\n        /* \"#utility.yul\":22322:22508   */\n    tag_352:\n        /* \"#utility.yul\":22382:22502   */\n    tag_581:\n        /* \"#utility.yul\":22399:22402   */\n      dup2\n        /* \"#utility.yul\":22392:22397   */\n      dup2\n        /* \"#utility.yul\":22389:22403   */\n      lt\n        /* \"#utility.yul\":22382:22502   */\n      iszero\n      tag_583\n      jumpi\n        /* \"#utility.yul\":22453:22492   */\n      tag_584\n        /* \"#utility.yul\":22490:22491   */\n      0x00\n        /* \"#utility.yul\":22483:22488   */\n      dup3\n        /* \"#utility.yul\":22453:22492   */\n      tag_351\n      jump\t// in\n    tag_584:\n        /* \"#utility.yul\":22426:22427   */\n      0x01\n        /* \"#utility.yul\":22419:22424   */\n      dup2\n        /* \"#utility.yul\":22415:22428   */\n      add\n        /* \"#utility.yul\":22406:22428   */\n      swap1\n      pop\n        /* \"#utility.yul\":22382:22502   */\n      jump(tag_581)\n    tag_583:\n        /* \"#utility.yul\":22322:22508   */\n      pop\n      pop\n      jump\t// out\n        /* \"#utility.yul\":22514:23057   */\n    tag_353:\n        /* \"#utility.yul\":22615:22617   */\n      0x1f\n        /* \"#utility.yul\":22610:22613   */\n      dup3\n        /* \"#utility.yul\":22607:22618   */\n      gt\n        /* \"#utility.yul\":22604:23050   */\n      iszero\n      tag_586\n      jumpi\n        /* \"#utility.yul\":22649:22687   */\n      tag_587\n        /* \"#utility.yul\":22681:22686   */\n      dup2\n        /* \"#utility.yul\":22649:22687   */\n      tag_342\n      jump\t// in\n    tag_587:\n        /* \"#utility.yul\":22733:22762   */\n      tag_588\n        /* \"#utility.yul\":22751:22761   */\n      dup5\n        /* \"#utility.yul\":22733:22762   */\n      tag_343\n      jump\t// in\n    tag_588:\n        /* \"#utility.yul\":22723:22731   */\n      dup2\n        /* \"#utility.yul\":22719:22763   */\n      add\n        /* \"#utility.yul\":22916:22918   */\n      0x20\n        /* \"#utility.yul\":22904:22914   */\n      dup6\n        /* \"#utility.yul\":22901:22919   */\n      lt\n        /* \"#utility.yul\":22898:22947   */\n      iszero\n      tag_589\n      jumpi\n        /* \"#utility.yul\":22937:22945   */\n      dup2\n        /* \"#utility.yul\":22922:22945   */\n      swap1\n      pop\n        /* \"#utility.yul\":22898:22947   */\n    tag_589:\n        /* \"#utility.yul\":22960:23040   */\n      tag_590\n        /* \"#utility.yul\":23016:23038   */\n      tag_591\n        /* \"#utility.yul\":23034:23037   */\n      dup6\n        /* \"#utility.yul\":23016:23038   */\n      tag_343\n      jump\t// in\n    tag_591:\n        /* \"#utility.yul\":23006:23014   */\n      dup4\n        /* \"#utility.yul\":23002:23039   */\n      add\n        /* \"#utility.yul\":22989:23000   */\n      dup3\n        /* \"#utility.yul\":22960:23040   */\n      tag_352\n      jump\t// in\n    tag_590:\n        /* \"#utility.yul\":22619:23050   */\n      pop\n      pop\n        /* \"#utility.yul\":22604:23050   */\n    tag_586:\n        /* \"#utility.yul\":22514:23057   */\n      pop\n      pop\n      pop\n      jump\t// out\n        /* \"#utility.yul\":23063:23180   */\n    tag_354:\n        /* \"#utility.yul\":23117:23125   */\n      0x00\n        /* \"#utility.yul\":23167:23172   */\n      dup3\n        /* \"#utility.yul\":23161:23165   */\n      dup3\n        /* \"#utility.yul\":23157:23173   */\n      shr\n        /* \"#utility.yul\":23136:23173   */\n      swap1\n      pop\n        /* \"#utility.yul\":23063:23180   */\n      swap3\n      swap2\n      pop\n      pop\n      jump\t// out\n        /* \"#utility.yul\":23186:23355   */\n    tag_355:\n        /* \"#utility.yul\":23230:23236   */\n      0x00\n        /* \"#utility.yul\":23263:23314   */\n      tag_594\n        /* \"#utility.yul\":23311:23312   */\n      0x00\n        /* \"#utility.yul\":23307:23313   */\n      not\n        /* \"#utility.yul\":23299:23304   */\n      dup5\n        /* \"#utility.yul\":23296:23297   */\n      0x08\n        /* \"#utility.yul\":23292:23305   */\n      mul\n        /* \"#utility.yul\":23263:23314   */\n      tag_354\n      jump\t// in\n    tag_594:\n        /* \"#utility.yul\":23259:23315   */\n      not\n        /* \"#utility.yul\":23344:23348   */\n      dup1\n        /* \"#utility.yul\":23338:23342   */\n      dup4\n        /* \"#utility.yul\":23334:23349   */\n      and\n        /* \"#utility.yul\":23324:23349   */\n      swap2\n      pop\n        /* \"#utility.yul\":23237:23355   */\n      pop\n        /* \"#utility.yul\":23186:23355   */\n      swap3\n      swap2\n      pop\n      pop\n      jump\t// out\n        /* \"#utility.yul\":23360:23655   */\n    tag_356:\n        /* \"#utility.yul\":23436:23440   */\n      0x00\n        /* \"#utility.yul\":23582:23611   */\n      tag_596\n        /* \"#utility.yul\":23607:23610   */\n      dup4\n        /* \"#utility.yul\":23601:23605   */\n      dup4\n        /* \"#utility.yul\":23582:23611   */\n      tag_355\n      jump\t// in\n    tag_596:\n        /* \"#utility.yul\":23574:23611   */\n      swap2\n      pop\n        /* \"#utility.yul\":23644:23647   */\n      dup3\n        /* \"#utility.yul\":23641:23642   */\n      0x02\n        /* \"#utility.yul\":23637:23648   */\n      mul\n        /* \"#utility.yul\":23631:23635   */\n      dup3\n        /* \"#utility.yul\":23628:23649   */\n      or\n        /* \"#utility.yul\":23620:23649   */\n      swap1\n      pop\n        /* \"#utility.yul\":23360:23655   */\n      swap3\n      swap2\n      pop\n      pop\n      jump\t// out\n        /* \"#utility.yul\":23660:25111   */\n    tag_202:\n        /* \"#utility.yul\":23771:23774   */\n      dup2\n        /* \"#utility.yul\":23765:23769   */\n      dup2\n        /* \"#utility.yul\":23762:23775   */\n      sub\n        /* \"#utility.yul\":23759:23785   */\n      tag_598\n      jumpi\n        /* \"#utility.yul\":23778:23783   */\n      pop\n      pop\n      jump(tag_597)\n        /* \"#utility.yul\":23759:23785   */\n    tag_598:\n        /* \"#utility.yul\":23809:23843   */\n      tag_599\n        /* \"#utility.yul\":23839:23842   */\n      dup3\n        /* \"#utility.yul\":23809:23843   */\n      tag_341\n      jump\t// in\n    tag_599:\n        /* \"#utility.yul\":23908:23926   */\n      0xffffffffffffffff\n        /* \"#utility.yul\":23900:23906   */\n      dup2\n        /* \"#utility.yul\":23897:23927   */\n      gt\n        /* \"#utility.yul\":23894:23950   */\n      iszero\n      tag_600\n      jumpi\n        /* \"#utility.yul\":23930:23948   */\n      tag_601\n      tag_309\n      jump\t// in\n    tag_601:\n        /* \"#utility.yul\":23894:23950   */\n    tag_600:\n        /* \"#utility.yul\":23974:24012   */\n      tag_602\n        /* \"#utility.yul\":24006:24010   */\n      dup3\n        /* \"#utility.yul\":24000:24011   */\n      sload\n        /* \"#utility.yul\":23974:24012   */\n      tag_118\n      jump\t// in\n    tag_602:\n        /* \"#utility.yul\":24059:24126   */\n      tag_603\n        /* \"#utility.yul\":24119:24125   */\n      dup3\n        /* \"#utility.yul\":24111:24117   */\n      dup3\n        /* \"#utility.yul\":24105:24109   */\n      dup6\n        /* \"#utility.yul\":24059:24126   */\n      tag_353\n      jump\t// in\n    tag_603:\n        /* \"#utility.yul\":24153:24154   */\n      0x00\n        /* \"#utility.yul\":24182:24184   */\n      0x1f\n        /* \"#utility.yul\":24174:24180   */\n      dup4\n        /* \"#utility.yul\":24171:24185   */\n      gt\n        /* \"#utility.yul\":24199:24200   */\n      0x01\n        /* \"#utility.yul\":24194:24866   */\n      dup2\n      eq\n      tag_605\n      jumpi\n        /* \"#utility.yul\":24910:24911   */\n      0x00\n        /* \"#utility.yul\":24927:24933   */\n      dup5\n        /* \"#utility.yul\":24924:25001   */\n      iszero\n      tag_606\n      jumpi\n        /* \"#utility.yul\":24976:24985   */\n      dup3\n        /* \"#utility.yul\":24971:24974   */\n      dup8\n        /* \"#utility.yul\":24967:24986   */\n      add\n        /* \"#utility.yul\":24961:24987   */\n      sload\n        /* \"#utility.yul\":24952:24987   */\n      swap1\n      pop\n        /* \"#utility.yul\":24924:25001   */\n    tag_606:\n        /* \"#utility.yul\":25027:25094   */\n      tag_607\n        /* \"#utility.yul\":25087:25093   */\n      dup6\n        /* \"#utility.yul\":25080:25085   */\n      dup3\n        /* \"#utility.yul\":25027:25094   */\n      tag_356\n      jump\t// in\n    tag_607:\n        /* \"#utility.yul\":25021:25025   */\n      dup7\n        /* \"#utility.yul\":25014:25095   */\n      sstore\n        /* \"#utility.yul\":24883:25105   */\n      pop\n        /* \"#utility.yul\":24164:25105   */\n      jump(tag_604)\n        /* \"#utility.yul\":24194:24866   */\n    tag_605:\n        /* \"#utility.yul\":24246:24250   */\n      0x1f\n        /* \"#utility.yul\":24242:24251   */\n      not\n        /* \"#utility.yul\":24234:24240   */\n      dup5\n        /* \"#utility.yul\":24230:24252   */\n      and\n        /* \"#utility.yul\":24272:24308   */\n      tag_608\n        /* \"#utility.yul\":24304:24307   */\n      dup8\n        /* \"#utility.yul\":24272:24308   */\n      tag_342\n      jump\t// in\n    tag_608:\n        /* \"#utility.yul\":24265:24308   */\n      swap7\n      pop\n        /* \"#utility.yul\":24335:24372   */\n      tag_609\n        /* \"#utility.yul\":24367:24371   */\n      dup7\n        /* \"#utility.yul\":24335:24372   */\n      tag_342\n      jump\t// in\n    tag_609:\n        /* \"#utility.yul\":24394:24395   */\n      0x00\n        /* \"#utility.yul\":24408:24615   */\n    tag_610:\n        /* \"#utility.yul\":24422:24429   */\n      dup3\n        /* \"#utility.yul\":24419:24420   */\n      dup2\n        /* \"#utility.yul\":24416:24430   */\n      lt\n        /* \"#utility.yul\":24408:24615   */\n      iszero\n      tag_612\n      jumpi\n        /* \"#utility.yul\":24501:24510   */\n      dup5\n        /* \"#utility.yul\":24496:24499   */\n      dup10\n        /* \"#utility.yul\":24492:24511   */\n      add\n        /* \"#utility.yul\":24486:24512   */\n      sload\n        /* \"#utility.yul\":24478:24484   */\n      dup3\n        /* \"#utility.yul\":24471:24513   */\n      sstore\n        /* \"#utility.yul\":24552:24553   */\n      0x01\n        /* \"#utility.yul\":24544:24550   */\n      dup3\n        /* \"#utility.yul\":24540:24554   */\n      add\n        /* \"#utility.yul\":24530:24554   */\n      swap2\n      pop\n        /* \"#utility.yul\":24599:24600   */\n      0x01\n        /* \"#utility.yul\":24588:24597   */\n      dup6\n        /* \"#utility.yul\":24584:24601   */\n      add\n        /* \"#utility.yul\":24571:24601   */\n      swap5\n      pop\n        /* \"#utility.yul\":24445:24449   */\n      0x20\n        /* \"#utility.yul\":24442:24443   */\n      dup2\n        /* \"#utility.yul\":24438:24450   */\n      add\n        /* \"#utility.yul\":24433:24450   */\n      swap1\n      pop\n        /* \"#utility.yul\":24408:24615   */\n      jump(tag_610)\n    tag_612:\n        /* \"#utility.yul\":24643:24649   */\n      dup7\n        /* \"#utility.yul\":24634:24641   */\n      dup4\n        /* \"#utility.yul\":24631:24650   */\n      lt\n        /* \"#utility.yul\":24628:24807   */\n      iszero\n      tag_613\n      jumpi\n        /* \"#utility.yul\":24701:24710   */\n      dup5\n        /* \"#utility.yul\":24696:24699   */\n      dup10\n        /* \"#utility.yul\":24692:24711   */\n      add\n        /* \"#utility.yul\":24686:24712   */\n      sload\n        /* \"#utility.yul\":24744:24792   */\n      tag_614\n        /* \"#utility.yul\":24786:24790   */\n      0x1f\n        /* \"#utility.yul\":24778:24784   */\n      dup10\n        /* \"#utility.yul\":24774:24791   */\n      and\n        /* \"#utility.yul\":24763:24772   */\n      dup3\n        /* \"#utility.yul\":24744:24792   */\n      tag_355\n      jump\t// in\n    tag_614:\n        /* \"#utility.yul\":24736:24742   */\n      dup4\n        /* \"#utility.yul\":24729:24793   */\n      sstore\n        /* \"#utility.yul\":24651:24807   */\n      pop\n        /* \"#utility.yul\":24628:24807   */\n    tag_613:\n        /* \"#utility.yul\":24853:24854   */\n      0x01\n        /* \"#utility.yul\":24849:24850   */\n      0x02\n        /* \"#utility.yul\":24841:24847   */\n      dup9\n        /* \"#utility.yul\":24837:24851   */\n      mul\n        /* \"#utility.yul\":24833:24855   */\n      add\n        /* \"#utility.yul\":24827:24831   */\n      dup9\n        /* \"#utility.yul\":24820:24856   */\n      sstore\n        /* \"#utility.yul\":24201:24866   */\n      pop\n      pop\n      pop\n        /* \"#utility.yul\":24164:25105   */\n    tag_604:\n      pop\n        /* \"#utility.yul\":23749:25111   */\n      pop\n      pop\n      pop\n        /* \"#utility.yul\":23660:25111   */\n      pop\n      pop\n    tag_597:\n      jump\t// out\n        /* \"#utility.yul\":25117:25297   */\n    tag_205:\n        /* \"#utility.yul\":25165:25242   */\n      0x4e487b7100000000000000000000000000000000000000000000000000000000\n        /* \"#utility.yul\":25162:25163   */\n      0x00\n        /* \"#utility.yul\":25155:25243   */\n      mstore\n        /* \"#utility.yul\":25262:25266   */\n      0x31\n        /* \"#utility.yul\":25259:25260   */\n      0x04\n        /* \"#utility.yul\":25252:25267   */\n      mstore\n        /* \"#utility.yul\":25286:25290   */\n      0x24\n        /* \"#utility.yul\":25283:25284   */\n      0x00\n        /* \"#utility.yul\":25276:25291   */\n      revert\n        /* \"#utility.yul\":25303:25482   */\n    tag_357:\n        /* \"#utility.yul\":25443:25474   */\n      0x416d6f756e74206d7573742062652067726561746572207468616e2030000000\n        /* \"#utility.yul\":25439:25440   */\n      0x00\n        /* \"#utility.yul\":25431:25437   */\n      dup3\n        /* \"#utility.yul\":25427:25441   */\n      add\n        /* \"#utility.yul\":25420:25475   */\n      mstore\n        /* \"#utility.yul\":25303:25482   */\n      pop\n      jump\t// out\n        /* \"#utility.yul\":25488:25854   */\n    tag_358:\n        /* \"#utility.yul\":25630:25633   */\n      0x00\n        /* \"#utility.yul\":25651:25718   */\n      tag_618\n        /* \"#utility.yul\":25715:25717   */\n      0x1d\n        /* \"#utility.yul\":25710:25713   */\n      dup4\n        /* \"#utility.yul\":25651:25718   */\n      tag_292\n      jump\t// in\n    tag_618:\n        /* \"#utility.yul\":25644:25718   */\n      swap2\n      pop\n        /* \"#utility.yul\":25727:25820   */\n      tag_619\n        /* \"#utility.yul\":25816:25819   */\n      dup3\n        /* \"#utility.yul\":25727:25820   */\n      tag_357\n      jump\t// in\n    tag_619:\n        /* \"#utility.yul\":25845:25847   */\n      0x20\n        /* \"#utility.yul\":25840:25843   */\n      dup3\n        /* \"#utility.yul\":25836:25848   */\n      add\n        /* \"#utility.yul\":25829:25848   */\n      swap1\n      pop\n        /* \"#utility.yul\":25488:25854   */\n      swap2\n      swap1\n      pop\n      jump\t// out\n        /* \"#utility.yul\":25860:26279   */\n    tag_216:\n        /* \"#utility.yul\":26026:26030   */\n      0x00\n        /* \"#utility.yul\":26064:26066   */\n      0x20\n        /* \"#utility.yul\":26053:26062   */\n      dup3\n        /* \"#utility.yul\":26049:26067   */\n      add\n        /* \"#utility.yul\":26041:26067   */\n      swap1\n      pop\n        /* \"#utility.yul\":26113:26122   */\n      dup2\n        /* \"#utility.yul\":26107:26111   */\n      dup2\n        /* \"#utility.yul\":26103:26123   */\n      sub\n        /* \"#utility.yul\":26099:26100   */\n      0x00\n        /* \"#utility.yul\":26088:26097   */\n      dup4\n        /* \"#utility.yul\":26084:26101   */\n      add\n        /* \"#utility.yul\":26077:26124   */\n      mstore\n        /* \"#utility.yul\":26141:26272   */\n      tag_621\n        /* \"#utility.yul\":26267:26271   */\n      dup2\n        /* \"#utility.yul\":26141:26272   */\n      tag_358\n      jump\t// in\n    tag_621:\n        /* \"#utility.yul\":26133:26272   */\n      swap1\n      pop\n        /* \"#utility.yul\":25860:26279   */\n      swap2\n      swap1\n      pop\n      jump\t// out\n        /* \"#utility.yul\":26285:27680   */\n    tag_219:\n        /* \"#utility.yul\":26402:26439   */\n      tag_623\n        /* \"#utility.yul\":26435:26438   */\n      dup3\n        /* \"#utility.yul\":26402:26439   */\n      tag_291\n      jump\t// in\n    tag_623:\n        /* \"#utility.yul\":26504:26522   */\n      0xffffffffffffffff\n        /* \"#utility.yul\":26496:26502   */\n      dup2\n        /* \"#utility.yul\":26493:26523   */\n      gt\n        /* \"#utility.yul\":26490:26546   */\n      iszero\n      tag_624\n      jumpi\n        /* \"#utility.yul\":26526:26544   */\n      tag_625\n      tag_309\n      jump\t// in\n    tag_625:\n        /* \"#utility.yul\":26490:26546   */\n    tag_624:\n        /* \"#utility.yul\":26570:26608   */\n      tag_626\n        /* \"#utility.yul\":26602:26606   */\n      dup3\n        /* \"#utility.yul\":26596:26607   */\n      sload\n        /* \"#utility.yul\":26570:26608   */\n      tag_118\n      jump\t// in\n    tag_626:\n        /* \"#utility.yul\":26655:26722   */\n      tag_627\n        /* \"#utility.yul\":26715:26721   */\n      dup3\n        /* \"#utility.yul\":26707:26713   */\n      dup3\n        /* \"#utility.yul\":26701:26705   */\n      dup6\n        /* \"#utility.yul\":26655:26722   */\n      tag_353\n      jump\t// in\n    tag_627:\n        /* \"#utility.yul\":26749:26750   */\n      0x00\n        /* \"#utility.yul\":26773:26777   */\n      0x20\n        /* \"#utility.yul\":26760:26777   */\n      swap1\n      pop\n        /* \"#utility.yul\":26805:26807   */\n      0x1f\n        /* \"#utility.yul\":26797:26803   */\n      dup4\n        /* \"#utility.yul\":26794:26808   */\n      gt\n        /* \"#utility.yul\":26822:26823   */\n      0x01\n        /* \"#utility.yul\":26817:27435   */\n      dup2\n      eq\n      tag_629\n      jumpi\n        /* \"#utility.yul\":27479:27480   */\n      0x00\n        /* \"#utility.yul\":27496:27502   */\n      dup5\n        /* \"#utility.yul\":27493:27570   */\n      iszero\n      tag_630\n      jumpi\n        /* \"#utility.yul\":27545:27554   */\n      dup3\n        /* \"#utility.yul\":27540:27543   */\n      dup8\n        /* \"#utility.yul\":27536:27555   */\n      add\n        /* \"#utility.yul\":27530:27556   */\n      mload\n        /* \"#utility.yul\":27521:27556   */\n      swap1\n      pop\n        /* \"#utility.yul\":27493:27570   */\n    tag_630:\n        /* \"#utility.yul\":27596:27663   */\n      tag_631\n        /* \"#utility.yul\":27656:27662   */\n      dup6\n        /* \"#utility.yul\":27649:27654   */\n      dup3\n        /* \"#utility.yul\":27596:27663   */\n      tag_356\n      jump\t// in\n    tag_631:\n        /* \"#utility.yul\":27590:27594   */\n      dup7\n        /* \"#utility.yul\":27583:27664   */\n      sstore\n        /* \"#utility.yul\":27452:27674   */\n      pop\n        /* \"#utility.yul\":26787:27674   */\n      jump(tag_628)\n        /* \"#utility.yul\":26817:27435   */\n    tag_629:\n        /* \"#utility.yul\":26869:26873   */\n      0x1f\n        /* \"#utility.yul\":26865:26874   */\n      not\n        /* \"#utility.yul\":26857:26863   */\n      dup5\n        /* \"#utility.yul\":26853:26875   */\n      and\n        /* \"#utility.yul\":26903:26940   */\n      tag_632\n        /* \"#utility.yul\":26935:26939   */\n      dup7\n        /* \"#utility.yul\":26903:26940   */\n      tag_342\n      jump\t// in\n    tag_632:\n        /* \"#utility.yul\":26962:26963   */\n      0x00\n        /* \"#utility.yul\":26976:27184   */\n    tag_633:\n        /* \"#utility.yul\":26990:26997   */\n      dup3\n        /* \"#utility.yul\":26987:26988   */\n      dup2\n        /* \"#utility.yul\":26984:26998   */\n      lt\n        /* \"#utility.yul\":26976:27184   */\n      iszero\n      tag_635\n      jumpi\n        /* \"#utility.yul\":27069:27078   */\n      dup5\n        /* \"#utility.yul\":27064:27067   */\n      dup10\n        /* \"#utility.yul\":27060:27079   */\n      add\n        /* \"#utility.yul\":27054:27080   */\n      mload\n        /* \"#utility.yul\":27046:27052   */\n      dup3\n        /* \"#utility.yul\":27039:27081   */\n      sstore\n        /* \"#utility.yul\":27120:27121   */\n      0x01\n        /* \"#utility.yul\":27112:27118   */\n      dup3\n        /* \"#utility.yul\":27108:27122   */\n      add\n        /* \"#utility.yul\":27098:27122   */\n      swap2\n      pop\n        /* \"#utility.yul\":27167:27169   */\n      0x20\n        /* \"#utility.yul\":27156:27165   */\n      dup6\n        /* \"#utility.yul\":27152:27170   */\n      add\n        /* \"#utility.yul\":27139:27170   */\n      swap5\n      pop\n        /* \"#utility.yul\":27013:27017   */\n      0x20\n        /* \"#utility.yul\":27010:27011   */\n      dup2\n        /* \"#utility.yul\":27006:27018   */\n      add\n        /* \"#utility.yul\":27001:27018   */\n      swap1\n      pop\n        /* \"#utility.yul\":26976:27184   */\n      jump(tag_633)\n    tag_635:\n        /* \"#utility.yul\":27212:27218   */\n      dup7\n        /* \"#utility.yul\":27203:27210   */\n      dup4\n        /* \"#utility.yul\":27200:27219   */\n      lt\n        /* \"#utility.yul\":27197:27376   */\n      iszero\n      tag_636\n      jumpi\n        /* \"#utility.yul\":27270:27279   */\n      dup5\n        /* \"#utility.yul\":27265:27268   */\n      dup10\n        /* \"#utility.yul\":27261:27280   */\n      add\n        /* \"#utility.yul\":27255:27281   */\n      mload\n        /* \"#utility.yul\":27313:27361   */\n      tag_637\n        /* \"#utility.yul\":27355:27359   */\n      0x1f\n        /* \"#utility.yul\":27347:27353   */\n      dup10\n        /* \"#utility.yul\":27343:27360   */\n      and\n        /* \"#utility.yul\":27332:27341   */\n      dup3\n        /* \"#utility.yul\":27313:27361   */\n      tag_355\n      jump\t// in\n    tag_637:\n        /* \"#utility.yul\":27305:27311   */\n      dup4\n        /* \"#utility.yul\":27298:27362   */\n      sstore\n        /* \"#utility.yul\":27220:27376   */\n      pop\n        /* \"#utility.yul\":27197:27376   */\n    tag_636:\n        /* \"#utility.yul\":27422:27423   */\n      0x01\n        /* \"#utility.yul\":27418:27419   */\n      0x02\n        /* \"#utility.yul\":27410:27416   */\n      dup9\n        /* \"#utility.yul\":27406:27420   */\n      mul\n        /* \"#utility.yul\":27402:27424   */\n      add\n        /* \"#utility.yul\":27396:27400   */\n      dup9\n        /* \"#utility.yul\":27389:27425   */\n      sstore\n        /* \"#utility.yul\":26824:27435   */\n      pop\n      pop\n      pop\n        /* \"#utility.yul\":26787:27674   */\n    tag_628:\n      pop\n        /* \"#utility.yul\":26377:27680   */\n      pop\n      pop\n      pop\n        /* \"#utility.yul\":26285:27680   */\n      pop\n      pop\n      jump\t// out\n        /* \"#utility.yul\":27686:27858   */\n    tag_359:\n        /* \"#utility.yul\":27826:27850   */\n      0x43616d706169676e206973206e6f742061637469766500000000000000000000\n        /* \"#utility.yul\":27822:27823   */\n      0x00\n        /* \"#utility.yul\":27814:27820   */\n      dup3\n        /* \"#utility.yul\":27810:27824   */\n      add\n        /* \"#utility.yul\":27803:27851   */\n      mstore\n        /* \"#utility.yul\":27686:27858   */\n      pop\n      jump\t// out\n        /* \"#utility.yul\":27864:28230   */\n    tag_360:\n        /* \"#utility.yul\":28006:28009   */\n      0x00\n        /* \"#utility.yul\":28027:28094   */\n      tag_640\n        /* \"#utility.yul\":28091:28093   */\n      0x16\n        /* \"#utility.yul\":28086:28089   */\n      dup4\n        /* \"#utility.yul\":28027:28094   */\n      tag_292\n      jump\t// in\n    tag_640:\n        /* \"#utility.yul\":28020:28094   */\n      swap2\n      pop\n        /* \"#utility.yul\":28103:28196   */\n      tag_641\n        /* \"#utility.yul\":28192:28195   */\n      dup3\n        /* \"#utility.yul\":28103:28196   */\n      tag_359\n      jump\t// in\n    tag_641:\n        /* \"#utility.yul\":28221:28223   */\n      0x20\n        /* \"#utility.yul\":28216:28219   */\n      dup3\n        /* \"#utility.yul\":28212:28224   */\n      add\n        /* \"#utility.yul\":28205:28224   */\n      swap1\n      pop\n        /* \"#utility.yul\":27864:28230   */\n      swap2\n      swap1\n      pop\n      jump\t// out\n        /* \"#utility.yul\":28236:28655   */\n    tag_227:\n        /* \"#utility.yul\":28402:28406   */\n      0x00\n        /* \"#utility.yul\":28440:28442   */\n      0x20\n        /* \"#utility.yul\":28429:28438   */\n      dup3\n        /* \"#utility.yul\":28425:28443   */\n      add\n        /* \"#utility.yul\":28417:28443   */\n      swap1\n      pop\n        /* \"#utility.yul\":28489:28498   */\n      dup2\n        /* \"#utility.yul\":28483:28487   */\n      dup2\n        /* \"#utility.yul\":28479:28499   */\n      sub\n        /* \"#utility.yul\":28475:28476   */\n      0x00\n        /* \"#utility.yul\":28464:28473   */\n      dup4\n        /* \"#utility.yul\":28460:28477   */\n      add\n        /* \"#utility.yul\":28453:28500   */\n      mstore\n        /* \"#utility.yul\":28517:28648   */\n      tag_643\n        /* \"#utility.yul\":28643:28647   */\n      dup2\n        /* \"#utility.yul\":28517:28648   */\n      tag_360\n      jump\t// in\n    tag_643:\n        /* \"#utility.yul\":28509:28648   */\n      swap1\n      pop\n        /* \"#utility.yul\":28236:28655   */\n      swap2\n      swap1\n      pop\n      jump\t// out\n        /* \"#utility.yul\":28661:28829   */\n    tag_361:\n        /* \"#utility.yul\":28801:28821   */\n      0x43616d706169676e206973207061757365640000000000000000000000000000\n        /* \"#utility.yul\":28797:28798   */\n      0x00\n        /* \"#utility.yul\":28789:28795   */\n      dup3\n        /* \"#utility.yul\":28785:28799   */\n      add\n        /* \"#utility.yul\":28778:28822   */\n      mstore\n        /* \"#utility.yul\":28661:28829   */\n      pop\n      jump\t// out\n        /* \"#utility.yul\":28835:29201   */\n    tag_362:\n        /* \"#utility.yul\":28977:28980   */\n      0x00\n        /* \"#utility.yul\":28998:29065   */\n      tag_646\n        /* \"#utility.yul\":29062:29064   */\n      0x12\n        /* \"#utility.yul\":29057:29060   */\n      dup4\n        /* \"#utility.yul\":28998:29065   */\n      tag_292\n      jump\t// in\n    tag_646:\n        /* \"#utility.yul\":28991:29065   */\n      swap2\n      pop\n        /* \"#utility.yul\":29074:29167   */\n      tag_647\n        /* \"#utility.yul\":29163:29166   */\n      dup3\n        /* \"#utility.yul\":29074:29167   */\n      tag_361\n      jump\t// in\n    tag_647:\n        /* \"#utility.yul\":29192:29194   */\n      0x20\n        /* \"#utility.yul\":29187:29190   */\n      dup3\n        /* \"#utility.yul\":29183:29195   */\n      add\n        /* \"#utility.yul\":29176:29195   */\n      swap1\n      pop\n        /* \"#utility.yul\":28835:29201   */\n      swap2\n      swap1\n      pop\n      jump\t// out\n        /* \"#utility.yul\":29207:29626   */\n    tag_231:\n        /* \"#utility.yul\":29373:29377   */\n      0x00\n        /* \"#utility.yul\":29411:29413   */\n      0x20\n        /* \"#utility.yul\":29400:29409   */\n      dup3\n        /* \"#utility.yul\":29396:29414   */\n      add\n        /* \"#utility.yul\":29388:29414   */\n      swap1\n      pop\n        /* \"#utility.yul\":29460:29469   */\n      dup2\n        /* \"#utility.yul\":29454:29458   */\n      dup2\n        /* \"#utility.yul\":29450:29470   */\n      sub\n        /* \"#utility.yul\":29446:29447   */\n      0x00\n        /* \"#utility.yul\":29435:29444   */\n      dup4\n        /* \"#utility.yul\":29431:29448   */\n      add\n        /* \"#utility.yul\":29424:29471   */\n      mstore\n        /* \"#utility.yul\":29488:29619   */\n      tag_649\n        /* \"#utility.yul\":29614:29618   */\n      dup2\n        /* \"#utility.yul\":29488:29619   */\n      tag_362\n      jump\t// in\n    tag_649:\n        /* \"#utility.yul\":29480:29619   */\n      swap1\n      pop\n        /* \"#utility.yul\":29207:29626   */\n      swap2\n      swap1\n      pop\n      jump\t// out\n        /* \"#utility.yul\":29632:29794   */\n    tag_363:\n        /* \"#utility.yul\":29772:29786   */\n      0x496e76616c696420546965720000000000000000000000000000000000000000\n        /* \"#utility.yul\":29768:29769   */\n      0x00\n        /* \"#utility.yul\":29760:29766   */\n      dup3\n        /* \"#utility.yul\":29756:29770   */\n      add\n        /* \"#utility.yul\":29749:29787   */\n      mstore\n        /* \"#utility.yul\":29632:29794   */\n      pop\n      jump\t// out\n        /* \"#utility.yul\":29800:30166   */\n    tag_364:\n        /* \"#utility.yul\":29942:29945   */\n      0x00\n        /* \"#utility.yul\":29963:30030   */\n      tag_652\n        /* \"#utility.yul\":30027:30029   */\n      0x0c\n        /* \"#utility.yul\":30022:30025   */\n      dup4\n        /* \"#utility.yul\":29963:30030   */\n      tag_292\n      jump\t// in\n    tag_652:\n        /* \"#utility.yul\":29956:30030   */\n      swap2\n      pop\n        /* \"#utility.yul\":30039:30132   */\n      tag_653\n        /* \"#utility.yul\":30128:30131   */\n      dup3\n        /* \"#utility.yul\":30039:30132   */\n      tag_363\n      jump\t// in\n    tag_653:\n        /* \"#utility.yul\":30157:30159   */\n      0x20\n        /* \"#utility.yul\":30152:30155   */\n      dup3\n        /* \"#utility.yul\":30148:30160   */\n      add\n        /* \"#utility.yul\":30141:30160   */\n      swap1\n      pop\n        /* \"#utility.yul\":29800:30166   */\n      swap2\n      swap1\n      pop\n      jump\t// out\n        /* \"#utility.yul\":30172:30591   */\n    tag_235:\n        /* \"#utility.yul\":30338:30342   */\n      0x00\n        /* \"#utility.yul\":30376:30378   */\n      0x20\n        /* \"#utility.yul\":30365:30374   */\n      dup3\n        /* \"#utility.yul\":30361:30379   */\n      add\n        /* \"#utility.yul\":30353:30379   */\n      swap1\n      pop\n        /* \"#utility.yul\":30425:30434   */\n      dup2\n        /* \"#utility.yul\":30419:30423   */\n      dup2\n        /* \"#utility.yul\":30415:30435   */\n      sub\n        /* \"#utility.yul\":30411:30412   */\n      0x00\n        /* \"#utility.yul\":30400:30409   */\n      dup4\n        /* \"#utility.yul\":30396:30413   */\n      add\n        /* \"#utility.yul\":30389:30436   */\n      mstore\n        /* \"#utility.yul\":30453:30584   */\n      tag_655\n        /* \"#utility.yul\":30579:30583   */\n      dup2\n        /* \"#utility.yul\":30453:30584   */\n      tag_364\n      jump\t// in\n    tag_655:\n        /* \"#utility.yul\":30445:30584   */\n      swap1\n      pop\n        /* \"#utility.yul\":30172:30591   */\n      swap2\n      swap1\n      pop\n      jump\t// out\n        /* \"#utility.yul\":30597:30768   */\n    tag_365:\n        /* \"#utility.yul\":30737:30760   */\n      0x496e76616c696420616d6f756e74206261636b65640000000000000000000000\n        /* \"#utility.yul\":30733:30734   */\n      0x00\n        /* \"#utility.yul\":30725:30731   */\n      dup3\n        /* \"#utility.yul\":30721:30735   */\n      add\n        /* \"#utility.yul\":30714:30761   */\n      mstore\n        /* \"#utility.yul\":30597:30768   */\n      pop\n      jump\t// out\n        /* \"#utility.yul\":30774:31140   */\n    tag_366:\n        /* \"#utility.yul\":30916:30919   */\n      0x00\n        /* \"#utility.yul\":30937:31004   */\n      tag_658\n        /* \"#utility.yul\":31001:31003   */\n      0x15\n        /* \"#utility.yul\":30996:30999   */\n      dup4\n        /* \"#utility.yul\":30937:31004   */\n      tag_292\n      jump\t// in\n    tag_658:\n        /* \"#utility.yul\":30930:31004   */\n      swap2\n      pop\n        /* \"#utility.yul\":31013:31106   */\n      tag_659\n        /* \"#utility.yul\":31102:31105   */\n      dup3\n        /* \"#utility.yul\":31013:31106   */\n      tag_365\n      jump\t// in\n    tag_659:\n        /* \"#utility.yul\":31131:31133   */\n      0x20\n        /* \"#utility.yul\":31126:31129   */\n      dup3\n        /* \"#utility.yul\":31122:31134   */\n      add\n        /* \"#utility.yul\":31115:31134   */\n      swap1\n      pop\n        /* \"#utility.yul\":30774:31140   */\n      swap2\n      swap1\n      pop\n      jump\t// out\n        /* \"#utility.yul\":31146:31565   */\n    tag_241:\n        /* \"#utility.yul\":31312:31316   */\n      0x00\n        /* \"#utility.yul\":31350:31352   */\n      0x20\n        /* \"#utility.yul\":31339:31348   */\n      dup3\n        /* \"#utility.yul\":31335:31353   */\n      add\n        /* \"#utility.yul\":31327:31353   */\n      swap1\n      pop\n        /* \"#utility.yul\":31399:31408   */\n      dup2\n        /* \"#utility.yul\":31393:31397   */\n      dup2\n        /* \"#utility.yul\":31389:31409   */\n      sub\n        /* \"#utility.yul\":31385:31386   */\n      0x00\n        /* \"#utility.yul\":31374:31383   */\n      dup4\n        /* \"#utility.yul\":31370:31387   */\n      add\n        /* \"#utility.yul\":31363:31410   */\n      mstore\n        /* \"#utility.yul\":31427:31558   */\n      tag_661\n        /* \"#utility.yul\":31553:31557   */\n      dup2\n        /* \"#utility.yul\":31427:31558   */\n      tag_366\n      jump\t// in\n    tag_661:\n        /* \"#utility.yul\":31419:31558   */\n      swap1\n      pop\n        /* \"#utility.yul\":31146:31565   */\n      swap2\n      swap1\n      pop\n      jump\t// out\n        /* \"#utility.yul\":31571:31804   */\n    tag_246:\n        /* \"#utility.yul\":31610:31613   */\n      0x00\n        /* \"#utility.yul\":31633:31657   */\n      tag_663\n        /* \"#utility.yul\":31651:31656   */\n      dup3\n        /* \"#utility.yul\":31633:31657   */\n      tag_288\n      jump\t// in\n    tag_663:\n        /* \"#utility.yul\":31624:31657   */\n      swap2\n      pop\n        /* \"#utility.yul\":31679:31745   */\n      0xffffffffffffffffffffffffffffffffffffffffffffffffffffffffffffffff\n        /* \"#utility.yul\":31672:31677   */\n      dup3\n        /* \"#utility.yul\":31669:31746   */\n      sub\n        /* \"#utility.yul\":31666:31769   */\n      tag_664\n      jumpi\n        /* \"#utility.yul\":31749:31767   */\n      tag_665\n      tag_330\n      jump\t// in\n    tag_665:\n        /* \"#utility.yul\":31666:31769   */\n    tag_664:\n        /* \"#utility.yul\":31796:31797   */\n      0x01\n        /* \"#utility.yul\":31789:31794   */\n      dup3\n        /* \"#utility.yul\":31785:31798   */\n      add\n        /* \"#utility.yul\":31778:31798   */\n      swap1\n      pop\n        /* \"#utility.yul\":31571:31804   */\n      swap2\n      swap1\n      pop\n      jump\t// out\n\n    auxdata: 0xa2646970667358221220ede21a840dc874ce61d0903ac01d8aa5e12cc4ce0dd370126c3f13eee8b6faeb64736f6c634300081a0033\n}\n",
				"bytecode": {
					"linkReferences": {},
					"object": "608060405234801561000f575f80fd5b50604051612a49380380612a498339818101604052810190610031919061026a565b835f908161003f919061050a565b50826001908161004f919061050a565b508160028190555062015180816100669190610606565b426100719190610647565b6003819055503360045f6101000a81548173ffffffffffffffffffffffffffffffffffffffff021916908373ffffffffffffffffffffffffffffffffffffffff1602179055505f600460156101000a81548160ff021916908360028111156100dc576100db61067a565b5b0217905550505050506106a7565b5f604051905090565b5f80fd5b5f80fd5b5f80fd5b5f80fd5b5f601f19601f8301169050919050565b7f4e487b71000000000000000000000000000000000000000000000000000000005f52604160045260245ffd5b61014982610103565b810181811067ffffffffffffffff8211171561016857610167610113565b5b80604052505050565b5f61017a6100ea565b90506101868282610140565b919050565b5f67ffffffffffffffff8211156101a5576101a4610113565b5b6101ae82610103565b9050602081019050919050565b8281835e5f83830152505050565b5f6101db6101d68461018b565b610171565b9050828152602081018484840111156101f7576101f66100ff565b5b6102028482856101bb565b509392505050565b5f82601f83011261021e5761021d6100fb565b5b815161022e8482602086016101c9565b91505092915050565b5f819050919050565b61024981610237565b8114610253575f80fd5b50565b5f8151905061026481610240565b92915050565b5f805f8060808587031215610282576102816100f3565b5b5f85015167ffffffffffffffff81111561029f5761029e6100f7565b5b6102ab8782880161020a565b945050602085015167ffffffffffffffff8111156102cc576102cb6100f7565b5b6102d88782880161020a565b93505060406102e987828801610256565b92505060606102fa87828801610256565b91505092959194509250565b5f81519050919050565b7f4e487b71000000000000000000000000000000000000000000000000000000005f52602260045260245ffd5b5f600282049050600182168061035457607f821691505b60208210810361036757610366610310565b5b50919050565b5f819050815f5260205f209050919050565b5f6020601f8301049050919050565b5f82821b905092915050565b5f600883026103c97fffffffffffffffffffffffffffffffffffffffffffffffffffffffffffffffff8261038e565b6103d3868361038e565b95508019841693508086168417925050509392505050565b5f819050919050565b5f61040e61040961040484610237565b6103eb565b610237565b9050919050565b5f819050919050565b610427836103f4565b61043b61043382610415565b84845461039a565b825550505050565b5f90565b61044f610443565b61045a81848461041e565b505050565b5b8181101561047d576104725f82610447565b600181019050610460565b5050565b601f8211156104c2576104938161036d565b61049c8461037f565b810160208510156104ab578190505b6104bf6104b78561037f565b83018261045f565b50505b505050565b5f82821c905092915050565b5f6104e25f19846008026104c7565b1980831691505092915050565b5f6104fa83836104d3565b9150826002028217905092915050565b61051382610306565b67ffffffffffffffff81111561052c5761052b610113565b5b610536825461033d565b610541828285610481565b5f60209050601f831160018114610572575f8415610560578287015190505b61056a85826104ef565b8655506105d1565b601f1984166105808661036d565b5f5b828110156105a757848901518255600182019150602085019450602081019050610582565b868310156105c457848901516105c0601f8916826104d3565b8355505b6001600288020188555050505b505050505050565b7f4e487b71000000000000000000000000000000000000000000000000000000005f52601160045260245ffd5b5f61061082610237565b915061061b83610237565b925082820261062981610237565b915082820484148315176106405761063f6105d9565b5b5092915050565b5f61065182610237565b915061065c83610237565b9250828201905080821115610674576106736105d9565b5b92915050565b7f4e487b71000000000000000000000000000000000000000000000000000000005f52602160045260245ffd5b612395806106b45f395ff3fe60806040526004361061011e575f3560e01c80637b4e5c981161009f578063d621a77611610063578063d621a77614610394578063de170570146103aa578063e036a772146103d4578063e4efd1dc146103fe578063fdf04ed4146104285761011e565b80637b4e5c98146102c05780638ece7b91146102ea578063b85dfb8014610312578063c19d93fb1461034e578063ca1d209d146103785761011e565b80634137e733116100e65780634137e733146101f2578063590e1ae31461021c5780636f9fb98a146102325780637497211b1461025c5780637adba527146102845761011e565b8063039af9eb146101225780630574f59014610160578063105505151461018a578063389b7533146101b45780633ccfd60b146101dc575b5f80fd5b34801561012d575f80fd5b50610148600480360381019061014391906113e1565b610452565b6040516101579392919061148b565b60405180910390f35b34801561016b575f80fd5b5061017461050d565b60405161018191906114c7565b60405180910390f35b348015610195575f80fd5b5061019e610599565b6040516101ab919061155a565b60405180910390f35b3480156101bf575f80fd5b506101da60048036038101906101d591906113e1565b610613565b005b3480156101e7575f80fd5b506101f06106cb565b005b3480156101fd575f80fd5b50610206610886565b60405161021391906114c7565b60405180910390f35b348015610227575f80fd5b50610230610911565b005b34801561023d575f80fd5b50610246610a9e565b6040516102539190611573565b60405180910390f35b348015610267575f80fd5b50610282600480360381019061027d91906113e1565b610aa5565b005b34801561028f575f80fd5b506102aa60048036038101906102a591906115e6565b610c3e565b6040516102b7919061163e565b60405180910390f35b3480156102cb575f80fd5b506102d4610ca3565b6040516102e1919061163e565b60405180910390f35b3480156102f5575f80fd5b50610310600480360381019061030b9190611783565b610cb6565b005b34801561031d575f80fd5b50610338600480360381019061033391906117dd565b610df8565b6040516103459190611573565b60405180910390f35b348015610359575f80fd5b50610362610e12565b60405161036f919061155a565b60405180910390f35b610392600480360381019061038d91906113e1565b610e25565b005b34801561039f575f80fd5b506103a8611095565b005b3480156103b5575f80fd5b506103be611150565b6040516103cb9190611967565b60405180910390f35b3480156103df575f80fd5b506103e861124f565b6040516103f59190611573565b60405180910390f35b348015610409575f80fd5b50610412611255565b60405161041f9190611573565b60405180910390f35b348015610433575f80fd5b5061043c61125b565b6040516104499190611996565b60405180910390f35b60058181548110610461575f80fd5b905f5260205f2090600302015f91509050805f018054610480906119dc565b80601f01602080910402602001604051908101604052809291908181526020018280546104ac906119dc565b80156104f75780601f106104ce576101008083540402835291602001916104f7565b820191905f5260205f20905b8154815290600101906020018083116104da57829003601f168201915b5050505050908060010154908060020154905083565b6001805461051a906119dc565b80601f0160208091040260200160405190810160405280929190818152602001828054610546906119dc565b80156105915780601f1061056857610100808354040283529160200191610591565b820191905f5260205f20905b81548152906001019060200180831161057457829003601f168201915b505050505081565b5f8060028111156105ad576105ac6114e7565b5b600460159054906101000a900460ff1660028111156105cf576105ce6114e7565b5b1480156105dd575060035442115b156105fd576002544710156105f35760026105f6565b60015b9050610610565b600460159054906101000a900460ff1690505b90565b60045f9054906101000a900473ffffffffffffffffffffffffffffffffffffffff1673ffffffffffffffffffffffffffffffffffffffff163373ffffffffffffffffffffffffffffffffffffffff16146106a2576040517f08c379a000000000000000000000000000000000000000000000000000000000815260040161069990611a56565b60405180910390fd5b62015180816106b19190611aa1565b60035f8282546106c19190611ae2565b9250508190555050565b60045f9054906101000a900473ffffffffffffffffffffffffffffffffffffffff1673ffffffffffffffffffffffffffffffffffffffff163373ffffffffffffffffffffffffffffffffffffffff161461075a576040517f08c379a000000000000000000000000000000000000000000000000000000000815260040161075190611a56565b60405180910390fd5b610762611280565b60016002811115610776576107756114e7565b5b600460159054906101000a900460ff166002811115610798576107976114e7565b5b146107d8576040517f08c379a00000000000000000000000000000000000000000000000000000000081526004016107cf90611b5f565b60405180910390fd5b5f4790505f811161081e576040517f08c379a000000000000000000000000000000000000000000000000000000000815260040161081590611bc7565b60405180910390fd5b60045f9054906101000a900473ffffffffffffffffffffffffffffffffffffffff1673ffffffffffffffffffffffffffffffffffffffff166108fc8290811502906040515f60405180830381858888f19350505050158015610882573d5f803e3d5ffd5b5050565b5f8054610892906119dc565b80601f01602080910402602001604051908101604052809291908181526020018280546108be906119dc565b80156109095780601f106108e057610100808354040283529160200191610909565b820191905f5260205f20905b8154815290600101906020018083116108ec57829003601f168201915b505050505081565b610919611280565b60028081111561092c5761092b6114e7565b5b600460159054906101000a900460ff16600281111561094e5761094d6114e7565b5b1461098e576040517f08c379a000000000000000000000000000000000000000000000000000000000815260040161098590611c2f565b60405180910390fd5b5f60065f3373ffffffffffffffffffffffffffffffffffffffff1673ffffffffffffffffffffffffffffffffffffffff1681526020019081526020015f205f015490505f8111610a13576040517f08c379a0000000000000000000000000000000000000000000000000000000008152600401610a0a90611c97565b60405180910390fd5b5f60065f3373ffffffffffffffffffffffffffffffffffffffff1673ffffffffffffffffffffffffffffffffffffffff1681526020019081526020015f205f01819055503373ffffffffffffffffffffffffffffffffffffffff166108fc8290811502906040515f60405180830381858888f19350505050158015610a9a573d5f803e3d5ffd5b5050565b5f47905090565b60045f9054906101000a900473ffffffffffffffffffffffffffffffffffffffff1673ffffffffffffffffffffffffffffffffffffffff163373ffffffffffffffffffffffffffffffffffffffff1614610b34576040517f08c379a0000000000000000000000000000000000000000000000000000000008152600401610b2b90611a56565b60405180910390fd5b6005805490508110610b7b576040517f08c379a0000000000000000000000000000000000000000000000000000000008152600401610b7290611cff565b60405180910390fd5b60056001600580549050610b8f9190611d1d565b81548110610ba057610b9f611d50565b5b905f5260205f20906003020160058281548110610bc057610bbf611d50565b5b905f5260205f2090600302015f8201815f019081610bde9190611f2f565b5060018201548160010155600282015481600201559050506005805480610c0857610c07612014565b5b600190038181905f5260205f2090600302015f8082015f610c299190611345565b600182015f9055600282015f90555050905550565b5f60065f8473ffffffffffffffffffffffffffffffffffffffff1673ffffffffffffffffffffffffffffffffffffffff1681526020019081526020015f206001015f8381526020019081526020015f205f9054906101000a900460ff16905092915050565b600460149054906101000a900460ff1681565b60045f9054906101000a900473ffffffffffffffffffffffffffffffffffffffff1673ffffffffffffffffffffffffffffffffffffffff163373ffffffffffffffffffffffffffffffffffffffff1614610d45576040517f08c379a0000000000000000000000000000000000000000000000000000000008152600401610d3c90611a56565b60405180910390fd5b5f8111610d87576040517f08c379a0000000000000000000000000000000000000000000000000000000008152600401610d7e9061208b565b60405180910390fd5b600560405180606001604052808481526020018381526020015f815250908060018154018082558091505060019003905f5260205f2090600302015f909190919091505f820151815f019081610ddd91906120a9565b50602082015181600101556040820151816002015550505050565b6006602052805f5260405f205f91509050805f0154905081565b600460159054906101000a900460ff1681565b5f6002811115610e3857610e376114e7565b5b600460159054906101000a900460ff166002811115610e5a57610e596114e7565b5b14610e9a576040517f08c379a0000000000000000000000000000000000000000000000000000000008152600401610e91906121c2565b60405180910390fd5b600460149054906101000a900460ff1615610eea576040517f08c379a0000000000000000000000000000000000000000000000000000000008152600401610ee19061222a565b60405180910390fd5b6005805490508110610f31576040517f08c379a0000000000000000000000000000000000000000000000000000000008152600401610f2890612292565b60405180910390fd5b60058181548110610f4557610f44611d50565b5b905f5260205f209060030201600101543414610f96576040517f08c379a0000000000000000000000000000000000000000000000000000000008152600401610f8d906122fa565b60405180910390fd5b60058181548110610faa57610fa9611d50565b5b905f5260205f2090600302016002015f815480929190610fc990612318565b91905055503460065f3373ffffffffffffffffffffffffffffffffffffffff1673ffffffffffffffffffffffffffffffffffffffff1681526020019081526020015f205f015f82825461101c9190611ae2565b92505081905550600160065f3373ffffffffffffffffffffffffffffffffffffffff1673ffffffffffffffffffffffffffffffffffffffff1681526020019081526020015f206001015f8381526020019081526020015f205f6101000a81548160ff021916908315150217905550611092611280565b50565b60045f9054906101000a900473ffffffffffffffffffffffffffffffffffffffff1673ffffffffffffffffffffffffffffffffffffffff163373ffffffffffffffffffffffffffffffffffffffff1614611124576040517f08c379a000000000000000000000000000000000000000000000000000000000815260040161111b90611a56565b60405180910390fd5b600460149054906101000a900460ff1615600460146101000a81548160ff021916908315150217905550565b60606005805480602002602001604051908101604052809291908181526020015f905b82821015611246578382905f5260205f2090600302016040518060600160405290815f820180546111a3906119dc565b80601f01602080910402602001604051908101604052809291908181526020018280546111cf906119dc565b801561121a5780601f106111f15761010080835404028352916020019161121a565b820191905f5260205f20905b8154815290600101906020018083116111fd57829003601f168201915b505050505081526020016001820154815260200160028201548152505081526020019060010190611173565b50505050905090565b60025481565b60035481565b60045f9054906101000a900473ffffffffffffffffffffffffffffffffffffffff1681565b5f6002811115611293576112926114e7565b5b600460159054906101000a900460ff1660028111156112b5576112b46114e7565b5b03611343576003544210611305576002544710156112d45760026112d7565b60015b600460156101000a81548160ff021916908360028111156112fb576112fa6114e7565b5b0217905550611342565b600254471015611315575f611318565b60015b600460156101000a81548160ff0219169083600281111561133c5761133b6114e7565b5b02179055505b5b565b508054611351906119dc565b5f825580601f10611362575061137f565b601f0160209004905f5260205f209081019061137e9190611382565b5b50565b5b80821115611399575f815f905550600101611383565b5090565b5f604051905090565b5f80fd5b5f80fd5b5f819050919050565b6113c0816113ae565b81146113ca575f80fd5b50565b5f813590506113db816113b7565b92915050565b5f602082840312156113f6576113f56113a6565b5b5f611403848285016113cd565b91505092915050565b5f81519050919050565b5f82825260208201905092915050565b8281835e5f83830152505050565b5f601f19601f8301169050919050565b5f61144e8261140c565b6114588185611416565b9350611468818560208601611426565b61147181611434565b840191505092915050565b611485816113ae565b82525050565b5f6060820190508181035f8301526114a38186611444565b90506114b2602083018561147c565b6114bf604083018461147c565b949350505050565b5f6020820190508181035f8301526114df8184611444565b905092915050565b7f4e487b71000000000000000000000000000000000000000000000000000000005f52602160045260245ffd5b60038110611525576115246114e7565b5b50565b5f81905061153582611514565b919050565b5f61154482611528565b9050919050565b6115548161153a565b82525050565b5f60208201905061156d5f83018461154b565b92915050565b5f6020820190506115865f83018461147c565b92915050565b5f73ffffffffffffffffffffffffffffffffffffffff82169050919050565b5f6115b58261158c565b9050919050565b6115c5816115ab565b81146115cf575f80fd5b50565b5f813590506115e0816115bc565b92915050565b5f80604083850312156115fc576115fb6113a6565b5b5f611609858286016115d2565b925050602061161a858286016113cd565b9150509250929050565b5f8115159050919050565b61163881611624565b82525050565b5f6020820190506116515f83018461162f565b92915050565b5f80fd5b5f80fd5b7f4e487b71000000000000000000000000000000000000000000000000000000005f52604160045260245ffd5b61169582611434565b810181811067ffffffffffffffff821117156116b4576116b361165f565b5b80604052505050565b5f6116c661139d565b90506116d2828261168c565b919050565b5f67ffffffffffffffff8211156116f1576116f061165f565b5b6116fa82611434565b9050602081019050919050565b828183375f83830152505050565b5f611727611722846116d7565b6116bd565b9050828152602081018484840111156117435761174261165b565b5b61174e848285611707565b509392505050565b5f82601f83011261176a57611769611657565b5b813561177a848260208601611715565b91505092915050565b5f8060408385031215611799576117986113a6565b5b5f83013567ffffffffffffffff8111156117b6576117b56113aa565b5b6117c285828601611756565b92505060206117d3858286016113cd565b9150509250929050565b5f602082840312156117f2576117f16113a6565b5b5f6117ff848285016115d2565b91505092915050565b5f81519050919050565b5f82825260208201905092915050565b5f819050602082019050919050565b5f82825260208201905092915050565b5f61184b8261140c565b6118558185611831565b9350611865818560208601611426565b61186e81611434565b840191505092915050565b611882816113ae565b82525050565b5f606083015f8301518482035f8601526118a28282611841565b91505060208301516118b76020860182611879565b5060408301516118ca6040860182611879565b508091505092915050565b5f6118e08383611888565b905092915050565b5f602082019050919050565b5f6118fe82611808565b6119088185611812565b93508360208202850161191a85611822565b805f5b85811015611955578484038952815161193685826118d5565b9450611941836118e8565b925060208a0199505060018101905061191d565b50829750879550505050505092915050565b5f6020820190508181035f83015261197f81846118f4565b905092915050565b611990816115ab565b82525050565b5f6020820190506119a95f830184611987565b92915050565b7f4e487b71000000000000000000000000000000000000000000000000000000005f52602260045260245ffd5b5f60028204905060018216806119f357607f821691505b602082108103611a0657611a056119af565b5b50919050565b7f4e6f742063616d706169676e206f776e657200000000000000000000000000005f82015250565b5f611a40601283611416565b9150611a4b82611a0c565b602082019050919050565b5f6020820190508181035f830152611a6d81611a34565b9050919050565b7f4e487b71000000000000000000000000000000000000000000000000000000005f52601160045260245ffd5b5f611aab826113ae565b9150611ab6836113ae565b9250828202611ac4816113ae565b91508282048414831517611adb57611ada611a74565b5b5092915050565b5f611aec826113ae565b9150611af7836113ae565b9250828201905080821115611b0f57611b0e611a74565b5b92915050565b7f43616d706169676e206e6f74207375636365737366756c0000000000000000005f82015250565b5f611b49601783611416565b9150611b5482611b15565b602082019050919050565b5f6020820190508181035f830152611b7681611b3d565b9050919050565b7f4e6f7468696e6720746f207769746864726177000000000000000000000000005f82015250565b5f611bb1601383611416565b9150611bbc82611b7d565b602082019050919050565b5f6020820190508181035f830152611bde81611ba5565b9050919050565b7f43616d706169676e206973206e6f74206661696c6564000000000000000000005f82015250565b5f611c19601683611416565b9150611c2482611be5565b602082019050919050565b5f6020820190508181035f830152611c4681611c0d565b9050919050565b7f4e6f20636f6e747269627574696f6e20746f20726566756e64000000000000005f82015250565b5f611c81601983611416565b9150611c8c82611c4d565b602082019050919050565b5f6020820190508181035f830152611cae81611c75565b9050919050565b7f5469657220646f6573206e6f74206578697374000000000000000000000000005f82015250565b5f611ce9601383611416565b9150611cf482611cb5565b602082019050919050565b5f6020820190508181035f830152611d1681611cdd565b9050919050565b5f611d27826113ae565b9150611d32836113ae565b9250828203905081811115611d4a57611d49611a74565b5b92915050565b7f4e487b71000000000000000000000000000000000000000000000000000000005f52603260045260245ffd5b5f81549050611d8b816119dc565b9050919050565b5f819050815f5260205f209050919050565b5f6020601f8301049050919050565b5f82821b905092915050565b5f60088302611dee7fffffffffffffffffffffffffffffffffffffffffffffffffffffffffffffffff82611db3565b611df88683611db3565b95508019841693508086168417925050509392505050565b5f819050919050565b5f611e33611e2e611e29846113ae565b611e10565b6113ae565b9050919050565b5f819050919050565b611e4c83611e19565b611e60611e5882611e3a565b848454611dbf565b825550505050565b5f90565b611e74611e68565b611e7f818484611e43565b505050565b5b81811015611ea257611e975f82611e6c565b600181019050611e85565b5050565b601f821115611ee757611eb881611d92565b611ec184611da4565b81016020851015611ed0578190505b611ee4611edc85611da4565b830182611e84565b50505b505050565b5f82821c905092915050565b5f611f075f1984600802611eec565b1980831691505092915050565b5f611f1f8383611ef8565b9150826002028217905092915050565b818103611f3d575050612012565b611f4682611d7d565b67ffffffffffffffff811115611f5f57611f5e61165f565b5b611f6982546119dc565b611f74828285611ea6565b5f601f831160018114611fa1575f8415611f8f578287015490505b611f998582611f14565b86555061200b565b601f198416611faf87611d92565b9650611fba86611d92565b5f5b82811015611fe157848901548255600182019150600185019450602081019050611fbc565b86831015611ffe5784890154611ffa601f891682611ef8565b8355505b6001600288020188555050505b5050505050505b565b7f4e487b71000000000000000000000000000000000000000000000000000000005f52603160045260245ffd5b7f416d6f756e74206d7573742062652067726561746572207468616e20300000005f82015250565b5f612075601d83611416565b915061208082612041565b602082019050919050565b5f6020820190508181035f8301526120a281612069565b9050919050565b6120b28261140c565b67ffffffffffffffff8111156120cb576120ca61165f565b5b6120d582546119dc565b6120e0828285611ea6565b5f60209050601f831160018114612111575f84156120ff578287015190505b6121098582611f14565b865550612170565b601f19841661211f86611d92565b5f5b8281101561214657848901518255600182019150602085019450602081019050612121565b86831015612163578489015161215f601f891682611ef8565b8355505b6001600288020188555050505b505050505050565b7f43616d706169676e206973206e6f7420616374697665000000000000000000005f82015250565b5f6121ac601683611416565b91506121b782612178565b602082019050919050565b5f6020820190508181035f8301526121d9816121a0565b9050919050565b7f43616d706169676e2069732070617573656400000000000000000000000000005f82015250565b5f612214601283611416565b915061221f826121e0565b602082019050919050565b5f6020820190508181035f83015261224181612208565b9050919050565b7f496e76616c6964205469657200000000000000000000000000000000000000005f82015250565b5f61227c600c83611416565b915061228782612248565b602082019050919050565b5f6020820190508181035f8301526122a981612270565b9050919050565b7f496e76616c696420616d6f756e74206261636b656400000000000000000000005f82015250565b5f6122e4601583611416565b91506122ef826122b0565b602082019050919050565b5f6020820190508181035f830152612311816122d8565b9050919050565b5f612322826113ae565b91507fffffffffffffffffffffffffffffffffffffffffffffffffffffffffffffffff820361235457612353611a74565b5b60018201905091905056fea2646970667358221220ede21a840dc874ce61d0903ac01d8aa5e12cc4ce0dd370126c3f13eee8b6faeb64736f6c634300081a0033",
					"opcodes": "PUSH1 0x80 PUSH1 0x40 MSTORE CALLVALUE DUP1 ISZERO PUSH2 0xF JUMPI PUSH0 DUP1 REVERT JUMPDEST POP PUSH1 0x40 MLOAD PUSH2 0x2A49 CODESIZE SUB DUP1 PUSH2 0x2A49 DUP4 CODECOPY DUP2 DUP2 ADD PUSH1 0x40 MSTORE DUP2 ADD SWAP1 PUSH2 0x31 SWAP2 SWAP1 PUSH2 0x26A JUMP JUMPDEST DUP4 PUSH0 SWAP1 DUP2 PUSH2 0x3F SWAP2 SWAP1 PUSH2 0x50A JUMP JUMPDEST POP DUP3 PUSH1 0x1 SWAP1 DUP2 PUSH2 0x4F SWAP2 SWAP1 PUSH2 0x50A JUMP JUMPDEST POP DUP2 PUSH1 0x2 DUP2 SWAP1 SSTORE POP PUSH3 0x15180 DUP2 PUSH2 0x66 SWAP2 SWAP1 PUSH2 0x606 JUMP JUMPDEST TIMESTAMP PUSH2 0x71 SWAP2 SWAP1 PUSH2 0x647 JUMP JUMPDEST PUSH1 0x3 DUP2 SWAP1 SSTORE POP CALLER PUSH1 0x4 PUSH0 PUSH2 0x100 EXP DUP2 SLOAD DUP2 PUSH20 0xFFFFFFFFFFFFFFFFFFFFFFFFFFFFFFFFFFFFFFFF MUL NOT AND SWAP1 DUP4 PUSH20 0xFFFFFFFFFFFFFFFFFFFFFFFFFFFFFFFFFFFFFFFF AND MUL OR SWAP1 SSTORE POP PUSH0 PUSH1 0x4 PUSH1 0x15 PUSH2 0x100 EXP DUP2 SLOAD DUP2 PUSH1 0xFF MUL NOT AND SWAP1 DUP4 PUSH1 0x2 DUP2 GT ISZERO PUSH2 0xDC JUMPI PUSH2 0xDB PUSH2 0x67A JUMP JUMPDEST JUMPDEST MUL OR SWAP1 SSTORE POP POP POP POP POP PUSH2 0x6A7 JUMP JUMPDEST PUSH0 PUSH1 0x40 MLOAD SWAP1 POP SWAP1 JUMP JUMPDEST PUSH0 DUP1 REVERT JUMPDEST PUSH0 DUP1 REVERT JUMPDEST PUSH0 DUP1 REVERT JUMPDEST PUSH0 DUP1 REVERT JUMPDEST PUSH0 PUSH1 0x1F NOT PUSH1 0x1F DUP4 ADD AND SWAP1 POP SWAP2 SWAP1 POP JUMP JUMPDEST PUSH32 0x4E487B7100000000000000000000000000000000000000000000000000000000 PUSH0 MSTORE PUSH1 0x41 PUSH1 0x4 MSTORE PUSH1 0x24 PUSH0 REVERT JUMPDEST PUSH2 0x149 DUP3 PUSH2 0x103 JUMP JUMPDEST DUP2 ADD DUP2 DUP2 LT PUSH8 0xFFFFFFFFFFFFFFFF DUP3 GT OR ISZERO PUSH2 0x168 JUMPI PUSH2 0x167 PUSH2 0x113 JUMP JUMPDEST JUMPDEST DUP1 PUSH1 0x40 MSTORE POP POP POP JUMP JUMPDEST PUSH0 PUSH2 0x17A PUSH2 0xEA JUMP JUMPDEST SWAP1 POP PUSH2 0x186 DUP3 DUP3 PUSH2 0x140 JUMP JUMPDEST SWAP2 SWAP1 POP JUMP JUMPDEST PUSH0 PUSH8 0xFFFFFFFFFFFFFFFF DUP3 GT ISZERO PUSH2 0x1A5 JUMPI PUSH2 0x1A4 PUSH2 0x113 JUMP JUMPDEST JUMPDEST PUSH2 0x1AE DUP3 PUSH2 0x103 JUMP JUMPDEST SWAP1 POP PUSH1 0x20 DUP2 ADD SWAP1 POP SWAP2 SWAP1 POP JUMP JUMPDEST DUP3 DUP2 DUP4 MCOPY PUSH0 DUP4 DUP4 ADD MSTORE POP POP POP JUMP JUMPDEST PUSH0 PUSH2 0x1DB PUSH2 0x1D6 DUP5 PUSH2 0x18B JUMP JUMPDEST PUSH2 0x171 JUMP JUMPDEST SWAP1 POP DUP3 DUP2 MSTORE PUSH1 0x20 DUP2 ADD DUP5 DUP5 DUP5 ADD GT ISZERO PUSH2 0x1F7 JUMPI PUSH2 0x1F6 PUSH2 0xFF JUMP JUMPDEST JUMPDEST PUSH2 0x202 DUP5 DUP3 DUP6 PUSH2 0x1BB JUMP JUMPDEST POP SWAP4 SWAP3 POP POP POP JUMP JUMPDEST PUSH0 DUP3 PUSH1 0x1F DUP4 ADD SLT PUSH2 0x21E JUMPI PUSH2 0x21D PUSH2 0xFB JUMP JUMPDEST JUMPDEST DUP2 MLOAD PUSH2 0x22E DUP5 DUP3 PUSH1 0x20 DUP7 ADD PUSH2 0x1C9 JUMP JUMPDEST SWAP2 POP POP SWAP3 SWAP2 POP POP JUMP JUMPDEST PUSH0 DUP2 SWAP1 POP SWAP2 SWAP1 POP JUMP JUMPDEST PUSH2 0x249 DUP2 PUSH2 0x237 JUMP JUMPDEST DUP2 EQ PUSH2 0x253 JUMPI PUSH0 DUP1 REVERT JUMPDEST POP JUMP JUMPDEST PUSH0 DUP2 MLOAD SWAP1 POP PUSH2 0x264 DUP2 PUSH2 0x240 JUMP JUMPDEST SWAP3 SWAP2 POP POP JUMP JUMPDEST PUSH0 DUP1 PUSH0 DUP1 PUSH1 0x80 DUP6 DUP8 SUB SLT ISZERO PUSH2 0x282 JUMPI PUSH2 0x281 PUSH2 0xF3 JUMP JUMPDEST JUMPDEST PUSH0 DUP6 ADD MLOAD PUSH8 0xFFFFFFFFFFFFFFFF DUP2 GT ISZERO PUSH2 0x29F JUMPI PUSH2 0x29E PUSH2 0xF7 JUMP JUMPDEST JUMPDEST PUSH2 0x2AB DUP8 DUP3 DUP9 ADD PUSH2 0x20A JUMP JUMPDEST SWAP5 POP POP PUSH1 0x20 DUP6 ADD MLOAD PUSH8 0xFFFFFFFFFFFFFFFF DUP2 GT ISZERO PUSH2 0x2CC JUMPI PUSH2 0x2CB PUSH2 0xF7 JUMP JUMPDEST JUMPDEST PUSH2 0x2D8 DUP8 DUP3 DUP9 ADD PUSH2 0x20A JUMP JUMPDEST SWAP4 POP POP PUSH1 0x40 PUSH2 0x2E9 DUP8 DUP3 DUP9 ADD PUSH2 0x256 JUMP JUMPDEST SWAP3 POP POP PUSH1 0x60 PUSH2 0x2FA DUP8 DUP3 DUP9 ADD PUSH2 0x256 JUMP JUMPDEST SWAP2 POP POP SWAP3 SWAP6 SWAP2 SWAP5 POP SWAP3 POP JUMP JUMPDEST PUSH0 DUP2 MLOAD SWAP1 POP SWAP2 SWAP1 POP JUMP JUMPDEST PUSH32 0x4E487B7100000000000000000000000000000000000000000000000000000000 PUSH0 MSTORE PUSH1 0x22 PUSH1 0x4 MSTORE PUSH1 0x24 PUSH0 REVERT JUMPDEST PUSH0 PUSH1 0x2 DUP3 DIV SWAP1 POP PUSH1 0x1 DUP3 AND DUP1 PUSH2 0x354 JUMPI PUSH1 0x7F DUP3 AND SWAP2 POP JUMPDEST PUSH1 0x20 DUP3 LT DUP2 SUB PUSH2 0x367 JUMPI PUSH2 0x366 PUSH2 0x310 JUMP JUMPDEST JUMPDEST POP SWAP2 SWAP1 POP JUMP JUMPDEST PUSH0 DUP2 SWAP1 POP DUP2 PUSH0 MSTORE PUSH1 0x20 PUSH0 KECCAK256 SWAP1 POP SWAP2 SWAP1 POP JUMP JUMPDEST PUSH0 PUSH1 0x20 PUSH1 0x1F DUP4 ADD DIV SWAP1 POP SWAP2 SWAP1 POP JUMP JUMPDEST PUSH0 DUP3 DUP3 SHL SWAP1 POP SWAP3 SWAP2 POP POP JUMP JUMPDEST PUSH0 PUSH1 0x8 DUP4 MUL PUSH2 0x3C9 PUSH32 0xFFFFFFFFFFFFFFFFFFFFFFFFFFFFFFFFFFFFFFFFFFFFFFFFFFFFFFFFFFFFFFFF DUP3 PUSH2 0x38E JUMP JUMPDEST PUSH2 0x3D3 DUP7 DUP4 PUSH2 0x38E JUMP JUMPDEST SWAP6 POP DUP1 NOT DUP5 AND SWAP4 POP DUP1 DUP7 AND DUP5 OR SWAP3 POP POP POP SWAP4 SWAP3 POP POP POP JUMP JUMPDEST PUSH0 DUP2 SWAP1 POP SWAP2 SWAP1 POP JUMP JUMPDEST PUSH0 PUSH2 0x40E PUSH2 0x409 PUSH2 0x404 DUP5 PUSH2 0x237 JUMP JUMPDEST PUSH2 0x3EB JUMP JUMPDEST PUSH2 0x237 JUMP JUMPDEST SWAP1 POP SWAP2 SWAP1 POP JUMP JUMPDEST PUSH0 DUP2 SWAP1 POP SWAP2 SWAP1 POP JUMP JUMPDEST PUSH2 0x427 DUP4 PUSH2 0x3F4 JUMP JUMPDEST PUSH2 0x43B PUSH2 0x433 DUP3 PUSH2 0x415 JUMP JUMPDEST DUP5 DUP5 SLOAD PUSH2 0x39A JUMP JUMPDEST DUP3 SSTORE POP POP POP POP JUMP JUMPDEST PUSH0 SWAP1 JUMP JUMPDEST PUSH2 0x44F PUSH2 0x443 JUMP JUMPDEST PUSH2 0x45A DUP2 DUP5 DUP5 PUSH2 0x41E JUMP JUMPDEST POP POP POP JUMP JUMPDEST JUMPDEST DUP2 DUP2 LT ISZERO PUSH2 0x47D JUMPI PUSH2 0x472 PUSH0 DUP3 PUSH2 0x447 JUMP JUMPDEST PUSH1 0x1 DUP2 ADD SWAP1 POP PUSH2 0x460 JUMP JUMPDEST POP POP JUMP JUMPDEST PUSH1 0x1F DUP3 GT ISZERO PUSH2 0x4C2 JUMPI PUSH2 0x493 DUP2 PUSH2 0x36D JUMP JUMPDEST PUSH2 0x49C DUP5 PUSH2 0x37F JUMP JUMPDEST DUP2 ADD PUSH1 0x20 DUP6 LT ISZERO PUSH2 0x4AB JUMPI DUP2 SWAP1 POP JUMPDEST PUSH2 0x4BF PUSH2 0x4B7 DUP6 PUSH2 0x37F JUMP JUMPDEST DUP4 ADD DUP3 PUSH2 0x45F JUMP JUMPDEST POP POP JUMPDEST POP POP POP JUMP JUMPDEST PUSH0 DUP3 DUP3 SHR SWAP1 POP SWAP3 SWAP2 POP POP JUMP JUMPDEST PUSH0 PUSH2 0x4E2 PUSH0 NOT DUP5 PUSH1 0x8 MUL PUSH2 0x4C7 JUMP JUMPDEST NOT DUP1 DUP4 AND SWAP2 POP POP SWAP3 SWAP2 POP POP JUMP JUMPDEST PUSH0 PUSH2 0x4FA DUP4 DUP4 PUSH2 0x4D3 JUMP JUMPDEST SWAP2 POP DUP3 PUSH1 0x2 MUL DUP3 OR SWAP1 POP SWAP3 SWAP2 POP POP JUMP JUMPDEST PUSH2 0x513 DUP3 PUSH2 0x306 JUMP JUMPDEST PUSH8 0xFFFFFFFFFFFFFFFF DUP2 GT ISZERO PUSH2 0x52C JUMPI PUSH2 0x52B PUSH2 0x113 JUMP JUMPDEST JUMPDEST PUSH2 0x536 DUP3 SLOAD PUSH2 0x33D JUMP JUMPDEST PUSH2 0x541 DUP3 DUP3 DUP6 PUSH2 0x481 JUMP JUMPDEST PUSH0 PUSH1 0x20 SWAP1 POP PUSH1 0x1F DUP4 GT PUSH1 0x1 DUP2 EQ PUSH2 0x572 JUMPI PUSH0 DUP5 ISZERO PUSH2 0x560 JUMPI DUP3 DUP8 ADD MLOAD SWAP1 POP JUMPDEST PUSH2 0x56A DUP6 DUP3 PUSH2 0x4EF JUMP JUMPDEST DUP7 SSTORE POP PUSH2 0x5D1 JUMP JUMPDEST PUSH1 0x1F NOT DUP5 AND PUSH2 0x580 DUP7 PUSH2 0x36D JUMP JUMPDEST PUSH0 JUMPDEST DUP3 DUP2 LT ISZERO PUSH2 0x5A7 JUMPI DUP5 DUP10 ADD MLOAD DUP3 SSTORE PUSH1 0x1 DUP3 ADD SWAP2 POP PUSH1 0x20 DUP6 ADD SWAP5 POP PUSH1 0x20 DUP2 ADD SWAP1 POP PUSH2 0x582 JUMP JUMPDEST DUP7 DUP4 LT ISZERO PUSH2 0x5C4 JUMPI DUP5 DUP10 ADD MLOAD PUSH2 0x5C0 PUSH1 0x1F DUP10 AND DUP3 PUSH2 0x4D3 JUMP JUMPDEST DUP4 SSTORE POP JUMPDEST PUSH1 0x1 PUSH1 0x2 DUP9 MUL ADD DUP9 SSTORE POP POP POP JUMPDEST POP POP POP POP POP POP JUMP JUMPDEST PUSH32 0x4E487B7100000000000000000000000000000000000000000000000000000000 PUSH0 MSTORE PUSH1 0x11 PUSH1 0x4 MSTORE PUSH1 0x24 PUSH0 REVERT JUMPDEST PUSH0 PUSH2 0x610 DUP3 PUSH2 0x237 JUMP JUMPDEST SWAP2 POP PUSH2 0x61B DUP4 PUSH2 0x237 JUMP JUMPDEST SWAP3 POP DUP3 DUP3 MUL PUSH2 0x629 DUP2 PUSH2 0x237 JUMP JUMPDEST SWAP2 POP DUP3 DUP3 DIV DUP5 EQ DUP4 ISZERO OR PUSH2 0x640 JUMPI PUSH2 0x63F PUSH2 0x5D9 JUMP JUMPDEST JUMPDEST POP SWAP3 SWAP2 POP POP JUMP JUMPDEST PUSH0 PUSH2 0x651 DUP3 PUSH2 0x237 JUMP JUMPDEST SWAP2 POP PUSH2 0x65C DUP4 PUSH2 0x237 JUMP JUMPDEST SWAP3 POP DUP3 DUP3 ADD SWAP1 POP DUP1 DUP3 GT ISZERO PUSH2 0x674 JUMPI PUSH2 0x673 PUSH2 0x5D9 JUMP JUMPDEST JUMPDEST SWAP3 SWAP2 POP POP JUMP JUMPDEST PUSH32 0x4E487B7100000000000000000000000000000000000000000000000000000000 PUSH0 MSTORE PUSH1 0x21 PUSH1 0x4 MSTORE PUSH1 0x24 PUSH0 REVERT JUMPDEST PUSH2 0x2395 DUP1 PUSH2 0x6B4 PUSH0 CODECOPY PUSH0 RETURN INVALID PUSH1 0x80 PUSH1 0x40 MSTORE PUSH1 0x4 CALLDATASIZE LT PUSH2 0x11E JUMPI PUSH0 CALLDATALOAD PUSH1 0xE0 SHR DUP1 PUSH4 0x7B4E5C98 GT PUSH2 0x9F JUMPI DUP1 PUSH4 0xD621A776 GT PUSH2 0x63 JUMPI DUP1 PUSH4 0xD621A776 EQ PUSH2 0x394 JUMPI DUP1 PUSH4 0xDE170570 EQ PUSH2 0x3AA JUMPI DUP1 PUSH4 0xE036A772 EQ PUSH2 0x3D4 JUMPI DUP1 PUSH4 0xE4EFD1DC EQ PUSH2 0x3FE JUMPI DUP1 PUSH4 0xFDF04ED4 EQ PUSH2 0x428 JUMPI PUSH2 0x11E JUMP JUMPDEST DUP1 PUSH4 0x7B4E5C98 EQ PUSH2 0x2C0 JUMPI DUP1 PUSH4 0x8ECE7B91 EQ PUSH2 0x2EA JUMPI DUP1 PUSH4 0xB85DFB80 EQ PUSH2 0x312 JUMPI DUP1 PUSH4 0xC19D93FB EQ PUSH2 0x34E JUMPI DUP1 PUSH4 0xCA1D209D EQ PUSH2 0x378 JUMPI PUSH2 0x11E JUMP JUMPDEST DUP1 PUSH4 0x4137E733 GT PUSH2 0xE6 JUMPI DUP1 PUSH4 0x4137E733 EQ PUSH2 0x1F2 JUMPI DUP1 PUSH4 0x590E1AE3 EQ PUSH2 0x21C JUMPI DUP1 PUSH4 0x6F9FB98A EQ PUSH2 0x232 JUMPI DUP1 PUSH4 0x7497211B EQ PUSH2 0x25C JUMPI DUP1 PUSH4 0x7ADBA527 EQ PUSH2 0x284 JUMPI PUSH2 0x11E JUMP JUMPDEST DUP1 PUSH4 0x39AF9EB EQ PUSH2 0x122 JUMPI DUP1 PUSH4 0x574F590 EQ PUSH2 0x160 JUMPI DUP1 PUSH4 0x10550515 EQ PUSH2 0x18A JUMPI DUP1 PUSH4 0x389B7533 EQ PUSH2 0x1B4 JUMPI DUP1 PUSH4 0x3CCFD60B EQ PUSH2 0x1DC JUMPI JUMPDEST PUSH0 DUP1 REVERT JUMPDEST CALLVALUE DUP1 ISZERO PUSH2 0x12D JUMPI PUSH0 DUP1 REVERT JUMPDEST POP PUSH2 0x148 PUSH1 0x4 DUP1 CALLDATASIZE SUB DUP2 ADD SWAP1 PUSH2 0x143 SWAP2 SWAP1 PUSH2 0x13E1 JUMP JUMPDEST PUSH2 0x452 JUMP JUMPDEST PUSH1 0x40 MLOAD PUSH2 0x157 SWAP4 SWAP3 SWAP2 SWAP1 PUSH2 0x148B JUMP JUMPDEST PUSH1 0x40 MLOAD DUP1 SWAP2 SUB SWAP1 RETURN JUMPDEST CALLVALUE DUP1 ISZERO PUSH2 0x16B JUMPI PUSH0 DUP1 REVERT JUMPDEST POP PUSH2 0x174 PUSH2 0x50D JUMP JUMPDEST PUSH1 0x40 MLOAD PUSH2 0x181 SWAP2 SWAP1 PUSH2 0x14C7 JUMP JUMPDEST PUSH1 0x40 MLOAD DUP1 SWAP2 SUB SWAP1 RETURN JUMPDEST CALLVALUE DUP1 ISZERO PUSH2 0x195 JUMPI PUSH0 DUP1 REVERT JUMPDEST POP PUSH2 0x19E PUSH2 0x599 JUMP JUMPDEST PUSH1 0x40 MLOAD PUSH2 0x1AB SWAP2 SWAP1 PUSH2 0x155A JUMP JUMPDEST PUSH1 0x40 MLOAD DUP1 SWAP2 SUB SWAP1 RETURN JUMPDEST CALLVALUE DUP1 ISZERO PUSH2 0x1BF JUMPI PUSH0 DUP1 REVERT JUMPDEST POP PUSH2 0x1DA PUSH1 0x4 DUP1 CALLDATASIZE SUB DUP2 ADD SWAP1 PUSH2 0x1D5 SWAP2 SWAP1 PUSH2 0x13E1 JUMP JUMPDEST PUSH2 0x613 JUMP JUMPDEST STOP JUMPDEST CALLVALUE DUP1 ISZERO PUSH2 0x1E7 JUMPI PUSH0 DUP1 REVERT JUMPDEST POP PUSH2 0x1F0 PUSH2 0x6CB JUMP JUMPDEST STOP JUMPDEST CALLVALUE DUP1 ISZERO PUSH2 0x1FD JUMPI PUSH0 DUP1 REVERT JUMPDEST POP PUSH2 0x206 PUSH2 0x886 JUMP JUMPDEST PUSH1 0x40 MLOAD PUSH2 0x213 SWAP2 SWAP1 PUSH2 0x14C7 JUMP JUMPDEST PUSH1 0x40 MLOAD DUP1 SWAP2 SUB SWAP1 RETURN JUMPDEST CALLVALUE DUP1 ISZERO PUSH2 0x227 JUMPI PUSH0 DUP1 REVERT JUMPDEST POP PUSH2 0x230 PUSH2 0x911 JUMP JUMPDEST STOP JUMPDEST CALLVALUE DUP1 ISZERO PUSH2 0x23D JUMPI PUSH0 DUP1 REVERT JUMPDEST POP PUSH2 0x246 PUSH2 0xA9E JUMP JUMPDEST PUSH1 0x40 MLOAD PUSH2 0x253 SWAP2 SWAP1 PUSH2 0x1573 JUMP JUMPDEST PUSH1 0x40 MLOAD DUP1 SWAP2 SUB SWAP1 RETURN JUMPDEST CALLVALUE DUP1 ISZERO PUSH2 0x267 JUMPI PUSH0 DUP1 REVERT JUMPDEST POP PUSH2 0x282 PUSH1 0x4 DUP1 CALLDATASIZE SUB DUP2 ADD SWAP1 PUSH2 0x27D SWAP2 SWAP1 PUSH2 0x13E1 JUMP JUMPDEST PUSH2 0xAA5 JUMP JUMPDEST STOP JUMPDEST CALLVALUE DUP1 ISZERO PUSH2 0x28F JUMPI PUSH0 DUP1 REVERT JUMPDEST POP PUSH2 0x2AA PUSH1 0x4 DUP1 CALLDATASIZE SUB DUP2 ADD SWAP1 PUSH2 0x2A5 SWAP2 SWAP1 PUSH2 0x15E6 JUMP JUMPDEST PUSH2 0xC3E JUMP JUMPDEST PUSH1 0x40 MLOAD PUSH2 0x2B7 SWAP2 SWAP1 PUSH2 0x163E JUMP JUMPDEST PUSH1 0x40 MLOAD DUP1 SWAP2 SUB SWAP1 RETURN JUMPDEST CALLVALUE DUP1 ISZERO PUSH2 0x2CB JUMPI PUSH0 DUP1 REVERT JUMPDEST POP PUSH2 0x2D4 PUSH2 0xCA3 JUMP JUMPDEST PUSH1 0x40 MLOAD PUSH2 0x2E1 SWAP2 SWAP1 PUSH2 0x163E JUMP JUMPDEST PUSH1 0x40 MLOAD DUP1 SWAP2 SUB SWAP1 RETURN JUMPDEST CALLVALUE DUP1 ISZERO PUSH2 0x2F5 JUMPI PUSH0 DUP1 REVERT JUMPDEST POP PUSH2 0x310 PUSH1 0x4 DUP1 CALLDATASIZE SUB DUP2 ADD SWAP1 PUSH2 0x30B SWAP2 SWAP1 PUSH2 0x1783 JUMP JUMPDEST PUSH2 0xCB6 JUMP JUMPDEST STOP JUMPDEST CALLVALUE DUP1 ISZERO PUSH2 0x31D JUMPI PUSH0 DUP1 REVERT JUMPDEST POP PUSH2 0x338 PUSH1 0x4 DUP1 CALLDATASIZE SUB DUP2 ADD SWAP1 PUSH2 0x333 SWAP2 SWAP1 PUSH2 0x17DD JUMP JUMPDEST PUSH2 0xDF8 JUMP JUMPDEST PUSH1 0x40 MLOAD PUSH2 0x345 SWAP2 SWAP1 PUSH2 0x1573 JUMP JUMPDEST PUSH1 0x40 MLOAD DUP1 SWAP2 SUB SWAP1 RETURN JUMPDEST CALLVALUE DUP1 ISZERO PUSH2 0x359 JUMPI PUSH0 DUP1 REVERT JUMPDEST POP PUSH2 0x362 PUSH2 0xE12 JUMP JUMPDEST PUSH1 0x40 MLOAD PUSH2 0x36F SWAP2 SWAP1 PUSH2 0x155A JUMP JUMPDEST PUSH1 0x40 MLOAD DUP1 SWAP2 SUB SWAP1 RETURN JUMPDEST PUSH2 0x392 PUSH1 0x4 DUP1 CALLDATASIZE SUB DUP2 ADD SWAP1 PUSH2 0x38D SWAP2 SWAP1 PUSH2 0x13E1 JUMP JUMPDEST PUSH2 0xE25 JUMP JUMPDEST STOP JUMPDEST CALLVALUE DUP1 ISZERO PUSH2 0x39F JUMPI PUSH0 DUP1 REVERT JUMPDEST POP PUSH2 0x3A8 PUSH2 0x1095 JUMP JUMPDEST STOP JUMPDEST CALLVALUE DUP1 ISZERO PUSH2 0x3B5 JUMPI PUSH0 DUP1 REVERT JUMPDEST POP PUSH2 0x3BE PUSH2 0x1150 JUMP JUMPDEST PUSH1 0x40 MLOAD PUSH2 0x3CB SWAP2 SWAP1 PUSH2 0x1967 JUMP JUMPDEST PUSH1 0x40 MLOAD DUP1 SWAP2 SUB SWAP1 RETURN JUMPDEST CALLVALUE DUP1 ISZERO PUSH2 0x3DF JUMPI PUSH0 DUP1 REVERT JUMPDEST POP PUSH2 0x3E8 PUSH2 0x124F JUMP JUMPDEST PUSH1 0x40 MLOAD PUSH2 0x3F5 SWAP2 SWAP1 PUSH2 0x1573 JUMP JUMPDEST PUSH1 0x40 MLOAD DUP1 SWAP2 SUB SWAP1 RETURN JUMPDEST CALLVALUE DUP1 ISZERO PUSH2 0x409 JUMPI PUSH0 DUP1 REVERT JUMPDEST POP PUSH2 0x412 PUSH2 0x1255 JUMP JUMPDEST PUSH1 0x40 MLOAD PUSH2 0x41F SWAP2 SWAP1 PUSH2 0x1573 JUMP JUMPDEST PUSH1 0x40 MLOAD DUP1 SWAP2 SUB SWAP1 RETURN JUMPDEST CALLVALUE DUP1 ISZERO PUSH2 0x433 JUMPI PUSH0 DUP1 REVERT JUMPDEST POP PUSH2 0x43C PUSH2 0x125B JUMP JUMPDEST PUSH1 0x40 MLOAD PUSH2 0x449 SWAP2 SWAP1 PUSH2 0x1996 JUMP JUMPDEST PUSH1 0x40 MLOAD DUP1 SWAP2 SUB SWAP1 RETURN JUMPDEST PUSH1 0x5 DUP2 DUP2 SLOAD DUP2 LT PUSH2 0x461 JUMPI PUSH0 DUP1 REVERT JUMPDEST SWAP1 PUSH0 MSTORE PUSH1 0x20 PUSH0 KECCAK256 SWAP1 PUSH1 0x3 MUL ADD PUSH0 SWAP2 POP SWAP1 POP DUP1 PUSH0 ADD DUP1 SLOAD PUSH2 0x480 SWAP1 PUSH2 0x19DC JUMP JUMPDEST DUP1 PUSH1 0x1F ADD PUSH1 0x20 DUP1 SWAP2 DIV MUL PUSH1 0x20 ADD PUSH1 0x40 MLOAD SWAP1 DUP2 ADD PUSH1 0x40 MSTORE DUP1 SWAP3 SWAP2 SWAP1 DUP2 DUP2 MSTORE PUSH1 0x20 ADD DUP3 DUP1 SLOAD PUSH2 0x4AC SWAP1 PUSH2 0x19DC JUMP JUMPDEST DUP1 ISZERO PUSH2 0x4F7 JUMPI DUP1 PUSH1 0x1F LT PUSH2 0x4CE JUMPI PUSH2 0x100 DUP1 DUP4 SLOAD DIV MUL DUP4 MSTORE SWAP2 PUSH1 0x20 ADD SWAP2 PUSH2 0x4F7 JUMP JUMPDEST DUP3 ADD SWAP2 SWAP1 PUSH0 MSTORE PUSH1 0x20 PUSH0 KECCAK256 SWAP1 JUMPDEST DUP2 SLOAD DUP2 MSTORE SWAP1 PUSH1 0x1 ADD SWAP1 PUSH1 0x20 ADD DUP1 DUP4 GT PUSH2 0x4DA JUMPI DUP3 SWAP1 SUB PUSH1 0x1F AND DUP3 ADD SWAP2 JUMPDEST POP POP POP POP POP SWAP1 DUP1 PUSH1 0x1 ADD SLOAD SWAP1 DUP1 PUSH1 0x2 ADD SLOAD SWAP1 POP DUP4 JUMP JUMPDEST PUSH1 0x1 DUP1 SLOAD PUSH2 0x51A SWAP1 PUSH2 0x19DC JUMP JUMPDEST DUP1 PUSH1 0x1F ADD PUSH1 0x20 DUP1 SWAP2 DIV MUL PUSH1 0x20 ADD PUSH1 0x40 MLOAD SWAP1 DUP2 ADD PUSH1 0x40 MSTORE DUP1 SWAP3 SWAP2 SWAP1 DUP2 DUP2 MSTORE PUSH1 0x20 ADD DUP3 DUP1 SLOAD PUSH2 0x546 SWAP1 PUSH2 0x19DC JUMP JUMPDEST DUP1 ISZERO PUSH2 0x591 JUMPI DUP1 PUSH1 0x1F LT PUSH2 0x568 JUMPI PUSH2 0x100 DUP1 DUP4 SLOAD DIV MUL DUP4 MSTORE SWAP2 PUSH1 0x20 ADD SWAP2 PUSH2 0x591 JUMP JUMPDEST DUP3 ADD SWAP2 SWAP1 PUSH0 MSTORE PUSH1 0x20 PUSH0 KECCAK256 SWAP1 JUMPDEST DUP2 SLOAD DUP2 MSTORE SWAP1 PUSH1 0x1 ADD SWAP1 PUSH1 0x20 ADD DUP1 DUP4 GT PUSH2 0x574 JUMPI DUP3 SWAP1 SUB PUSH1 0x1F AND DUP3 ADD SWAP2 JUMPDEST POP POP POP POP POP DUP2 JUMP JUMPDEST PUSH0 DUP1 PUSH1 0x2 DUP2 GT ISZERO PUSH2 0x5AD JUMPI PUSH2 0x5AC PUSH2 0x14E7 JUMP JUMPDEST JUMPDEST PUSH1 0x4 PUSH1 0x15 SWAP1 SLOAD SWAP1 PUSH2 0x100 EXP SWAP1 DIV PUSH1 0xFF AND PUSH1 0x2 DUP2 GT ISZERO PUSH2 0x5CF JUMPI PUSH2 0x5CE PUSH2 0x14E7 JUMP JUMPDEST JUMPDEST EQ DUP1 ISZERO PUSH2 0x5DD JUMPI POP PUSH1 0x3 SLOAD TIMESTAMP GT JUMPDEST ISZERO PUSH2 0x5FD JUMPI PUSH1 0x2 SLOAD SELFBALANCE LT ISZERO PUSH2 0x5F3 JUMPI PUSH1 0x2 PUSH2 0x5F6 JUMP JUMPDEST PUSH1 0x1 JUMPDEST SWAP1 POP PUSH2 0x610 JUMP JUMPDEST PUSH1 0x4 PUSH1 0x15 SWAP1 SLOAD SWAP1 PUSH2 0x100 EXP SWAP1 DIV PUSH1 0xFF AND SWAP1 POP JUMPDEST SWAP1 JUMP JUMPDEST PUSH1 0x4 PUSH0 SWAP1 SLOAD SWAP1 PUSH2 0x100 EXP SWAP1 DIV PUSH20 0xFFFFFFFFFFFFFFFFFFFFFFFFFFFFFFFFFFFFFFFF AND PUSH20 0xFFFFFFFFFFFFFFFFFFFFFFFFFFFFFFFFFFFFFFFF AND CALLER PUSH20 0xFFFFFFFFFFFFFFFFFFFFFFFFFFFFFFFFFFFFFFFF AND EQ PUSH2 0x6A2 JUMPI PUSH1 0x40 MLOAD PUSH32 0x8C379A000000000000000000000000000000000000000000000000000000000 DUP2 MSTORE PUSH1 0x4 ADD PUSH2 0x699 SWAP1 PUSH2 0x1A56 JUMP JUMPDEST PUSH1 0x40 MLOAD DUP1 SWAP2 SUB SWAP1 REVERT JUMPDEST PUSH3 0x15180 DUP2 PUSH2 0x6B1 SWAP2 SWAP1 PUSH2 0x1AA1 JUMP JUMPDEST PUSH1 0x3 PUSH0 DUP3 DUP3 SLOAD PUSH2 0x6C1 SWAP2 SWAP1 PUSH2 0x1AE2 JUMP JUMPDEST SWAP3 POP POP DUP2 SWAP1 SSTORE POP POP JUMP JUMPDEST PUSH1 0x4 PUSH0 SWAP1 SLOAD SWAP1 PUSH2 0x100 EXP SWAP1 DIV PUSH20 0xFFFFFFFFFFFFFFFFFFFFFFFFFFFFFFFFFFFFFFFF AND PUSH20 0xFFFFFFFFFFFFFFFFFFFFFFFFFFFFFFFFFFFFFFFF AND CALLER PUSH20 0xFFFFFFFFFFFFFFFFFFFFFFFFFFFFFFFFFFFFFFFF AND EQ PUSH2 0x75A JUMPI PUSH1 0x40 MLOAD PUSH32 0x8C379A000000000000000000000000000000000000000000000000000000000 DUP2 MSTORE PUSH1 0x4 ADD PUSH2 0x751 SWAP1 PUSH2 0x1A56 JUMP JUMPDEST PUSH1 0x40 MLOAD DUP1 SWAP2 SUB SWAP1 REVERT JUMPDEST PUSH2 0x762 PUSH2 0x1280 JUMP JUMPDEST PUSH1 0x1 PUSH1 0x2 DUP2 GT ISZERO PUSH2 0x776 JUMPI PUSH2 0x775 PUSH2 0x14E7 JUMP JUMPDEST JUMPDEST PUSH1 0x4 PUSH1 0x15 SWAP1 SLOAD SWAP1 PUSH2 0x100 EXP SWAP1 DIV PUSH1 0xFF AND PUSH1 0x2 DUP2 GT ISZERO PUSH2 0x798 JUMPI PUSH2 0x797 PUSH2 0x14E7 JUMP JUMPDEST JUMPDEST EQ PUSH2 0x7D8 JUMPI PUSH1 0x40 MLOAD PUSH32 0x8C379A000000000000000000000000000000000000000000000000000000000 DUP2 MSTORE PUSH1 0x4 ADD PUSH2 0x7CF SWAP1 PUSH2 0x1B5F JUMP JUMPDEST PUSH1 0x40 MLOAD DUP1 SWAP2 SUB SWAP1 REVERT JUMPDEST PUSH0 SELFBALANCE SWAP1 POP PUSH0 DUP2 GT PUSH2 0x81E JUMPI PUSH1 0x40 MLOAD PUSH32 0x8C379A000000000000000000000000000000000000000000000000000000000 DUP2 MSTORE PUSH1 0x4 ADD PUSH2 0x815 SWAP1 PUSH2 0x1BC7 JUMP JUMPDEST PUSH1 0x40 MLOAD DUP1 SWAP2 SUB SWAP1 REVERT JUMPDEST PUSH1 0x4 PUSH0 SWAP1 SLOAD SWAP1 PUSH2 0x100 EXP SWAP1 DIV PUSH20 0xFFFFFFFFFFFFFFFFFFFFFFFFFFFFFFFFFFFFFFFF AND PUSH20 0xFFFFFFFFFFFFFFFFFFFFFFFFFFFFFFFFFFFFFFFF AND PUSH2 0x8FC DUP3 SWAP1 DUP2 ISZERO MUL SWAP1 PUSH1 0x40 MLOAD PUSH0 PUSH1 0x40 MLOAD DUP1 DUP4 SUB DUP2 DUP6 DUP9 DUP9 CALL SWAP4 POP POP POP POP ISZERO DUP1 ISZERO PUSH2 0x882 JUMPI RETURNDATASIZE PUSH0 DUP1 RETURNDATACOPY RETURNDATASIZE PUSH0 REVERT JUMPDEST POP POP JUMP JUMPDEST PUSH0 DUP1 SLOAD PUSH2 0x892 SWAP1 PUSH2 0x19DC JUMP JUMPDEST DUP1 PUSH1 0x1F ADD PUSH1 0x20 DUP1 SWAP2 DIV MUL PUSH1 0x20 ADD PUSH1 0x40 MLOAD SWAP1 DUP2 ADD PUSH1 0x40 MSTORE DUP1 SWAP3 SWAP2 SWAP1 DUP2 DUP2 MSTORE PUSH1 0x20 ADD DUP3 DUP1 SLOAD PUSH2 0x8BE SWAP1 PUSH2 0x19DC JUMP JUMPDEST DUP1 ISZERO PUSH2 0x909 JUMPI DUP1 PUSH1 0x1F LT PUSH2 0x8E0 JUMPI PUSH2 0x100 DUP1 DUP4 SLOAD DIV MUL DUP4 MSTORE SWAP2 PUSH1 0x20 ADD SWAP2 PUSH2 0x909 JUMP JUMPDEST DUP3 ADD SWAP2 SWAP1 PUSH0 MSTORE PUSH1 0x20 PUSH0 KECCAK256 SWAP1 JUMPDEST DUP2 SLOAD DUP2 MSTORE SWAP1 PUSH1 0x1 ADD SWAP1 PUSH1 0x20 ADD DUP1 DUP4 GT PUSH2 0x8EC JUMPI DUP3 SWAP1 SUB PUSH1 0x1F AND DUP3 ADD SWAP2 JUMPDEST POP POP POP POP POP DUP2 JUMP JUMPDEST PUSH2 0x919 PUSH2 0x1280 JUMP JUMPDEST PUSH1 0x2 DUP1 DUP2 GT ISZERO PUSH2 0x92C JUMPI PUSH2 0x92B PUSH2 0x14E7 JUMP JUMPDEST JUMPDEST PUSH1 0x4 PUSH1 0x15 SWAP1 SLOAD SWAP1 PUSH2 0x100 EXP SWAP1 DIV PUSH1 0xFF AND PUSH1 0x2 DUP2 GT ISZERO PUSH2 0x94E JUMPI PUSH2 0x94D PUSH2 0x14E7 JUMP JUMPDEST JUMPDEST EQ PUSH2 0x98E JUMPI PUSH1 0x40 MLOAD PUSH32 0x8C379A000000000000000000000000000000000000000000000000000000000 DUP2 MSTORE PUSH1 0x4 ADD PUSH2 0x985 SWAP1 PUSH2 0x1C2F JUMP JUMPDEST PUSH1 0x40 MLOAD DUP1 SWAP2 SUB SWAP1 REVERT JUMPDEST PUSH0 PUSH1 0x6 PUSH0 CALLER PUSH20 0xFFFFFFFFFFFFFFFFFFFFFFFFFFFFFFFFFFFFFFFF AND PUSH20 0xFFFFFFFFFFFFFFFFFFFFFFFFFFFFFFFFFFFFFFFF AND DUP2 MSTORE PUSH1 0x20 ADD SWAP1 DUP2 MSTORE PUSH1 0x20 ADD PUSH0 KECCAK256 PUSH0 ADD SLOAD SWAP1 POP PUSH0 DUP2 GT PUSH2 0xA13 JUMPI PUSH1 0x40 MLOAD PUSH32 0x8C379A000000000000000000000000000000000000000000000000000000000 DUP2 MSTORE PUSH1 0x4 ADD PUSH2 0xA0A SWAP1 PUSH2 0x1C97 JUMP JUMPDEST PUSH1 0x40 MLOAD DUP1 SWAP2 SUB SWAP1 REVERT JUMPDEST PUSH0 PUSH1 0x6 PUSH0 CALLER PUSH20 0xFFFFFFFFFFFFFFFFFFFFFFFFFFFFFFFFFFFFFFFF AND PUSH20 0xFFFFFFFFFFFFFFFFFFFFFFFFFFFFFFFFFFFFFFFF AND DUP2 MSTORE PUSH1 0x20 ADD SWAP1 DUP2 MSTORE PUSH1 0x20 ADD PUSH0 KECCAK256 PUSH0 ADD DUP2 SWAP1 SSTORE POP CALLER PUSH20 0xFFFFFFFFFFFFFFFFFFFFFFFFFFFFFFFFFFFFFFFF AND PUSH2 0x8FC DUP3 SWAP1 DUP2 ISZERO MUL SWAP1 PUSH1 0x40 MLOAD PUSH0 PUSH1 0x40 MLOAD DUP1 DUP4 SUB DUP2 DUP6 DUP9 DUP9 CALL SWAP4 POP POP POP POP ISZERO DUP1 ISZERO PUSH2 0xA9A JUMPI RETURNDATASIZE PUSH0 DUP1 RETURNDATACOPY RETURNDATASIZE PUSH0 REVERT JUMPDEST POP POP JUMP JUMPDEST PUSH0 SELFBALANCE SWAP1 POP SWAP1 JUMP JUMPDEST PUSH1 0x4 PUSH0 SWAP1 SLOAD SWAP1 PUSH2 0x100 EXP SWAP1 DIV PUSH20 0xFFFFFFFFFFFFFFFFFFFFFFFFFFFFFFFFFFFFFFFF AND PUSH20 0xFFFFFFFFFFFFFFFFFFFFFFFFFFFFFFFFFFFFFFFF AND CALLER PUSH20 0xFFFFFFFFFFFFFFFFFFFFFFFFFFFFFFFFFFFFFFFF AND EQ PUSH2 0xB34 JUMPI PUSH1 0x40 MLOAD PUSH32 0x8C379A000000000000000000000000000000000000000000000000000000000 DUP2 MSTORE PUSH1 0x4 ADD PUSH2 0xB2B SWAP1 PUSH2 0x1A56 JUMP JUMPDEST PUSH1 0x40 MLOAD DUP1 SWAP2 SUB SWAP1 REVERT JUMPDEST PUSH1 0x5 DUP1 SLOAD SWAP1 POP DUP2 LT PUSH2 0xB7B JUMPI PUSH1 0x40 MLOAD PUSH32 0x8C379A000000000000000000000000000000000000000000000000000000000 DUP2 MSTORE PUSH1 0x4 ADD PUSH2 0xB72 SWAP1 PUSH2 0x1CFF JUMP JUMPDEST PUSH1 0x40 MLOAD DUP1 SWAP2 SUB SWAP1 REVERT JUMPDEST PUSH1 0x5 PUSH1 0x1 PUSH1 0x5 DUP1 SLOAD SWAP1 POP PUSH2 0xB8F SWAP2 SWAP1 PUSH2 0x1D1D JUMP JUMPDEST DUP2 SLOAD DUP2 LT PUSH2 0xBA0 JUMPI PUSH2 0xB9F PUSH2 0x1D50 JUMP JUMPDEST JUMPDEST SWAP1 PUSH0 MSTORE PUSH1 0x20 PUSH0 KECCAK256 SWAP1 PUSH1 0x3 MUL ADD PUSH1 0x5 DUP3 DUP2 SLOAD DUP2 LT PUSH2 0xBC0 JUMPI PUSH2 0xBBF PUSH2 0x1D50 JUMP JUMPDEST JUMPDEST SWAP1 PUSH0 MSTORE PUSH1 0x20 PUSH0 KECCAK256 SWAP1 PUSH1 0x3 MUL ADD PUSH0 DUP3 ADD DUP2 PUSH0 ADD SWAP1 DUP2 PUSH2 0xBDE SWAP2 SWAP1 PUSH2 0x1F2F JUMP JUMPDEST POP PUSH1 0x1 DUP3 ADD SLOAD DUP2 PUSH1 0x1 ADD SSTORE PUSH1 0x2 DUP3 ADD SLOAD DUP2 PUSH1 0x2 ADD SSTORE SWAP1 POP POP PUSH1 0x5 DUP1 SLOAD DUP1 PUSH2 0xC08 JUMPI PUSH2 0xC07 PUSH2 0x2014 JUMP JUMPDEST JUMPDEST PUSH1 0x1 SWAP1 SUB DUP2 DUP2 SWAP1 PUSH0 MSTORE PUSH1 0x20 PUSH0 KECCAK256 SWAP1 PUSH1 0x3 MUL ADD PUSH0 DUP1 DUP3 ADD PUSH0 PUSH2 0xC29 SWAP2 SWAP1 PUSH2 0x1345 JUMP JUMPDEST PUSH1 0x1 DUP3 ADD PUSH0 SWAP1 SSTORE PUSH1 0x2 DUP3 ADD PUSH0 SWAP1 SSTORE POP POP SWAP1 SSTORE POP JUMP JUMPDEST PUSH0 PUSH1 0x6 PUSH0 DUP5 PUSH20 0xFFFFFFFFFFFFFFFFFFFFFFFFFFFFFFFFFFFFFFFF AND PUSH20 0xFFFFFFFFFFFFFFFFFFFFFFFFFFFFFFFFFFFFFFFF AND DUP2 MSTORE PUSH1 0x20 ADD SWAP1 DUP2 MSTORE PUSH1 0x20 ADD PUSH0 KECCAK256 PUSH1 0x1 ADD PUSH0 DUP4 DUP2 MSTORE PUSH1 0x20 ADD SWAP1 DUP2 MSTORE PUSH1 0x20 ADD PUSH0 KECCAK256 PUSH0 SWAP1 SLOAD SWAP1 PUSH2 0x100 EXP SWAP1 DIV PUSH1 0xFF AND SWAP1 POP SWAP3 SWAP2 POP POP JUMP JUMPDEST PUSH1 0x4 PUSH1 0x14 SWAP1 SLOAD SWAP1 PUSH2 0x100 EXP SWAP1 DIV PUSH1 0xFF AND DUP2 JUMP JUMPDEST PUSH1 0x4 PUSH0 SWAP1 SLOAD SWAP1 PUSH2 0x100 EXP SWAP1 DIV PUSH20 0xFFFFFFFFFFFFFFFFFFFFFFFFFFFFFFFFFFFFFFFF AND PUSH20 0xFFFFFFFFFFFFFFFFFFFFFFFFFFFFFFFFFFFFFFFF AND CALLER PUSH20 0xFFFFFFFFFFFFFFFFFFFFFFFFFFFFFFFFFFFFFFFF AND EQ PUSH2 0xD45 JUMPI PUSH1 0x40 MLOAD PUSH32 0x8C379A000000000000000000000000000000000000000000000000000000000 DUP2 MSTORE PUSH1 0x4 ADD PUSH2 0xD3C SWAP1 PUSH2 0x1A56 JUMP JUMPDEST PUSH1 0x40 MLOAD DUP1 SWAP2 SUB SWAP1 REVERT JUMPDEST PUSH0 DUP2 GT PUSH2 0xD87 JUMPI PUSH1 0x40 MLOAD PUSH32 0x8C379A000000000000000000000000000000000000000000000000000000000 DUP2 MSTORE PUSH1 0x4 ADD PUSH2 0xD7E SWAP1 PUSH2 0x208B JUMP JUMPDEST PUSH1 0x40 MLOAD DUP1 SWAP2 SUB SWAP1 REVERT JUMPDEST PUSH1 0x5 PUSH1 0x40 MLOAD DUP1 PUSH1 0x60 ADD PUSH1 0x40 MSTORE DUP1 DUP5 DUP2 MSTORE PUSH1 0x20 ADD DUP4 DUP2 MSTORE PUSH1 0x20 ADD PUSH0 DUP2 MSTORE POP SWAP1 DUP1 PUSH1 0x1 DUP2 SLOAD ADD DUP1 DUP3 SSTORE DUP1 SWAP2 POP POP PUSH1 0x1 SWAP1 SUB SWAP1 PUSH0 MSTORE PUSH1 0x20 PUSH0 KECCAK256 SWAP1 PUSH1 0x3 MUL ADD PUSH0 SWAP1 SWAP2 SWAP1 SWAP2 SWAP1 SWAP2 POP PUSH0 DUP3 ADD MLOAD DUP2 PUSH0 ADD SWAP1 DUP2 PUSH2 0xDDD SWAP2 SWAP1 PUSH2 0x20A9 JUMP JUMPDEST POP PUSH1 0x20 DUP3 ADD MLOAD DUP2 PUSH1 0x1 ADD SSTORE PUSH1 0x40 DUP3 ADD MLOAD DUP2 PUSH1 0x2 ADD SSTORE POP POP POP POP JUMP JUMPDEST PUSH1 0x6 PUSH1 0x20 MSTORE DUP1 PUSH0 MSTORE PUSH1 0x40 PUSH0 KECCAK256 PUSH0 SWAP2 POP SWAP1 POP DUP1 PUSH0 ADD SLOAD SWAP1 POP DUP2 JUMP JUMPDEST PUSH1 0x4 PUSH1 0x15 SWAP1 SLOAD SWAP1 PUSH2 0x100 EXP SWAP1 DIV PUSH1 0xFF AND DUP2 JUMP JUMPDEST PUSH0 PUSH1 0x2 DUP2 GT ISZERO PUSH2 0xE38 JUMPI PUSH2 0xE37 PUSH2 0x14E7 JUMP JUMPDEST JUMPDEST PUSH1 0x4 PUSH1 0x15 SWAP1 SLOAD SWAP1 PUSH2 0x100 EXP SWAP1 DIV PUSH1 0xFF AND PUSH1 0x2 DUP2 GT ISZERO PUSH2 0xE5A JUMPI PUSH2 0xE59 PUSH2 0x14E7 JUMP JUMPDEST JUMPDEST EQ PUSH2 0xE9A JUMPI PUSH1 0x40 MLOAD PUSH32 0x8C379A000000000000000000000000000000000000000000000000000000000 DUP2 MSTORE PUSH1 0x4 ADD PUSH2 0xE91 SWAP1 PUSH2 0x21C2 JUMP JUMPDEST PUSH1 0x40 MLOAD DUP1 SWAP2 SUB SWAP1 REVERT JUMPDEST PUSH1 0x4 PUSH1 0x14 SWAP1 SLOAD SWAP1 PUSH2 0x100 EXP SWAP1 DIV PUSH1 0xFF AND ISZERO PUSH2 0xEEA JUMPI PUSH1 0x40 MLOAD PUSH32 0x8C379A000000000000000000000000000000000000000000000000000000000 DUP2 MSTORE PUSH1 0x4 ADD PUSH2 0xEE1 SWAP1 PUSH2 0x222A JUMP JUMPDEST PUSH1 0x40 MLOAD DUP1 SWAP2 SUB SWAP1 REVERT JUMPDEST PUSH1 0x5 DUP1 SLOAD SWAP1 POP DUP2 LT PUSH2 0xF31 JUMPI PUSH1 0x40 MLOAD PUSH32 0x8C379A000000000000000000000000000000000000000000000000000000000 DUP2 MSTORE PUSH1 0x4 ADD PUSH2 0xF28 SWAP1 PUSH2 0x2292 JUMP JUMPDEST PUSH1 0x40 MLOAD DUP1 SWAP2 SUB SWAP1 REVERT JUMPDEST PUSH1 0x5 DUP2 DUP2 SLOAD DUP2 LT PUSH2 0xF45 JUMPI PUSH2 0xF44 PUSH2 0x1D50 JUMP JUMPDEST JUMPDEST SWAP1 PUSH0 MSTORE PUSH1 0x20 PUSH0 KECCAK256 SWAP1 PUSH1 0x3 MUL ADD PUSH1 0x1 ADD SLOAD CALLVALUE EQ PUSH2 0xF96 JUMPI PUSH1 0x40 MLOAD PUSH32 0x8C379A000000000000000000000000000000000000000000000000000000000 DUP2 MSTORE PUSH1 0x4 ADD PUSH2 0xF8D SWAP1 PUSH2 0x22FA JUMP JUMPDEST PUSH1 0x40 MLOAD DUP1 SWAP2 SUB SWAP1 REVERT JUMPDEST PUSH1 0x5 DUP2 DUP2 SLOAD DUP2 LT PUSH2 0xFAA JUMPI PUSH2 0xFA9 PUSH2 0x1D50 JUMP JUMPDEST JUMPDEST SWAP1 PUSH0 MSTORE PUSH1 0x20 PUSH0 KECCAK256 SWAP1 PUSH1 0x3 MUL ADD PUSH1 0x2 ADD PUSH0 DUP2 SLOAD DUP1 SWAP3 SWAP2 SWAP1 PUSH2 0xFC9 SWAP1 PUSH2 0x2318 JUMP JUMPDEST SWAP2 SWAP1 POP SSTORE POP CALLVALUE PUSH1 0x6 PUSH0 CALLER PUSH20 0xFFFFFFFFFFFFFFFFFFFFFFFFFFFFFFFFFFFFFFFF AND PUSH20 0xFFFFFFFFFFFFFFFFFFFFFFFFFFFFFFFFFFFFFFFF AND DUP2 MSTORE PUSH1 0x20 ADD SWAP1 DUP2 MSTORE PUSH1 0x20 ADD PUSH0 KECCAK256 PUSH0 ADD PUSH0 DUP3 DUP3 SLOAD PUSH2 0x101C SWAP2 SWAP1 PUSH2 0x1AE2 JUMP JUMPDEST SWAP3 POP POP DUP2 SWAP1 SSTORE POP PUSH1 0x1 PUSH1 0x6 PUSH0 CALLER PUSH20 0xFFFFFFFFFFFFFFFFFFFFFFFFFFFFFFFFFFFFFFFF AND PUSH20 0xFFFFFFFFFFFFFFFFFFFFFFFFFFFFFFFFFFFFFFFF AND DUP2 MSTORE PUSH1 0x20 ADD SWAP1 DUP2 MSTORE PUSH1 0x20 ADD PUSH0 KECCAK256 PUSH1 0x1 ADD PUSH0 DUP4 DUP2 MSTORE PUSH1 0x20 ADD SWAP1 DUP2 MSTORE PUSH1 0x20 ADD PUSH0 KECCAK256 PUSH0 PUSH2 0x100 EXP DUP2 SLOAD DUP2 PUSH1 0xFF MUL NOT AND SWAP1 DUP4 ISZERO ISZERO MUL OR SWAP1 SSTORE POP PUSH2 0x1092 PUSH2 0x1280 JUMP JUMPDEST POP JUMP JUMPDEST PUSH1 0x4 PUSH0 SWAP1 SLOAD SWAP1 PUSH2 0x100 EXP SWAP1 DIV PUSH20 0xFFFFFFFFFFFFFFFFFFFFFFFFFFFFFFFFFFFFFFFF AND PUSH20 0xFFFFFFFFFFFFFFFFFFFFFFFFFFFFFFFFFFFFFFFF AND CALLER PUSH20 0xFFFFFFFFFFFFFFFFFFFFFFFFFFFFFFFFFFFFFFFF AND EQ PUSH2 0x1124 JUMPI PUSH1 0x40 MLOAD PUSH32 0x8C379A000000000000000000000000000000000000000000000000000000000 DUP2 MSTORE PUSH1 0x4 ADD PUSH2 0x111B SWAP1 PUSH2 0x1A56 JUMP JUMPDEST PUSH1 0x40 MLOAD DUP1 SWAP2 SUB SWAP1 REVERT JUMPDEST PUSH1 0x4 PUSH1 0x14 SWAP1 SLOAD SWAP1 PUSH2 0x100 EXP SWAP1 DIV PUSH1 0xFF AND ISZERO PUSH1 0x4 PUSH1 0x14 PUSH2 0x100 EXP DUP2 SLOAD DUP2 PUSH1 0xFF MUL NOT AND SWAP1 DUP4 ISZERO ISZERO MUL OR SWAP1 SSTORE POP JUMP JUMPDEST PUSH1 0x60 PUSH1 0x5 DUP1 SLOAD DUP1 PUSH1 0x20 MUL PUSH1 0x20 ADD PUSH1 0x40 MLOAD SWAP1 DUP2 ADD PUSH1 0x40 MSTORE DUP1 SWAP3 SWAP2 SWAP1 DUP2 DUP2 MSTORE PUSH1 0x20 ADD PUSH0 SWAP1 JUMPDEST DUP3 DUP3 LT ISZERO PUSH2 0x1246 JUMPI DUP4 DUP3 SWAP1 PUSH0 MSTORE PUSH1 0x20 PUSH0 KECCAK256 SWAP1 PUSH1 0x3 MUL ADD PUSH1 0x40 MLOAD DUP1 PUSH1 0x60 ADD PUSH1 0x40 MSTORE SWAP1 DUP2 PUSH0 DUP3 ADD DUP1 SLOAD PUSH2 0x11A3 SWAP1 PUSH2 0x19DC JUMP JUMPDEST DUP1 PUSH1 0x1F ADD PUSH1 0x20 DUP1 SWAP2 DIV MUL PUSH1 0x20 ADD PUSH1 0x40 MLOAD SWAP1 DUP2 ADD PUSH1 0x40 MSTORE DUP1 SWAP3 SWAP2 SWAP1 DUP2 DUP2 MSTORE PUSH1 0x20 ADD DUP3 DUP1 SLOAD PUSH2 0x11CF SWAP1 PUSH2 0x19DC JUMP JUMPDEST DUP1 ISZERO PUSH2 0x121A JUMPI DUP1 PUSH1 0x1F LT PUSH2 0x11F1 JUMPI PUSH2 0x100 DUP1 DUP4 SLOAD DIV MUL DUP4 MSTORE SWAP2 PUSH1 0x20 ADD SWAP2 PUSH2 0x121A JUMP JUMPDEST DUP3 ADD SWAP2 SWAP1 PUSH0 MSTORE PUSH1 0x20 PUSH0 KECCAK256 SWAP1 JUMPDEST DUP2 SLOAD DUP2 MSTORE SWAP1 PUSH1 0x1 ADD SWAP1 PUSH1 0x20 ADD DUP1 DUP4 GT PUSH2 0x11FD JUMPI DUP3 SWAP1 SUB PUSH1 0x1F AND DUP3 ADD SWAP2 JUMPDEST POP POP POP POP POP DUP2 MSTORE PUSH1 0x20 ADD PUSH1 0x1 DUP3 ADD SLOAD DUP2 MSTORE PUSH1 0x20 ADD PUSH1 0x2 DUP3 ADD SLOAD DUP2 MSTORE POP POP DUP2 MSTORE PUSH1 0x20 ADD SWAP1 PUSH1 0x1 ADD SWAP1 PUSH2 0x1173 JUMP JUMPDEST POP POP POP POP SWAP1 POP SWAP1 JUMP JUMPDEST PUSH1 0x2 SLOAD DUP2 JUMP JUMPDEST PUSH1 0x3 SLOAD DUP2 JUMP JUMPDEST PUSH1 0x4 PUSH0 SWAP1 SLOAD SWAP1 PUSH2 0x100 EXP SWAP1 DIV PUSH20 0xFFFFFFFFFFFFFFFFFFFFFFFFFFFFFFFFFFFFFFFF AND DUP2 JUMP JUMPDEST PUSH0 PUSH1 0x2 DUP2 GT ISZERO PUSH2 0x1293 JUMPI PUSH2 0x1292 PUSH2 0x14E7 JUMP JUMPDEST JUMPDEST PUSH1 0x4 PUSH1 0x15 SWAP1 SLOAD SWAP1 PUSH2 0x100 EXP SWAP1 DIV PUSH1 0xFF AND PUSH1 0x2 DUP2 GT ISZERO PUSH2 0x12B5 JUMPI PUSH2 0x12B4 PUSH2 0x14E7 JUMP JUMPDEST JUMPDEST SUB PUSH2 0x1343 JUMPI PUSH1 0x3 SLOAD TIMESTAMP LT PUSH2 0x1305 JUMPI PUSH1 0x2 SLOAD SELFBALANCE LT ISZERO PUSH2 0x12D4 JUMPI PUSH1 0x2 PUSH2 0x12D7 JUMP JUMPDEST PUSH1 0x1 JUMPDEST PUSH1 0x4 PUSH1 0x15 PUSH2 0x100 EXP DUP2 SLOAD DUP2 PUSH1 0xFF MUL NOT AND SWAP1 DUP4 PUSH1 0x2 DUP2 GT ISZERO PUSH2 0x12FB JUMPI PUSH2 0x12FA PUSH2 0x14E7 JUMP JUMPDEST JUMPDEST MUL OR SWAP1 SSTORE POP PUSH2 0x1342 JUMP JUMPDEST PUSH1 0x2 SLOAD SELFBALANCE LT ISZERO PUSH2 0x1315 JUMPI PUSH0 PUSH2 0x1318 JUMP JUMPDEST PUSH1 0x1 JUMPDEST PUSH1 0x4 PUSH1 0x15 PUSH2 0x100 EXP DUP2 SLOAD DUP2 PUSH1 0xFF MUL NOT AND SWAP1 DUP4 PUSH1 0x2 DUP2 GT ISZERO PUSH2 0x133C JUMPI PUSH2 0x133B PUSH2 0x14E7 JUMP JUMPDEST JUMPDEST MUL OR SWAP1 SSTORE POP JUMPDEST JUMPDEST JUMP JUMPDEST POP DUP1 SLOAD PUSH2 0x1351 SWAP1 PUSH2 0x19DC JUMP JUMPDEST PUSH0 DUP3 SSTORE DUP1 PUSH1 0x1F LT PUSH2 0x1362 JUMPI POP PUSH2 0x137F JUMP JUMPDEST PUSH1 0x1F ADD PUSH1 0x20 SWAP1 DIV SWAP1 PUSH0 MSTORE PUSH1 0x20 PUSH0 KECCAK256 SWAP1 DUP2 ADD SWAP1 PUSH2 0x137E SWAP2 SWAP1 PUSH2 0x1382 JUMP JUMPDEST JUMPDEST POP JUMP JUMPDEST JUMPDEST DUP1 DUP3 GT ISZERO PUSH2 0x1399 JUMPI PUSH0 DUP2 PUSH0 SWAP1 SSTORE POP PUSH1 0x1 ADD PUSH2 0x1383 JUMP JUMPDEST POP SWAP1 JUMP JUMPDEST PUSH0 PUSH1 0x40 MLOAD SWAP1 POP SWAP1 JUMP JUMPDEST PUSH0 DUP1 REVERT JUMPDEST PUSH0 DUP1 REVERT JUMPDEST PUSH0 DUP2 SWAP1 POP SWAP2 SWAP1 POP JUMP JUMPDEST PUSH2 0x13C0 DUP2 PUSH2 0x13AE JUMP JUMPDEST DUP2 EQ PUSH2 0x13CA JUMPI PUSH0 DUP1 REVERT JUMPDEST POP JUMP JUMPDEST PUSH0 DUP2 CALLDATALOAD SWAP1 POP PUSH2 0x13DB DUP2 PUSH2 0x13B7 JUMP JUMPDEST SWAP3 SWAP2 POP POP JUMP JUMPDEST PUSH0 PUSH1 0x20 DUP3 DUP5 SUB SLT ISZERO PUSH2 0x13F6 JUMPI PUSH2 0x13F5 PUSH2 0x13A6 JUMP JUMPDEST JUMPDEST PUSH0 PUSH2 0x1403 DUP5 DUP3 DUP6 ADD PUSH2 0x13CD JUMP JUMPDEST SWAP2 POP POP SWAP3 SWAP2 POP POP JUMP JUMPDEST PUSH0 DUP2 MLOAD SWAP1 POP SWAP2 SWAP1 POP JUMP JUMPDEST PUSH0 DUP3 DUP3 MSTORE PUSH1 0x20 DUP3 ADD SWAP1 POP SWAP3 SWAP2 POP POP JUMP JUMPDEST DUP3 DUP2 DUP4 MCOPY PUSH0 DUP4 DUP4 ADD MSTORE POP POP POP JUMP JUMPDEST PUSH0 PUSH1 0x1F NOT PUSH1 0x1F DUP4 ADD AND SWAP1 POP SWAP2 SWAP1 POP JUMP JUMPDEST PUSH0 PUSH2 0x144E DUP3 PUSH2 0x140C JUMP JUMPDEST PUSH2 0x1458 DUP2 DUP6 PUSH2 0x1416 JUMP JUMPDEST SWAP4 POP PUSH2 0x1468 DUP2 DUP6 PUSH1 0x20 DUP7 ADD PUSH2 0x1426 JUMP JUMPDEST PUSH2 0x1471 DUP2 PUSH2 0x1434 JUMP JUMPDEST DUP5 ADD SWAP2 POP POP SWAP3 SWAP2 POP POP JUMP JUMPDEST PUSH2 0x1485 DUP2 PUSH2 0x13AE JUMP JUMPDEST DUP3 MSTORE POP POP JUMP JUMPDEST PUSH0 PUSH1 0x60 DUP3 ADD SWAP1 POP DUP2 DUP2 SUB PUSH0 DUP4 ADD MSTORE PUSH2 0x14A3 DUP2 DUP7 PUSH2 0x1444 JUMP JUMPDEST SWAP1 POP PUSH2 0x14B2 PUSH1 0x20 DUP4 ADD DUP6 PUSH2 0x147C JUMP JUMPDEST PUSH2 0x14BF PUSH1 0x40 DUP4 ADD DUP5 PUSH2 0x147C JUMP JUMPDEST SWAP5 SWAP4 POP POP POP POP JUMP JUMPDEST PUSH0 PUSH1 0x20 DUP3 ADD SWAP1 POP DUP2 DUP2 SUB PUSH0 DUP4 ADD MSTORE PUSH2 0x14DF DUP2 DUP5 PUSH2 0x1444 JUMP JUMPDEST SWAP1 POP SWAP3 SWAP2 POP POP JUMP JUMPDEST PUSH32 0x4E487B7100000000000000000000000000000000000000000000000000000000 PUSH0 MSTORE PUSH1 0x21 PUSH1 0x4 MSTORE PUSH1 0x24 PUSH0 REVERT JUMPDEST PUSH1 0x3 DUP2 LT PUSH2 0x1525 JUMPI PUSH2 0x1524 PUSH2 0x14E7 JUMP JUMPDEST JUMPDEST POP JUMP JUMPDEST PUSH0 DUP2 SWAP1 POP PUSH2 0x1535 DUP3 PUSH2 0x1514 JUMP JUMPDEST SWAP2 SWAP1 POP JUMP JUMPDEST PUSH0 PUSH2 0x1544 DUP3 PUSH2 0x1528 JUMP JUMPDEST SWAP1 POP SWAP2 SWAP1 POP JUMP JUMPDEST PUSH2 0x1554 DUP2 PUSH2 0x153A JUMP JUMPDEST DUP3 MSTORE POP POP JUMP JUMPDEST PUSH0 PUSH1 0x20 DUP3 ADD SWAP1 POP PUSH2 0x156D PUSH0 DUP4 ADD DUP5 PUSH2 0x154B JUMP JUMPDEST SWAP3 SWAP2 POP POP JUMP JUMPDEST PUSH0 PUSH1 0x20 DUP3 ADD SWAP1 POP PUSH2 0x1586 PUSH0 DUP4 ADD DUP5 PUSH2 0x147C JUMP JUMPDEST SWAP3 SWAP2 POP POP JUMP JUMPDEST PUSH0 PUSH20 0xFFFFFFFFFFFFFFFFFFFFFFFFFFFFFFFFFFFFFFFF DUP3 AND SWAP1 POP SWAP2 SWAP1 POP JUMP JUMPDEST PUSH0 PUSH2 0x15B5 DUP3 PUSH2 0x158C JUMP JUMPDEST SWAP1 POP SWAP2 SWAP1 POP JUMP JUMPDEST PUSH2 0x15C5 DUP2 PUSH2 0x15AB JUMP JUMPDEST DUP2 EQ PUSH2 0x15CF JUMPI PUSH0 DUP1 REVERT JUMPDEST POP JUMP JUMPDEST PUSH0 DUP2 CALLDATALOAD SWAP1 POP PUSH2 0x15E0 DUP2 PUSH2 0x15BC JUMP JUMPDEST SWAP3 SWAP2 POP POP JUMP JUMPDEST PUSH0 DUP1 PUSH1 0x40 DUP4 DUP6 SUB SLT ISZERO PUSH2 0x15FC JUMPI PUSH2 0x15FB PUSH2 0x13A6 JUMP JUMPDEST JUMPDEST PUSH0 PUSH2 0x1609 DUP6 DUP3 DUP7 ADD PUSH2 0x15D2 JUMP JUMPDEST SWAP3 POP POP PUSH1 0x20 PUSH2 0x161A DUP6 DUP3 DUP7 ADD PUSH2 0x13CD JUMP JUMPDEST SWAP2 POP POP SWAP3 POP SWAP3 SWAP1 POP JUMP JUMPDEST PUSH0 DUP2 ISZERO ISZERO SWAP1 POP SWAP2 SWAP1 POP JUMP JUMPDEST PUSH2 0x1638 DUP2 PUSH2 0x1624 JUMP JUMPDEST DUP3 MSTORE POP POP JUMP JUMPDEST PUSH0 PUSH1 0x20 DUP3 ADD SWAP1 POP PUSH2 0x1651 PUSH0 DUP4 ADD DUP5 PUSH2 0x162F JUMP JUMPDEST SWAP3 SWAP2 POP POP JUMP JUMPDEST PUSH0 DUP1 REVERT JUMPDEST PUSH0 DUP1 REVERT JUMPDEST PUSH32 0x4E487B7100000000000000000000000000000000000000000000000000000000 PUSH0 MSTORE PUSH1 0x41 PUSH1 0x4 MSTORE PUSH1 0x24 PUSH0 REVERT JUMPDEST PUSH2 0x1695 DUP3 PUSH2 0x1434 JUMP JUMPDEST DUP2 ADD DUP2 DUP2 LT PUSH8 0xFFFFFFFFFFFFFFFF DUP3 GT OR ISZERO PUSH2 0x16B4 JUMPI PUSH2 0x16B3 PUSH2 0x165F JUMP JUMPDEST JUMPDEST DUP1 PUSH1 0x40 MSTORE POP POP POP JUMP JUMPDEST PUSH0 PUSH2 0x16C6 PUSH2 0x139D JUMP JUMPDEST SWAP1 POP PUSH2 0x16D2 DUP3 DUP3 PUSH2 0x168C JUMP JUMPDEST SWAP2 SWAP1 POP JUMP JUMPDEST PUSH0 PUSH8 0xFFFFFFFFFFFFFFFF DUP3 GT ISZERO PUSH2 0x16F1 JUMPI PUSH2 0x16F0 PUSH2 0x165F JUMP JUMPDEST JUMPDEST PUSH2 0x16FA DUP3 PUSH2 0x1434 JUMP JUMPDEST SWAP1 POP PUSH1 0x20 DUP2 ADD SWAP1 POP SWAP2 SWAP1 POP JUMP JUMPDEST DUP3 DUP2 DUP4 CALLDATACOPY PUSH0 DUP4 DUP4 ADD MSTORE POP POP POP JUMP JUMPDEST PUSH0 PUSH2 0x1727 PUSH2 0x1722 DUP5 PUSH2 0x16D7 JUMP JUMPDEST PUSH2 0x16BD JUMP JUMPDEST SWAP1 POP DUP3 DUP2 MSTORE PUSH1 0x20 DUP2 ADD DUP5 DUP5 DUP5 ADD GT ISZERO PUSH2 0x1743 JUMPI PUSH2 0x1742 PUSH2 0x165B JUMP JUMPDEST JUMPDEST PUSH2 0x174E DUP5 DUP3 DUP6 PUSH2 0x1707 JUMP JUMPDEST POP SWAP4 SWAP3 POP POP POP JUMP JUMPDEST PUSH0 DUP3 PUSH1 0x1F DUP4 ADD SLT PUSH2 0x176A JUMPI PUSH2 0x1769 PUSH2 0x1657 JUMP JUMPDEST JUMPDEST DUP2 CALLDATALOAD PUSH2 0x177A DUP5 DUP3 PUSH1 0x20 DUP7 ADD PUSH2 0x1715 JUMP JUMPDEST SWAP2 POP POP SWAP3 SWAP2 POP POP JUMP JUMPDEST PUSH0 DUP1 PUSH1 0x40 DUP4 DUP6 SUB SLT ISZERO PUSH2 0x1799 JUMPI PUSH2 0x1798 PUSH2 0x13A6 JUMP JUMPDEST JUMPDEST PUSH0 DUP4 ADD CALLDATALOAD PUSH8 0xFFFFFFFFFFFFFFFF DUP2 GT ISZERO PUSH2 0x17B6 JUMPI PUSH2 0x17B5 PUSH2 0x13AA JUMP JUMPDEST JUMPDEST PUSH2 0x17C2 DUP6 DUP3 DUP7 ADD PUSH2 0x1756 JUMP JUMPDEST SWAP3 POP POP PUSH1 0x20 PUSH2 0x17D3 DUP6 DUP3 DUP7 ADD PUSH2 0x13CD JUMP JUMPDEST SWAP2 POP POP SWAP3 POP SWAP3 SWAP1 POP JUMP JUMPDEST PUSH0 PUSH1 0x20 DUP3 DUP5 SUB SLT ISZERO PUSH2 0x17F2 JUMPI PUSH2 0x17F1 PUSH2 0x13A6 JUMP JUMPDEST JUMPDEST PUSH0 PUSH2 0x17FF DUP5 DUP3 DUP6 ADD PUSH2 0x15D2 JUMP JUMPDEST SWAP2 POP POP SWAP3 SWAP2 POP POP JUMP JUMPDEST PUSH0 DUP2 MLOAD SWAP1 POP SWAP2 SWAP1 POP JUMP JUMPDEST PUSH0 DUP3 DUP3 MSTORE PUSH1 0x20 DUP3 ADD SWAP1 POP SWAP3 SWAP2 POP POP JUMP JUMPDEST PUSH0 DUP2 SWAP1 POP PUSH1 0x20 DUP3 ADD SWAP1 POP SWAP2 SWAP1 POP JUMP JUMPDEST PUSH0 DUP3 DUP3 MSTORE PUSH1 0x20 DUP3 ADD SWAP1 POP SWAP3 SWAP2 POP POP JUMP JUMPDEST PUSH0 PUSH2 0x184B DUP3 PUSH2 0x140C JUMP JUMPDEST PUSH2 0x1855 DUP2 DUP6 PUSH2 0x1831 JUMP JUMPDEST SWAP4 POP PUSH2 0x1865 DUP2 DUP6 PUSH1 0x20 DUP7 ADD PUSH2 0x1426 JUMP JUMPDEST PUSH2 0x186E DUP2 PUSH2 0x1434 JUMP JUMPDEST DUP5 ADD SWAP2 POP POP SWAP3 SWAP2 POP POP JUMP JUMPDEST PUSH2 0x1882 DUP2 PUSH2 0x13AE JUMP JUMPDEST DUP3 MSTORE POP POP JUMP JUMPDEST PUSH0 PUSH1 0x60 DUP4 ADD PUSH0 DUP4 ADD MLOAD DUP5 DUP3 SUB PUSH0 DUP7 ADD MSTORE PUSH2 0x18A2 DUP3 DUP3 PUSH2 0x1841 JUMP JUMPDEST SWAP2 POP POP PUSH1 0x20 DUP4 ADD MLOAD PUSH2 0x18B7 PUSH1 0x20 DUP7 ADD DUP3 PUSH2 0x1879 JUMP JUMPDEST POP PUSH1 0x40 DUP4 ADD MLOAD PUSH2 0x18CA PUSH1 0x40 DUP7 ADD DUP3 PUSH2 0x1879 JUMP JUMPDEST POP DUP1 SWAP2 POP POP SWAP3 SWAP2 POP POP JUMP JUMPDEST PUSH0 PUSH2 0x18E0 DUP4 DUP4 PUSH2 0x1888 JUMP JUMPDEST SWAP1 POP SWAP3 SWAP2 POP POP JUMP JUMPDEST PUSH0 PUSH1 0x20 DUP3 ADD SWAP1 POP SWAP2 SWAP1 POP JUMP JUMPDEST PUSH0 PUSH2 0x18FE DUP3 PUSH2 0x1808 JUMP JUMPDEST PUSH2 0x1908 DUP2 DUP6 PUSH2 0x1812 JUMP JUMPDEST SWAP4 POP DUP4 PUSH1 0x20 DUP3 MUL DUP6 ADD PUSH2 0x191A DUP6 PUSH2 0x1822 JUMP JUMPDEST DUP1 PUSH0 JUMPDEST DUP6 DUP2 LT ISZERO PUSH2 0x1955 JUMPI DUP5 DUP5 SUB DUP10 MSTORE DUP2 MLOAD PUSH2 0x1936 DUP6 DUP3 PUSH2 0x18D5 JUMP JUMPDEST SWAP5 POP PUSH2 0x1941 DUP4 PUSH2 0x18E8 JUMP JUMPDEST SWAP3 POP PUSH1 0x20 DUP11 ADD SWAP10 POP POP PUSH1 0x1 DUP2 ADD SWAP1 POP PUSH2 0x191D JUMP JUMPDEST POP DUP3 SWAP8 POP DUP8 SWAP6 POP POP POP POP POP POP SWAP3 SWAP2 POP POP JUMP JUMPDEST PUSH0 PUSH1 0x20 DUP3 ADD SWAP1 POP DUP2 DUP2 SUB PUSH0 DUP4 ADD MSTORE PUSH2 0x197F DUP2 DUP5 PUSH2 0x18F4 JUMP JUMPDEST SWAP1 POP SWAP3 SWAP2 POP POP JUMP JUMPDEST PUSH2 0x1990 DUP2 PUSH2 0x15AB JUMP JUMPDEST DUP3 MSTORE POP POP JUMP JUMPDEST PUSH0 PUSH1 0x20 DUP3 ADD SWAP1 POP PUSH2 0x19A9 PUSH0 DUP4 ADD DUP5 PUSH2 0x1987 JUMP JUMPDEST SWAP3 SWAP2 POP POP JUMP JUMPDEST PUSH32 0x4E487B7100000000000000000000000000000000000000000000000000000000 PUSH0 MSTORE PUSH1 0x22 PUSH1 0x4 MSTORE PUSH1 0x24 PUSH0 REVERT JUMPDEST PUSH0 PUSH1 0x2 DUP3 DIV SWAP1 POP PUSH1 0x1 DUP3 AND DUP1 PUSH2 0x19F3 JUMPI PUSH1 0x7F DUP3 AND SWAP2 POP JUMPDEST PUSH1 0x20 DUP3 LT DUP2 SUB PUSH2 0x1A06 JUMPI PUSH2 0x1A05 PUSH2 0x19AF JUMP JUMPDEST JUMPDEST POP SWAP2 SWAP1 POP JUMP JUMPDEST PUSH32 0x4E6F742063616D706169676E206F776E65720000000000000000000000000000 PUSH0 DUP3 ADD MSTORE POP JUMP JUMPDEST PUSH0 PUSH2 0x1A40 PUSH1 0x12 DUP4 PUSH2 0x1416 JUMP JUMPDEST SWAP2 POP PUSH2 0x1A4B DUP3 PUSH2 0x1A0C JUMP JUMPDEST PUSH1 0x20 DUP3 ADD SWAP1 POP SWAP2 SWAP1 POP JUMP JUMPDEST PUSH0 PUSH1 0x20 DUP3 ADD SWAP1 POP DUP2 DUP2 SUB PUSH0 DUP4 ADD MSTORE PUSH2 0x1A6D DUP2 PUSH2 0x1A34 JUMP JUMPDEST SWAP1 POP SWAP2 SWAP1 POP JUMP JUMPDEST PUSH32 0x4E487B7100000000000000000000000000000000000000000000000000000000 PUSH0 MSTORE PUSH1 0x11 PUSH1 0x4 MSTORE PUSH1 0x24 PUSH0 REVERT JUMPDEST PUSH0 PUSH2 0x1AAB DUP3 PUSH2 0x13AE JUMP JUMPDEST SWAP2 POP PUSH2 0x1AB6 DUP4 PUSH2 0x13AE JUMP JUMPDEST SWAP3 POP DUP3 DUP3 MUL PUSH2 0x1AC4 DUP2 PUSH2 0x13AE JUMP JUMPDEST SWAP2 POP DUP3 DUP3 DIV DUP5 EQ DUP4 ISZERO OR PUSH2 0x1ADB JUMPI PUSH2 0x1ADA PUSH2 0x1A74 JUMP JUMPDEST JUMPDEST POP SWAP3 SWAP2 POP POP JUMP JUMPDEST PUSH0 PUSH2 0x1AEC DUP3 PUSH2 0x13AE JUMP JUMPDEST SWAP2 POP PUSH2 0x1AF7 DUP4 PUSH2 0x13AE JUMP JUMPDEST SWAP3 POP DUP3 DUP3 ADD SWAP1 POP DUP1 DUP3 GT ISZERO PUSH2 0x1B0F JUMPI PUSH2 0x1B0E PUSH2 0x1A74 JUMP JUMPDEST JUMPDEST SWAP3 SWAP2 POP POP JUMP JUMPDEST PUSH32 0x43616D706169676E206E6F74207375636365737366756C000000000000000000 PUSH0 DUP3 ADD MSTORE POP JUMP JUMPDEST PUSH0 PUSH2 0x1B49 PUSH1 0x17 DUP4 PUSH2 0x1416 JUMP JUMPDEST SWAP2 POP PUSH2 0x1B54 DUP3 PUSH2 0x1B15 JUMP JUMPDEST PUSH1 0x20 DUP3 ADD SWAP1 POP SWAP2 SWAP1 POP JUMP JUMPDEST PUSH0 PUSH1 0x20 DUP3 ADD SWAP1 POP DUP2 DUP2 SUB PUSH0 DUP4 ADD MSTORE PUSH2 0x1B76 DUP2 PUSH2 0x1B3D JUMP JUMPDEST SWAP1 POP SWAP2 SWAP1 POP JUMP JUMPDEST PUSH32 0x4E6F7468696E6720746F20776974686472617700000000000000000000000000 PUSH0 DUP3 ADD MSTORE POP JUMP JUMPDEST PUSH0 PUSH2 0x1BB1 PUSH1 0x13 DUP4 PUSH2 0x1416 JUMP JUMPDEST SWAP2 POP PUSH2 0x1BBC DUP3 PUSH2 0x1B7D JUMP JUMPDEST PUSH1 0x20 DUP3 ADD SWAP1 POP SWAP2 SWAP1 POP JUMP JUMPDEST PUSH0 PUSH1 0x20 DUP3 ADD SWAP1 POP DUP2 DUP2 SUB PUSH0 DUP4 ADD MSTORE PUSH2 0x1BDE DUP2 PUSH2 0x1BA5 JUMP JUMPDEST SWAP1 POP SWAP2 SWAP1 POP JUMP JUMPDEST PUSH32 0x43616D706169676E206973206E6F74206661696C656400000000000000000000 PUSH0 DUP3 ADD MSTORE POP JUMP JUMPDEST PUSH0 PUSH2 0x1C19 PUSH1 0x16 DUP4 PUSH2 0x1416 JUMP JUMPDEST SWAP2 POP PUSH2 0x1C24 DUP3 PUSH2 0x1BE5 JUMP JUMPDEST PUSH1 0x20 DUP3 ADD SWAP1 POP SWAP2 SWAP1 POP JUMP JUMPDEST PUSH0 PUSH1 0x20 DUP3 ADD SWAP1 POP DUP2 DUP2 SUB PUSH0 DUP4 ADD MSTORE PUSH2 0x1C46 DUP2 PUSH2 0x1C0D JUMP JUMPDEST SWAP1 POP SWAP2 SWAP1 POP JUMP JUMPDEST PUSH32 0x4E6F20636F6E747269627574696F6E20746F20726566756E6400000000000000 PUSH0 DUP3 ADD MSTORE POP JUMP JUMPDEST PUSH0 PUSH2 0x1C81 PUSH1 0x19 DUP4 PUSH2 0x1416 JUMP JUMPDEST SWAP2 POP PUSH2 0x1C8C DUP3 PUSH2 0x1C4D JUMP JUMPDEST PUSH1 0x20 DUP3 ADD SWAP1 POP SWAP2 SWAP1 POP JUMP JUMPDEST PUSH0 PUSH1 0x20 DUP3 ADD SWAP1 POP DUP2 DUP2 SUB PUSH0 DUP4 ADD MSTORE PUSH2 0x1CAE DUP2 PUSH2 0x1C75 JUMP JUMPDEST SWAP1 POP SWAP2 SWAP1 POP JUMP JUMPDEST PUSH32 0x5469657220646F6573206E6F7420657869737400000000000000000000000000 PUSH0 DUP3 ADD MSTORE POP JUMP JUMPDEST PUSH0 PUSH2 0x1CE9 PUSH1 0x13 DUP4 PUSH2 0x1416 JUMP JUMPDEST SWAP2 POP PUSH2 0x1CF4 DUP3 PUSH2 0x1CB5 JUMP JUMPDEST PUSH1 0x20 DUP3 ADD SWAP1 POP SWAP2 SWAP1 POP JUMP JUMPDEST PUSH0 PUSH1 0x20 DUP3 ADD SWAP1 POP DUP2 DUP2 SUB PUSH0 DUP4 ADD MSTORE PUSH2 0x1D16 DUP2 PUSH2 0x1CDD JUMP JUMPDEST SWAP1 POP SWAP2 SWAP1 POP JUMP JUMPDEST PUSH0 PUSH2 0x1D27 DUP3 PUSH2 0x13AE JUMP JUMPDEST SWAP2 POP PUSH2 0x1D32 DUP4 PUSH2 0x13AE JUMP JUMPDEST SWAP3 POP DUP3 DUP3 SUB SWAP1 POP DUP2 DUP2 GT ISZERO PUSH2 0x1D4A JUMPI PUSH2 0x1D49 PUSH2 0x1A74 JUMP JUMPDEST JUMPDEST SWAP3 SWAP2 POP POP JUMP JUMPDEST PUSH32 0x4E487B7100000000000000000000000000000000000000000000000000000000 PUSH0 MSTORE PUSH1 0x32 PUSH1 0x4 MSTORE PUSH1 0x24 PUSH0 REVERT JUMPDEST PUSH0 DUP2 SLOAD SWAP1 POP PUSH2 0x1D8B DUP2 PUSH2 0x19DC JUMP JUMPDEST SWAP1 POP SWAP2 SWAP1 POP JUMP JUMPDEST PUSH0 DUP2 SWAP1 POP DUP2 PUSH0 MSTORE PUSH1 0x20 PUSH0 KECCAK256 SWAP1 POP SWAP2 SWAP1 POP JUMP JUMPDEST PUSH0 PUSH1 0x20 PUSH1 0x1F DUP4 ADD DIV SWAP1 POP SWAP2 SWAP1 POP JUMP JUMPDEST PUSH0 DUP3 DUP3 SHL SWAP1 POP SWAP3 SWAP2 POP POP JUMP JUMPDEST PUSH0 PUSH1 0x8 DUP4 MUL PUSH2 0x1DEE PUSH32 0xFFFFFFFFFFFFFFFFFFFFFFFFFFFFFFFFFFFFFFFFFFFFFFFFFFFFFFFFFFFFFFFF DUP3 PUSH2 0x1DB3 JUMP JUMPDEST PUSH2 0x1DF8 DUP7 DUP4 PUSH2 0x1DB3 JUMP JUMPDEST SWAP6 POP DUP1 NOT DUP5 AND SWAP4 POP DUP1 DUP7 AND DUP5 OR SWAP3 POP POP POP SWAP4 SWAP3 POP POP POP JUMP JUMPDEST PUSH0 DUP2 SWAP1 POP SWAP2 SWAP1 POP JUMP JUMPDEST PUSH0 PUSH2 0x1E33 PUSH2 0x1E2E PUSH2 0x1E29 DUP5 PUSH2 0x13AE JUMP JUMPDEST PUSH2 0x1E10 JUMP JUMPDEST PUSH2 0x13AE JUMP JUMPDEST SWAP1 POP SWAP2 SWAP1 POP JUMP JUMPDEST PUSH0 DUP2 SWAP1 POP SWAP2 SWAP1 POP JUMP JUMPDEST PUSH2 0x1E4C DUP4 PUSH2 0x1E19 JUMP JUMPDEST PUSH2 0x1E60 PUSH2 0x1E58 DUP3 PUSH2 0x1E3A JUMP JUMPDEST DUP5 DUP5 SLOAD PUSH2 0x1DBF JUMP JUMPDEST DUP3 SSTORE POP POP POP POP JUMP JUMPDEST PUSH0 SWAP1 JUMP JUMPDEST PUSH2 0x1E74 PUSH2 0x1E68 JUMP JUMPDEST PUSH2 0x1E7F DUP2 DUP5 DUP5 PUSH2 0x1E43 JUMP JUMPDEST POP POP POP JUMP JUMPDEST JUMPDEST DUP2 DUP2 LT ISZERO PUSH2 0x1EA2 JUMPI PUSH2 0x1E97 PUSH0 DUP3 PUSH2 0x1E6C JUMP JUMPDEST PUSH1 0x1 DUP2 ADD SWAP1 POP PUSH2 0x1E85 JUMP JUMPDEST POP POP JUMP JUMPDEST PUSH1 0x1F DUP3 GT ISZERO PUSH2 0x1EE7 JUMPI PUSH2 0x1EB8 DUP2 PUSH2 0x1D92 JUMP JUMPDEST PUSH2 0x1EC1 DUP5 PUSH2 0x1DA4 JUMP JUMPDEST DUP2 ADD PUSH1 0x20 DUP6 LT ISZERO PUSH2 0x1ED0 JUMPI DUP2 SWAP1 POP JUMPDEST PUSH2 0x1EE4 PUSH2 0x1EDC DUP6 PUSH2 0x1DA4 JUMP JUMPDEST DUP4 ADD DUP3 PUSH2 0x1E84 JUMP JUMPDEST POP POP JUMPDEST POP POP POP JUMP JUMPDEST PUSH0 DUP3 DUP3 SHR SWAP1 POP SWAP3 SWAP2 POP POP JUMP JUMPDEST PUSH0 PUSH2 0x1F07 PUSH0 NOT DUP5 PUSH1 0x8 MUL PUSH2 0x1EEC JUMP JUMPDEST NOT DUP1 DUP4 AND SWAP2 POP POP SWAP3 SWAP2 POP POP JUMP JUMPDEST PUSH0 PUSH2 0x1F1F DUP4 DUP4 PUSH2 0x1EF8 JUMP JUMPDEST SWAP2 POP DUP3 PUSH1 0x2 MUL DUP3 OR SWAP1 POP SWAP3 SWAP2 POP POP JUMP JUMPDEST DUP2 DUP2 SUB PUSH2 0x1F3D JUMPI POP POP PUSH2 0x2012 JUMP JUMPDEST PUSH2 0x1F46 DUP3 PUSH2 0x1D7D JUMP JUMPDEST PUSH8 0xFFFFFFFFFFFFFFFF DUP2 GT ISZERO PUSH2 0x1F5F JUMPI PUSH2 0x1F5E PUSH2 0x165F JUMP JUMPDEST JUMPDEST PUSH2 0x1F69 DUP3 SLOAD PUSH2 0x19DC JUMP JUMPDEST PUSH2 0x1F74 DUP3 DUP3 DUP6 PUSH2 0x1EA6 JUMP JUMPDEST PUSH0 PUSH1 0x1F DUP4 GT PUSH1 0x1 DUP2 EQ PUSH2 0x1FA1 JUMPI PUSH0 DUP5 ISZERO PUSH2 0x1F8F JUMPI DUP3 DUP8 ADD SLOAD SWAP1 POP JUMPDEST PUSH2 0x1F99 DUP6 DUP3 PUSH2 0x1F14 JUMP JUMPDEST DUP7 SSTORE POP PUSH2 0x200B JUMP JUMPDEST PUSH1 0x1F NOT DUP5 AND PUSH2 0x1FAF DUP8 PUSH2 0x1D92 JUMP JUMPDEST SWAP7 POP PUSH2 0x1FBA DUP7 PUSH2 0x1D92 JUMP JUMPDEST PUSH0 JUMPDEST DUP3 DUP2 LT ISZERO PUSH2 0x1FE1 JUMPI DUP5 DUP10 ADD SLOAD DUP3 SSTORE PUSH1 0x1 DUP3 ADD SWAP2 POP PUSH1 0x1 DUP6 ADD SWAP5 POP PUSH1 0x20 DUP2 ADD SWAP1 POP PUSH2 0x1FBC JUMP JUMPDEST DUP7 DUP4 LT ISZERO PUSH2 0x1FFE JUMPI DUP5 DUP10 ADD SLOAD PUSH2 0x1FFA PUSH1 0x1F DUP10 AND DUP3 PUSH2 0x1EF8 JUMP JUMPDEST DUP4 SSTORE POP JUMPDEST PUSH1 0x1 PUSH1 0x2 DUP9 MUL ADD DUP9 SSTORE POP POP POP JUMPDEST POP POP POP POP POP POP JUMPDEST JUMP JUMPDEST PUSH32 0x4E487B7100000000000000000000000000000000000000000000000000000000 PUSH0 MSTORE PUSH1 0x31 PUSH1 0x4 MSTORE PUSH1 0x24 PUSH0 REVERT JUMPDEST PUSH32 0x416D6F756E74206D7573742062652067726561746572207468616E2030000000 PUSH0 DUP3 ADD MSTORE POP JUMP JUMPDEST PUSH0 PUSH2 0x2075 PUSH1 0x1D DUP4 PUSH2 0x1416 JUMP JUMPDEST SWAP2 POP PUSH2 0x2080 DUP3 PUSH2 0x2041 JUMP JUMPDEST PUSH1 0x20 DUP3 ADD SWAP1 POP SWAP2 SWAP1 POP JUMP JUMPDEST PUSH0 PUSH1 0x20 DUP3 ADD SWAP1 POP DUP2 DUP2 SUB PUSH0 DUP4 ADD MSTORE PUSH2 0x20A2 DUP2 PUSH2 0x2069 JUMP JUMPDEST SWAP1 POP SWAP2 SWAP1 POP JUMP JUMPDEST PUSH2 0x20B2 DUP3 PUSH2 0x140C JUMP JUMPDEST PUSH8 0xFFFFFFFFFFFFFFFF DUP2 GT ISZERO PUSH2 0x20CB JUMPI PUSH2 0x20CA PUSH2 0x165F JUMP JUMPDEST JUMPDEST PUSH2 0x20D5 DUP3 SLOAD PUSH2 0x19DC JUMP JUMPDEST PUSH2 0x20E0 DUP3 DUP3 DUP6 PUSH2 0x1EA6 JUMP JUMPDEST PUSH0 PUSH1 0x20 SWAP1 POP PUSH1 0x1F DUP4 GT PUSH1 0x1 DUP2 EQ PUSH2 0x2111 JUMPI PUSH0 DUP5 ISZERO PUSH2 0x20FF JUMPI DUP3 DUP8 ADD MLOAD SWAP1 POP JUMPDEST PUSH2 0x2109 DUP6 DUP3 PUSH2 0x1F14 JUMP JUMPDEST DUP7 SSTORE POP PUSH2 0x2170 JUMP JUMPDEST PUSH1 0x1F NOT DUP5 AND PUSH2 0x211F DUP7 PUSH2 0x1D92 JUMP JUMPDEST PUSH0 JUMPDEST DUP3 DUP2 LT ISZERO PUSH2 0x2146 JUMPI DUP5 DUP10 ADD MLOAD DUP3 SSTORE PUSH1 0x1 DUP3 ADD SWAP2 POP PUSH1 0x20 DUP6 ADD SWAP5 POP PUSH1 0x20 DUP2 ADD SWAP1 POP PUSH2 0x2121 JUMP JUMPDEST DUP7 DUP4 LT ISZERO PUSH2 0x2163 JUMPI DUP5 DUP10 ADD MLOAD PUSH2 0x215F PUSH1 0x1F DUP10 AND DUP3 PUSH2 0x1EF8 JUMP JUMPDEST DUP4 SSTORE POP JUMPDEST PUSH1 0x1 PUSH1 0x2 DUP9 MUL ADD DUP9 SSTORE POP POP POP JUMPDEST POP POP POP POP POP POP JUMP JUMPDEST PUSH32 0x43616D706169676E206973206E6F742061637469766500000000000000000000 PUSH0 DUP3 ADD MSTORE POP JUMP JUMPDEST PUSH0 PUSH2 0x21AC PUSH1 0x16 DUP4 PUSH2 0x1416 JUMP JUMPDEST SWAP2 POP PUSH2 0x21B7 DUP3 PUSH2 0x2178 JUMP JUMPDEST PUSH1 0x20 DUP3 ADD SWAP1 POP SWAP2 SWAP1 POP JUMP JUMPDEST PUSH0 PUSH1 0x20 DUP3 ADD SWAP1 POP DUP2 DUP2 SUB PUSH0 DUP4 ADD MSTORE PUSH2 0x21D9 DUP2 PUSH2 0x21A0 JUMP JUMPDEST SWAP1 POP SWAP2 SWAP1 POP JUMP JUMPDEST PUSH32 0x43616D706169676E206973207061757365640000000000000000000000000000 PUSH0 DUP3 ADD MSTORE POP JUMP JUMPDEST PUSH0 PUSH2 0x2214 PUSH1 0x12 DUP4 PUSH2 0x1416 JUMP JUMPDEST SWAP2 POP PUSH2 0x221F DUP3 PUSH2 0x21E0 JUMP JUMPDEST PUSH1 0x20 DUP3 ADD SWAP1 POP SWAP2 SWAP1 POP JUMP JUMPDEST PUSH0 PUSH1 0x20 DUP3 ADD SWAP1 POP DUP2 DUP2 SUB PUSH0 DUP4 ADD MSTORE PUSH2 0x2241 DUP2 PUSH2 0x2208 JUMP JUMPDEST SWAP1 POP SWAP2 SWAP1 POP JUMP JUMPDEST PUSH32 0x496E76616C696420546965720000000000000000000000000000000000000000 PUSH0 DUP3 ADD MSTORE POP JUMP JUMPDEST PUSH0 PUSH2 0x227C PUSH1 0xC DUP4 PUSH2 0x1416 JUMP JUMPDEST SWAP2 POP PUSH2 0x2287 DUP3 PUSH2 0x2248 JUMP JUMPDEST PUSH1 0x20 DUP3 ADD SWAP1 POP SWAP2 SWAP1 POP JUMP JUMPDEST PUSH0 PUSH1 0x20 DUP3 ADD SWAP1 POP DUP2 DUP2 SUB PUSH0 DUP4 ADD MSTORE PUSH2 0x22A9 DUP2 PUSH2 0x2270 JUMP JUMPDEST SWAP1 POP SWAP2 SWAP1 POP JUMP JUMPDEST PUSH32 0x496E76616C696420616D6F756E74206261636B65640000000000000000000000 PUSH0 DUP3 ADD MSTORE POP JUMP JUMPDEST PUSH0 PUSH2 0x22E4 PUSH1 0x15 DUP4 PUSH2 0x1416 JUMP JUMPDEST SWAP2 POP PUSH2 0x22EF DUP3 PUSH2 0x22B0 JUMP JUMPDEST PUSH1 0x20 DUP3 ADD SWAP1 POP SWAP2 SWAP1 POP JUMP JUMPDEST PUSH0 PUSH1 0x20 DUP3 ADD SWAP1 POP DUP2 DUP2 SUB PUSH0 DUP4 ADD MSTORE PUSH2 0x2311 DUP2 PUSH2 0x22D8 JUMP JUMPDEST SWAP1 POP SWAP2 SWAP1 POP JUMP JUMPDEST PUSH0 PUSH2 0x2322 DUP3 PUSH2 0x13AE JUMP JUMPDEST SWAP2 POP PUSH32 0xFFFFFFFFFFFFFFFFFFFFFFFFFFFFFFFFFFFFFFFFFFFFFFFFFFFFFFFFFFFFFFFF DUP3 SUB PUSH2 0x2354 JUMPI PUSH2 0x2353 PUSH2 0x1A74 JUMP JUMPDEST JUMPDEST PUSH1 0x1 DUP3 ADD SWAP1 POP SWAP2 SWAP1 POP JUMP INVALID LOG2 PUSH5 0x6970667358 0x22 SLT KECCAK256 0xED 0xE2 BYTE DUP5 0xD 0xC8 PUSH21 0xCE61D0903AC01D8AA5E12CC4CE0DD370126C3F13EE 0xE8 0xB6 STATICCALL 0xEB PUSH5 0x736F6C6343 STOP ADDMOD BYTE STOP CALLER "
				},
				"gasEstimates": {
					"creation": {
						"codeDepositCost": "1821800",
						"executionCost": "infinite",
						"totalCost": "infinite"
					},
					"external": {
						"addTier(string,uint256)": "infinite",
						"backers(address)": "2882",
						"campaign_deadline()": "2513",
						"campaign_description()": "infinite",
						"campaign_name()": "infinite",
						"campaign_owner()": "2618",
						"campaign_paused()": "2540",
						"extendDeadline(uint256)": "infinite",
						"fund(uint256)": "infinite",
						"getCampaignStatus()": "7075",
						"getContractBalance()": "401",
						"getTiers()": "infinite",
						"goal_amount()": "2491",
						"hasFundedTier(address,uint256)": "3234",
						"refund()": "infinite",
						"removeTier(uint256)": "infinite",
						"state()": "2694",
						"tiers(uint256)": "infinite",
						"tooglePause()": "28840",
						"withdraw()": "infinite"
					},
					"internal": {
						"checkAndUpdateCampaignState()": "30878"
					}
				},
				"methodIdentifiers": {
					"addTier(string,uint256)": "8ece7b91",
					"backers(address)": "b85dfb80",
					"campaign_deadline()": "e4efd1dc",
					"campaign_description()": "0574f590",
					"campaign_name()": "4137e733",
					"campaign_owner()": "fdf04ed4",
					"campaign_paused()": "7b4e5c98",
					"extendDeadline(uint256)": "389b7533",
					"fund(uint256)": "ca1d209d",
					"getCampaignStatus()": "10550515",
					"getContractBalance()": "6f9fb98a",
					"getTiers()": "de170570",
					"goal_amount()": "e036a772",
					"hasFundedTier(address,uint256)": "7adba527",
					"refund()": "590e1ae3",
					"removeTier(uint256)": "7497211b",
					"state()": "c19d93fb",
					"tiers(uint256)": "039af9eb",
					"tooglePause()": "d621a776",
					"withdraw()": "3ccfd60b"
				}
			},
			"storageLayout": {
				"storage": [
					{
						"astId": 3,
						"contract": "contracts/crowdFunding.sol:crowdFunding",
						"label": "campaign_name",
						"offset": 0,
						"slot": "0",
						"type": "t_string_storage"
					},
					{
						"astId": 5,
						"contract": "contracts/crowdFunding.sol:crowdFunding",
						"label": "campaign_description",
						"offset": 0,
						"slot": "1",
						"type": "t_string_storage"
					},
					{
						"astId": 7,
						"contract": "contracts/crowdFunding.sol:crowdFunding",
						"label": "goal_amount",
						"offset": 0,
						"slot": "2",
						"type": "t_uint256"
					},
					{
						"astId": 9,
						"contract": "contracts/crowdFunding.sol:crowdFunding",
						"label": "campaign_deadline",
						"offset": 0,
						"slot": "3",
						"type": "t_uint256"
					},
					{
						"astId": 11,
						"contract": "contracts/crowdFunding.sol:crowdFunding",
						"label": "campaign_owner",
						"offset": 0,
						"slot": "4",
						"type": "t_address"
					},
					{
						"astId": 13,
						"contract": "contracts/crowdFunding.sol:crowdFunding",
						"label": "campaign_paused",
						"offset": 20,
						"slot": "4",
						"type": "t_bool"
					},
					{
						"astId": 20,
						"contract": "contracts/crowdFunding.sol:crowdFunding",
						"label": "state",
						"offset": 21,
						"slot": "4",
						"type": "t_enum(campaignState)17"
					},
					{
						"astId": 38,
						"contract": "contracts/crowdFunding.sol:crowdFunding",
						"label": "tiers",
						"offset": 0,
						"slot": "5",
						"type": "t_array(t_struct(tier)27_storage)dyn_storage"
					},
					{
						"astId": 43,
						"contract": "contracts/crowdFunding.sol:crowdFunding",
						"label": "backers",
						"offset": 0,
						"slot": "6",
						"type": "t_mapping(t_address,t_struct(backer)34_storage)"
					}
				],
				"types": {
					"t_address": {
						"encoding": "inplace",
						"label": "address",
						"numberOfBytes": "20"
					},
					"t_array(t_struct(tier)27_storage)dyn_storage": {
						"base": "t_struct(tier)27_storage",
						"encoding": "dynamic_array",
						"label": "struct crowdFunding.tier[]",
						"numberOfBytes": "32"
					},
					"t_bool": {
						"encoding": "inplace",
						"label": "bool",
						"numberOfBytes": "1"
					},
					"t_enum(campaignState)17": {
						"encoding": "inplace",
						"label": "enum crowdFunding.campaignState",
						"numberOfBytes": "1"
					},
					"t_mapping(t_address,t_struct(backer)34_storage)": {
						"encoding": "mapping",
						"key": "t_address",
						"label": "mapping(address => struct crowdFunding.backer)",
						"numberOfBytes": "32",
						"value": "t_struct(backer)34_storage"
					},
					"t_mapping(t_uint256,t_bool)": {
						"encoding": "mapping",
						"key": "t_uint256",
						"label": "mapping(uint256 => bool)",
						"numberOfBytes": "32",
						"value": "t_bool"
					},
					"t_string_storage": {
						"encoding": "bytes",
						"label": "string",
						"numberOfBytes": "32"
					},
					"t_struct(backer)34_storage": {
						"encoding": "inplace",
						"label": "struct crowdFunding.backer",
						"members": [
							{
								"astId": 29,
								"contract": "contracts/crowdFunding.sol:crowdFunding",
								"label": "total_contribution",
								"offset": 0,
								"slot": "0",
								"type": "t_uint256"
							},
							{
								"astId": 33,
								"contract": "contracts/crowdFunding.sol:crowdFunding",
								"label": "fundedTiers",
								"offset": 0,
								"slot": "1",
								"type": "t_mapping(t_uint256,t_bool)"
							}
						],
						"numberOfBytes": "64"
					},
					"t_struct(tier)27_storage": {
						"encoding": "inplace",
						"label": "struct crowdFunding.tier",
						"members": [
							{
								"astId": 22,
								"contract": "contracts/crowdFunding.sol:crowdFunding",
								"label": "tier_name",
								"offset": 0,
								"slot": "0",
								"type": "t_string_storage"
							},
							{
								"astId": 24,
								"contract": "contracts/crowdFunding.sol:crowdFunding",
								"label": "amount",
								"offset": 0,
								"slot": "1",
								"type": "t_uint256"
							},
							{
								"astId": 26,
								"contract": "contracts/crowdFunding.sol:crowdFunding",
								"label": "backers",
								"offset": 0,
								"slot": "2",
								"type": "t_uint256"
							}
						],
						"numberOfBytes": "96"
					},
					"t_uint256": {
						"encoding": "inplace",
						"label": "uint256",
						"numberOfBytes": "32"
					}
				}
			},
			"userdoc": {
				"kind": "user",
				"methods": {},
				"version": 1
			}
		}
	}
}